:020000040800F2
:10000000900800246D030008694200085140000870
:1000100015420008C7050008D9510008000000007B
:10002000000000000000000000000000394500084A
:10003000CB050008000000006D4200083B450008A9
:100040008703000887030008870300088703000868
:100050008703000887030008870300088703000858
:100060008703000887030008870300088703000848
:100070008703000887030008870300088703000838
:100080008703000887030008870300085506000857
:100090008703000887030008870300088703000818
:1000A00087030008DD46000887030008870300086F
:1000B00087030008870300088703000887030008F8
:1000C00087030008870300088703000887030008E8
:1000D00087030008870300088703000887030008D8
:1000E000870300088703000800000000870300085A
:1000F00087030008870300088703000887030008B8
:1001000087030008870300088703000887030008A7
:100110008703000887030008870300088703000897
:100120008703000887030008870300088703000887
:100130008703000887030008870300088703000877
:1001400000000000000000000000000000000000AF
:100150008703000887030008870300088703000857
:100160008703000887030008870300088703000847
:1001700087030008870300088703000800000000C9
:100180008703000887030008870300088703000827
:100190008703000887030008870300088703000817
:1001A0008703000887030008870300080000000099
:1001B00087030008870300088703000887030008F7
:1001C000870300088703000800000000000000000B
:1001D000000000000000000087030008000000008D
:1001E000000000000000000000000000000000000F
:1001F00000000000000000008703000887030008DB
:100200008703000887030008000000008703000838
:100210008703000887030008870300088703000896
:1002200087030008000000008703000800000000AA
:100230008703000887030008000000008703000808
:100240008703000887030008870300088703000866
:100250008703000887030008870300088703000856
:100260008703000887030008870300088703000846
:1002700087030008870300088703000800000000C8
:100280008703000887030008870300088703000826
:10029000000000008703000887030008000000003A
:1002A0000000000087030008870300088703000898
:1002B00087030008870300088703000887030008F6
:1002C00087030008870300088703000800F002F88E
:1002D00000F03CF80AA090E8000C82448344AAF1A4
:1002E0000107DA4501D100F031F8AFF2090EBAE8A2
:1002F0000F0013F0010F18BFFB1A43F0010318475A
:100300005C5000007C500000103A24BF78C878C1CF
:10031000FAD8520724BF30C830C144BF04680C600B
:10032000704700000023002400250026103A28BF53
:1003300078C1FBD8520728BF30C148BF0B60704757
:100340001FB504F0BBFF1FBD10B510BD00F001F9D3
:100350001146FFF7F5FF04F05DFF00F01FF903B44D
:10036000FFF7F2FF03BC00F027F9000009488047BF
:1003700009480047FEE7FEE7FEE7FEE7FEE7FEE787
:10038000FEE7FEE7FEE7FEE704480549054A064B9F
:1003900070470000FD450008CD02000890020024CF
:1003A00090080024900400249004002453EA020CD6
:1003B00000F069802DE9F04B4FF00006002B1FBFC5
:1003C000B3FA83F503FA05F424FA05F65E4012BF8A
:1003D0001643B2FA82F502FA05F4C5F120051EBFF4
:1003E00022FA05FC44EA0C04203556EA044C4FEA94
:1003F000144418BF641C4FF000084FF000099042ED
:1004000071EB030C39D3002919BFB1FA81F701FA56
:1004100007F6B0FA80F700FA07F6C7F120071EBF0B
:1004200020FA07FC46EA0C062037B6FBF4FCA7EBE3
:100430000507103F07F01F0BCBF120060CFA0BFB52
:100440002CFA06F644BFB3460026202FA4BF5E4612
:100450004FF0000B5BEA060C08BF4FF0010B19EBE5
:100460000B09ABFB027C48EB0608C01B06FB02CC69
:100470000BFB03CC71EB0C01C1E70B460246414676
:100480004846BDE8F08B13B54FF000004FF0000177
:10049000AFF30080BDE81C40704710B5203AC0F0B3
:1004A0000B80B1E81850203AA0E81850B1E8185075
:1004B000A0E81850BFF4F5AF5FEA027C24BFB1E8B2
:1004C0001850A0E8185044BF18C918C0BDE8104023
:1004D0005FEA827C24BF51F8043B40F8043B08BF2C
:1004E0007047D20728BF31F8023B48BF11F8012BF3
:1004F00028BF20F8023B48BF00F8012B70474FF09F
:10050000000200B5134694469646203922BFA0E863
:100510000C50A0E80C50B1F12001BFF4F7AF09076F
:1005200028BFA0E80C5048BF0CC05DF804EB890060
:1005300028BF40F8042B08BF704748BF20F8022BA3
:1005400011F0804F18BF00F8012B704770477047BB
:100550007047754600F02CF8AE46050069465346D4
:1005600020F00700854618B020B5FFF70DFFBDE865
:1005700020404FF000064FF000074FF000084FF00A
:10058000000B21F00701AC46ACE8C009ACE8C0099B
:10059000ACE8C009ACE8C0098D46704710B5044608
:1005A000AFF300802046BDE81040FFF7D8BE000042
:1005B000004870472C02002401491820ABBEFEE71A
:1005C00026000200704700BFFEE770471CB5FF2001
:1005D0008DF800008DF801008DF802008DF8030001
:1005E0008DF804008DF805008DF80600FC208DF8CC
:1005F000070008236A4603480188034803F01AFEEF
:100600001CBD000028000024AC00002472B600BF0E
:10061000FEE7000000B589B00020019002900120A3
:1006200004900220039000200590069001A908483C
:1006300000F041FA08B1FFF7E9FF0020034602226B
:1006400011460090024800F08AFA09B000BD00008F
:10065000AC00002410B5024800F09AFB10BD000069
:10066000AC00002410B501464A6B0868D0F884003D
:100670004FF6FC74A04340EA82000C68C4F8840082
:100680000868D0F8840020F47F04088F44EA004012
:100690000C68C4F88400886B02440868D0F88800AD
:1006A0004FF6FC74A04340EA82000C68C4F888004E
:1006B0000868D0F8880020F4FE04888F44EA0040DF
:1006C0000C68C4F88800C86B02EB40020868D0F8D8
:1006D000A0004FF6FC74A04340EA82000C68C4F806
:1006E000A0000868D0F8A00020F4FE044020405A82
:1006F00044EA00400C68C4F8A000D1E9104004FBB3
:1007000000220868D0F8B0004FF6FC74A04340EA1D
:1007100082000C68C4F8B0000868D0F8B00020F47B
:10072000FE04B1F8480044EA00400C68C4F8B00088
:10073000D1E9124004FB00220868D0F8AC004FF663
:10074000FC74A04340EA82000C68C4F8AC00D1E914
:10075000144004FB00220868D0F8F0004FF6FC7447
:10076000A04340EA82000C68C4F8F0000868D0F8A2
:10077000F00020F47C14B1F8580044EA00400C6802
:10078000C4F8F000886D02EB40020868D0F8C000A1
:100790004FF6FC74A04340EA82000C68C4F8C00025
:1007A0000868D0F8C00020F47C14B1F85C0044EA7A
:1007B00000400C68C4F8C0000868D0F8C00020F001
:1007C0007C5491F8600044EA00600C68C4F8C000F2
:1007D0002A4C486B04EB8000C866CC6E886B04EB37
:1007E00080040C670C6FC86B04EBC0044C67D1E944
:1007F000100460434C6F04EB80048C67D1E9120451
:1008000060438C6F04EB8004CC67D1E9140460432F
:10081000CC6F04EB8004802044504458886D04EB76
:10082000C004842044508C6EC86D60438424645896
:1008300004EB8004882044508C6E086E604388244A
:10084000645804EB80049020445040580C4CA04263
:1008500009D99831486840F020004860032001F829
:100860009809012010BDCB6E02E0002018601B1D0E
:10087000902040589842F8D80020F3E700AC0040A0
:10088000FCD300402DE9F041054614461E46D1F840
:1008900004C0BCF1000F0AD1D1F810C0D1F8088013
:1008A0004CEA080CB1F800804CEA88430BE0D1F820
:1008B00010C04CF0804CD1F808804CEA080CD1F8FC
:1008C00000804CEA080391F82080D1F81CC04CEA63
:1008D000086CD1F818804CEA080CD1F814804CEA66
:1008E000080CB1F80C804CEA0847D5F868C00CFB3E
:1008F00006FCD5F8848008EB8C021360121D17608B
:10090000121D002019E000F1030C14F80CC04FEA8E
:100910000C6800F1020C14F80CC048EA0C4800F115
:10092000010C14F80CC048EA0C2C14F800804CEAB6
:10093000080CC2F800C0121D001DDFF81480D1F8A9
:100940000CC018F80CC08445DDD8BDE8F08100006B
:10095000C852000870B5044600F000FF0646254660
:10096000681C10B104480078054400BF00F0F6FE92
:10097000801BA842FAD370BD1C00002430B503468A
:1009800093F89840012C01D0022C3ED11868806D5C
:10099000084030B91868C06D40F001001D68E86576
:1009A0000EE01868806D0840884206D11868C06D56
:1009B00040F002001D68E86502E003201D68E8655C
:1009C00001F4007030B11868D0F8E00010431D68E1
:1009D000C5F8E00001F4806030B11868D0F8E40098
:1009E00010431D68C5F8E40000BF1868406D0B4D4A
:1009F0000D4028431D6868650948006840EA917009
:100A0000074D286000BF002030BDD3F89C0040F0A7
:100A10000200C3F89C000120F6E70000FFFFCF3F73
:100A200014A800402DE9F04104460E4617467068B0
:100A300000B900E000BF94F89800022832D1206885
:100A4000D0F8C00000F07C5040B9D4F89C0040F0D1
:100A50002000C4F89C000120BDE8F0812068D0F897
:100A6000C40000F4001038B1D4F89C0040F40070C9
:100A7000C4F89C000120EFE72068D0F8C400C0F360
:100A800004452B463A4631462046FFF7FBFE01203F
:100A9000A8402168C1F8D0000120A840C4F8940003
:100AA0000020D9E7D4F89C0040F00800C4F89C006E
:100AB0000120D1E77047F0B5024692F89860012E08
:100AC00001D0022E43D1C868072800D100BF0868B2
:100AD00018BBC868072800D000BFC86807280BD11A
:100AE000088A4FF0605747EA0040CF6940EA072084
:100AF0008F6940EA07040AE0087A80070F7B40EA22
:100B0000C7600F8A40EA07404F6940EA0704D76E82
:100B1000486807EB80031C6017E0C868072800D00E
:100B200000BF0F7B086940EA4774C868072801D1F5
:100B30008D6903E00F7A486940EA8775176F486846
:100B400007EBC0031C601B1D1D600020F0BDD2F828
:100B50009C0040F00200C2F89C000120F6E770B54E
:100B60000446049D94F8980001280AD1080140EA3F
:100B7000820040EA430028432668C6F8800000202F
:100B800070BDD4F89C0040F00400C4F89C00012023
:100B9000F6E77047704700002DE9F04304460D4624
:100BA0009C46002394F89880B8F1020F74D1402D30
:100BB00038D12068D0F8A00000F4FE0040B9D4F885
:100BC0009C0040F02000C4F89C000120BDE8F083A8
:100BD0002068D0F8A40000F07F0038B9D4F89C0059
:100BE00040F48070C4F89C000120EFE72068D0F842
:100BF000A400C0F3006040B12068D0F8A0004FF01E
:100C00000109B9EBD07F00D101232068D0F8A400FE
:100C1000C0F305200344606C5843D4F8749009EB8A
:100C200080014BE0412D38D12068D0F8B00000F4AD
:100C3000FE0038B9D4F89C0040F02000C4F89C00B5
:100C40000120C3E72068D0F8B40000F07F0038B975
:100C5000D4F89C0040F48070C4F89C000120B5E7F3
:100C60002068D0F8B400C0F3006040B12068D0F82C
:100C7000B0004FF00109B9EBD07F00D1012320680B
:100C8000D0F8B400C0F305200344E06C5843D4F816
:100C9000789009EB800111E06DE0206DA84207D843
:100CA000D4F89C0040F02000C4F89C0001208DE79F
:100CB000606D6843D4F87C9009EB8001086800F00F
:100CC00080405060506820B90868C0F38A401060C6
:100CD00003E0086820F060401060086800F00050F1
:100CE0009060086800F000401061091D088880B21B
:100CF000D0610868C0F30340D060086800F4801039
:100D00005061086800F4001090610868C0F3066044
:100D100010620868C00F5062091D0F46002603E0EC
:100D2000B85D0CF80600761CDFF85C90D06819F806
:100D30000000B042F4D8402D03D12068C0F8A8309C
:100D400017E0412D03D12068C0F8B83011E0202D04
:100D500006D20120A840D4F80090C9F8980008E015
:100D600005F01F09012000FA09F0D4F80090C9F835
:100D70009C0000202AE7D4F89C0040F00800C4F84A
:100D80009C00012022E70000C852000870470000C4
:100D90002DE9F04F8DB00446EF4800688707EE4814
:100DA000001D006807EA80772068006D00F4704835
:100DB0002068406D00EA08082068006D00F00F0907
:100DC0002068406D00EA09092068006D00F0F00A13
:100DD0002068406D00EA0A0A2068006D00F0715B2F
:100DE0002068406D00EA0B0B2068006D00F0607019
:100DF0000C902068406D0C9908400C902068456D5F
:100E00002068066DC5F3002070B1C6F3002058B10C
:100E100000BF4FF48070216808650020CE4908604B
:100E200000BF2046FFF7B2FFC5F38020C8B1C6F36C
:100E30008020B0B12068D0F8DC000A902068D0F89B
:100E4000E4000A9908400A9000BF4FF480602168CE
:100E500008650020C049086000BF20460A9900F0DC
:100E600080FB67B100BFBD48384021680865B80FF6
:100E7000B949086000BF39462046FFF71BFEB8F1AC
:100E8000000F0ED000BFB54808EA000021680865D1
:100E90004FEA9870B049086000BF4146204600F014
:100EA00062FBB9F1000F0ED000BFAC4809EA0000A8
:100EB000216808654FEA9970A749086000BF494654
:100EC000204600F019FBBAF1000F0ED000BFA34876
:100ED0000AEA0000216808654FEA9A709E49086096
:100EE00000BF5146204600F01BFBC5F3C02070B187
:100EF000C6F3C02058B100BF4FF4006021680865F8
:100F000000209549086000BF204600F02DFBC5F386
:100F10004020C8B1C6F34020B0B12068D0F8D80056
:100F20000B902068D0F8E0000B9908400B9000BFB0
:100F30004FF400702168086500208749086000BFF1
:100F400020460B9900F00EFBC5F3C04070B1C6F30C
:100F5000C04058B100BF4FF4002021680865002050
:100F60007D49086000BF204600F0C4FAC5F3004088
:100F700070B1C6F3004058B100BF4FF48030216813
:100F8000086500207449086000BF204600F0E8FAB8
:100F9000C5F3804070B1C6F3804058B100BF4FF434
:100FA00080202168086500206B49086000BF20464A
:100FB00000F0D5FAC5F3404088B1C6F3404070B1A7
:100FC00000BF4FF4003021680865002062490860C6
:100FD00000BFD4F89C0040F08000C4F89C000C983E
:100FE00070B100BF5D490C980840216808650C98F5
:100FF000800F5949086000BF20460C99FFF7CAFDD1
:10100000BBF1000F10D000BF54480BEA000021686C
:1010100008654FEA9B705049086000BFD4F89C00F7
:1010200040EA0B00C4F89C004D49206888427DD1FD
:101030006068806800F00300002877D06068006A6C
:1010400000F00F0009906068406A09990840099013
:101050006068006A00F0300008906068406A089993
:10106000084008906068006A00F4C07007906068EB
:10107000406A0799084007906068006A00F4FC40E5
:1010800006906068406A0699084006906068006AA9
:1010900000F4F02005906068406A059908400590CA
:1010A0006068406A02906068006A0190099830B1F7
:1010B0000998616808622046099900F04DFA08987D
:1010C00030B10898616808622046089900F046FA35
:1010D0000298C0F38010A0B10198C0F3801080B1D5
:1010E0006068C06B000C04906068C06B00F03F004B
:1010F00003904020616808622046DDE9032100F08A
:101100002CFA079830B10798616808622046079961
:1011100000F021FA069840B1069861680862D4F898
:101120009C0006990843C4F89C0000E00AE005987A
:1011300040B1059861680862D4F89C00059908439D
:10114000C4F89C00D4F89C0010B12046FFF721FDA4
:101150000DB0BDE8F08F000010A80040FFFFCF3FAA
:1011600000A0004070B594B004464C22B34901A8D9
:10117000FFF793F914B9012014B070BDB04920688D
:10118000884203D1206800F580706060A068B0F5E7
:10119000407F00D100BF206C00B100BFA06C00B147
:1011A00000BF206D00B100BF206E00B100BFD4E9C8
:1011B0001710084400B100BF94F8980028B9002027
:1011C00084F89900204600F03DF92068806920F0FD
:1011D00010002168886100F0C1FA05460EE000F0B9
:1011E000BDFA401B0A2809D99834606840F0010014
:1011F0006060032004F898090120BDE72068806939
:1012000000F008000828EAD02068806940F001005A
:101210002168886100F0A2FA05460EE000F09EFA0F
:10122000401B0A2809D99834606840F001006060CA
:10123000032004F8980901209EE72068806900F0E7
:1012400001000028EAD02068806940F0020021688F
:101250008861207C012806D12068806920F0400048
:101260002168886105E02068806940F040002168BD
:101270008861607C012806D12068806940F4804044
:101280002168886105E02068806920F48040216839
:101290008861A07C012806D12068806920F48050F4
:1012A0002168886105E02068806940F480502168E9
:1012B00088612068806920F44070A1680843216833
:1012C00088612068806920F0A40021688861206816
:1012D000006920F0100021680861E068012806D14B
:1012E0002068806940F004002168886120E0E0689F
:1012F000F0B1E068022815D02068806940F08000D5
:10130000216888612068006940F010002168086148
:10131000E06803280CD12068806940F02000216833
:10132000886105E02068806940F0200021688861BC
:10133000207E401E4106E069401E41EA0020216AED
:10134000491E0843A18A491E40EA01402168C8613C
:10135000A068B0F5407F0FD1A06A401EE16A491E27
:1013600040EA0121206B401E41EA0011A08C401E82
:1013700041EA00402168C860206E38B12068D0F88A
:10138000C000616E08432168C1F8C000D4E917109D
:10139000084460B12068D0F8C80020F0070001AA16
:1013A000A16E52F8211008432168C1F8C800206CD2
:1013B00060B12068D0F8BC0020F0070001AA616C81
:1013C00052F8211008432168C1F8BC00A06C68B134
:1013D0002068D0F8BC0020F0700101AAE06C52F83F
:1013E000200041EA00102168C1F8BC00206D68B1FE
:1013F0002068D0F8BC0020F4E06101AA606D52F8CA
:10140000200041EA00202168C1F8BC000C49206896
:10141000884205D16068806820F0030061688860B8
:10142000002044F8940FA06001202071943C2046D5
:10143000FFF718F9064630469EE60000D85200082D
:1014400000A0004010B5B6B00446142130A8FFF744
:1014500056F8B82102A8FFF752F8234920688842BD
:101460003FD14FF400410020CDE9021048031D9008
:1014700002A800F0CFFC08B1FFF7C8F800BF1B4876
:10148000006840F48070194908600846006800F45C
:101490008070019000BF00BF00BF14480C38006886
:1014A00040F0080011490C3908600846006800F057
:1014B0000800019000BF00BF03203090022031904F
:1014C0000020329033900920349030A9084800F071
:1014D0004DF800221146132000F0D8F9132000F037
:1014E000C1F936B010BD000000A00040EC44025825
:1014F000000C02587047000070B504460D460548C0
:10150000844205D1044B054A40212046FFF744FBA5
:1015100070BD0000AC000024000000248400002402
:101520007047014691F8980001280CD1022081F8FB
:1015300098000868806920F001000A689061002026
:10154000C1F89C007047D1F89C0040F00400C1F83D
:101550009C000120F6E7704770477047704770475E
:10156000704770477047704770470000F8B50246F3
:101570000B4600216D4DD2E001278F401E6806EA20
:101580000704002C72D01E7906F00306012E04D049
:101590001E7906F00306022E13D190684F00032631
:1015A000BE40B0434F00DE68BE403043906050689C
:1015B00001268E40B0431E79C6F300168E4030439C
:1015C00050601E7906F00306032E09D0D0684F0044
:1015D0000326BE40B0434F009E68BE403043D060FB
:1015E0001E7906F00306022E13D1CF0802F1200661
:1015F00056F827004E07F70E0F26BE40B0434F07A0
:10160000FF0E1E69BE403043CF0802F1200646F8A7
:10161000270010684F000326BE40B0431E7906F035
:1016200003064F00BE40304310605E6806F440364B
:10163000002E73D000BF3E4E366846F002063C4F87
:101640003E603E46366806F00206009600BF00BFC8
:10165000384E8F0856F827008E07370F0F26BE40EA
:10166000B043354EB24202D1002629E056E0334E57
:10167000B24201D1012623E0314EB24201D102260D
:101680001EE0304EB24201D1032619E02E4EB24286
:1016900001D1042614E02D4EB24201D105260FE0FF
:1016A0002B4EB24201D106260AE02A4EB24201D1A7
:1016B000072605E0284EB24201D1092600E00A269D
:1016C0008F073F0FBE4030431A4E8F0846F8270061
:1016D0004FF0B0463068A0435E6806F4801606B14D
:1016E00020434FF0B04630607068A0435E6806F457
:1016F000001606B120434FF0B04670606868A04302
:101700005E6806F4003606B1204368602868A0438E
:101710005E6806F4803606B120432860491C1E68C6
:10172000CE40002E7FF428AFF8BD000080000058A6
:10173000F4440258080400580000025800040258FB
:1017400000080258000C02580010025800140258F9
:1017500000180258001C0258002402580148006872
:10176000704700001400002403480068034909780A
:101770000844014908607047140000241C0000243C
:1017800010B5032000F0C0F801F082FB1049096891
:10179000C1F303210F4A515C01F01F0120FA01F44B
:1017A0000B48006800F00F001146085C00F01F00B5
:1017B00024FA00F00849086008480460032000F09B
:1017C0000FF808B1012010BD00F036F80020FAE74C
:1017D000184402584C530008240000242000002420
:1017E00070B504461148007808B9012070BD0F4853
:1017F00000784FF47A71B1FBF0F00D490968B1FB44
:10180000F0F5284602F008F808B10120EEE7102CA8
:1018100007D200222146501E00F038F80548046027
:1018200001E00120E2E70020E0E700001C000024C6
:10183000200000241800002408B500BF08480068F4
:1018400040F00200064908600846006800F0020007
:10185000009000BF00BF052000F056F808BD000052
:10186000F44402580146084600280DDB00BF00BFC3
:1018700000F01F0301229A4043099B0003F1E0237B
:10188000C3F8002100BF00BF00BF70472DE9F05F23
:1018900080460D46164603F0A1FC074639462A4607
:1018A000334601F00700C0F1070ABAF1040F02D96C
:1018B0004FF0040A01E0C0F1070AD14600F1040A22
:1018C000BAF1070F02D24FF0000A01E0A0F1030ABB
:1018D000D4464FF0010A0AFA09FAAAF1010A0AEA03
:1018E000020A0AFA0CFA4FF0010B0BFA0CFBABF1EF
:1018F000010B0BEA030B4AEA0B042146404603F0B6
:1019000075FCBDE8F09F000000BF00F00702064B29
:1019100019684FF6FF031940044B0B4343EA0221B9
:10192000014B196000BF70470CED00E00000FA05A4
:1019300070B5044615480068C0F3800048B91348E4
:10194000006800F00700A04201D0012070BD002017
:10195000FCE70E48006820F0070020430B490860B0
:10196000FFF7FCFE054607E0FFF7F8FE401BB0F569
:101970007A7F01D90120E9E7044808380068C0F3FC
:1019800040300028F0D00020E0E700000C4802586A
:1019900010B501F033FA05490968C1F30211044A90
:1019A000515C01F01F01C84010BD000020440258E6
:1019B0004C53000870B50146844D2D6805F00303B3
:1019C000824D2D68C5F30530804D2D1D2D68C5F362
:1019D00000147E4D14352D68C5F3CC0515FB04F5B8
:1019E00001EE105AB8EE411AF0EE410A00286FD00D
:1019F00023B1012B4ED0022B6BD16BE0734D283DF0
:101A00002D68C5F340153DB3704D283D2D68C5F3D5
:101A1000C1066F4D25FA06F201EE102AF8EE411AC2
:101A200001EE100AB8EE411A81EE812A9FED691A83
:101A3000C0EE811A654D10352D68C5F3080501EE1D
:101A4000105AB8EE411A31EE811AF7EE001A31EE53
:101A5000211A22EE010A1CE001EE100AB8EE411A2A
:101A6000DFED5D1A81EE812A9FED5A1AC0EE811AD0
:101A7000564D10352D68C5F3080501EE105AB8EE25
:101A8000411A31EE811AF7EE001A31EE211A22EED8
:101A9000010A5BE001EE100AB8EE411ADFED4F1AC1
:101AA00081EE812A9FED4B1AC0EE811A474D103509
:101AB0002D68C5F3080501EE105AB8EE411A31EE53
:101AC000811AF7EE001A31EE211A22EE010A3DE0EA
:101AD00077E01DE001EE100AB8EE411A9FED402AB2
:101AE000C2EE011A9FED3B1A80EE812A374D103568
:101AF0002D68C5F3080501EE105AB8EE411A32EE12
:101B0000011AB7EE002A31EE021A21EE810A1DE019
:101B100001EE100AB8EE411ADFED301A81EE812A8B
:101B20009FED2C1AC0EE811A284D10352D68C5F393
:101B3000080501EE105AB8EE411A31EE811AF7EE9F
:101B4000001A31EE211A22EE010A00BF00BF1F4D1C
:101B500010352D68C5F3462501EE105AB8EE411A2E
:101B6000F7EE001A31EE211AC0EE011ABCEEE11AAE
:101B700081ED001A154D10352D68C5F3064501EEAF
:101B8000105AB8EE411AF7EE001A31EE211AC0EEE3
:101B9000011ABCEEE11A81ED011A0C4D10352D68C9
:101BA000C5F3066501EE105AB8EE411AF7EE001AB9
:101BB00031EE211AC0EE011ABCEEE11A81ED021AD3
:101BC00003E000250D604D608D6070BD2844025813
:101BD0000090D003000000460024744C0024744A96
:101BE000001BB74B70B50146844D2D6805F003030B
:101BF000824D2D68C5F30550804D2D1D2D68C5F310
:101C000000247E4D1C352D68C5F3CC0515FB04F56D
:101C100001EE105AB8EE411AF0EE410A00286FD0DA
:101C200023B1012B4ED0022B6BD16BE0734D283DBD
:101C30002D68C5F340153DB3704D283D2D68C5F3A3
:101C4000C1066F4D25FA06F201EE102AF8EE411A90
:101C500001EE100AB8EE411A81EE812A9FED691A51
:101C6000C0EE811A654D18352D68C5F3080501EEE3
:101C7000105AB8EE411A31EE811AF7EE001A31EE21
:101C8000211A22EE010A1CE001EE100AB8EE411AF8
:101C9000DFED5D1A81EE812A9FED5A1AC0EE811A9E
:101CA000564D18352D68C5F3080501EE105AB8EEEB
:101CB000411A31EE811AF7EE001A31EE211A22EEA6
:101CC000010A5BE001EE100AB8EE411ADFED4F1A8F
:101CD00081EE812A9FED4B1AC0EE811A474D1835CF
:101CE0002D68C5F3080501EE105AB8EE411A31EE21
:101CF000811AF7EE001A31EE211A22EE010A3DE0B8
:101D000077E01DE001EE100AB8EE411A9FED402A7F
:101D1000C2EE011A9FED3B1A80EE812A374D18352D
:101D20002D68C5F3080501EE105AB8EE411A32EEDF
:101D3000011AB7EE002A31EE021A21EE810A1DE0E7
:101D400001EE100AB8EE411ADFED301A81EE812A59
:101D50009FED2C1AC0EE811A284D18352D68C5F359
:101D6000080501EE105AB8EE411A31EE811AF7EE6D
:101D7000001A31EE211A22EE010A00BF00BF1F4DEA
:101D800018352D68C5F3462501EE105AB8EE411AF4
:101D9000F7EE001A31EE211AC0EE011ABCEEE11A7C
:101DA00081ED001A154D18352D68C5F3064501EE75
:101DB000105AB8EE411AF7EE001A31EE211AC0EEB1
:101DC000011ABCEEE11A81ED011A0C4D18352D688F
:101DD000C5F3066501EE105AB8EE411AF7EE001A87
:101DE00031EE211AC0EE011ABCEEE11A81ED021AA1
:101DF00003E000250D604D608D6070BD28440258E1
:101E00000090D003000000460024744C0024744A63
:101E1000001BB74B2DE9F04104460025A8464FF0C2
:101E20000062D4E9001011400020134659404040A0
:101E3000014331D1606E48B1B0F5801F0DD0B0F5CF
:101E4000001F11D0B0F5401F16D114E0FE48006805
:101E500040F40030FC49086010E0022104F1080061
:101E600002F006FA054609E0022104F1280002F01A
:101E7000B1FA054602E001E0012500BF00BF55B9F7
:101E8000F1482430006820F44010616E0843EE49A8
:101E90002431086000E0A8464FF48072D4E90010B5
:101EA0001140002013465940404001432ED1A06DFF
:101EB00005281BD2DFE800F0030A11181900E248D8
:101EC000006840F40030E049086011E0002104F1AE
:101ED000080002F0CDF905460AE0002104F12800CF
:101EE00002F078FA054603E002E001E0012500BFB8
:101EF00000BF55B9D4482430006820F00700A16D18
:101F00000843D1492431086000E0A8464FF48062BC
:101F1000D4E90010114000201346594040400143CD
:101F20003DD1D4F8A400B0F5C00F24D007DC68B1CF
:101F3000B0F5001F11D0B0F5800F1FD114E0B0F53F
:101F4000000F19D0B0F5200F18D116E0BE48006878
:101F500040F40030BC49086012E0002104F10800A0
:101F600002F086F905460BE0002104F1280002F09A
:101F700031FA054604E003E002E001E0012500BF7C
:101F800000BF5DB9B0482C30006820F46000D4F880
:101F9000A4100843AC492C31086000E0A8464FF477
:101FA0000062D4E900011040002113465840494026
:101FB00008433DD1D4F8A800B0F1407F24D007DC1D
:101FC00068B1B0F1807F11D0B0F1007F1FD114E073
:101FD000B0F1806F19D0B0F1A06F18D116E09A4817
:101FE000006840F400309849086012E0002104F1D4
:101FF000080002F03DF905460BE0002104F128003D
:1020000002F0E8F9054604E003E002E001E0012502
:1020100000BF00BF5DB98C482C30006820F0E06044
:10202000D4F8A810084388492C31086000E0A8467D
:102030004FF00073D4E9001019400020594040408F
:10204000014328D1E06CA8B1102804D0202809D081
:10205000302810D10DE07C48006840F400307A4907
:1020600008600AE0022104F1080002F001F90546C7
:1020700003E002E001E0012500BF00BF55B972484E
:102080002030006820F03000E16C08436E492031B8
:10209000086000E0A8464FF48053D4E900101940CE
:1020A000002059404040014337D1E06DB0F5005F5A
:1020B0001AD004DC50B1B0F5805F1ED10DE0B0F550
:1020C000405F18D0B0F5804F17D115E05E4800682A
:1020D00040F400305C49086011E0002104F1080080
:1020E00002F0C6F805460AE0002104F1280002F0DB
:1020F00071F9054603E002E001E0012500BF00BFE1
:1021000055B951482430006820F4E040E16D08439F
:102110004D492431086000E0A8464FF40053D4E94B
:1021200000101940002059404040014335D1206E35
:10213000B0F5403F1ED007DC68B1B0F5803F0BD052
:10214000B0F5003F19D10EE0B0F5802F13D0B0F5F7
:10215000A02F12D110E012E0012104F1080002F0DA
:1021600087F805460BE0012104F1280002F032F95E
:10217000054604E003E002E001E0012500BF00BFE6
:1021800055B931482430006820F4E020216E08431E
:102190002D492431086000E0A8464FF48042D4E97C
:1021A000000110400021134658404940084337D1F0
:1021B000D4F8AC00B0F1405F1ED007DC68B1B0F1DC
:1021C000805F0BD0B0F1005F19D10EE0B0F1804F0D
:1021D00013D0B0F1A04F12D110E012E0012104F1B0
:1021E000080002F045F805460BE0012104F1280043
:1021F00002F0F0F8054604E003E002E001E001250A
:1022000000BF00BF5DB910482C30006820F0E040EE
:10221000D4F8AC1008430C492C31086000E0A84603
:102220004FF40043D4E900011840002158404940D0
:1022300008432AD1E06EB8B1B0F1805F06D0B0F1AA
:10224000005F12D109E000002C440258F9480068F0
:1022500040F40030F749086009E0012104F108006A
:1022600002F006F8054602E001E0012500BF00BFCC
:1022700055B9F0482430006820F04050E16E084322
:10228000EC492431086000E0A8464FF08073D4E99F
:1022900000101940002059404040014328D1A06C53
:1022A000A8B1012804D0022809D0032810D10DE0DC
:1022B000E048006840F40030DE4908600AE002218E
:1022C00004F1080001F0D4FF054603E002E001E05C
:1022D000012500BF00BF55B9D6482030006820F066
:1022E0000300A16C0843D3492031086000E0A846F0
:1022F0004FF48003D4E900101940002059404040B9
:1023000001437DD1CC48006840F48070CA49086020
:10231000FFF724FA064606E0FFF720FA801B642840
:1023200001D9032505E0C448006800F48070002846
:10233000F2D000BF85BBBF484430006800F4407055
:10234000B4F8B01001F44071884213D0B948443059
:10235000006820F44077B7484430006840F480308B
:10236000B449443108600846006820F480300860B1
:1023700008460760D4F8B000B0F5807F15D1FFF7AC
:10238000EDF9064609E0FFF7E9F9801B41F28831D3
:10239000884202D9032507E038E0A64844300068A7
:1023A000C0F340000028EED000BF55BB00BFB4F81A
:1023B000B00000F44070B0F5407F0ED19D481C384D
:1023C000006820F47C519D4AD4F8B000104041EAE6
:1023D000101098491C39086007E096481C380068BE
:1023E00020F47C5093491C390860924844300068BE
:1023F000B4F8B010C1F30B0108438E49443101E039
:1024000005E001E0086002E0A84600E0A8460122DD
:10241000D4E90001104000211346584049400843C8
:1024200030D1A06F18281AD005DC48B1082808D090
:10243000102817D10CE0202812D0282812D110E043
:1024400012E0012104F1080001F012FF05460BE043
:10245000012104F1280001F0BDFF054604E003E07E
:1024600002E001E0012500BF00BF55B971482830E6
:10247000006820F03800A16F08436E4928310860D9
:1024800000E0A8460223D4E900101940002059407A
:102490004040014329D1606F062816D2DFE800F0E2
:1024A00003040B12131412E0012104F1080001F0DF
:1024B000DFFE05460BE0012104F1280001F08AFF50
:1024C000054604E003E002E001E0012500BF00BF93
:1024D00055B958482830006820F00700616F08435C
:1024E00054492831086000E0A8460422D4E90010CD
:1024F0001140002013465940404001432BD1D4F8ED
:102500009000062816D2DFE800F003040B12131423
:1025100012E0012104F1080001F0AAFE05460BE0DB
:10252000012104F1280001F055FF054604E003E015
:1025300002E001E0012500BF00BF5DB93D482C303D
:10254000006820F00700D4F89010084339492C3176
:10255000086000E0A8462023D4E9000118400021CB
:1025600058404940084337D1D4F88C00B0F1405F5F
:102570001ED007DC68B1B0F1805F0BD0B0F1005F16
:1025800019D10EE0B0F1804F13D0B0F1A04F12D1AD
:1025900010E012E0002104F1080001F069FE054698
:1025A0000BE0022104F1280001F014FF054604E0CD
:1025B00003E002E001E0012500BF00BF5DB91D4856
:1025C0002830006820F0E040D4F88C100843194906
:1025D0002831086000E0A8464023D4E900101940E3
:1025E00000205940404001433CD1D4F89800B0F558
:1025F000406F25D007DC68B1B0F5806F0BD0B0F527
:10260000006F20D10EE0B0F5805F1AD0B0F5A05F6A
:1026100019D117E019E0002104F1080001F028FEAB
:10262000054612E0022104F1280001F0D3FE054620
:102630000BE000002C44025800480258FFFCFF0F3A
:1026400003E002E001E0012500BF00BF4DB9FE48F4
:10265000006820F4E050D4F898100843FA49086064
:1026600000E0A8468023D4E900101940002059401A
:102670004040014335D1D4F89C00B0F5C04F1ED086
:1026800007DC68B1B0F5005F0BD0B0F5804F19D111
:102690000EE0B0F5004F13D0B0F5204F12D110E08E
:1026A00012E0002104F1080001F0E2FD05460BE014
:1026B000022104F1280001F08DFE054604E003E04C
:1026C00002E001E0012500BF00BF4DB9DE4800680F
:1026D00020F46040D4F89C100843DB49086000E017
:1026E000A8460823D4E90001184000215840494079
:1026F000084317D1D4F88000B0F5805F07D10221DC
:1027000004F1280001F066FE08B14FF00108CE4840
:10271000001F006820F44050D4F880100843CA49D4
:10272000091F08601023D4E9000118400021584017
:102730004940084315D1D4F89400B0F5807F07D103
:10274000022104F1280001F045FE08B14FF0010814
:10275000BD48006820F44070D4F894100843BA498A
:1027600008604FF40023D4E90001184000215840CC
:102770004940084327D1D4F8A00030B1B0F5803FDC
:102780000AD0B0F5003F0FD10DE0002104F10800A0
:1027900001F06EFD054609E0022104F1280001F078
:1027A00019FE054602E001E0012500BF00BF4DB95A
:1027B000A548006820F44030D4F8A0100843A2498E
:1027C000086000E0A8464FF48023D4E900011840D7
:1027D00000215840494008432DD1D4F88400B0F579
:1027E000801F06D0B0F5001F0CD0B0F5401F11D1EE
:1027F0000FE095482C38006840F4003092492C399D
:10280000086009E0012104F1280001F0E3FD05461C
:1028100002E001E0012500BF00BF5DB98A48001F4A
:10282000006820F44010D4F8841008438649091F3A
:10283000086000E0A8464FF48032D4E9000110405F
:102840000021134658404940084325D1206D18B156
:10285000B0F5803F10D108E07B482C38006840F488
:10286000003079492C39086008E0022104F10800A1
:1028700001F0FEFC054601E0012500BF00BF55B98F
:1028800071480C38006820F48030216D08436E498F
:102890000C39086000E0A8464FF00053D4E900105E
:1028A0001940002059404040014307D1022104F162
:1028B000280001F08FFD08B14FF001084FF40032FD
:1028C000D4E9000110400021134658404940084314
:1028D00027D1E06FA0B1B0F5807F06D0B0F5007FC2
:1028E0000CD0B0F5407F0CD109E057482C38006877
:1028F00040F4003054492C39086004E003E002E061
:1029000001E0012500BF00BF55B94F48001F006816
:1029100020F44070E16F08434B49091F086000E054
:10292000A8464FF48012D4E900101140002013464D
:1029300059404040014309D143480838006820F01D
:102940000040216F08434049083908604FF40013E4
:10295000D4E900011840002158404940084309D1FA
:1029600039480838006820F08070A16E0843364965
:10297000083908604FF08043D4E900101940002066
:1029800059404040014311D100BF2F4848380068EA
:1029900020F400402C494839086008460068D4F803
:1029A000B410084328494839086000BF4FF000427E
:1029B000D4E9000110400021134658404940084323
:1029C00009D121480C38006820F04050616D08435F
:1029D0001D490C3908604FF40002D4E90010114081
:1029E000002013465940404001430AD11648001FB9
:1029F000006820F44000D4F8881008431249091FE9
:102A000008600122002160681040494050400143A5
:102A100006D104F1080001F02BFC054605B1A846DB
:102A2000022200216068104049405040014307D114
:102A3000012104F1080001F01BFC054605B1A84680
:102A400004230020616801E0584402581940042220
:102A500040405140084307D1022104F1080001F031
:102A600007FC054605B1A846082300206168194007
:102A7000082240405140084307D1002104F12800BA
:102A800001F0A8FC054605B1A846102300206168A6
:102A90001940102240405140084307D1012104F160
:102AA000280001F097FC054605B1A8462022002128
:102AB0006068104049405040014307D1022104F1B1
:102AC000280001F087FC054605B1A846B8F1000FC3
:102AD00002D10020BDE8F0810120FBE72DE9F041A3
:102AE00004460D4614B90120BDE8F081BD480068D8
:102AF00000F00F00A8420ED2BA48006820F00F0084
:102B00002843B84908600846006800F00F00A84252
:102B100001D00120E8E7207800F0040004280ED15D
:102B2000B1492069096801F07001884207D9AE48AF
:102B3000006820F0700021690843AB4908602078E4
:102B400000F00800082811D1A749091D606909682B
:102B500001F07001884209D9A348001D006820F0E7
:102B6000700061690843A049091D0860207800F0E1
:102B70001000102811D19C49091DA069096801F4B1
:102B8000E061884209D99848001D006820F4E0609F
:102B9000A16908439449091D0860207800F02000CD
:102BA000202811D190490831E069096801F07001CD
:102BB000884209D98C480830006820F07000E1692B
:102BC0000843894908310860207800F00200022893
:102BD0000ED18549E068096801F00F01884207D9E4
:102BE0008148006820F00F00E16808437E490860D2
:102BF000207800F00100002850D07B48006820F4C5
:102C00007060A1680843784908606068022807D1AD
:102C1000754818380068C0F34040F8B9012063E7F0
:102C20006068032807D1704818380068C0F3406016
:102C3000A0B9012058E76068012807D16A48183810
:102C40000068C0F3002048B901204DE766481838F5
:102C50000068C0F3800008B9012045E762480838E1
:102C6000006820F00700616808435F490839086080
:102C7000FEF774FD064608E0FEF770FD801B41F28A
:102C80008831884201D903202EE757480838006868
:102C900000F038006168B0EBC10FEDD1207800F092
:102CA000020002280ED15049E068096801F00F01C6
:102CB000884207D24C48006820F00F00E1680843C2
:102CC000494908604748006800F00F00A8420ED943
:102CD0004448006820F00F00284342490860084635
:102CE000006800F00F00A84201D00120FCE6207827
:102CF00000F0040004280ED13B492069096801F066
:102D00007001884207D23848006820F070002169BD
:102D1000084335490860207800F00800082811D1E0
:102D20003149091D6069096801F07001884209D2C2
:102D30002D48001D006820F07000616908432A4991
:102D4000091D0860207800F01000102811D12649D4
:102D5000091DA069096801F4E061884209D222488E
:102D6000001D006820F4E060A16908431E49091DA8
:102D70000860207800F02000202811D11A4908317D
:102D8000E069096801F07001884209D216480830EC
:102D9000006820F07000E1690843134908310860B9
:102DA00000F076F810490968C1F303210F4A515C1D
:102DB00001F01F0120FA01F70B48006800F00F0036
:102DC0001146085C00F01F0027FA00F0084908606F
:102DD0000848076008480068FEF702FD8046404644
:102DE00082E6000000200052184402584C530008AC
:102DF00024000024200000241800002410B500F056
:102E000047F80D490968C1F303210C4A515C01F0F0
:102E10001F0120FA01F40848006800F00F00114675
:102E2000085C00F01F0024FA00F00549086005481E
:102E300004600846006810BD184402584C5300084E
:102E4000240000242000002400B5FFF7D7FF054927
:102E50000968C1F30211044A515C01F01F01C84026
:102E600000BD00001C4402584C53000800B5FFF799
:102E7000C5FF05490968C1F30221044A515C01F00C
:102E80001F01C84000BD00001C4402584C530008FC
:102E9000F0B5824E366806F0380636B1082E15D0E9
:102EA000102E15D0182E7DD114E07C4E103E3668C1
:102EB000C6F3401646B1794E103E3668C6F3C107D8
:102EC000774E26FA07F000E07548E5E07548E3E044
:102ED0007548E1E0714E1836366806F003046F4E0F
:102EE00018363668C6F305116C4E1C36366806F087
:102EF00001056A4E24363668C6F3CC0616FB05F685
:102F000001EE106AB8EE410A002971D024B1012CFB
:102F100050D0022C6DD16DE0604E103E3668C6F385
:102F200040163EB35D4E103E3668C6F3C1075C4E98
:102F300026FA07F301EE103AF8EE411A01EE101AE4
:102F4000B8EE411A81EE812A9FED581AC0EE011A9F
:102F5000524E20363668C6F3080601EE106AB8EE07
:102F6000411A31EE811AF7EE001A31EE211A62EEA3
:102F7000010A1EE001EE101AB8EE411ADFED4C1AFC
:102F800081EE812A9FED491AC0EE011A434E203688
:102F90003668C6F3080601EE106AB8EE411A31EE43
:102FA000811A00E076E0F7EE001A31EE211A62EEA7
:102FB000010A5BE001EE101AB8EE411A9FED3D2ABE
:102FC000C2EE011A9FED391A80EE012A334E2036E7
:102FD0003668C6F3080601EE106AB8EE411A32EE02
:102FE000011AB7EE002A31EE021A61EE810A3DE0C5
:102FF0004EE01DE001EE101AB8EE411ADFED2E1A78
:1030000081EE812A9FED291AC0EE011A234E203647
:103010003668C6F3080601EE106AB8EE411A31EEC2
:10302000811AF7EE001A31EE211A62EE010A1DE054
:1030300001EE101AB8EE411A9FED1E2AC2EE011AD7
:103040009FED1A1A80EE012A144E20363668C6F318
:10305000080601EE106AB8EE411A32EE011AB7EE18
:10306000002A31EE021A61EE810A00BF00BF0B4E4A
:1030700020363668C6F34626721C01EE102AB8EEDA
:10308000411AC0EE811ABCEEE11A11EE100A00E0FE
:10309000002001E0034800BF00BFF0BD104402580B
:1030A0000090D00300093D0000366E01000000468C
:1030B0000024744C0024744A001BB74B2DE9F047E0
:1030C000044614B90120BDE8F087207800F0010023
:1030D000002870D0F948006800F03808F748183028
:1030E000D0F80090B8F1100F06D0B8F1180F0FD13A
:1030F00009F0030002280BD1F04810380068C0F333
:10310000404000286AD06068002867D10120DAE7D3
:1031100000BF6068B0F5803F08D1E848103800680B
:1031200040F48030E549103908602EE0606868B9E5
:10313000E2481038006820F48030E0491039086017
:103140000846006820F4802008601EE06068B0F542
:10315000A02F0DD1D9481038006840F48020D749FD
:10316000103908600846006840F4803008600CE0C0
:10317000D2481038006820F48030D04910390860F7
:103180000846006820F48020086000BF606898B19D
:10319000FEF7E4FA054606E0FEF7E0FA401B642875
:1031A00001D903208FE7C54810380068C0F34040BC
:1031B0000028F1D012E012E0FEF7D0FA054606E052
:1031C000FEF7CCFA401B642801D903207BE7BB48FB
:1031D00010380068C0F340400028F1D100BF2078CB
:1031E00000F00200022879D1B448006800F03808E5
:1031F000B2481830D0F80090B8F1000F05D0B8F1FF
:10320000180F35D109F0030088BBAC4810380068AE
:10321000C0F3800018B1E06808B9012053E7A7485F
:103220001038006820F01900E1680843A3491039FC
:103230000860FEF793FA054606E0FEF78FFA401B9A
:10324000022801D903203EE79C4810380068C0F3EB
:1032500080000028F1D099480C38006820F0FE402A
:10326000217C40EA016095490C39086045E0FFE7A0
:10327000E06838B391481038006820F01900E16820
:1032800008438E4910390860FEF768FA054606E0E3
:10329000FEF764FA401B022801D9032013E7874890
:1032A00010380068C0F380000028F1D083480C3843
:1032B000006820F0FE40217C40EA01607F490C3923
:1032C00008601AE07D481038006820F001007B4952
:1032D00010390860FEF742FA054607E00EE0FEF7F7
:1032E0003DFA401B022801D90320ECE67348103850
:1032F0000068C0F380000028F1D100BF207800F002
:10330000100010286FD16D48006800F038086B4835
:103310001830D0F80090B8F1080F06D0B8F1180FA7
:103320001CD109F00300012818D164481038006846
:10333000C0F3002020B1E069802801D00120C2E65E
:1033400000BF5E48001F006820F07C5094F82010F9
:1033500040EA01605949091F086043E0E06938B359
:1033600056481038006840F0800054491039086011
:10337000FEF7F4F9054606E0FEF7F0F9401B0228D7
:1033800001D903209FE64D4810380068C0F30020A3
:103390000028F1D000BF4948001F006820F07C5091
:1033A00094F8201040EA01604449091F086019E0C0
:1033B00042481038006820F0800040491039086009
:1033C000FEF7CCF9054606E0FEF7C8F9401B0228D7
:1033D00001D9032077E6394810380068C0F300208F
:1033E0000028F1D100BF207800F00800082836D16D
:1033F0006069D0B131486430006840F001002F4965
:1034000064310860FEF7AAF9054606E0FEF7A6F962
:10341000401B022801D9032055E628486430006883
:10342000C0F340000028F1D019E02448643000685F
:1034300020F00100214964310860FEF78FF905464C
:1034400006E0FEF78BF9401B022801D903203AE67B
:103450001A4864300068C0F340000028F1D1207899
:1034600000F02000202838D1A069D0B113481038CE
:10347000006840F48050114910390860FEF76EF979
:10348000054606E0FEF76AF9401B022801D9032031
:1034900019E60A4810380068C0F340300028F1D01F
:1034A0001BE006481038006820F4805003491039AA
:1034B0000860FEF753F9054609E000001044025881
:1034C000FEF74CF9401B022801D90320FBE5D04848
:1034D0000068C0F340300028F2D1207800F00400EA
:1034E00004287DD1CB48006840F48070C949086049
:1034F000FEF734F9054606E0FEF730F9401B642874
:1035000001D90320DFE5C348006800F4807000287B
:10351000F2D000BFA068012808D1BD487030006813
:1035200040F00100BA49703108602DE0A06868B928
:10353000B7487030006820F00100B549703108606C
:103540000846006820F0040008601DE0A068052817
:103550000DD1AF487030006840F00400AC497031C4
:1035600008600846006840F0010008600CE0A848C8
:103570007030006820F00100A549703108600846ED
:10358000006820F00400086000BFA068A0B1FEF74A
:10359000E5F8054608E0FEF7E1F8401B41F2883106
:1035A000884201D903208EE5994870300068C0F345
:1035B00040000028EFD013E0FEF7D0F8054608E001
:1035C000FEF7CCF8401B41F28831884201D9032034
:1035D00079E58F4870300068C0F340000028EFD1D3
:1035E000606A00287DD08A481030006800F03800FA
:1035F000182877D0606A022875D18548006820F0C5
:10360000807083490860FEF7A9F8054606E0FEF7DA
:10361000A5F8401B022801D9032054E57C48006826
:10362000C0F340600028F2D100BFD4E90A1041EA9B
:10363000001077492831096840F2F332914308437A
:10364000734928310860208E401EC0F30800616B6A
:10365000491E4FF47E4202EA41210843218F491E50
:10366000D20102EA014108433C21095D491E1202D0
:1036700002EA0161084366493031086000BF081F53
:10368000006820F00100091F0860614834300068BC
:103690004FF6F8718843A16C40EAC1005C493431AF
:1036A00008605B482C30006820F00C00216C084357
:1036B00057492C3108600846006820F00200616C10
:1036C000084353492C3108600846006840F48030B4
:1036D00008600846006840F400300860084600684A
:1036E00002E092E038E01FE040F4802008600846E5
:1036F000006840F0010008604548006840F08070B4
:1037000043490860FEF72AF8054606E0FEF726F86A
:10371000401B022801D90320D5E43D480068C0F3CE
:1037200040600028F2D070E03948006820F08070D6
:1037300037490860FEF712F8054606E0FEF70EF876
:10374000401B022801D90320BDE431480068C0F3C2
:1037500040600028F2D158E02D48283007682C48F6
:1037600030300668606A012821D007F00301A06AA2
:1037700081421CD1C7F30511E06A884217D1C6F314
:103780000801206B401E814211D1606B401EC6F3C0
:10379000462188420BD1A06B401EC6F306418842E9
:1037A00005D1E06B401EC6F30661884201D00120BE
:1037B00089E4174834300068C0F3CC07A06CB842E5
:1037C00023D013482C30006820F0010010492C3120
:1037D0000860FDF7C3FF054600BFFDF7BFFF401BB4
:1037E000FBD00B48343000684FF6F8718843A16C69
:1037F00040EAC10006493431086005482C300068B1
:1038000040F0010002492C31086000205BE4000018
:10381000004402580048025870B504462546681E08
:10382000B0F1807F01D301200FE0681E4FF0E0214E
:1038300048610F214FF0FF3001F0D8FC00204FF01D
:10384000E021886107200861002070BD7047704743
:103850007047000030B502460B4600BF92F83C00AE
:10386000012801D1022030BD012082F83C0000BFB8
:10387000022082F83D001068416810688468254D78
:103880001068A84203D0244D1068A84203D121F447
:1038900070015868014321F07001186801431068F5
:1038A00041601C4D1068A84223D01068B0F1804FD1
:1038B0001FD01A4D1068A8421BD0194D1068A8429D
:1038C00017D0184D1068A84213D0134D1068A842A5
:1038D0000FD0154D1068A8420BD0144D1068A842A7
:1038E00007D0134D1068A84203D0124D1068A842AB
:1038F00005D124F080049868044310688460012096
:1039000082F83D0000BF002082F83C0000BF00BFED
:10391000A9E700000000014000040140000400404D
:1039200000080040000C004000180040004001402A
:1039300000E0004000E4004010B504460CB901204E
:1039400010BD94F83D0028B9002084F83C002046C2
:1039500000F02AF8022084F83D00211D206800F0C4
:10396000C5FE012084F8480000BF84F83E00012114
:103970003F2001554020015541200155422001556D
:103980004320015500BF00BF012084F844004520BA
:103990000155462001554720015500BF012084F8FC
:1039A0003D000020CCE7000038B504460D492068F2
:1039B000884215D100BF0C48006840F001000A4958
:1039C00008600846006800F00100009000BF00BFDA
:1039D000002201211920FDF759FF1920FDF742FFB0
:1039E00038BD000000000140F0440258014691F843
:1039F0003D00012801D001207047022081F83D00E0
:103A00000868C06840F001000B68D860204B086867
:103A1000984223D00868B0F1804F1FD01D4B086832
:103A200098421BD01C4B0868984217D01B4B086863
:103A3000984213D01A4B086898420FD0194B086867
:103A400098420BD0184B0868984207D0174B08686B
:103A5000984203D0164B0868984210D108688068D5
:103A6000144B00EA0302062A0FD0B2F5803F0CD0B7
:103A70000868006840F001000B68186005E00868FD
:103A8000006840F001000B6818600020B4E70000F7
:103A9000000001400004004000080040000C00400D
:103AA00000040140001800400040014000E00040D8
:103AB00000E40040070001002DE9F04104460D46F6
:103AC000002700BF94F83C00012802D10220BDE885
:103AD000F081012084F83C0000BF022084F83D0002
:103AE000206886684048064026F47F462068866045
:103AF0002868702826D00CDC00F00F01002966D160
:103B00000011072863D2DFE800F0555657584B37AD
:103B10004100B0F1101F52D009DCB0F5805F10D029
:103B2000B0F5005F1BD0B0F5801F50D146E0A0F586
:103B300080102038002843D0102842D0202846D1B9
:103B400040E046E0D5E902136A68206800F046FECE
:103B50002068866846F077062068866039E0D5E9F7
:103B600002136A68206800F039FE2068806840F41B
:103B70008040216888602CE0EA686968206800F06D
:103B800045FE5021206800F035FE22E0EA686968B1
:103B9000206800F04EFE6021206800F02BFE18E047
:103BA000EA686968206800F031FE4021206800F072
:103BB00021FE0EE000BF00BF00BF00BF00BF00BF7E
:103BC00000BF00BF2968206800F014FE01E0012753
:103BD00000BF00BF012084F83D0000BF002084F832
:103BE0003C0000BF384672E788FFCEFF704770B5D3
:103BF00004462068C6682068056905F002000228AE
:103C000019D106F00200022815D1401F2168086171
:103C1000012020772068806900F0030018B1204659
:103C2000FFF7E4FF05E0204600F0ADF8204600F085
:103C3000ABF80020207705F00400042819D106F025
:103C40000400042815D1C0432168086102202077B0
:103C50002068806900F4407018B12046FFF7C6FF65
:103C600005E0204600F08FF8204600F08DF8002097
:103C7000207705F00800082819D106F00800082868
:103C800015D1C04321680861042020772068C069ED
:103C900000F0030018B12046FFF7A8FF05E020461A
:103CA00000F071F8204600F06FF80020207705F052
:103CB0001000102819D106F01000102815D1C043AB
:103CC00021680861082020772068C06900F44070EE
:103CD00018B12046FFF78AFF05E0204600F053F8B0
:103CE000204600F051F80020207705F0010048B18F
:103CF00006F0010030B16FF0010021680861204634
:103D000000F044F805F08000802804D005F400504D
:103D1000B0F5005F0AD106F08000802806D16FF46C
:103D20000250216808612046FFF791FD05F480707C
:103D3000B0F5807F0AD106F08000802806D16FF4AC
:103D40008070216808612046FFF780FD05F0400083
:103D5000402809D106F04000402805D1C043216821
:103D60000861204600F064F805F02000202809D101
:103D700006F02000202805D1C043216808612046B4
:103D8000FFF766FD70BD704770470000224988420A
:103D900040D122490988491C204A118011460988CE
:103DA00005291AD11E490988012916D1002111803F
:103DB0001C4991ED000ADFED1C0A30EE200A81ED6E
:103DC000000A91ED000ADFED190AB4EE600AF1EE87
:103DD00010FA02D10021124A1180104909880529E0
:103DE00018D10F490988A9B900210C4A11800D4941
:103DF00091ED000ADFED0C0A30EE600A81ED000A59
:103E000091ED000AB5EEC00AF1EE10FA02D10121DF
:103E1000034A1180704700004C0100241000002468
:103E20001200002408000024000070420000B44387
:103E30007047014600BF91F88400012801D102209B
:103E40007047012081F8840000BF2420C1F8880059
:103E5000086802680868006820F001000B681860B4
:103E600022F0005200204866086802602020C1F855
:103E7000880000BF002081F8840000BF00BFDFE79A
:103E800070B504460D4600BF94F88400012801D1A6
:103E9000022070BD012084F8840000BF2420C4F8F3
:103EA0008800206806682068006820F0010021680A
:103EB00008602068806820F060602843216888607E
:103EC000204600F0CBFC206806602020C4F8880063
:103ED00000BF002084F8840000BF00BFD9E770B5A0
:103EE00004460D4600BF94F88400012801D1022049
:103EF00070BD012084F8840000BF2420C4F888002D
:103F0000206806682068006820F0010021680860C9
:103F10002068806820F0604028432168886020463F
:103F200000F09CFC206806602020C4F8880000BFD8
:103F3000002084F8840000BF00BFD9E710B5044614
:103F40000CB9012010BDA06900B100E000BFD4F899
:103F5000880028B9002084F88400204600F02AF860
:103F60002420C4F888002068006820F0010021683F
:103F70000860A06A10B1204600F09CFC204600F0CA
:103F8000C1FD012800D1DDE72068406820F49040A1
:103F9000216848602068806820F02A0021688860D5
:103FA0002068006840F0010021680860204600F0A9
:103FB000FDFCC7E710B5B6B00446142130A8FCF7E5
:103FC0009EFAB82102A8FCF79AFA1E492068884296
:103FD00036D101210020CDE90210209002A8FDF782
:103FE00019FF08B1FCF712FB00BF1748006840F04A
:103FF0001000154908600846006800F010000190A4
:1040000000BF00BF00BF10481038006840F001003A
:104010000D49103908600846006800F00100019061
:1040200000BF00BF4FF4C0603090022031900020EC
:10403000329033900720349030A90448FDF796FA67
:1040400036B010BD00100140F04402580000025884
:1040500000BFFEE710B51E481E49086000208860BA
:1040600000211C48C1600174417401218174032145
:1040700041610A2181611D21C1610A21016203217F
:1040800041620A2181621D21C1620A21016300216E
:104090004163012181630021C16302210164042184
:1040A0004164002181640421C1640021016504216F
:1040B000416500218165C1650221016600214166DB
:1040C00004218166FDF74EF808B1FCF79FFA10BD98
:1040D00000A00040AC00002408B500BF13480068F1
:1040E00040F08000114908600846006800F0800038
:1040F000009000BF00BF00BF0846006840F001000C
:1041000008600846006800F00100009000BF00BF92
:1041100000BF0846006840F00800086008460068D4
:1041200000F00800009000BF00BF08BDE044025846
:1041300000B587B000200390049005900690009091
:104140000190029016481749086045F6BF50486034
:1041500000211448816042F20F71C16000210161A9
:10416000416180218161FFF7E7FB08B1FCF74EFA5E
:104170004FF48050039003A90A48FFF79DFC08B153
:10418000FCF744FA0020009001900290694605482F
:10419000FFF760FB08B1FCF739FA07B000BD00007B
:1041A000000001404C01002410B51848184908606F
:1041B0004FF4E1304860002115488160C160016121
:1041C0000C21416100218161C161016241620020D5
:1041D0000F4988620846FFF7B1FE08B1FCF716FAEE
:1041E00000210B48FFF77BFE08B1FCF70FFA002116
:1041F0000748FFF745FE08B1FCF708FA0448FFF747
:1042000018FE08B1FCF702FA10BD000000100140D2
:104210009801002400BFFEE710B5FCF7FBF900226F
:1042200001210348FCF7AAFB0148FDF77AF910BD0C
:10423000AC000024F0B589B006460C4617461D4672
:104240000094002001900290039504900590069040
:10425000079008903A4669463046FCF7E3FB08B100
:1042600009B0F0BD00BFFBE700BFFEE770470000EC
:104270002DE9F04104460E4600275548006800F03D
:104280000300032802D10120BDE8F08150482838FE
:10429000006820F080604E4928390860FDF75EFA1A
:1042A000054606E0FDF75AFA401B022801D9032013
:1042B000EAE7474828380068C0F3C0600028F1D119
:1042C00000BF4348006820F47C30216840EA013098
:1042D0003F490860A088401EC0F30800A168491E3D
:1042E0004FF47E4202EA41210843A189491ED201CE
:1042F00002EA01410843217C491E120202EA0161DF
:10430000084333491031086000BF3148001D006880
:1043100020F0C000616908432D49091D0860084666
:10432000006820F02000A16908432949091D0860A0
:104330000846006820F01000086025481430006826
:104340004FF6F8718843E16940EAC1002049143111
:1043500008601F48001D006840F010001C49091D3E
:1043600008602EB90846006840F40020086012E09A
:10437000012E08D11648001D006840F48010144931
:10438000091D086007E01248001D006840F4001095
:104390000F49091D08600E482838006840F0806009
:1043A0000B4928390860FDF7D9F9054606E0FDF705
:1043B000D5F9401B022801D9032065E704482838B5
:1043C0000068C0F3C0600028F1D038465CE7000008
:1043D000284402582DE9F04104460E46002755486E
:1043E000006800F00300032802D10120BDE8F0813D
:1043F00050482838006820F080504E49283908601D
:10440000FDF7ACF9054606E0FDF7A8F9401B0228C8
:1044100001D90320EAE7474828380068C0F3407014
:104420000028F1D100BF4348006820F07C7021884B
:1044300040EA01503F490860A088401EC0F30800D0
:10444000A168491E4FF47E4202EA41210843A18936
:10445000491ED20102EA01410843217C491E120291
:1044600002EA0161084333491831086000BF31484E
:10447000001D006820F44060616908432D49091D52
:1044800008600846006820F40070A16908432949C3
:10449000091D08600846006820F4807008602548FF
:1044A0001C3000684FF6F8718843E16940EAC100AA
:1044B00020491C3108601F48001D006840F48070CE
:1044C0001C49091D08602EB90846006840F48000A8
:1044D000086012E0012E08D11648001D006840F463
:1044E00000001449091D086007E01248001D00681B
:1044F00040F080700F49091D08600E482838006898
:1045000040F080500B4928390860FDF727F905462F
:1045100006E0FDF723F9401B022801D9032065E7D7
:10452000044828380068C0F340700028F1D03846AD
:104530005CE7000028440258704710B5FDF714F9F5
:1045400010BD000000B59DB04C210AA8FBF7D7FFB5
:10455000202102A8FBF7D3FF0220FDF7E9F900BFF5
:10456000002001902448006820F44040224908605F
:104570000846006800F44040019000BF00BF00BF43
:104580001D48006800F40050B0F5005FF8D101202C
:104590000A9000040B9002201390022114911591AF
:1045A00028211691012117910421189102211991B6
:1045B0000C211A9100211B911C910AA8FEF77EFD87
:1045C00008B1FCF723F83F2002900320039000205D
:1045D0000490082005904020069007900001089064
:1045E00040200990032102A8FEF778FA08B1FCF7F1
:1045F0000DF81DB000BD0000184802582F48006893
:1046000040F470002D4908602D48006800F00F004C
:10461000072806D22A48006820F00F00C01D28494C
:1046200008602848006840F0010026490860002022
:104630002449103108602348006823490840214973
:1046400008601F48006800F00F00072806D91C48C2
:10465000006820F00F00C01D1949086000201949AA
:1046600018310860091D0860091D086017481549C0
:10467000283108601648091D08601648091D0860A1
:104680000020091D08601348091D08600020091D4D
:1046900008601048091D08600020091D08600948CD
:1046A000006820F480200749086000200549603137
:1046B000086043F2D20008490860704788ED00E0C6
:1046C00000200052004402587FEDF6EA0002020288
:1046D0000000FF01800201010040005210B50248B5
:1046E000FFF785FA10BD00004C01002410B50268E8
:1046F000304B98420ED0B0F1804F0BD02E4B9842E9
:1047000008D02E4B984205D02D4B984202D02D4B0D
:10471000984203D122F070024B681A43254B98420D
:104720001DD0B0F1804F1AD0234B984217D0234BA5
:10473000984214D0224B984211D0224B98420ED06E
:10474000214B98420BD0214B984208D0204B9842E5
:1047500005D0204B984202D01F4B984203D122F43F
:104760004072CB681A4322F080034C6943EA04028A
:1047700002608B68C3620B6883620E4B98420BD059
:10478000104B984208D0104B984205D00F4B9842DE
:1047900002D00F4B984201D10B690363012343619F
:1047A000036903F001031BB1036923F001030361F3
:1047B00010BD00000000014000040040000800405F
:1047C000000C004000040140004001400044014052
:1047D0000048014000E0004000E4004030B50C46D5
:1047E000816821F47F4142EA032525432943816002
:1047F00030BD00000A468168034B194042F00703B0
:1048000019438160704700008FFFCFFF30B50B4622
:104810001446026A056A25F001050562816921F0E6
:10482000F00141EA041122F00A021A438161026296
:1048300030BD30B50B461446026A056A25F01005F6
:104840000562816921F4704141EA043122F0A0023D
:1048500042EA03128161026230BD000070B5456E0C
:104860002DB90125A0F86A50A0F868501CE010236B
:1048700010240568AD68C5F342610568AD686A0F2C
:104880000A4DAD5C15FB04F5094EB65C95FBF6F5DB
:10489000A0F86A50054D6D5C15FB03F5044E765C7F
:1048A00095FBF6F5A0F8685070BD00003C53000879
:1048B0004453000890F8281001F00801082907D196
:1048C0000168496821F40041826B1143026851601C
:1048D00090F8281001F0010139B10168496821F40C
:1048E0000031C26A11430268516090F8281001F04B
:1048F0000201022907D10168496821F48031026B65
:1049000011430268516090F8281001F00401042955
:1049100007D10168496821F48021426B1143026884
:10492000516090F8281001F01001102907D101689A
:10493000896821F48051C26B11430268916090F83C
:10494000281001F02001202907D10168896821F48D
:104950000051026C11430268916090F8281001F038
:104960004001402913D10168496821F48011426C4B
:10497000114302685160416CB1F5801F07D1016895
:10498000496821F4C001826C11430268516090F8BB
:10499000281001F08001802907D10168496821F4BD
:1049A0000021C26C114302685160704738B504465B
:1049B0000020C4F89000FCF7D1FE0546206800688E
:1049C00000F00800082821D16FF07E402B4600221D
:1049D0004FF400110090204600F0A8FBB0B100BFDA
:1049E00000BF216851E8001F21F08000226842E8E2
:1049F00000010029F5D100BF2020C4F8880000BFC5
:104A0000002084F8840000BF032038BD20680068BF
:104A100000F00400042830D16FF07E402B460022C5
:104A20004FF480010090204600F080FB28B300BFC7
:104A300000BF216851E8001F21F49070226842E80D
:104A400000010029F5D100BF00BF00BF2168083177
:104A500051E8001F21F001002168083141E80002FF
:104A6000002AF3D100BF2020C4F88C0000BF002032
:104A700084F8840000BF0320C7E72020C4F8880022
:104A8000C4F88C000020E066206700BF84F8840032
:104A900000BF00BFB9E7000000BF00BF026852E8D6
:104AA000002F22F49071036843E80012002AF5D128
:104AB00000BF00BF00BF0268083252E8002F104B51
:104AC00002EA03010268083242E80013002BF2D127
:104AD00000BFC16E01290CD100BF00BF026852E8BF
:104AE000002F22F01001036843E80012002AF5D1DC
:104AF00000BF2021C0F88C100021C16641677047BB
:104B0000FEFFFFEF2DE9F04F89B005460020089029
:104B1000F8492868884200D100E000BF2969A868E8
:104B2000084369690843E96940EA010828680068A0
:104B3000F149084040EA0800296808602868406890
:104B400020F44050E968084329684860D5F8188087
:104B5000E8492868884202D0286A40EA080828689C
:104B60008068E649084040EA0800296888602868AB
:104B7000C06A20F00F00696A08432968C86200BF54
:104B8000DF492868884220D1DE48006800F03800FC
:104B9000182811D005DC48B1082809D0102811D1F7
:104BA00008E020280AD028280CD109E001240BE0D5
:104BB000042409E0082407E0102405E0202403E091
:104BC000402401E0802400BF42E1CF4928688842A8
:104BD00019D1CC48006800F00700062810D2DFE8A1
:104BE00000F0030507090B0D00240BE0042409E085
:104BF000082407E0102405E0202403E0402401E01D
:104C0000802400BF24E1C1492868884219D1BD48E9
:104C1000006800F00700062810D2DFE800F0030566
:104C200007090B0D00240BE0042409E0082407E029
:104C3000102405E0202403E0402401E0802400BF8C
:104C400006E1B3492868884219D1AE48006800F0EF
:104C50000700062810D2DFE800F0030507090B0D56
:104C600000240BE0042409E0082407E0102405E0F8
:104C7000202403E0402401E0802400BFE8E0A549AF
:104C80002868884219D19F48006800F0070006286C
:104C900010D2DFE800F0030507090B0D00240BE03C
:104CA000042409E0082407E0102405E0202403E0A0
:104CB000402401E0802400BFCAE097492868884268
:104CC00020D19048006800F03800182811D005DC89
:104CD00048B1082809D0102811D108E020280AD0AE
:104CE00028280CD109E001240BE0042409E0082461
:104CF00007E0102405E0202403E0402401E08024A4
:104D000000BFA5E085492868884219D17D48006820
:104D100000F00700062810D2DFE800F003050709BD
:104D20000B0D00240BE0042409E0082407E0102404
:104D300005E0202403E0402401E0802400BF87E058
:104D400077492868884219D16E48006800F007004A
:104D5000062810D2DFE800F0030507090B0D002438
:104D60000BE0042409E0082407E0102405E02024D7
:104D700003E0402401E0802400BF69E0694928681D
:104D8000884220D15F48006800F03800182811D010
:104D900005DC48B1082809D0102811D108E02028E6
:104DA0000AD028280CD109E001240BE0042409E0F2
:104DB000082407E0102405E0202403E0402401E05B
:104DC000802400BF44E058492868884220D14D48DB
:104DD000006800F03800182811D005DC48B1082818
:104DE00009D0102811D108E020280AD028280CD199
:104DF00009E001240BE0042409E0082407E0102462
:104E000005E0202403E0402401E0802400BF1FE0EF
:104E10003849286888421AD13A48001D006800F0D5
:104E20000700062810D2DFE800F0030507090B0D84
:104E300002240BE0042409E0082407E0102405E024
:104E4000202403E0402401E0802400BF00E080240F
:104E500000BF2849286888424BD1102C1AD006DCA4
:104E6000022C09D0042C0BD0082C29D10DE0202CC9
:104E700021D0402C24D120E0FCF78AFD064623E017
:104E800005A8FCF797FD069E1EE002A8FCF7AAFE07
:104E9000039E19E01B4854380068C0F3401040B12D
:104EA000184854380068C0F3C101204820FA01F6C0
:104EB00000E01E4E08E01E4E06E04FF4004603E000
:104EC00000260120089000BF00BF002E10D0194915
:104ED000686A31F81000B6FBF0F9686800EB400032
:104EE000484503D868680003484525D2012008904A
:104EF00007E153E0000C0058F369FFCFFFF4FF1106
:104F00000010014054440258004400400048004052
:104F1000004C004000500040001401400078004068
:104F2000007C004000180140001C01400090D003AC
:104F300000093D00245300087849686A31F810C020
:104F40006246002330461946FBF730FA4FF4807C66
:104F500000220346A3FB0C0B01FB0CB103FB021365
:104F60006968490884461CEB010143EB0200CDE966
:104F70000010D5F804C06246002308460199FBF7EB
:104F800015FA0746B7F5407F05D3B7F5801F02D263
:104F90002868C760B5E001200890B2E0E869B0F584
:104FA000004F5BD1082C1AD005DC5CB1012C0DD070
:104FB000042C2DD10EE0102C16D0202C23D0402C08
:104FC00026D122E0FDF740FF064625E0FDF74EFF23
:104FD000064621E005A8FCF7EDFC069E1CE002A8B1
:104FE000FCF700FE039E17E04D480068C0F3401038
:104FF00038B14B480068C0F3C1014A4820FA01F6B5
:1050000000E0484E08E0484E06E04FF4004603E05A
:1050100000260120089000BF00BF7EB33F49686AA8
:1050200031F81000B6FBF0F04000696800EB510069
:10503000B0FBF1F7102F0ED3B7F5803F0BD24FF630
:10504000F07007EA000AC7F342004AEA000A28683B
:10505000C0F80CA055E00120089052E0082C1BD0AD
:1050600005DC64B1012C0ED0042C2ED10FE0102CE5
:1050700017D0202C24D0402C27D123E041E0FDF78D
:10508000E3FE064625E0FDF7F1FE064621E005A811
:10509000FCF790FC069E1CE002A8FCF7A3FD039E13
:1050A00017E01F480068C0F3401038B11C48006882
:1050B000C0F3C1011B4820FA01F600E0194E08E0D8
:1050C000194E06E04FF4004603E000260120089048
:1050D00000BF00BFAEB11149686A31F81000B6FBDD
:1050E000F0F0696800EB5100B0FBF1F7102F06D328
:1050F000B7F5803F03D2B8B22968C86001E001204B
:1051000008900120A5F86A00A5F8680000206867EB
:10511000A867089809B0BDE8F08F00002453000884
:10512000004402580090D00300093D002DE9F041F1
:1051300004460D4617469846069E41E0701C00281E
:105140003ED0FCF70BFBA0EB0800B04200D816B92C
:105150000320BDE8F0812068006800F0040070B30F
:10516000802D2DD0402D2BD02068C069C0F3C00009
:1051700078B10820216808622046FFF78DFC0820DE
:10518000C4F8900000BF002084F8840000BF012014
:10519000DFE72068C069C0F3C02080B14FF4006031
:1051A000216808622046FFF777FC2020C4F89000B1
:1051B00000BF002084F8840000BF0320C9E7FFE798
:1051C0002068C0692840A84201D1012000E00020E9
:1051D000B842B3D00020BCE700BFFEE70248006839
:1051E000C0F30220704700000CED00E010B500286D
:1051F00004DB0A07130E054A135406E00A07140ECF
:10520000034A00F00F031B1FD45410BD00E400E05C
:1052100018ED00E09FED200A204880ED000A9FED88
:10522000200A80ED010A9FED1F0A80ED020AB1EE0F
:10523000040A80ED080AB1EE040A80ED090A9FED28
:105240001A0A1A4880ED000A9FED190A80ED010A3A
:105250009FED180A80ED020AB1EE040A80ED080AFB
:10526000B2EE040A80ED090AFCF78AFAFFF76AF940
:10527000FEF732FFFEF7EEFEFEF796FFFEF758FF51
:10528000FEF7CAFFFBF7A2F90A20FBF763FB0A4807
:10529000FEF7ACFB00BFFEE7F853633D5800002467
:1052A000A69B443BFFE6DB2E83C0CA3D2C000024B6
:1052B000000000008F284E314C0100244FF0407058
:1052C000E1EE100A70470000000102030405060722
:1052D000080C1014182030400000000000000000EE
:1052E00000000000000000000000000001000000BD
:1052F00002000000030000000400000000000000A5
:105300000500000000000000000000000000000098
:105310000600000000000000000000000000000087
:1053200007000000010002000400060008000A0057
:105330000C0010002000400080000001010101036A
:105340000701000008040204080101010000000038
:105350000102030401020304060708097C53000844
:10536000000000242C00000008030008A8530008D7
:105370002C00002464080000240300080000000042
:10538000000000000000000000000000000001001C
:105390000000000010000000010000000090D00399
:0853A0000090D003040000009E
:04000005080002CD20
:00000001FF
