:020000040800F2
:1000000018970024E102000881DB0008C1C4000841
:1000100079DB0008A909000831130108000000007D
:1000200000000000000000000000000001EC0008DB
:10003000592000080000000041E2000839EC0008E7
:10004000FB020008FB020008FB020008FB0200089C
:10005000FB020008FB020008FB020008FB0200088C
:10006000FB020008FB020008FB02000881140008E4
:1000700091140008A1140008FB020008FB0200080C
:10008000FB020008FB020008FB0200080122000836
:1000900099220008FB020008FB020008FB0200088E
:1000A000FB020008FB020008FB020008FB0200083C
:1000B00089EE000899EE0008FB020008FB02000828
:1000C000FB020008FB020008FB020008FB0200081C
:1000D00011EA0008FB020008FB020008FB0200080E
:1000E000FB020008FB02000800000000FB02000801
:1000F000FB020008FB020008FB020008B114000824
:10010000FB020008FB020008FB020008FB020008DB
:10011000FB02000831F80008FB020008FB0200089F
:10012000FB020008FB020008FB020008FB020008BB
:10013000FB020008FB020008FB020008FB020008AB
:1001400000000000000000000000000000000000AF
:10015000FB020008FB020008FB020008FB0200088B
:10016000FB020008FB020008FB020008FB0200087B
:10017000FB020008FB020008FB0200080000000070
:10018000FB020008FB02000841F80008FB0200081F
:10019000FB020008FB020008FB020008FB0200084B
:1001A000FB020008FB020008FB0200080000000040
:1001B000FB020008FB020008FB020008FB0200082B
:1001C000FB020008FB020008000000000000000025
:1001D0000000000000000000FB020008000000001A
:1001E000000000000000000000000000000000000F
:1001F0000000000000000000FB020008FB020008F5
:10020000FB020008FB02000800000000FB020008DF
:10021000FB020008FB020008FB020008FB020008CA
:10022000FB02000800000000FB02000800000000C4
:10023000FB020008FB02000800000000FB020008AF
:10024000FB020008FB020008FB020008FB0200089A
:10025000FB020008FB020008FB020008FB0200088A
:10026000FB020008FB020008FB020008FB0200087A
:10027000FB020008FB020008FB020008000000006F
:10028000FB020008FB020008FB020008FB0200085A
:1002900000000000FB020008FB0200080000000054
:1002A00000000000FB020008FB020008FB0200083F
:1002B000FB020008FB020008FB020008A92200085C
:1002C000FB020008FB020008FB020008DFF80CD06C
:1002D00000F08CF8004800476135010818970024A9
:1002E0000648804706480047FEE7FEE7FEE7FEE7D0
:1002F000FEE7FEE7FEE7FEE7FEE7FEE749ED000862
:10030000CD0200082DE9F05F0546002092469B468D
:1003100088460646814640241BE02846414647461B
:10032000224600F053F853465A46C01A914110D362
:1003300011461846224600F03AF82D1A67EB0108DC
:100340004F4622460120002100F031F817EB00094A
:100350004E41201EA4F10104DFDC484631462A4606
:100360004346BDE8F09F40EA01039B0703D009E044
:1003700008C9121F08C0042AFAD203E011F8013B91
:1003800000F8013B521EF9D27047D2B201E000F8EA
:10039000012B491EFBD270470022F6E710B5134629
:1003A0000A4604461946FFF7F0FF204610BD202AF2
:1003B00004DB203A00FA02F1002070479140C2F1BC
:1003C000200320FA03F3194390407047202A04DBEE
:1003D000203A21FA02F00021704721FA02F3D040BE
:1003E000C2F1200291400843194670471CB50948E4
:1003F0000090094801900546009C06E0E06840F046
:10040000010394E8070098471034AC42F6D3FFF795
:1004100061FF0000086101082861010830B58C18EF
:1004200010F8012B12F00F0301D110F8013B120953
:1004300006D110F8012B03E010F8015B01F8015B15
:100440005B1EF9D101E001F8013B521EFBD1A14234
:10045000E6D3002030BD000080B540F60000C5F6B0
:1004600002000122114606F087FE80BD0000000058
:1004700080B540F60000C5F602000121002206F01A
:100480007BFE80BD0000000080B540F60000C5F690
:1004900002000821012206F06FFE80BD000000006E
:1004A00080B540F60000C5F602000821002206F0E3
:1004B00063FE80BD0000000080B584B00390FFF7AC
:1004C000D7FF922000F0C4F940F2C621C2F20041E9
:1004D0001220062200F098F9FFF7BEFF40F2D41078
:1004E000C2F200400078002854D0FFE740F2C62353
:1004F000C2F200431878597840EA012040F2C42142
:10050000C2F200410880B1F9000000EE100AB8EE16
:10051000C00A40F23000C2F2004090ED001A20EE16
:10052000011A039A92ED082A92ED0C0A91EE020A42
:1005300082ED000A9A7893F803C042EA0C220A80FE
:10054000B1F9002000EE102AB8EEC00A90ED001AB2
:1005500020EE011A039A92ED082A92ED0D0A91EE0F
:10056000020A82ED010A1A795B7942EA03220A80C3
:10057000B1F9001000EE101AB8EEC00A90ED001AA2
:1005800020EE010A039890ED081A20EE010A80ED92
:10059000020A4FE040F2C623C2F2004318785978AD
:1005A00040EA012040F2C421C2F200410880B1F9C2
:1005B000000000EE100AB8EEC00A40F23000C2F2AD
:1005C000004090ED001A20EE010A039A92ED081AFD
:1005D00020EE010A82ED000A9A7893F803C042EAFD
:1005E0000C220A80B1F9002000EE102AB8EEC00AF1
:1005F00090ED001A20EE010A039A92ED081A20EEFF
:10060000010A82ED010A1A795B7942EA03220A8023
:10061000B1F9001000EE101AB8EEC00A90ED001A01
:1006200020EE010A039890ED081A20EE010A80EDF1
:10063000020AFFE7FFF734FF40F2C621C2F2004191
:1006400002910020082200F0DFF8FFF71DFF02985A
:1006500000780F2840F09880FFE740F2D410C2F2F3
:100660000040007800284AD0FFE740F2C623C2F2DB
:1006700000439878D97840EA012040F2C421C2F2C0
:1006800000410880B1F9000000EE100AB8EEC01A6F
:1006900040F23400C2F2004090ED002A039A92ED3D
:1006A000090A91EE020A82ED030A1A7993F805C04D
:1006B00042EA0C220A80B1F9002000EE102AB8EEBE
:1006C000C01A90ED002A039A92ED0A0A91EE020AEE
:1006D00082ED040A9A79DB7942EA03220A80B1F9B1
:1006E000001000EE101AB8EEC01A90ED002A039820
:1006F00090ED0B0A91EE020A80ED050A43E040F20C
:10070000C623C2F200439878D97840EA012040F22B
:10071000C421C2F200410880B1F9000000EE100AC5
:10072000B8EEC00A40F23400C2F2004090ED001A68
:1007300020EE010A039A82ED030A1A7993F805C0A4
:1007400042EA0C220A80B1F9002000EE102AB8EE2D
:10075000C00A90ED001A20EE010A039A82ED040A05
:100760009A79DB7942EA03220A80B1F9001000EE9F
:10077000101AB8EEC00A90ED001A20EE010A039894
:1007800080ED050AFFE7FFE7FFF772FEA22000F009
:100790005FF840F2C621C2F20041019122200222FC
:1007A00000F032F8FFF758FE019908784978C00048
:1007B00040EA511140F2C420C2F200400180B0F979
:1007C0000000B0F5806F09DBFFE740F2C421C2F200
:1007D00000410888A0F500600880FFE740F2C420CF
:1007E000C2F20040B0F9000000EE100AB8EEC01AE4
:1007F000B4EE002AB3EE070AA1EE020A039880EDD8
:10080000070A04B080BD000080B584B08DF80F00E9
:1008100002918DF807209DF80F0040F0800000F055
:1008200017F8FFE79DF8070070B1FFE7552000F0CB
:100830000FF8029908700298013002909DF80700A5
:1008400001388DF80700EDE704B080BD000000001E
:1008500080B582B08DF8070040F2D020C2F200408F
:1008600000686A464FF47A7111600DF107010DF1CD
:100870000602012309F00CFE9DF8060002B080BDBF
:1008800080B540F20001C2F2004101F1120240F6CF
:10089000E050C2F20040122310F052F880BD000078
:1008A00083B0029001910092009890ED002A90EDA3
:1008B000014A90ED026A90ED035AB6EE001AB0EECE
:1008C000417AA6EE467AA5EE457A029822EE050A0E
:1008D00094EE060AD0ED000AD0ED011A90ED023A2E
:1008E00020EE210AA7EE200A22EE062AA4EE052A0F
:1008F000A2EE030A30EE000A019880ED000A00988B
:1009000090ED002A90ED016A90ED024A90ED035AB5
:1009100022EE057AA6EE047A0298B0EE410AA6EE1F
:10092000460AA5EE450AD0ED000AD0ED011A90ED79
:10093000023A20EE210AA7EE200A22EE062A94EEC1
:10094000052AA2EE030A30EE000A019880ED010AA2
:10095000009890ED000A90ED014A90ED023A90ED7A
:10096000032A20EE035A94EE025A029820EE040A5B
:10097000A3EE020A90ED006A90ED017A90ED022A52
:1009800020EE070AA5EE060AA4EE441AA3EE431AC7
:10099000A1EE020A30EE000A019880ED020A03B0CF
:1009A0007047000000000000FFE7FEE700000000C5
:1009B00080B582B00190FFE700F002F8FCE700008C
:1009C00080B58CB040F61070C2F200400121089151
:1009D0004FF480720A9212F0BFFB0A9A40F64870F8
:1009E000C2F20040022112F0B7FB0A9A40F6807072
:1009F000C2F200400790032112F0AEFB07980A9A5A
:100A00000421099112F0A8FB0A9A40F6B870C2F2CC
:100A10000040052112F0A0FB09990A9A40F6F073F4
:100A2000C2F200430020186046F2666CC3F6E67C12
:100A3000C3F804C046F2666CCBF6E67CC3F808C087
:100A4000D860186140F68030C2F200400B9012F07E
:100A500057FA089812F0A0FE09990A9A0B9812F01A
:100A60004FFA089812F098FE09990A9A0B9812F01A
:100A700047FAFFE740F2E810C2F20040C07A0328CC
:100A800030D1FFE740F68030C2F2004005900121EE
:100A900006914FF48072049212F032FA069812F026
:100AA0007BFE049A0598022112F02AFA069812F0A9
:100AB00073FE049A0598032112F022FA069812F0A8
:100AC0006BFE049A0598042112F01AFA069812F0A7
:100AD00063FE049A0598052112F012FA069812F0A6
:100AE0005BFEFFE740F2E810C2F20040C07A012846
:100AF00040F09281FFE740F6F070C2F2004090EDC6
:100B0000000A40F2E811C2F20041B1F9081001EE0A
:100B1000101AB8EEC11A9FEDC12A81EE021A9FED9C
:100B2000C02AA1EE020A80ED000AFFE740F6F0704D
:100B3000C2F2004090ED000AB5EE400AF1EE10FA64
:100B400007DCFFE740F6F071C2F2004100200860C8
:100B500018E040F6F070C2F2004090ED000A9FED00
:100B6000B11AB4EE410AF1EE10FA0ADBFFE740F6E3
:100B7000F071C2F2004143F23330C4F23300086036
:100B8000FFE7FFE7FFE740F6F070C2F2004090EDAC
:100B9000010A40F2E811C2F20041B1F9061001EE7B
:100BA000101AB8EEC11A9FED9D2A81EE021A9FED30
:100BB0009C2AA1EE020A80ED010AFFE740F6F070E0
:100BC000C2F2004090ED010A9FED971AB4EE410A7F
:100BD000F1EE10FA0ADCFFE740F6F071C2F20041D4
:100BE00046F26660C3F6E670486018E040F6F070C2
:100BF000C2F2004090ED010A9FED8C1AB4EE410A5A
:100C0000F1EE10FA0ADBFFE740F6F071C2F20041A4
:100C10004CF6CD40C4F2DC004860FFE7FFE7FFE799
:100C200040F6F070C2F2004090ED020A40F2E81186
:100C3000C2F20041B1F9021001EE101AB8EEC11A69
:100C40009FED762A81EE021A9FED752AA1EE020A27
:100C500080ED020AFFE740F6F070C2F2004090ED2E
:100C6000020AB9EE021AB4EE410AF1EE10FA09DCFA
:100C7000FFE740F6F071C2F200410020CCF2900094
:100C8000886018E040F6F070C2F2004090ED020A71
:100C90009FED671AB4EE410AF1EE10FA0ADBFFE7A6
:100CA00040F6F071C2F2004146F26660CBF6E670A3
:100CB0008860FFE7FFE7FFE740F6F070C2F2004010
:100CC00090ED030A40F2E811C2F20041B1F90410BC
:100CD00001EE101AB8EEC11A9FED502A81EE021AE9
:100CE0009FED4F2AA1EE020A80ED030AFFE740F6CE
:100CF000F070C2F2004090ED030A9FED4E1AB4EE80
:100D0000410AF1EE10FA0ADCFFE740F6F071C2F298
:100D100000414FF2C350CBF6C870C86018E040F6EF
:100D2000F070C2F2004090ED030A9FED431AB4EE5A
:100D3000410AF1EE10FA0ADBFFE740F6F071C2F269
:100D400000414FF2C350C3F6C870C860FFE7FFE729
:100D5000FFE740F6F071C2F20041009191ED040A04
:100D600040F2E810C2F20040B0F9000001EE100AB3
:100D7000B8EEC11A9FED292A81EE021A9FED282AAA
:100D8000A1EE020A81ED040A41F20400C2F2004021
:100D900001900022C4F2400202600023C4F2A003CA
:100DA00043608360C260026191ED000AD0ED000AE9
:100DB00040F68030C2F2004002900121039112F00F
:100DC00033FD039812F0E8FC009A0199029892ED25
:100DD000010AD1ED010A022112F026FD039812F05A
:100DE000DBFC009A0199029892ED020AD1ED020A09
:100DF000032112F019FD039812F0CEFC009A01991C
:100E0000029892ED030AD1ED030A042112F00CFDC1
:100E1000039812F0C1FCFFE72CE600BF0000254458
:100E20006F1203BC333333406666E63FCDCCDC4003
:100E30006666E6BFC3F5C8BFC3F5C83F0000000043
:100E400080B582B00190FFE700F05AF8FCE700009F
:100E500080B586B005900491039205980121002287
:100E6000009212F079F9009A05983830022112F0B8
:100E700073F9049810F080FD0099039845F6380244
:100E8000C0F601029FED1B0ADFED1B0A0DF074F99D
:100E900000980290FFE70298092811DCFFE7059807
:100EA000818F028F40F6E020C2F2004012F028F855
:100EB000012012F071FCFFE7029801300290EAE78E
:100EC00000200190FFE70198092811DCFFE7059851
:100ED0008188028840F6E020C2F2004012F010F84B
:100EE000012012F059FCFFE7019801300190EAE778
:100EF00006B080BD0000F0420000000000000000CD
:100F000080B594B0FFE740F20030C2F2004090F8A4
:100F1000900020B9FFE7012012F03EFCF3E740F219
:100F2000EC60C2F2004041F20021C2F2004140F206
:100F30009C32C2F20042FFF78BFF40F21040C2F237
:100F4000004040F23C51C2F2004140F28452C2F2F1
:100F500000420DF0A9F9FFE740F2F040C2F2004074
:100F600040F20C22C2F2004200210E91B3EE040ABC
:100F70008DED0F0ADFED9E0ACDED100A0DF0FCF8A5
:100F80000E999DED0F0ADDED100A40F2A840C2F265
:100F9000004040F21822C2F200420DF0EDF840F29B
:100FA000EC60C2F20040139041F20021C2F2004115
:100FB000119140F20032C2F20042129211F0ECFEA6
:100FC0001199129A139840F29C33C2F20043EC46F6
:100FD000CCF8003040F2CC03C2F2004311F098F993
:100FE000139890F88801012846D1FFE740F2E810F5
:100FF000C2F20040C07A02283ED0FFE741F2002052
:10100000C2F200400A9090ED1E2A40F6E020C2F2A3
:1010100000400C900221DFED761ACDED0B1AB0EEF8
:10102000610AF0EE610AB0EE611A12F0FDFA40F2C8
:101030003800C2F200400D90006812F0ADFB0A9932
:10104000DDED0B1A0C9891ED1D2A0121B0EE610A1D
:10105000F0EE610AB0EE611A12F0E6FA0D9800683F
:1010600012F09AFB0C990D98028840F23C00C2F2F3
:10107000004000F0C9F98BE040F2EC60C2F20040A1
:1010800090F8880101283ED1FFE741F20020C2F22A
:101090000040069090ED1E2A40F6E020C2F200408B
:1010A00008900221DFED521ACDED071AB0EE610A69
:1010B000F0EE610AB0EE611A12F0B6FA40F23800B2
:1010C000C2F200400990006812F066FB0699DDED5F
:1010D000071A089891ED1D2A0121B0EE610AF0EE81
:1010E000610AB0EE611A12F09FFA0998006812F0D6
:1010F00053FB08990998028840F23C00C2F2004074
:1011000000F082F943E040F2EC60C2F2004090F857
:101110008801D8BBFFE740F6E020C2F2004005900E
:1011200002219FED332A8DED032AB0EE420AF0EE44
:10113000420AB0EE421AF0EE421A12F075FA40F28C
:101140003800C2F200400490006812F025FB9DEDCB
:10115000032A05980121B0EE420AF0EE420AB0EEF1
:10116000421AF0EE421A12F05FFA0498006812F088
:1011700013FB049A059940F23C00C2F200400023A0
:10118000C3814386128800F03FF9FFE7FFE7FFE7DE
:1011900041F20021C2F20041D1F8902048F63C40D3
:1011A000C2F2004001900260D1F89410416040F218
:1011B000EC61C2F200410291D1F82C218260D1F899
:1011C0005C21C260D1F828210261D1F85821426126
:1011D000D1F860218261D1F86821C261D1F864211F
:1011E0000262D1F86C1141620A2110F0DDFBB3E616
:1011F000000000000000000086B004908DED030A9E
:10120000ADF80A10002001900090049818B9FFE78B
:101210000020059092E00498007800F00100012879
:101220000AD0FFE704990889488104990020C86022
:10123000049901200870FFE70499B1F90800B1F999
:101240000A10884210DAFFE70499B1F90800B1F9F1
:101250000A10401ABDF80A10084400EE100AB8EE51
:10126000C00A8DED010A18E00499B1F90800B1F93E
:101270000A10884210DDFFE70499B1F90800B1F9BE
:101280000A10401ABDF80A10401A00EE100AB8EE13
:10129000C00A8DED010AFFE7FFE70499B1F90800E4
:1012A000B1F90A10401A00EE100AB8EEC00A8DED2E
:1012B000000A0499088948819DED010AB0EEC00A30
:1012C0009DED001AB0EEC11AB4EE410AF1EE10FA2B
:1012D00018DDFFE79DED000ABDF80A0001EE100AD7
:1012E000B8EEC11A9DED032A21EE021A80EE011A12
:1012F000049890ED030A9FED132AA1EE020A80EDF7
:10130000030A17E09DED010ABDF80A0001EE100A7C
:10131000B8EEC11A9DED032A21EE021A80EE011AE1
:10132000049890ED030A9FED072AA1EE020A80EDD2
:10133000030AFFE70498C0680590FFE79DED050AE2
:1013400006B070470000B44380B584B003900291AA
:1013500001920198B0F5002F01D0FFE74BE0029811
:1013600080790399087702980178407840EA012053
:101370000399888202988178C07840EA0120039915
:10138000488202980179407940EA01200399088255
:10139000039800780146009140B1FFE700980128CA
:1013A00010D0FFE70098022818D023E003980C30F3
:1013B000B7EE000A4FF40051FFF71EFF039880EDCF
:1013C000060A18E003980C309FED0D0A4FF4005107
:1013D000FFF712FF039880ED060A0CE003980C302B
:1013E0009FED060A4FF40051FFF706FF039880EDCA
:1013F000060A00E0FFE704B080BD00BF0000104215
:101400003C3C7C410000000080B586B00590049112
:10141000ADF80E200598C07B8DF806000598C089B0
:101420008DF80700059890F833008DF808000598AE
:10143000408E8DF80900059890F857008DF80A0045
:101440000598B0F856008DF80B00059890F87B00D1
:101450008DF80C000598B0F87A008DF80D0004980E
:10146000059989880DF10602082310F0F5FEBDF8F4
:101470000E0012F091F906B080BD000000000000DF
:1014800080B540F60010C2F2004002F001F980BDC4
:1014900080B540F67810C2F2004002F0F9F880BD45
:1014A00080B540F6F010C2F2004002F0F1F880BDC5
:1014B00080B540F66820C2F2004002F0E9F880BD35
:1014C00083B002900298016801201022C4F2020247
:1014D0009142009000F0A380FFE70298016801208C
:1014E0002822C4F202029142009000F09880FFE7A7
:1014F0000298016801204022C4F202029142009049
:1015000000F08D80FFE70298016801205822C4F2A4
:1015100002029142009000F08280FFE70298016889
:1015200001207022C4F202029142009077D0FFE7BE
:101530000298016801208822C4F2020291420090C0
:101540006DD0FFE7029801680120A022C4F20202D8
:101550009142009063D0FFE7029801680120B82211
:10156000C4F202029142009059D0FFE7029801684C
:10157000012040F21042C4F20202914200904ED08B
:10158000FFE702980168012040F22842C4F20202FB
:101590009142009043D0FFE702980168012040F299
:1015A0004042C4F202029142009038D0FFE7029814
:1015B0000168012040F25842C4F2020291420090B8
:1015C0002DD0FFE702980168012040F27042C4F27A
:1015D00002029142009022D0FFE7029801680120A8
:1015E00040F28842C4F202029142009017D0FFE715
:1015F00002980168012040F2A042C4F20202914226
:1016000000900CD0FFE7029800684FF64831CBF607
:10161000FD710844B0FA80F040090090FFE700989F
:10162000C00740B3FFE70298007810384AF6AB21B4
:10163000CAF6AA21A0FB011000090190019800F050
:10164000070145F66400C0F60100405C0299C865D8
:101650000198042807D3FFE702990868042262F37F
:101660000900886506E00299086840F2FF3290435D
:101670008865FFE705E00299086820F0FF008865AB
:10168000FFE70298806D03B0704700000000000083
:1016900084B00390039800680190039801680120CA
:1016A00045F20842C5F60202914200904ED0FFE793
:1016B00003980168012045F21C42C5F602029142DE
:1016C000009043D0FFE703980168012045F23042C3
:1016D000C5F602029142009038D0FFE703980168F6
:1016E000012045F24442C5F60202914200902DD0FD
:1016F000FFE703980168012045F25842C5F602024F
:101700009142009022D0FFE703980168012045F242
:101710006C42C5F602029142009017D0FFE7039891
:101720000168012045F28042C5F602029142009014
:101730000CD0FFE7039800684AF66C31CAF2FD71DD
:101740000844B0FA80F040090090FFE70098C00715
:1017500010B3FFE70398007808384CF6CD41CCF67B
:10176000CC41A0FB011000090290029945F600004F
:10177000C5F6020000EB810003990866039945F65F
:101780008000C5F602004866029800F01F010120A3
:1017900088400399886635E00398007810384AF647
:1017A000AB21CAF6AA21A0FB011000090290019802
:1017B00040F2B841C4F2020188420CD8FFE7019818
:1017C00040F21041C4F20201884204D3FFE70298BC
:1017D00008300290FFE7029940F60000C4F20200D0
:1017E00000EB810003990866039940F68000C4F27B
:1017F00002004866029800F01F010120884003990A
:101800008866FFE704B0704783B0029002980079C1
:1018100001900198002800F08A80FFE701980828CD
:1018200000F28580FFE702980168012045F2084236
:10183000C5F60202914200904ED0FFE7029801687F
:10184000012045F21C42C5F602029142009043D0AD
:10185000FFE702980168012045F23042C5F6020216
:101860009142009038D0FFE702980168012045F2CC
:101870004442C5F60202914200902DD0FFE7029843
:101880000168012045F25842C5F6020291420090DB
:1018900022D0FFE702980168012045F26C42C5F6AC
:1018A00002029142009017D0FFE7029801680120E0
:1018B00045F28042C5F60202914200900CD0FFE74B
:1018C000029800684AF66C31CAF2FD710844B0FA19
:1018D00080F040090090FFE70098C00780B1FFE763
:1018E000019945F6FC00C5F6020000EB8100029963
:1018F000C866029945F64010C5F6020008670FE079
:10190000019940F6FC00C4F2020000EB810002994C
:10191000C866029940F64010C4F202000867FFE76B
:101920000198411E0120884002994867FFE703B0F3
:10193000704700000000000085B0049000208DF882
:101940000F000498806918BBFFE70498806A029032
:1019500003281BD80299DFE801F0020D0218049851
:1019600090F82F00C00720B1FFE701208DF80F008D
:10197000FFE70CE00498C06AB0F1C07F04D1FFE734
:1019800001208DF80F00FFE701E000E0FFE747E0EE
:1019900004988069B0F5005F26D1FFE70498806A5B
:1019A000019003281ED80199DFE801F00206021118
:1019B00001208DF80F0016E0049890F82F00C00762
:1019C00020B1FFE701208DF80F00FFE70BE004983E
:1019D000C06AB0F1C07F04D1FFE701208DF80F008D
:1019E000FFE700E0FFE71AE00498806A0090032810
:1019F00004D3FFE70098032804D00EE001208DF8FF
:101A00000F000BE0049890F82F00C00720B1FFE70B
:101A100001208DF80F00FFE700E0FFE7FFE7FFE799
:101A20009DF80F0005B0704789B0089007910692A5
:101A300005930898806D04900898806D039008982D
:101A4000016801201022C4F202029142029000F0CB
:101A50000381FFE70898016801202822C4F20202EE
:101A60009142029000F0F880FFE708980168012099
:101A70004022C4F202029142029000F0ED80FFE7A2
:101A80000898016801205822C4F202029142029093
:101A900000F0E280FFE70898016801207022C4F29C
:101AA00002029142029000F0D780FFE70898016897
:101AB00001208822C4F202029142029000F0CC8000
:101AC000FFE7089801680120A022C4F202029142B7
:101AD000029000F0C180FFE7089801680120B82259
:101AE000C4F202029142029000F0B680FFE708982B
:101AF0000168012040F21042C4F2020291420290B9
:101B000000F0AA80FFE708980168012040F228420F
:101B1000C4F202029142029000F09E80FFE7089812
:101B20000168012040F24042C4F202029142029058
:101B300000F09280FFE708980168012040F25842C7
:101B4000C4F202029142029000F08680FFE70898FA
:101B50000168012040F27042C4F2020291420290F8
:101B60007AD0FFE708980168012040F28842C4F269
:101B70000202914202906FD0FFE7089801680120AD
:101B800040F2A042C4F202029142029064D0FFE708
:101B900008980168012040F2B842C4F20202914262
:101BA000029059D0FFE708980168012045F20842E9
:101BB000C5F60202914202904ED0FFE708980168F4
:101BC000012045F21C42C5F602029142029043D028
:101BD000FFE708980168012045F23042C5F602028D
:101BE0009142029038D0FFE708980168012045F241
:101BF0004442C5F60202914202902DD0FFE70898B8
:101C00000168012045F25842C5F602029142029055
:101C100022D0FFE708980168012045F26C42C5F622
:101C200002029142029017D0FFE708980168012054
:101C300045F28042C5F60202914202900CD0FFE7C5
:101C4000089800684AF66C31CAF2FD710844B0FA8F
:101C500080F040090290FFE70298C00770B1FFE7EB
:101C60000898416E806E48600898C06E28B1FFE702
:101C70000898016F406F4860FFE7FFE70898016828
:101C800001201022C4F202029142019000F0A380D0
:101C9000FFE70898016801202822C4F2020291425D
:101CA000019000F09880FFE7089801680120402229
:101CB000C4F202029142019000F08D80FFE7089883
:101CC000016801205822C4F202029142019000F002
:101CD0008280FFE70898016801207022C4F20202A6
:101CE0009142019077D0FFE708980168012088228F
:101CF000C4F20202914201906DD0FFE7089801689A
:101D00000120A022C4F202029142019063D0FFE7B9
:101D1000089801680120B822C4F2020291420190A1
:101D200059D0FFE708980168012040F21042C4F240
:101D30000202914201904ED0FFE70898016801200D
:101D400040F22842C4F202029142019043D0FFE7E0
:101D500008980168012040F24042C4F20202914218
:101D6000019038D0FFE708980168012040F25842FE
:101D7000C4F20202914201902DD0FFE70898016859
:101D8000012040F27042C4F202029142019022D03E
:101D9000FFE708980168012040F28842C4F202027D
:101DA0009142019017D0FFE708980168012040F2A6
:101DB000A042C4F20202914201900CD0FFE70898C1
:101DC00000684FF64831CBF6FD710844B0FA80F058
:101DD00040090190FFE70198C00750B3FFE708985A
:101DE000C06D00F01F013F2088400499886008986A
:101DF0000168086820F4802008600598089909683F
:101E0000486008988068402809D1FFE7069808993B
:101E100009688860079808990968C86008E0079809
:101E2000089909688860069808990968C860FFE7FA
:101E300082E008980168012045F20842C5F60202D6
:101E4000914200904ED0FFE708980168012045F2CA
:101E50001C42C5F602029142009043D0FFE7089869
:101E60000168012045F23042C5F60202914200901D
:101E700038D0FFE708980168012045F24442C5F6D2
:101E80000202914200902DD0FFE7089801680120DE
:101E900045F25842C5F602029142009022D0FFE777
:101EA00008980168012045F26C42C5F60202914291
:101EB000009017D0FFE708980168012045F28042A2
:101EC000C5F60202914200900CD0FFE70898006826
:101ED0004AF66C31CAF2FD710844B0FA80F040094C
:101EE0000090FFE70098C00720B3FFE70898C06D97
:101EF00000F01F0101208840039948600598089967
:101F00000968486008988068402809D1FFE706986A
:101F1000089909688860079808990968C86008E006
:101F20000798089909688860069808990968C86040
:101F3000FFE700E0FFE7FFE709B07047000000009F
:101F400081B041F20400CEF20000006800900098D9
:101F500040F2E821C2F200410968884208D2FFE756
:101F600040F2EC21C2F20041086801300860FFE74E
:101F7000009840F2E821C2F20041086001B07047C9
:101F800080B584B0039041F20400CEF200000068F6
:101F90000290029803990968401A00EE100AB8EE00
:101FA000400A40F2DC20C2F2004090ED001AB8EE88
:101FB000411A80EE010A8DED010A0298039908602A
:101FC000FFF7BEFF9DED010A04B080BD00000000D8
:101FD00081B000904EF6FC51CEF20001086840F04E
:101FE0008070086041F20401CEF200010020086018
:101FF00041F20002CEF20002116841F001011160CD
:10200000009944F24022C0F20F024A4340F2DC2120
:10201000C2F200410A600A6844F6D353C1F2620377
:10202000A2FB0332920940F2E023C2F200431A609D
:1020300009684DF68362C4F21B32A1FB0221890CB0
:1020400040F2E422C2F20042116040F2EC21C2F2FE
:102050000041086001B070477047000000000000B8
:1020600083B0029001910092009890ED002A90EDCB
:10207000014A90ED026A90ED035AB6EE001AB0EEF6
:10208000417AA6EE467AA5EE457A029822EE050A36
:10209000A4EE060AD0ED000AD0ED011A90ED023A46
:1020A00020EE210AA7EE200A22EE062A94EE052A47
:1020B000A2EE030A30EE000A019880ED000A0098B3
:1020C00090ED002A90ED016A90ED024A90ED035ADE
:1020D00022EE057A96EE047A0298B0EE410AA6EE58
:1020E000460AA5EE450AD0ED000AD0ED011A90EDA2
:1020F000023A20EE210AA7EE200A22EE062AA4EEDA
:10210000052AA2EE030A30EE000A019880ED010ACA
:10211000009890ED000A90ED014A90ED023A90EDA2
:10212000032A20EE035AA4EE025A029820EE040A73
:1021300093EE020A90ED006A90ED017A90ED022A8A
:1021400020EE070AA5EE060AA4EE441AA3EE431AEF
:10215000A1EE020A30EE000A019880ED020A03B0F7
:10216000704700000000000081B0EFF3108072B6ED
:102170000090FFE7FEE7000080B58AB000200290E3
:10218000039002210491012105910690079040F6E9
:10219000E020C2F2004002A903F0A2FC18B1FFE760
:1021A000FFF7E2FFFFE768460023036040F6E02008
:1021B000C2F200400222114603F01EFD18B1FFE7F3
:1021C000FFF7D2FFFFE740F6E020C2F20040012116
:1021D000002203F095FB18B1FFE7FFF7C5FFFFE70B
:1021E00040F6E020C2F2004004F086FD18B1FFE79F
:1021F000FFF7BAFFFFE70AB080BD00000000000053
:1022000080B540F6E020C2F2004003F0B5FE80BD8C
:1022100080B58AB00020029001210391022104912F
:1022200005910690079040F68030C2F2004002A966
:1022300003F056FC18B1FFE7FFF796FFFFE768468B
:102240000023036040F68030C2F2004002221146B3
:1022500003F0D2FC18B1FFE7FFF786FFFFE740F677
:102260008030C2F200401021002203F049FB18B177
:10227000FFE7FFF779FFFFE740F68030C2F200404A
:1022800004F03AFD18B1FFE7FFF76EFFFFE70AB071
:1022900080BD00000000000080B540F68030C2F232
:1022A000004003F069FE80BD80B540F62040C2F2D8
:1022B000004003F061FE80BD84B002900298406B44
:1022C000009002980068D0F884004FF6FC718843B3
:1022D000009940EA810002990968C1F884000298D7
:1022E0000068D0F8840020F47F00029A1168926B95
:1022F00040EA0240C1F884000298816B00980844CB
:10230000009002980068D0F888006FF38F00009961
:1023100040EA810002990968C1F8880002980068C3
:10232000D0F8880020F4FE00029A1168D26B40EACF
:102330000240C1F888000298C16B009800EB410090
:10234000009002980068D0F8A0006FF38F00009909
:1023500040EA810002990968C1F8A000029800686B
:10236000D0F8A00020F4FE00029A1168126C40EA36
:102370000240C1F8A0000299086C496C009A00FB69
:102380000120009002980068D0F8B0006FF38F0031
:10239000009940EA810002990968C1F8B0000298EA
:1023A0000068D0F8B00020F4FE00029A1168926C28
:1023B00040EA0240C1F8B0000299886CC96C009AEA
:1023C00000FB0120009002980068D0F8AC006FF389
:1023D0008F00009940EA810002990968C1F8AC00B9
:1023E0000299086D496D009A00FB01200090029847
:1023F0000068D0F8F0006FF38F00009940EA810088
:1024000002990968C1F8F00002980068D0F8F0005D
:1024100020F47C10029A1168926D40EA0240C1F8E3
:10242000F0000298816D009800EB41000090029846
:102430000068D0F8C0006FF38F00009940EA810077
:1024400002990968C1F8C00002980068D0F8C0007D
:1024500020F47C10029A1168D26D40EA0240C1F863
:10246000C00002980068D0F8C00020F07C50029AAA
:102470001168126E40EA0260C1F8C00002994A6B0E
:102480004AF60040C4F2000000EB8200C8660299E0
:102490008A6BC86E00EB820008670299CA6B086FEE
:1024A00000EBC200486702990A6C4B6C486F5A43B4
:1024B00000EB8200886702998A6CCB6C886F5A4364
:1024C00000EB8200C86702990A6D4B6DC86F5A43D2
:1024D00000EB8200C1F8800002998A6DD1F880007B
:1024E00000EBC200C1F884000299CA6D8B6ED1F86E
:1024F00084005A4300EB8200C1F8880002990A6EFA
:102500008B6ED1F888005A4300EB8200C1F890002E
:102510000298D0F890004DF2FD31C4F200018842DB
:102520000FD3FFE70299D1F89C0040F02000C1F8DA
:102530009C000299032081F8980001208DF80F007B
:1025400017E00298C06E0190FFE701980299D1F858
:102550009010884208D2FFE7019900200860FFE749
:10256000019804300190F0E7FFE700208DF80F009C
:10257000FFE79DF80F0004B0704700000000000066
:1025800088B007900691059204930698406848B970
:10259000FFE70698016882680069104340EA8140BD
:1025A000039009E0069801688268006910430843B7
:1025B00040F080400390FFE70698D0F820C0C16843
:1025C00042698369C06940EA0C60184310430843BC
:1025D00002900798826ED0F884000499514300EB72
:1025E00081000190039801990860019804300190DE
:1025F0000298019908600198043001900020009031
:10260000FFE700980699CA8945F65401C0F6010112
:10261000895C88420DD2FFE70598009940580199DE
:102620000860019804300190FFE7009804300090A2
:10263000E7E708B07047000083B08DED020A019013
:10264000029800900098019908700098000A01997A
:102650004870BDF80200019988709DF80300019947
:10266000C87003B07047000080B58AB0089004F0CD
:102670009BFD0490089828B9FFE701208DF82700FA
:1026800000F0AABC089890F8350002280ED0FFE7A9
:10269000089980204865FFE70899002081F83400F8
:1026A000FFE701208DF8270000F096BC089801682C
:1026B00001201022C4F202029142039000F0A38094
:1026C000FFE70898016801202822C4F20202914223
:1026D000039000F09880FFE70898016801204022ED
:1026E000C4F202029142039000F08D80FFE7089847
:1026F000016801205822C4F202029142039000F0C6
:102700008280FFE70898016801207022C4F202026B
:102710009142039077D0FFE7089801680120882252
:10272000C4F20202914203906DD0FFE7089801685D
:102730000120A022C4F202029142039063D0FFE77D
:10274000089801680120B822C4F202029142039065
:1027500059D0FFE708980168012040F21042C4F206
:102760000202914203904ED0FFE7089801680120D1
:1027700040F22842C4F202029142039043D0FFE7A4
:1027800008980168012040F24042C4F202029142DE
:10279000039038D0FFE708980168012040F25842C2
:1027A000C4F20202914203902DD0FFE7089801681D
:1027B000012040F27042C4F202029142039022D002
:1027C000FFE708980168012040F28842C4F2020243
:1027D0009142039017D0FFE708980168012040F26A
:1027E000A042C4F20202914203900CD0FFE7089885
:1027F00000684FF64831CBF6FD710844B0FA80F01E
:1028000040090390FFE70398C00780B1FFE70898ED
:102810000168086820F01E0008600898016848698F
:1028200020F08000486108980068059009E0089849
:102830000168086820F00E0008600898006805909C
:10284000FFE70898016801201022C4F202029142B9
:10285000029000F00381FFE7089801680120282218
:10286000C4F202029142029000F0F880FFE708985B
:10287000016801204022C4F202029142029000F05D
:10288000ED80FFE70898016801205822C4F2020297
:102890009142029000F0E280FFE708980168012071
:1028A0007022C4F202029142029000F0D780FFE74A
:1028B0000898016801208822C4F202029142029025
:1028C00000F0CC80FFE7089801680120A022C4F244
:1028D00002029142029000F0C180FFE7089801686F
:1028E0000120B822C4F202029142029000F0B680A8
:1028F000FFE708980168012040F21042C4F202028A
:102900009142029000F0AA80FFE708980168012038
:1029100040F22842C4F202029142029000F09E80EE
:10292000FFE708980168012040F24042C4F2020229
:102930009142029000F09280FFE708980168012020
:1029400040F25842C4F202029142029000F08680A6
:10295000FFE708980168012040F27042C4F20202C9
:10296000914202907AD0FFE708980168012040F276
:102970008842C4F20202914202906FD0FFE70898A9
:102980000168012040F2A042C4F20202914202908A
:1029900064D0FFE708980168012040F2B842C4F211
:1029A00002029142029059D0FFE708980168012085
:1029B00045F20842C5F60202914202904ED0FFE76E
:1029C00008980168012045F21C42C5F602029142B6
:1029D000029043D0FFE708980168012045F2304299
:1029E000C5F602029142029038D0FFE708980168CC
:1029F000012045F24442C5F60202914202902DD0D8
:102A0000FFE708980168012045F25842C5F6020226
:102A10009142029022D0FFE708980168012045F218
:102A20006C42C5F602029142029017D0FFE7089867
:102A30000168012045F28042C5F6020291420290EF
:102A40000CD0FFE7089800684AF66C31CAF2FD71B5
:102A50000844B0FA80F040090290FFE70298C007EE
:102A600038B1FFE70898016E086820F480700860AC
:102A7000FFE7089800681021C4F20201884200F0C4
:102A80008180FFE7089800682821C4F2020188428B
:102A900078D0FFE7089800684021C4F2020188421C
:102AA00070D0FFE7089800685821C4F202018842FC
:102AB00068D0FFE7089800687021C4F202018842DC
:102AC00060D0FFE7089800688821C4F202018842BC
:102AD00058D0FFE708980068A021C4F2020188429C
:102AE00050D0FFE708980068B821C4F2020188427C
:102AF00048D0FFE70898006840F21041C4F2020194
:102B000088423FD0FFE70898006840F22841C4F2AD
:102B10000201884236D0FFE70898006840F2404141
:102B2000C4F2020188422DD0FFE70898006840F205
:102B30005841C4F20201884224D0FFE70898006897
:102B400040F27041C4F2020188421BD0FFE70898AE
:102B5000006840F28841C4F20201884212D0FFE7C7
:102B60000898006840F2A041C4F20201884209D0EE
:102B7000FFE70898006840F2B841C4F202018842B9
:102B800007D1FFE708980168086820F00100086095
:102B900006E008980168086820F001000860FFE777
:102BA000FFE705980068C007C8B1FFE704F0FCFA2A
:102BB0000499401A062811D3FFE708992020486598
:102BC0000899032081F83500FFE70899002081F873
:102BD0003400FFE701208DF82700FDE1E1E70898C8
:102BE000016801201022C4F202029142019000F01B
:102BF000A380FFE70898016801202822C4F202029E
:102C00009142019000F09880FFE708980168012048
:102C10004022C4F202029142019000F08D80FFE751
:102C20000898016801205822C4F2020291420190E2
:102C300000F08280FFE70898016801207022C4F24A
:102C400002029142019077D0FFE7089801680120C5
:102C50008822C4F20202914201906DD0FFE70898E9
:102C600001680120A022C4F202029142019063D0C7
:102C7000FFE7089801680120B822C4F202029142DD
:102C8000019059D0FFE708980168012040F21042F6
:102C9000C4F20202914201904ED0FFE70898016809
:102CA000012040F22842C4F202029142019043D036
:102CB000FFE708980168012040F24042C4F2020296
:102CC0009142019038D0FFE708980168012040F256
:102CD0005842C4F20202914201902DD0FFE70898B9
:102CE0000168012040F27042C4F202029142019058
:102CF00022D0FFE708980168012040F28842C4F220
:102D000002029142019017D0FFE708980168012064
:102D100040F2A042C4F20202914201900CD0FFE7BF
:102D2000089800684FF64831CBF6FD710844B0FAB8
:102D300080F040090190FFE70198C00760B1FFE70C
:102D40000898806D07900898C06D00F01F013F2023
:102D50008840079988600BE00898806D0690089875
:102D6000C06D00F01F010120884006994860FFE710
:102D70000898016801201022C4F2020291420090DA
:102D800000F00381FFE70898016801202822C4F2BF
:102D900002029142009000F0F880FFE70898016875
:102DA00001204022C4F202029142009000F0ED8026
:102DB000FFE70898016801205822C4F202029142FC
:102DC000009000F0E280FFE708980168012070227F
:102DD000C4F202029142009000F0D780FFE7089809
:102DE000016801208822C4F202029142009000F0A2
:102DF000CC80FFE7089801680120A022C4F20202FB
:102E00009142009000F0C180FFE70898016801201E
:102E1000B822C4F202029142009000F0B680FFE7AF
:102E200008980168012040F21042C4F20202914267
:102E3000009000F0AA80FFE708980168012040F2A6
:102E40002842C4F202029142009000F09E80FFE707
:102E500008980168012040F24042C4F20202914207
:102E6000009000F09280FFE708980168012040F28E
:102E70005842C4F202029142009000F08680FFE7BF
:102E800008980168012040F27042C4F202029142A7
:102E900000907AD0FFE708980168012040F288424C
:102EA000C4F20202914200906FD0FFE708980168D7
:102EB000012040F2A042C4F202029142009064D08C
:102EC000FFE708980168012040F2B842C4F202020C
:102ED0009142009059D0FFE708980168012045F21F
:102EE0000842C5F60202914200904ED0FFE70898D2
:102EF0000168012045F21C42C5F602029142009091
:102F000043D0FFE708980168012045F23042C5F63A
:102F100002029142009038D0FFE708980168012032
:102F200045F24442C5F60202914200902DD0FFE7DF
:102F300008980168012045F25842C5F60202914204
:102F4000009022D0FFE708980168012045F26C420A
:102F5000C5F602029142009017D0FFE70898016879
:102F6000012045F28042C5F60202914200900CD049
:102F7000FFE7089800684AF66C31CAF2FD71084410
:102F8000B0FA80F040090090FFE70098C007A0B1B8
:102F9000FFE70898416E806E48600898C06E58B18F
:102FA000FFE70898C16E086820F4807008600898F0
:102FB000016F406F4860FFE7FFE70899012081F843
:102FC0003500FFE70899002081F83400FFE7FFE7AC
:102FD00000208DF82700FFE79DF827000AB080BD8C
:102FE00080B586B00490049820B9FFE701208DF8E1
:102FF000170046E3049890F83500022807D0FFE751
:1030000004998020486501208DF8170039E3049861
:10301000016801201022C4F202029142029000F0E5
:10302000A380FFE70498016801202822C4F202026D
:103030009142029000F09880FFE704980168012017
:103040004022C4F202029142029000F08D80FFE71C
:103050000498016801205822C4F2020291420290B1
:1030600000F08280FFE70498016801207022C4F21A
:1030700002029142029077D0FFE704980168012094
:103080008822C4F20202914202906DD0FFE70498B8
:1030900001680120A022C4F202029142029063D092
:1030A000FFE7049801680120B822C4F202029142AD
:1030B000029059D0FFE704980168012040F21042C5
:1030C000C4F20202914202904ED0FFE704980168D8
:1030D000012040F22842C4F202029142029043D001
:1030E000FFE704980168012040F24042C4F2020266
:1030F0009142029038D0FFE704980168012040F225
:103100005842C4F20202914202902DD0FFE7049887
:103110000168012040F27042C4F202029142029022
:1031200022D0FFE704980168012040F28842C4F2EF
:1031300002029142029017D0FFE704980168012033
:1031400040F2A042C4F20202914202900CD0FFE78A
:10315000049800684FF64831CBF6FD710844B0FA88
:1031600080F040090290FFE70298C007002800F0B5
:103170009D80FFE70499042081F8350004980068D9
:103180001021C4F20201884200F08180FFE7049818
:1031900000682821C4F20201884278D0FFE7049831
:1031A00000684021C4F20201884270D0FFE7049811
:1031B00000685821C4F20201884268D0FFE70498F1
:1031C00000687021C4F20201884260D0FFE70498D1
:1031D00000688821C4F20201884258D0FFE70498B1
:1031E0000068A021C4F20201884250D0FFE7049891
:1031F0000068B821C4F20201884248D0FFE7049871
:10320000006840F21041C4F2020188423FD0FFE75B
:103210000498006840F22841C4F20201884236D086
:10322000FFE70498006840F24041C4F2020188427E
:103230002DD0FFE70498006840F25841C4F2020123
:10324000884224D0FFE70498006840F27041C4F23D
:10325000020188421BD0FFE70498006840F28841D1
:10326000C4F20201884212D0FFE70498006840F2DD
:10327000A041C4F20201884209D0FFE70498006827
:1032800040F2B841C4F20201884207D1FFE7049836
:103290000168086820F00100086006E004980168F1
:1032A000086820F001000860FFE7E5E10498016884
:1032B000086820F00E000860049800681021C4F22D
:1032C0000201884200F08180FFE70498006828210D
:1032D000C4F20201884278D0FFE7049800684021D8
:1032E000C4F20201884270D0FFE7049800685821B8
:1032F000C4F20201884268D0FFE704980068702198
:10330000C4F20201884260D0FFE704980068882177
:10331000C4F20201884258D0FFE704980068A02157
:10332000C4F20201884250D0FFE704980068B82137
:10333000C4F20201884248D0FFE70498006840F2D6
:103340001041C4F2020188423FD0FFE704980068B0
:1033500040F22841C4F20201884236D0FFE70498C7
:10336000006840F24041C4F2020188422DD0FFE7DC
:103370000498006840F25841C4F20201884224D007
:10338000FFE70498006840F27041C4F202018842ED
:103390001BD0FFE70498006840F28841C4F20201A4
:1033A000884212D0FFE70498006840F2A041C4F2BE
:1033B0000201884209D0FFE70498006840F2B84152
:1033C000C4F20201884207D1FFE704980168086847
:1033D00020F00100086006E004980168086820F009
:1033E00001000860FFE70498016801201022C4F280
:1033F00002029142019000F00381FFE70498016806
:1034000001202822C4F202029142019000F0F880CB
:10341000FFE70498016801204022C4F202029142B1
:10342000019000F0ED80FFE7049801680120582228
:10343000C4F202029142019000F0E280FFE704989A
:10344000016801207022C4F202029142019000F052
:10345000D780FFE70498016801208822C4F20202A5
:103460009142019000F0CC80FFE7049801680120B0
:10347000A022C4F202029142019000F0C180FFE755
:10348000049801680120B822C4F20202914201901E
:1034900000F0B680FFE704980168012040F2104276
:1034A000C4F202029142019000F0AA80FFE7049862
:1034B0000168012040F22842C4F2020291420190C8
:1034C00000F09E80FFE704980168012040F240422E
:1034D000C4F202029142019000F09280FFE704984A
:1034E0000168012040F25842C4F202029142019068
:1034F00000F08680FFE704980168012040F27042E6
:10350000C4F20202914201907AD0FFE70498016868
:10351000012040F28842C4F20202914201906FD031
:10352000FFE704980168012040F2A042C4F20202C1
:103530009142019064D0FFE704980168012040F2B5
:10354000B842C4F202029142019059D0FFE70498B8
:103550000168012045F20842C5F60202914201903D
:103560004ED0FFE704980168012045F21C42C5F6E1
:1035700002029142019043D0FFE7049801680120C4
:1035800045F23042C5F602029142019038D0FFE781
:1035900004980168012045F24442C5F602029142B6
:1035A00001902DD0FFE704980168012045F25842B0
:1035B000C5F602029142019022D0FFE7049801680B
:1035C000012045F26C42C5F602029142019017D0EB
:1035D000FFE704980168012045F28042C5F6020227
:1035E000914201900CD0FFE7049800684AF66C31D4
:1035F000CAF2FD710844B0FA80F040090190FFE77B
:103600000198C00728B3FFE70498016E086820F40A
:10361000807008600498806D03900498C06D00F07D
:103620001F0101208840039948600498416E806E14
:1036300048600498C06E58B1FFE70498C16E0868EE
:1036400020F4807008600498016F406F4860FFE7C5
:10365000FFE70499012081F83500FFE70499002075
:1036600081F83400FFE70498006D20B1FFE704986B
:10367000016D8847FFE7FFE7FFE700208DF817009F
:10368000FFE79DF8170006B080BD000000000000B5
:1036900080B590B00F9000200B9040F2C810C2F29D
:1036A0000040006848F2B511C1F64E31A0FB011090
:1036B000800A0A900F98806D09900F98806D08908D
:1036C000099800680E90089800680D900F9801689E
:1036D00001201022C4F202029142079000F0A38060
:1036E000FFE70F98016801202822C4F202029142EC
:1036F000079000F09880FFE70F98016801204022B2
:10370000C4F202029142079000F08D80FFE70F980B
:10371000016801205822C4F202029142079000F091
:103720008280FFE70F98016801207022C4F2020234
:103730009142079077D0FFE70F9801680120882217
:10374000C4F20202914207906DD0FFE70F98016822
:103750000120A022C4F202029142079063D0FFE749
:103760000F9801680120B822C4F20202914207902A
:1037700059D0FFE70F980168012040F21042C4F2CF
:103780000202914207904ED0FFE70F980168012096
:1037900040F22842C4F202029142079043D0FFE770
:1037A0000F980168012040F24042C4F202029142A7
:1037B000079038D0FFE70F980168012040F2584287
:1037C000C4F20202914207902DD0FFE70F980168E2
:1037D000012040F27042C4F202029142079022D0CE
:1037E000FFE70F980168012040F28842C4F202020C
:1037F0009142079017D0FFE70F980168012040F22F
:10380000A042C4F20202914207900CD0FFE70F9849
:1038100000684FF64831CBF6FD710844B0FA80F0ED
:1038200040090790FFE70798C007002800F01385BC
:10383000FFE70E980F99C96D01F01F01C8400007FE
:10384000002840F1B080FFE70F9800681021C4F213
:103850000201884200F08180FFE70F98006828216C
:10386000C4F20201884278D0FFE70F980068402137
:10387000C4F20201884270D0FFE70F980068582117
:10388000C4F20201884268D0FFE70F9800687021F7
:10389000C4F20201884260D0FFE70F9800688821D7
:1038A000C4F20201884258D0FFE70F980068A021B7
:1038B000C4F20201884250D0FFE70F980068B82197
:1038C000C4F20201884248D0FFE70F98006840F236
:1038D0001041C4F2020188423FD0FFE70F98006810
:1038E00040F22841C4F20201884236D0FFE70F9827
:1038F000006840F24041C4F2020188422DD0FFE747
:103900000F98006840F25841C4F20201884224D066
:10391000FFE70F98006840F27041C4F2020188424C
:103920001BD0FFE70F98006840F28841C4F2020103
:10393000884212D0FFE70F98006840F2A041C4F21D
:103940000201884209D0FFE70F98006840F2B841B1
:10395000C4F20201884207D1FFE70F9800680068AF
:1039600000F00400069006E00F980068006800F080
:1039700008000690FFE70698A0B1FFE70F980168DE
:10398000086820F0040008600F98C06D00F01F0167
:1039900008208840099988600F99486D40F001001F
:1039A0004865FFE7FFE70E980F99C96D01F01F0109
:1039B000C840C007002800F0A980FFE70F98006802
:1039C0001021C4F20201884200F08180FFE70F98C5
:1039D00000682821C4F20201884278D0FFE70F98DE
:1039E00000684021C4F20201884270D0FFE70F98BE
:1039F00000685821C4F20201884268D0FFE70F989E
:103A000000687021C4F20201884260D0FFE70F987D
:103A100000688821C4F20201884258D0FFE70F985D
:103A20000068A021C4F20201884250D0FFE70F983D
:103A30000068B821C4F20201884248D0FFE70F981D
:103A4000006840F21041C4F2020188423FD0FFE713
:103A50000F98006840F22841C4F20201884236D033
:103A6000FFE70F98006840F24041C4F2020188422B
:103A70002DD0FFE70F98006840F25841C4F20201D0
:103A8000884224D0FFE70F98006840F27041C4F2EA
:103A9000020188421BD0FFE70F98006840F288417E
:103AA000C4F20201884212D0FFE70F98006840F28A
:103AB000A041C4F20201884209D0FFE70F980068D4
:103AC00040F2B841C4F20201884207D1FFE70F98E3
:103AD0000068406900F08000059005E00F980068DC
:103AE000006800200590FFE7059870B1FFE70F9888
:103AF000C06D00F01F0101208840099988600F996E
:103B0000486D40F002004865FFE7FFE70E980F9907
:103B1000C96D01F01F01C8404007002840F1A9808D
:103B2000FFE70F9800681021C4F20201884200F0FC
:103B30008180FFE70F9800682821C4F202018842C3
:103B400078D0FFE70F9800684021C4F20201884254
:103B500070D0FFE70F9800685821C4F20201884234
:103B600068D0FFE70F9800687021C4F20201884214
:103B700060D0FFE70F9800688821C4F202018842F4
:103B800058D0FFE70F980068A021C4F202018842D4
:103B900050D0FFE70F980068B821C4F202018842B4
:103BA00048D0FFE70F98006840F21041C4F20201CC
:103BB00088423FD0FFE70F98006840F22841C4F2E6
:103BC0000201884236D0FFE70F98006840F240417A
:103BD000C4F2020188422DD0FFE70F98006840F23E
:103BE0005841C4F20201884224D0FFE70F980068D0
:103BF00040F27041C4F2020188421BD0FFE70F98E7
:103C0000006840F28841C4F20201884212D0FFE706
:103C10000F98006840F2A041C4F20201884209D026
:103C2000FFE70F98006840F2B841C4F202018842F1
:103C300007D1FFE70F980068006800F002000490C9
:103C400005E00F980068006800200490FFE70498E2
:103C500070B1FFE70F98C06D00F01F01042088408D
:103C6000099988600F99486D40F004004865FFE7A6
:103C7000FFE70E980F99C96D01F01F01C840C006FB
:103C8000002840F1DE80FFE70F9800681021C4F2A1
:103C90000201884200F08180FFE70F980068282128
:103CA000C4F20201884278D0FFE70F9800684021F3
:103CB000C4F20201884270D0FFE70F9800685821D3
:103CC000C4F20201884268D0FFE70F9800687021B3
:103CD000C4F20201884260D0FFE70F980068882193
:103CE000C4F20201884258D0FFE70F980068A02173
:103CF000C4F20201884250D0FFE70F980068B82153
:103D0000C4F20201884248D0FFE70F98006840F2F1
:103D10001041C4F2020188423FD0FFE70F980068CB
:103D200040F22841C4F20201884236D0FFE70F98E2
:103D3000006840F24041C4F2020188422DD0FFE702
:103D40000F98006840F25841C4F20201884224D022
:103D5000FFE70F98006840F27041C4F20201884208
:103D60001BD0FFE70F98006840F28841C4F20201BF
:103D7000884212D0FFE70F98006840F2A041C4F2D9
:103D80000201884209D0FFE70F98006840F2B8416D
:103D9000C4F20201884207D1FFE70F98006800686B
:103DA00000F00800039006E00F980068006800F03B
:103DB00004000390FFE70398002841D0FFE70F9825
:103DC000C06D00F01F0110208840099988600F988D
:103DD00000680068400300281AD5FFE70F980068C4
:103DE00000680003002809D4FFE70F98006C20B199
:103DF000FFE70F98016C8847FFE708E00F98806C99
:103E000020B1FFE70F98816C8847FFE7FFE716E0D6
:103E10000F9800680068C005002807D4FFE70F98D6
:103E20000168086820F008000860FFE70F98006C40
:103E300020B1FFE70F98016C8847FFE7FFE7FFE736
:103E4000FFE70E980F99C96D01F01F01C840800669
:103E5000002840F12681FFE70F9800681021C4F286
:103E60000201884200F08180FFE70F980068282156
:103E7000C4F20201884278D0FFE70F980068402121
:103E8000C4F20201884270D0FFE70F980068582101
:103E9000C4F20201884268D0FFE70F9800687021E1
:103EA000C4F20201884260D0FFE70F9800688821C1
:103EB000C4F20201884258D0FFE70F980068A021A1
:103EC000C4F20201884250D0FFE70F980068B82181
:103ED000C4F20201884248D0FFE70F98006840F220
:103EE0001041C4F2020188423FD0FFE70F980068FA
:103EF00040F22841C4F20201884236D0FFE70F9811
:103F0000006840F24041C4F2020188422DD0FFE730
:103F10000F98006840F25841C4F20201884224D050
:103F2000FFE70F98006840F27041C4F20201884236
:103F30001BD0FFE70F98006840F28841C4F20201ED
:103F4000884212D0FFE70F98006840F2A041C4F207
:103F50000201884209D0FFE70F98006840F2B8419B
:103F6000C4F20201884207D1FFE70F980068006899
:103F700000F01000029006E00F980068006800F062
:103F800002000290FFE70298002800F08980FFE716
:103F90000F98C06D00F01F012020884009998860AB
:103FA0000F9890F83500042837D1FFE70F98016883
:103FB000086820F0160008600F980168486920F032
:103FC000800048610F98006C20B9FFE70F98806C63
:103FD00038B1FFE70F980168086820F00800086012
:103FE000FFE70F98C06D00F01F013F20884009993E
:103FF00088600F99012081F83500FFE70F990020B4
:1040000081F83400FFE70F98006D20B1FFE70F98AB
:10401000016D8847FFE700F019BC0F980068006841
:10402000400300281AD5FFE70F98006800680003D6
:10403000002809D4FFE70F98406C20B1FFE70F98E4
:10404000416C8847FFE708E00F98C06B20B1FFE79D
:104050000F98C16B8847FFE7FFE720E00F980068E3
:104060000068C005002811D4FFE70F9801680868B0
:1040700020F0100008600F99012081F83500FFE75B
:104080000F99002081F83400FFE7FFE70F98C06B1D
:1040900020B1FFE70F98C16B8847FFE7FFE7FFE715
:1040A000FFE70F98406D002800F0D480FFE70F98DD
:1040B000406DC007002800F0C480FFE70F9904207E
:1040C00081F835000F9800681021C4F2020188427F
:1040D00000F08180FFE70F9800682821C4F20201F8
:1040E000884278D0FFE70F9800684021C4F20201AF
:1040F000884270D0FFE70F9800685821C4F202018F
:10410000884268D0FFE70F9800687021C4F202016E
:10411000884260D0FFE70F9800688821C4F202014E
:10412000884258D0FFE70F980068A021C4F202012E
:10413000884250D0FFE70F980068B821C4F202010E
:10414000884248D0FFE70F98006840F21041C4F25F
:10415000020188423FD0FFE70F98006840F22841F3
:10416000C4F20201884236D0FFE70F98006840F29F
:104170004041C4F2020188422DD0FFE70F98006849
:1041800040F25841C4F20201884224D0FFE70F9860
:10419000006840F27041C4F2020188421BD0FFE780
:1041A0000F98006840F28841C4F20201884212D0A0
:1041B000FFE70F98006840F2A041C4F20201884274
:1041C00009D0FFE70F98006840F2B841C4F202013D
:1041D000884207D1FFE70F980168086820F00100C6
:1041E000086006E00F980168086820F00100086088
:1041F000FFE7FFE70B9801300B900A99884201D93D
:10420000FFE707E0FFE70F9800680068C007002895
:10421000F0D1FFE70F9800680068C00728B1FFE7FA
:104220000F99032081F8350004E00F99012081F8EF
:104230003500FFE7FFE70F99002081F83400FFE722
:10424000FFE70F98C06C20B1FFE70F98C16C88475B
:10425000FFE7FFE7FAE20F980168012045F2084204
:10426000C5F60202914201904ED0FFE70F98016817
:10427000012045F21C42C5F602029142019043D052
:10428000FFE70F980168012045F23042C5F60202AF
:104290009142019038D0FFE70F980168012045F264
:1042A0004442C5F60202914201902DD0FFE70F98DB
:1042B0000168012045F25842C5F602029142019080
:1042C00022D0FFE70F980168012045F26C42C5F645
:1042D00002029142019017D0FFE70F980168012078
:1042E00045F28042C5F60202914201900CD0FFE7F0
:1042F0000F9800684AF66C31CAF2FD710844B0FAB2
:1043000080F040090190FFE70198C007002800F005
:104310009B82FFE70F98006800680C900D980F993A
:10432000C96D01F01F01C8404007002840F1D78047
:10433000FFE79DF830004007002840F1D080FFE7FC
:104340000F98C06D00F01F01042088400899486054
:104350009DF831000006002818D5FFE79DF83200CF
:10436000C00748B9FFE70F98806C20B1FFE70F98AE
:10437000816C8847FFE708E00F98006C20B1FFE7E9
:104380000F98016C8847FFE7FFE7A7E09DF8300032
:104390008006002800F19980FFE70F98006810213F
:1043A000C4F20201884200F08180FFE70F980068A4
:1043B0002821C4F20201884278D0FFE70F980068F4
:1043C0004021C4F20201884270D0FFE70F980068D4
:1043D0005821C4F20201884268D0FFE70F980068B4
:1043E0007021C4F20201884260D0FFE70F98006894
:1043F0008821C4F20201884258D0FFE70F98006874
:10440000A021C4F20201884250D0FFE70F98006853
:10441000B821C4F20201884248D0FFE70F98006833
:1044200040F21041C4F2020188423FD0FFE70F98EA
:10443000006840F22841C4F20201884236D0FFE70A
:104440000F98006840F24041C4F2020188422DD02A
:10445000FFE70F98006840F25841C4F20201884219
:1044600024D0FFE70F98006840F27041C4F20201C7
:1044700088421BD0FFE70F98006840F28841C4F2E1
:104480000201884212D0FFE70F98006840F2A04175
:10449000C4F20201884209D0FFE70F98006840F299
:1044A000B841C4F20201884207D1FFE70F980168C2
:1044B000086820F00800086006E00F9801680868A6
:1044C00020F004000860FFE7FFE70F98006C20B1C0
:1044D000FFE70F98016C8847FFE7FFE7B3E10D980E
:1044E0000F99C96D01F01F01C8408007002840F1F5
:1044F000E180FFE79DF830008007002840F1DA8076
:10450000FFE70F98C06D00F01F0102208840089956
:1045100048609DF831000006002818D5FFE79DF897
:104520003200C00748B9FFE70F98406C20B1FFE7A1
:104530000F98416C8847FFE708E00F98C06B20B1E7
:10454000FFE70F98C16B8847FFE7FFE7B1E09DF8F1
:1045500030008006002800F1A380FFE70F98006874
:104560001021C4F20201884200F08180FFE70F9819
:1045700000682821C4F20201884278D0FFE70F9832
:1045800000684021C4F20201884270D0FFE70F9812
:1045900000685821C4F20201884268D0FFE70F98F2
:1045A00000687021C4F20201884260D0FFE70F98D2
:1045B00000688821C4F20201884258D0FFE70F98B2
:1045C0000068A021C4F20201884250D0FFE70F9892
:1045D0000068B821C4F20201884248D0FFE70F9872
:1045E000006840F21041C4F2020188423FD0FFE768
:1045F0000F98006840F22841C4F20201884236D088
:10460000FFE70F98006840F24041C4F2020188427F
:104610002DD0FFE70F98006840F25841C4F2020124
:10462000884224D0FFE70F98006840F27041C4F23E
:10463000020188421BD0FFE70F98006840F28841D2
:10464000C4F20201884212D0FFE70F98006840F2DE
:10465000A041C4F20201884209D0FFE70F98006828
:1046600040F2B841C4F20201884207D1FFE70F9837
:104670000168086820F01400086006E00F980168DF
:10468000086820F00A000860FFE70F99012081F810
:104690003500FFE70F99002081F83400FFE7FFE7BE
:1046A0000F98C06B20B1FFE70F98C16B8847FFE7F9
:1046B000FFE7C7E00D980F99C96D01F01F01C840D1
:1046C0000007002840F1BC80FFE79DF8300000079C
:1046D000002840F1B580FFE70F9800681021C4F270
:1046E0000201884200F08180FFE70F9800682821CE
:1046F000C4F20201884278D0FFE70F980068402199
:10470000C4F20201884270D0FFE70F980068582178
:10471000C4F20201884268D0FFE70F980068702158
:10472000C4F20201884260D0FFE70F980068882138
:10473000C4F20201884258D0FFE70F980068A02118
:10474000C4F20201884250D0FFE70F980068B821F8
:10475000C4F20201884248D0FFE70F98006840F297
:104760001041C4F2020188423FD0FFE70F98006871
:1047700040F22841C4F20201884236D0FFE70F9888
:10478000006840F24041C4F2020188422DD0FFE7A8
:104790000F98006840F25841C4F20201884224D0C8
:1047A000FFE70F98006840F27041C4F202018842AE
:1047B0001BD0FFE70F98006840F28841C4F2020165
:1047C000884212D0FFE70F98006840F2A041C4F27F
:1047D0000201884209D0FFE70F98006840F2B84113
:1047E000C4F20201884207D1FFE70F980168086808
:1047F00020F01C00086006E00F980168086820F0AF
:104800000E000860FFE70F98C06D00F01F01012047
:1048100000FA01F1089A51600F9948650F9981F8E3
:104820003500FFE70F99002081F83400FFE70F986B
:10483000C06C20B1FFE70F98C16C8847FFE700E02C
:10484000FFE7FFE7FFE700E0FFE7FFE710B080BD0D
:1048500010B58EB00C9002F0A7FC0A900C9828B905
:10486000FFE701208DF8370000F09EBC0C9801682E
:1048700001201022C4F202029142079000F0A380AE
:10488000FFE70C98016801202822C4F2020291423D
:10489000079000F09880FFE70C9801680120402203
:1048A000C4F202029142079000F08D80FFE70C985D
:1048B000016801205822C4F202029142079000F0E0
:1048C0008280FFE70C98016801207022C4F2020286
:1048D0009142079077D0FFE70C9801680120882269
:1048E000C4F20202914207906DD0FFE70C98016874
:1048F0000120A022C4F202029142079063D0FFE798
:104900000C9801680120B822C4F20202914207907B
:1049100059D0FFE70C980168012040F21042C4F220
:104920000202914207904ED0FFE70C9801680120E7
:1049300040F22842C4F202029142079043D0FFE7BE
:104940000C980168012040F24042C4F202029142F8
:10495000079038D0FFE70C980168012040F25842D8
:10496000C4F20202914207902DD0FFE70C98016833
:10497000012040F27042C4F202029142079022D01C
:10498000FFE70C980168012040F28842C4F202025D
:104990009142079017D0FFE70C980168012040F280
:1049A000A042C4F20202914207900CD0FFE70C989B
:1049B00000684FF64831CBF6FD710844B0FA80F03C
:1049C00040090790FFE70798C007002800F07881AA
:1049D000FFE70C98406A08B1FFE7FFE70C99022057
:1049E00081F83500FFE70C99002081F83400FFE7DB
:1049F0000C9800681021C4F20201884200F0818006
:104A0000FFE70C9800682821C4F20201884278D0A0
:104A1000FFE70C9800684021C4F20201884270D080
:104A2000FFE70C9800685821C4F20201884268D060
:104A3000FFE70C9800687021C4F20201884260D040
:104A4000FFE70C9800688821C4F20201884258D020
:104A5000FFE70C980068A021C4F20201884250D000
:104A6000FFE70C980068B821C4F20201884248D0E0
:104A7000FFE70C98006840F21041C4F2020188423E
:104A80003FD0FFE70C98006840F22841C4F20201D1
:104A9000884236D0FFE70C98006840F24041C4F2EB
:104AA000020188422DD0FFE70C98006840F258417F
:104AB000C4F20201884224D0FFE70C98006840F25B
:104AC0007041C4F2020188421BD0FFE70C980068D5
:104AD00040F28841C4F20201884212D0FFE70C98EC
:104AE000006840F2A041C4F20201884209D0FFE709
:104AF0000C98006840F2B841C4F20201884207D124
:104B0000FFE70C980168086820F00100086006E0E3
:104B10000C980168086820F001000860FFE7FFE7D3
:104B20000C9800680068C00798B1FFE702F03CFBF2
:104B30000A99401A06280BD3FFE70C9920204865F4
:104B40000C99032081F8350001208DF837002BE304
:104B5000E6E70C98006800680B900B9848F23F015C
:104B6000CFF6106108400B900C998868D1F80CC002
:104B70000B694A6940EA0C00184310438A691043E4
:104B8000CA691043096A01430B9808430B900C98BB
:104B9000406A042808D1FFE70C99C86A096B0143F1
:104BA0000B9808430B90FFE70C984068292807D31F
:104BB000FFE70C98416801202F29069036D3FFE7C4
:104BC0000C9840683F2807D3FFE70C984168012004
:104BD000432906902AD3FFE70C984068472807D35B
:104BE000FFE70C9841680120492906901ED3FFE792
:104BF0000C9840684F2807D3FFE70C9841680120C4
:104C00005329069012D3FFE70C98416800207429BD
:104C1000059008D3FFE70C9841680020782938BF39
:104C200001200590FFE705980690FFE70698C0076A
:104C300028B1FFE70B9840F480100B90FFE70B982A
:104C40000C99096808600C98006840690B900B98F3
:104C500020F007000B900C98416A0B9808430B90CA
:104C60000C98406A04281AD1FFE70C98816A0B98C7
:104C700008430B900C98C06A80B1FFE70C98FCF7D2
:104C80005BFE50B1FFE70C99402048650C9901206C
:104C900081F835008DF8370086E2FFE7FFE70B98D3
:104CA0000C99096848610C98FCF70AFC09900C986B
:104CB000C06D00F01F013F2088400999886026E1FF
:104CC0000C980168012045F20842C5F602029142A3
:104CD00004904ED0FFE70C980168012045F21C4279
:104CE000C5F602029142049043D0FFE70C98016898
:104CF000012045F23042C5F602029142049038D0BC
:104D0000FFE70C980168012045F24442C5F6020213
:104D1000914204902DD0FFE70C980168012045F2E4
:104D20005842C5F602029142049022D0FFE70C9847
:104D30000168012045F26C42C5F6020291420490DE
:104D400017D0FFE70C980168012045F28042C5F6B4
:104D50000202914204900CD0FFE70C9800684AF6DA
:104D60006C31CAF2FD710844B0FA80F04009049039
:104D7000FFE70498C007002800F0BD80FFE70C980B
:104D80000168012045F20842C5F6020291420390F3
:104D90004ED0FFE70C980168012045F21C42C5F691
:104DA00002029142039043D0FFE70C980168012072
:104DB00045F23042C5F602029142039038D0FFE737
:104DC0000C980168012045F24442C5F60202914266
:104DD00003902DD0FFE70C980168012045F258425E
:104DE000C5F602029142039022D0FFE70C980168B9
:104DF000012045F26C42C5F602029142039017D0A1
:104E0000FFE70C980168012045F28042C5F60202D6
:104E1000914203900CD0FFE70C9800684AF66C3181
:104E2000CAF2FD710844B0FA80F040090390FFE730
:104E30000398C00708B1FFE7FFE70C99022081F84B
:104E40003500FFE70C99002081F83400FFE70C984B
:104E5000006800680B900B986FF310100B900C9883
:104E60008068402803D1FFE71020029008E00C98EA
:104E700080688038B0FA80F0400980030290FFE734
:104E800002980C99CA680B69D1F814C0D1F818E0DF
:104E9000CC694EEA040E4CEA0E0C43EA0C031A43AA
:104EA00040EAD200096A40EA11110B9808430B90BE
:104EB0000B980C99096808600C9908684AF6F83252
:104EC000CAF2FD7210444CF6CD42CCF6CC42A0FBA7
:104ED00002026FF0030000EA9200C8650C98FCF72C
:104EE000EFFA08900C98C06D00F01F010120884077
:104EF000089948600AE00C99402048650C99032005
:104F000081F8350001208DF837004DE1FFE70C985E
:104F1000016801201022C4F202029142019000F0C7
:104F20000381FFE70C98016801202822C4F20202E5
:104F30009142019000F0F880FFE70C980168012091
:104F40004022C4F202029142019000F0ED80FFE79E
:104F50000C98016801205822C4F20202914201908B
:104F600000F0E280FFE70C98016801207022C4F293
:104F700002029142019000F0D780FFE70C9801688F
:104F800001208822C4F202029142019000F0CC80FC
:104F9000FFE70C9801680120A022C4F202029142AE
:104FA000019000F0C180FFE70C9801680120B82251
:104FB000C4F202029142019000F0B680FFE70C9823
:104FC0000168012040F21042C4F2020291420190B5
:104FD00000F0AA80FFE70C980168012040F2284207
:104FE000C4F202029142019000F09E80FFE70C980B
:104FF0000168012040F24042C4F202029142019055
:1050000000F09280FFE70C980168012040F25842BE
:10501000C4F202029142019000F08680FFE70C98F2
:105020000168012040F27042C4F2020291420190F4
:105030007AD0FFE70C980168012040F28842C4F260
:105040000202914201906FD0FFE70C9801680120A5
:1050500040F2A042C4F202029142019064D0FFE704
:105060000C980168012040F2B842C4F20202914259
:10507000019059D0FFE70C980168012045F20842E1
:10508000C5F60202914201904ED0FFE70C980168EC
:10509000012045F21C42C5F602029142019043D024
:1050A000FFE70C980168012045F23042C5F6020284
:1050B0009142019038D0FFE70C980168012045F239
:1050C0004442C5F60202914201902DD0FFE70C98B0
:1050D0000168012045F25842C5F602029142019052
:1050E00022D0FFE70C980168012045F26C42C5F61A
:1050F00002029142019017D0FFE70C98016801204D
:1051000045F28042C5F60202914201900CD0FFE7C1
:105110000C9800684AF66C31CAF2FD710844B0FA86
:1051200080F040090190FFE70198C00790B3FFE7C6
:105130000C98FCF7ADFA0C988068802804D1FFE742
:105140000C9900204860FFE70C990879096E086007
:105150000C98416E806E48600C98406888B1FFE7FB
:105160000C98406808280CD8FFE70C98FCF74CFB1B
:105170000C98C16E002008600C98016F406F486069
:1051800007E00C990020C8660C9908670C994867DD
:10519000FFE7FFE70C99002048650C9A012182F88F
:1051A00035108DF83700FFE79DF837000EB010BDC1
:1051B00080B588B0069005910492039300208DF885
:1051C0000B00069820B9FFE701208DF81F006CE363
:1051D000FFE7069890F83400012804D1FFE7022089
:1051E0008DF81F0061E30699012081F83400FFE784
:1051F000FFE7069890F83500012840F04383FFE769
:105200000699022081F83500069900204865069825
:1052100000681021C4F20201884200F08180FFE79B
:10522000069800682821C4F20201884278D0FFE77E
:10523000069800684021C4F20201884270D0FFE75E
:10524000069800685821C4F20201884268D0FFE73E
:10525000069800687021C4F20201884260D0FFE71E
:10526000069800688821C4F20201884258D0FFE7FE
:1052700006980068A021C4F20201884250D0FFE7DE
:1052800006980068B821C4F20201884248D0FFE7BE
:105290000698006840F21041C4F2020188423FD0F3
:1052A000FFE70698006840F22841C4F202018842F4
:1052B00036D0FFE70698006840F24041C4F2020190
:1052C00088422DD0FFE70698006840F25841C4F2AA
:1052D0000201884224D0FFE70698006840F270413E
:1052E000C4F2020188421BD0FFE70698006840F232
:1052F0008841C4F20201884212D0FFE70698006894
:1053000040F2A041C4F20201884209D0FFE70698AA
:10531000006840F2B841C4F20201884207D1FFE7B9
:1053200006980168086820F00100086006E0069809
:105330000168086820F001000860FFE706980599F9
:10534000049A039BFCF770FB069801680120102269
:10535000C4F202029142019000F0A380FFE7069898
:10536000016801202822C4F202029142019000F05B
:105370009880FFE70698016801204022C4F20202EB
:105380009142019000F08D80FFE7069801680120AE
:105390005822C4F202029142019000F08280FFE79D
:1053A0000698016801207022C4F202029142019025
:1053B00077D0FFE70698016801208822C4F2020234
:1053C000914201906DD0FFE7069801680120A0226C
:1053D000C4F202029142019063D0FFE7069801688F
:1053E0000120B822C4F202029142019059D0FFE795
:1053F00006980168012040F21042C4F20202914274
:1054000001904ED0FFE706980168012040F2284243
:10541000C4F202029142019043D0FFE7069801686E
:10542000012040F24042C4F202029142019038D081
:10543000FFE706980168012040F25842C4F20202D8
:10544000914201902DD0FFE706980168012040F2BB
:105450007042C4F202029142019022D0FFE7069806
:105460000168012040F28842C4F202029142019098
:1054700017D0FFE706980168012040F2A042C4F26D
:105480000202914201900CD0FFE7069800684FF6A7
:105490004831CBF6FD710844B0FA80F04009019024
:1054A000FFE70198C007A8B1FFE706980068006809
:1054B0000B2161F344000699096808600698006CA6
:1054C00038B1FFE706980168086840F008000860F6
:1054D000FFE714E0069800680068052161F34300C7
:1054E0000699096808600698006C38B1FFE70698CD
:1054F0000168086840F004000860FFE7FFE70698CD
:10550000016801201022C4F202029142009000F0D2
:105510000381FFE70698016801202822C4F20202F5
:105520009142009000F0F880FFE7069801680120A2
:105530004022C4F202029142009000F0ED80FFE7A9
:105540000698016801205822C4F20202914200909C
:1055500000F0E280FFE70698016801207022C4F2A3
:1055600002029142009000F0D780FFE706980168A0
:1055700001208822C4F202029142009000F0CC8007
:10558000FFE7069801680120A022C4F202029142BE
:10559000009000F0C180FFE7069801680120B82262
:1055A000C4F202029142009000F0B680FFE7069834
:1055B0000168012040F21042C4F2020291420090C0
:1055C00000F0AA80FFE706980168012040F2284217
:1055D000C4F202029142009000F09E80FFE706981C
:1055E0000168012040F24042C4F202029142009060
:1055F00000F09280FFE706980168012040F25842CF
:10560000C4F202029142009000F08680FFE7069803
:105610000168012040F27042C4F2020291420090FF
:105620007AD0FFE706980168012040F28842C4F270
:105630000202914200906FD0FFE7069801680120B6
:1056400040F2A042C4F202029142009064D0FFE70F
:1056500006980168012040F2B842C4F20202914269
:10566000009059D0FFE706980168012045F20842F2
:10567000C5F60202914200904ED0FFE706980168FD
:10568000012045F21C42C5F602029142009043D02F
:10569000FFE706980168012045F23042C5F6020294
:1056A0009142009038D0FFE706980168012045F24A
:1056B0004442C5F60202914200902DD0FFE70698C1
:1056C0000168012045F25842C5F60202914200905D
:1056D00022D0FFE706980168012045F26C42C5F62A
:1056E00002029142009017D0FFE70698016801205E
:1056F00045F28042C5F60202914200900CD0FFE7CD
:10570000069800684AF66C31CAF2FD710844B0FA96
:1057100080F040090090FFE70098C007D0B1FFE794
:105720000698006E0068C003002807D5FFE70698BA
:10573000016E086840F480700860FFE70698C06E4C
:1057400038B1FFE70698C16E086840F480700860C1
:10575000FFE7FFE7069800681021C4F202018842C3
:1057600000F08180FFE7069800682821C4F202015A
:10577000884278D0FFE7069800684021C4F2020111
:10578000884270D0FFE7069800685821C4F20201F1
:10579000884268D0FFE7069800687021C4F20201D1
:1057A000884260D0FFE7069800688821C4F20201B1
:1057B000884258D0FFE706980068A021C4F2020191
:1057C000884250D0FFE706980068B821C4F2020171
:1057D000884248D0FFE70698006840F21041C4F2C2
:1057E000020188423FD0FFE70698006840F2284156
:1057F000C4F20201884236D0FFE70698006840F202
:105800004041C4F2020188422DD0FFE706980068AB
:1058100040F25841C4F20201884224D0FFE70698C2
:10582000006840F27041C4F2020188421BD0FFE7D9
:105830000698006840F28841C4F20201884212D002
:10584000FFE70698006840F2A041C4F202018842D6
:1058500009D0FFE70698006840F2B841C4F202019F
:10586000884207D1FFE706980168086840F0010008
:10587000086006E006980168086840F001000860CA
:10588000FFE70DE006994FF400604865FFE70699D1
:10589000002081F83400FFE701208DF80B00FFE7BE
:1058A0009DF80B008DF81F00FFE79DF81F0008B062
:1058B00080BD00000000000080B584B0039001F0BE
:1058C00073FC0290039801900198013048B1FFE702
:1058D00040F22820C2F2004001780198084401906B
:1058E000FFE7FFE701F060FC0299401A0199884246
:1058F00001D2FFE7F6E704B080BD00000000000021
:1059000085B0039002910192039890F898008DF869
:1059100003009DF80300012805D0FFE79DF8030070
:1059200002285DD1FFE7029803990968896D084252
:1059300007D1FFE703980168C86D40F00100C86512
:1059400015E0029803990968896D08400299884218
:1059500007D1FFE703980168C86D40F00200C865F1
:1059600004E0039801680320C865FFE7FFE79DF89E
:1059700009008007002809D5FFE7019A039801680C
:10598000D1F8E0001043C1F8E000FFE79DF80900FE
:105990004007002809D5FFE7019A03980168D1F86C
:1059A000E4001043C1F8E400FFE7FFE702984FF678
:1059B000FF71C3F6CF7100EA010203980168486DD8
:1059C00010434865029A4AF61401C4F200010868BF
:1059D00040EA92700860FFE700208DF813000AE0AB
:1059E0000399D1F89C0040F00200C1F89C0001200E
:1059F0008DF81300FFE79DF8130005B07047000015
:105A000080B586B00490039102920398406808B96B
:105A1000FFE700E0FFE7049890F89800022845D1DE
:105A2000FFE704980068D0F8C00010F07C5F0BD14D
:105A3000FFE70499D1F89C0040F02000C1F89C00D9
:105A400001208DF817003CE004980068D0F8C400ED
:105A5000800200280BD5FFE70499D1F89C0040F4A0
:105A60000070C1F89C0001208DF8170029E004980F
:105A70000068D0F8C400C0F3044001900498039972
:105A8000029A019BFCF77CFD0199012000FA01F1CB
:105A9000049A1268C2F8D010019988400499C1F89C
:105AA0009400FFE700208DF817000AE00499D1F870
:105AB0009C0040F00800C1F89C0001208DF8170000
:105AC000FFE79DF8170006B080BD00000000000051
:105AD00082B00190009102B0704700000000000009
