:020000040800F2
:100000001007002089010008A91100088D100008C0
:10001000691100088F020008F112000800000000BA
:10002000000000000000000000000000D1110008E6
:10003000C502000800000000AB110008D311000841
:10004000A3010008A3010008A3010008A301000800
:10005000A3010008A3010008A3010008A3010008F0
:10006000A3010008A3010008A3010008A3010008E0
:10007000A3010008A3010008A3010008A3010008D0
:10008000A3010008A3010008A3010008A3010008C0
:10009000A3010008A3010008A3010008A3010008B0
:1000A000A3010008A3010008A3010008A3010008A0
:1000B000A3010008A3010008A3010008A301000890
:1000C000A3010008A3010008A3010008A301000880
:1000D000A3010008A3010008A3010008A301000870
:1000E000A3010008A3010008A301000800F002F822
:1000F00000F03AF80AA090E8000C82448344AAF188
:100100000107DA4501D100F02FF8AFF2090EBAE885
:100110000F0013F0010F18BFFB1A43F0010318473B
:100120006C1200008C120000103A24BF78C878C10D
:10013000FAD8520724BF30C830C144BF04680C60ED
:10014000704700000023002400250026103A28BF35
:1001500078C1FBD8520728BF30C148BF0B60704739
:100160001FB51FBD10B510BD00F058F81146FFF7C0
:10017000F7FF01F0CFF800F076F803B4FFF7F2FFD5
:1001800003BC00F07DF8000009488047094800479B
:10019000FEE7FEE7FEE7FEE7FEE7FEE7FEE7FEE737
:1001A000FEE7FEE704480549054A064B7047000094
:1001B00035120008ED000008100100201007002093
:1001C00010030020100300204FF0000200B513467A
:1001D00094469646203922BFA0E80C50A0E80C5067
:1001E000B1F12001BFF4F7AF090728BFA0E80C5018
:1001F00048BF0CC05DF804EB890028BF40F8042B11
:1002000008BF704748BF20F8022B11F0804F18BF7D
:1002100000F8012B7047704770477047754600F033
:100220002BF8AE4605006946534620F00700854688
:1002300018B020B5FFF7B6FFBDE820404FF000062C
:100240004FF000074FF000084FF0000B21F00701BE
:10025000AC46ACE8C009ACE8C009ACE8C009ACE801
:10026000C0098D46704710B50446AFF300802046A4
:10027000BDE81040FFF781BF00487047AC00002088
:1002800001491820ABBEFEE7260002007047FEE7DA
:1002900000B58BB0012109910020069005900190D6
:1002A0000290039004900790089101A9044800F07F
:1002B00097F8002801D000F020F80BB000BD000036
:1002C0003C00002070471CB54FF48270FF218DF870
:1002D00000108DF801108DF802108DF803108DF8C4
:1002E00004108DF805108DF80610FC218DF807100C
:1002F0000822694600F044FF1CBD72B6FEE7F0B567
:1003000090F820500468A468012D07D0022D05D074
:10031000416A41F4802141620120F0BD04F0806512
:1003200004F00066354301D1E50053D5C4F3016400
:100330000125A5401D608B684FF4C0759BB1CE6848
:1003400005EB041733434E6843EAC6030668F351CE
:100350004FF4C273076803EB04130E69FE50097D66
:10036000012909D00DE00E88CB6805EB041743EA9C
:1003700046530668F351EBE70168CE5846F48076A1
:10038000CE501179D379567941EA036193791B04F0
:1003900043EA062319434FF4C676036806EB0416B6
:1003A00099511178D37841EA0361937852781B040C
:1003B00043EA022211434FF4C473026803EB0413AF
:1003C000D150006805EB0411425842F0010242503E
:1003D0000020F0BD416A41F4001141620120F0BDEE
:1003E00010B5026890F82030012B07D0022B05D001
:1003F000416A41F480214162012010BDD2F800021F
:1004000040F00100C2F80002087D00F01F03012047
:100410009840D2F81C328343C2F81C32CB69B3B97E
:10042000D2F80C328343C2F80C328C894B6864F3E7
:100430001F434C6902EBC404C4F840320C890B68BA
:1004400064F31F434C6902EBC404C4F84432CB6923
:10045000012B16D1D2F80C320343C2F80C320C88AF
:100460004B6864F31F434C6902EBC404C4F8403288
:100470000C89CB6864F31F434C6902EBC404C4F8D5
:1004800044328B697BB1D2F804320343C2F80432A0
:100490000B6973B1D2F814320343C2F81432096AFB
:1004A00001290CD010E0D2F804328343C2F80432A0
:1004B000EEE7D2F814328343C2F81432EFE7D2F8F1
:1004C0001C120143C2F81C12D2F8000220F00100F5
:1004D000C2F80002002010BD70B50446002C03D005
:1004E00094F8200010B104E0012070BD204600F017
:1004F0009DF82068016841F00101016000F0FCF9FD
:10050000054605260CE000F0F7F9401B0A2807D93C
:10051000606A40F40030606284F82060012070BDA1
:1005200020684068C007EED02068016821F0020111
:10053000016000F0E1F905460CE000F0DDF9401B38
:100540000A2807D9606A40F40030606284F82060AD
:10055000012070BD206840688007EED4207E01280D
:100560003FD02068016821F080010160607E012891
:100570003DD02068016821F040010160A07E012883
:100580003BD02068016821F020010160E07E012855
:1005900039D02068016841F010010160207F0128F6
:1005A00037D02068016821F008010160607F0128D0
:1005B00035D02068016821F004010160D4E902010E
:1005C0000843D4E90412114308436168491E0843F3
:1005D0002168C86100206062012084F820000020AA
:1005E00070BD2068016841F080010160BEE72068AD
:1005F000016841F040010160C0E72068016841F0F6
:1006000020010160C2E72068016821F0100101604B
:10061000C4E72068016841F008010160C6E720686E
:10062000016841F004010160C8E7000010B586B020
:1006300000210291039104910591006818498842B4
:100640002BD11848C16941F00071C161C16901F045
:1006500000710191816941F008018161806900F0B8
:10066000080001904FF4807002900F4C02A92046C0
:1006700000F04AF8611502910221039103210591CE
:1006800002A9204600F040F80849486820F4C0401C
:1006900040F0E06040F48040486006B010BD0000CB
:1006A0000064004000100240000C014000000140C6
:1006B00070B5044694F82000012805D0606A40F423
:1006C00000206062012070BD022084F820002068B4
:1006D000016821F00101016000F00EF905460DE00E
:1006E00000F00AF9401B0A2808D9606A40F400307B
:1006F0006062052084F82000012070BD20684068F9
:10070000C007EDD1606270BD2DE9F84F00240023D1
:10071000DFF8C4914FF00F08A9F1040B09F1040AA6
:10072000ABF1040ED1E00127A7403A40BA4275D19F
:10073000DFF8A8C14D68A5EB0C0665452BD00DDC94
:10074000032D34D005DC35B3012D19D0022D2FD166
:100750001BE0112D16D0122D2AD119E0B6F5881FF5
:1007600019D006DCB6F5803F15D0B6F5801F1FD135
:1007700011E0B6F5001F0ED0B6F5041F18D10AE03F
:10078000CB6815E0CB681B1D12E0CB6808330FE087
:10079000CB680C330CE08B6823B1012B04D0082309
:1007A000476105E0042303E00823076100E000231C
:1007B000FF2A01D8054601E000F1040502D84FEAFE
:1007C000840603E0A4F108064FEA86062F6808FABB
:1007D00006FC27EA0C0703FA06F647EA06072F602D
:1007E0004D68ED0070D53E4DAE6946F00106AE6134
:1007F000AD6905F0010500953A4D24F0030677191F
:10080000BE68A5072D0F08FA05FC26EA0C06DFF8DE
:10081000D8C0604503D14FF0000C17E054E0DFF87A
:10082000CCC0604502D14FF0010C0FE0DFF8C0C032
:10083000604502D14FF0020C08E0DFF8B8C0604517
:1008400002D14FF0030C01E04FF0040C0CFA05FC50
:100850004CEA060CC7F808C04D68ED0205D5D9F87A
:1008600000501543C9F8005004E0D9F800509543F2
:10087000C9F800504D68AD0205D5DAF800501543AF
:10088000CAF8005004E0DAF800509543CAF8005066
:100890004D68AD0305D5DBF800501543CBF800508B
:1008A00004E0DBF800509543CBF800504D68ED03B1
:1008B00005D5DEF800501543CEF8005004E0DEF810
:1008C00000509543CEF80050641C0A6832FA04F5D3
:1008D0007FF429AFBDE8F88F080401400000111033
:1008E000001002400000014000080140000C0140DF
:1008F000001001400014014001488068704700006A
:10090000000000200248816802781144816070472D
:100910000000002010B50748016841F01001016097
:10092000032000F069F80F2000F006F800F026F828
:10093000002010BD0020024070B504460D4D4FF45C
:100940007A712878B1FBF0F00B490968B1FBF0F03F
:1009500000F01CFB08B1012070BD102C07D2002252
:100960002146501E00F028F86C60002070BD012068
:1009700070BD0000000000200C00002008B50C48ED
:10098000816941F001018161816901F001010091FA
:10099000C16941F08051C161C06900F08050009090
:1009A0000449486820F0E06040F00070486008BDED
:1009B0000010024000000140F0B40D460D4B1B68D2
:1009C000C3F30223C3F10704042C00D90424191D26
:1009D000072901D2002300E0DB1E012606FA04F1FC
:1009E000491E294099409E40761E16403143F0BC76
:1009F00000F07FBC0CED00E000F00701054A106834
:100A00004FF6FF03184040EA0120034908431060F5
:100A1000704700000CED00E00000FA052DE9F047FA
:100A200004460D46002C17D0DFF83081D8F80000BE
:100A300000F00700A84211D2D8F8000020F007000B
:100A40002843C8F80000D8F8000000F00700A842CA
:100A500004D00120BDE8F0870120FBE72068404E6C
:100A6000810712D5400703D5706840F4E0607060DC
:100A70002078000703D5706840F46050706070689B
:100A8000A16820F0F000084370602078C0072CD0E7
:100A90006068012806D0022809D0316889070BD484
:100AA0000120D7E73168890306D40120D2E73168F5
:100AB000890101D40120CDE7716821F003010143D0
:100AC0007160FFF719FF074641F2883906E0FFF72A
:100AD00013FFC01B484501D90320BBE7706861685C
:100AE00000F00C00B0EB810FF1D1D8F8000000F05D
:100AF0000700A8420ED9D8F8000020F007002843CC
:100B0000C8F80000D8F8000000F00700A84201D0A3
:100B100001209FE72078400705D57068E16820F440
:100B2000E060084370602078000706D5706821698E
:100B300020F4605040EAC100706000F03FF8716836
:100B4000084AC1F30311515CC840074908600748CF
:100B50000068FFF7F1FE00207CE700000020024063
:100B600000100240721300080C0000200400002056
:100B700001480068704700000C00002000B5FFF736
:100B8000F7FF04494968044AC1F30221515CC84097
:100B900000BD0000001002408213000800B5FFF7FE
:100BA000E7FF04494968044AC1F3C221515CC840C7
:100BB00000BD000000100240821300080E4B59686F
:100BC0000E4801F00C02042A11D0082A0FD10C485B
:100BD000C1F38342805CC9030AD55968084AC1F34E
:100BE0004041921E515C054A5043B0FBF1F0704702
:100BF00004494843704700000010024000127A0088
:100C00006213000800093D002DE9F84F0446002C4E
:100C10000ED02078D94DC0075ED06868C0F381003F
:100C200001280BD06868C0F38100022803D00CE0D3
:100C30000120BDE8F88F6868C00306D528688003E6
:100C40004AD56068A8BB0120F3E76068B0F5803F33
:100C500011D0A8B1B0F5A02F1BD0286820F48030A7
:100C60002860286820F480202860606830B3FFF78F
:100C700043FE06461EE0286840F480302860F4E712
:100C8000286820F480302860286820F480202860BC
:100C9000EBE7286840F480202860286840F4803022
:100CA0002860E2E7FFF728FE801B642802D90320B2
:100CB000BFE711E028688003F4D50DE0FFF71CFEC4
:100CC000064606E0FFF718FE801B642801D90320C2
:100CD000AFE728688003F5D42078DFF8A482800786
:100CE0004FF0010A4FF0000945D5686810F00C0F6D
:100CF00007D06868C0F38100022812D16868C00379
:100D00000FD42868800704D52069012801D001206C
:100D10008FE72868616920F0F80040EAC100286088
:100D200029E02069B8B1C8F800A0FFF7E5FD064644
:100D300006E0FFF7E1FD801B022801D9032078E7D8
:100D400028688007F5D52868616920F0F80040EA36
:100D5000C10028600FE0C8F80090FFF7CDFD0646FF
:100D600006E0FFF7C9FD801B022801D9032060E7D8
:100D700028688007F5D42078000726D58148A16926
:100D800099B1C0F800A0FFF7B7FD064606E0FFF7EF
:100D9000B3FD801B022801D903204AE7686A800757
:100DA000F5D5012000F002FA0FE0C0F80090FFF73F
:100DB000A3FD064606E0FFF79FFD801B022801D930
:100DC000032036E7686A8007F5D42078400773D59A
:100DD0000026E869C00008D4E86940F08050E86166
:100DE000E86900F0805000900126DFF89CB1DBF844
:100DF0000000C00514D4DBF8000040F48070CBF88C
:100E00000000FFF779FD074606E0FFF775FDC01B00
:100E1000642801D903200CE7DBF80000C005F4D5F5
:100E2000E068012812D0B0B105281DD0286A20F052
:100E300001002862286A20F004002862E06841F27C
:100E4000883B28B3FFF758FD07461DE0286A40F0AD
:100E500001002862F2E7286A20F001002862286A6F
:100E600020F004002862E9E7286A40F004002862C4
:100E7000286A40F001002862E0E7FFF73DFDC01B53
:100E8000584501D90320D4E6286A8007F5D50DE03E
:100E9000FFF732FD074606E0FFF72EFDC01B584561
:100EA00001D90320C5E6286A8007F5D4012E03D1B5
:100EB000E86920F08050E861E069A0B36968C1F397
:100EC0008101022946D0022805D0C8F86090FFF7BA
:100ED00013FD04463AE0C8F86090FFF70DFD0646A2
:100EE00006E0FFF709FD801B022801D90320A0E6D8
:100EF00028688001F5D4206AB0F5803F05D1686884
:100F0000A16820F4003008436860D4E90801084370
:100F1000696821F4741108436860C8F860A0FFF79D
:100F2000EBFC044607E026E0FFF7E6FC001B022886
:100F300001D903207DE628688001F5D51BE0FFF785
:100F4000DBFC001B022801D9032072E6286880011F
:100F5000F5D410E001280CD06868226A00F48031D2
:100F6000914204D1616A00F47010884203D00120DC
:100F70005FE601205DE600205BE600000010024015
:100F800000004242800442420070004010B5401E02
:100F9000B0F1807F01D3012010BD4FF0E0246061EB
:100FA0000F21601700F0A5F90020A0610720206143
:100FB000002010BD70B50446002C04D094F8410008
:100FC000002510B106E0012070BD84F84050204695
:100FD00000F024F8242084F841002068C16821F43E
:100FE0000051C160204600F027F92068016921F412
:100FF000904101612068416921F02A014161206826
:10100000C16841F40051C1606564202084F841004A
:1010100084F842006563002070BD000030B585B0E3
:1010200000240194029403940494006814498842B3
:1010300024D11448816941F480418161816901F4BE
:1010400080410091816941F004018161806900F073
:10105000040000904FF400700190022002900320E1
:101060000490094D01A92846FFF74EFB291501916F
:101070000294039401A92846FFF746FB05B030BD52
:10108000003801400010024000080140FEE7000067
:1010900010B50F480D4901600921416000218160B0
:1010A000C1604FF480320261416101764176817600
:1010B0000122C27601774177FFF70EFA002803D0AC
:1010C000BDE81040FFF719B910BD000000640040F2
:1010D0003C00002000B585B000200290049012482A
:1010E000816941F020018161816901F02001009155
:1010F000816941F008018161816901F00801009175
:10110000816941F004018161806900F00400009070
:1011100040F6020001900120039001A90348FFF767
:10112000F3FA05B000BD000000100240000C0140C1
:1011300010B50C480A4901604FF4E13141600021CB
:101140008160C16001610C2242618161C161FFF770
:1011500031FF002803D0BDE81040FFF7CEB810BD26
:101160000038014064000020FEE7000010B5FFF7E2
:101170008FF8BDE810400148FFF79ABA3C00002004
:1011800000B587B001900020029004900390059272
:101190008DF818000A466B4601A90248FFF7AFF820
:1011A00007B000BD3C000020FEE7704708B50749C6
:1011B0004FF4FA520968B1FBF2F14143009100BFCC
:1011C0000098411E0091FAD208BD00000C000020DA
:1011D0007047FFF797BB30B58FB0282105A8FEF701
:1011E000F3FF14216846FEF7EFFF01210591080483
:1011F000069000240794099102250C950D904FF458
:10120000E0100E9005A8FFF7FFFC08B1FFF775F896
:101210000F200090019502944FF480600390049495
:1012200002216846FFF7FAFB002801D0FFF765F8B6
:101230000FB030BD7047000070B5044620680169EA
:10124000E26821F4405111430161A1682069014322
:10125000606901432068C26841F20C639A430A4303
:10126000C26020684169A26921F440711143416163
:101270001E492068884202D1FFF790FC01E0FFF789
:101280007DFC00EBC00101EB001061686422890065
:10129000B0FBF1F3B3FBF2F36FF018067343B0FB4E
:1012A000F1F5B0FBF1F605EB8305322303EB0515F1
:1012B000B5FBF2F5B6FBF2F605F0F00505EB061509
:1012C000B0FBF1F6B0FBF1F0B0FBF2F06FF01801FB
:1012D000484306EB800003EB0010B0FBF2F02168FE
:1012E00000F00F002844886070BD00000038014005
:1012F000FEE70907090E002804DB00F1E02080F872
:101300000014704700F00F0000F1E02080F8141D79
:10131000704700000E480D4901600E4941600E49BA
:1013200081600E4901624FF07E514162FFF7F2FA8F
:10133000FFF751FFFFF7CEFEFFF7AAFEFFF7F8FE1B
:10134000FFF714FFFEF7BFFFFEE70000CE34613D5C
:1013500010000020A913503BAB20AB350000A0408B
:10136000010202030405060708090A0B0C0D0E0F03
:101370001010000000000000000001020304060736
:10138000080900000000010203040000AC1300087B
:10139000000000201000000028010008BC13000815
:1013A00010000020000700004401000801000000B8
:0C13B000100000000000000000127A0095
:04000005080000ED02
:00000001FF
