:020000040800F2
:1000000028B80024E1020008D9840008A17A000879
:10001000D1840008E90B000881B20008000000004C
:10002000000000000000000000000000D18A00086D
:10003000511200080000000071860008098B0008BA
:10004000FB020008FB020008FB020008FB0200089C
:10005000FB020008FB020008FB020008FB0200088C
:10006000FB020008FB020008FB020008510E00081A
:10007000610E0008710E0008810E0008910E000844
:10008000FB020008FB020008FB020008391300080D
:10009000B9130008FB020008FB020008FB0200087D
:1000A000FB020008FB020008FB020008FB0200083C
:1000B000A18C0008FB020008FB020008FB020008FC
:1000C000FB020008FB020008FB020008FB0200081C
:1000D000E1890008FB02000869950008FB0200089E
:1000E000FB020008FB02000800000000FB02000801
:1000F000FB020008FB020008FB020008FB020008EC
:10010000FB020008FB020008FB020008FB020008DB
:10011000FB020008098E0008FB020008FB02000831
:10012000FB020008FB020008FB020008FB020008BB
:10013000FB020008FB020008FB020008FB020008AB
:1001400000000000000000000000000000000000AF
:10015000FB020008FB020008FB020008FB0200088B
:10016000FB020008FB020008FB020008FB0200087B
:10017000FB020008E1840008FB0200080000000008
:10018000FB020008FB020008FB020008FB0200085B
:10019000FB020008FB020008FB020008FB0200084B
:1001A000FB020008FB020008FB0200080000000040
:1001B000FB020008FB020008FB020008FB0200082B
:1001C000FB020008FB020008000000000000000025
:1001D0000000000000000000FB020008000000001A
:1001E000000000000000000000000000000000000F
:1001F0000000000000000000FB020008FB020008F5
:10020000FB020008FB02000800000000FB020008DF
:10021000FB020008FB020008FB020008FB020008CA
:10022000FB02000800000000FB02000800000000C4
:10023000FB020008FB02000800000000FB020008AF
:10024000FB020008FB020008FB020008FB0200089A
:10025000FB020008FB020008FB020008FB0200088A
:10026000FB020008FB020008FB020008FB0200087A
:10027000FB020008FB020008FB020008000000006F
:10028000FB020008FB020008FB020008FB0200085A
:1002900000000000FB020008FB0200080000000054
:1002A00000000000FB020008FB020008FB0200083F
:1002B000FB020008FB020008FB02000839140008DA
:1002C000FB020008FB020008FB020008DFF80CD06C
:1002D00000F08CF800480047D9B4000828B8002482
:1002E0000648804706480047FEE7FEE7FEE7FEE7D0
:1002F000FEE7FEE7FEE7FEE7FEE7FEE7F18B00081C
:10030000CD0200082DE9F05F0546002092469B468D
:1003100088460646814640241BE02846414647461B
:10032000224600F053F853465A46C01A914110D362
:1003300011461846224600F03AF82D1A67EB0108DC
:100340004F4622460120002100F031F817EB00094A
:100350004E41201EA4F10104DFDC484631462A4606
:100360004346BDE8F09F40EA01039B0703D009E044
:1003700008C9121F08C0042AFAD203E011F8013B91
:1003800000F8013B521EF9D27047D2B201E000F8EA
:10039000012B491EFBD270470022F6E710B5134629
:1003A0000A4604461946FFF7F0FF204610BD202AF2
:1003B00004DB203A00FA02F1002070479140C2F1BC
:1003C000200320FA03F3194390407047202A04DBEE
:1003D000203A21FA02F00021704721FA02F3D040BE
:1003E000C2F1200291400843194670471CB50948E4
:1003F0000090094801900546009C06E0E06840F046
:10040000010394E8070098471034AC42F6D3FFF795
:1004100061FF000008CA000828CA000830B58C181F
:1004200010F8012B12F00F0301D110F8013B120953
:1004300006D110F8012B03E010F8015B01F8015B15
:100440005B1EF9D101E001F8013B521EFBD1A14234
:10045000E6D3002030BD000070B52DED0E8B88B0C6
:1004600090ED00BA0546B5EE40BA0E46F1EE10FA30
:100470000DD195ED010AB5EE400AF1EE10FA06D164
:1004800095ED020AB5EE400AF1EE10FA54D095ED62
:1004900001CAB0EE4B1AB0EE4C0A95ED02DA9FEDB0
:1004A00083EA9FED83AAADEE0E0AADEE0A1AB7EE0F
:1004B000C09AB7EEC18AB0EE490BB0EE481B0CF003
:1004C00053F8B7EEC00BB0EE4B1A8DED040AB0EE48
:1004D000490BADEE4A1AB7EEC1AAB0EE4A1B0CF0BA
:1004E00043F8ADEE4ECAB7EEC00B8DED050AB0EE87
:1004F0004A1BB7EECC9AB0EE490B0CF035F8B7EECC
:10050000C00B8DED060AB0EE490BB0EE481B0CF0A7
:100510002BF8B7EEC00B04A88DED070A011F0420CD
:100520009FED640A91ED011A0A1D21EE001A0138AF
:1005300081ED011A1146F5D1BBEE092AB2EE090A86
:10054000B3EE093ABAEE091A0498009005980190A2
:1005500006980290079803900020694607E000BFC4
:1005600034EE054A82ED004A0430102811D00A18F2
:10057000B0EE425A92ED004AB4EE404AF1EE10FA63
:10058000EEDCB0EE435AB4EE414AF1EE10FAE7DB8E
:10059000EAE7B5EE40BAF1EE10FA1CD195ED012A6A
:1005A000B5EE402AF1EE10FA15D195ED022AB5EE1E
:1005B000402AF1EE10FA0ED14AF67870311FC2F2DD
:1005C00000400422043800BF013A50F8043F41F8CB
:1005D000043FF9D166E042F22430BBEE093AB3EEB3
:1005E000094AC2F200406D4640F6943300F12401FE
:1005F00000229FED312AC2F200439FED305A284677
:100600009FED2F6A9FED2F7A0AE000BF70EEA10ADE
:10061000C0ED000A01320430042A01F140012CD05F
:10062000D1ED001AD0ED000A70EEE11AF0EE422A88
:10063000F4EE451AF1EE10FA06DCF0EE462AF4EE7E
:10064000471AF1EE10FA05DA70EEA20AFF24C0EDA7
:10065000000A00E001249C54F0EE431AD0ED000A99
:10066000F4EE400AF1EE10FAD0DCF0EE441AF4EEAB
:10067000410AF1EE10FAC9DBCCE74AF67870321F76
:10068000C2F200402B1F011F042000BF0E1D93ED7E
:10069000010A043382ED010A0432013881ED010AB6
:1006A0003146F3D108B0BDEC0E8B70BDEC51383E35
:1006B000CDCC4C3ECAA77E40560EC9C0560E49400E
:1006C000560EC940560E49C02DE9F04F81B02DEDB0
:1006D0000E8B88B04AF67871B2EE09BAC2F20041C8
:1006E000B3EE09CABAEE09DABBEE09EA002042F617
:1006F0006059C1E90000C1E9020042F2440142F63A
:1007000000680126C2F20041C2F20049C2F200486C
:100710009FED3E8A7031CDE90600CDE904000191DC
:1007200008E000BF0298064001200BF0B1F9002E4E
:10073000039864D04CF6CD41421CCCF6CC410392D8
:10074000514340F2DB5290424FF0000038BF01208D
:10075000B1F1333F0290E5D84FF0000B04AF019C9C
:100760004FF0000A32E000BF30EE0C0AF0EE490A0A
:10077000A4F1480007F0BCFEB0EE40AA95ED0A0ACD
:100780002046F0EE4A0A07F0B3FE4FF0FF30B0EE1D
:10079000402AB0EE490AF0EE4A0AB0EE481AF0EEEE
:1007A000481A50FA8AF0002202284046294638BFEB
:1007B000484600F001FC0BF1400B0AF1010ABBF5C1
:1007C000807F04F1B80407F10407ABD042F2243073
:1007D00097ED009AC2F2004000EB0B0595ED090A77
:1007E00039EE401AB4EE4B1AF1EE10FABCDCB4EE5E
:1007F0004D1AF1EE10FAB9DA30EE0E0AB6E708B08B
:10080000BDEC0E8B01B0BDE8F08F00BF0000000012
:100810008AB042F204700021C2F200400122243862
:100820004FF4007301F20127013100F8242F04294D
:10083000C0E90137F6D142F2243840F62801C2F26D
:100840000048C2F200414FF480724046FFF78BFD32
:1008500042F224467024C2F2004607AD9FED6A8A38
:1008600000200990CDE90700CDE90500CDE903009E
:10087000CDE90100B0EE480AF0EE480A3019002137
:100880002A4607F0D1FEB834B4F5547FF2D14FF6C2
:10089000205742F24409CFF6FF77C2F2004904AD77
:1008A0009FED598A01AE00BFB0EE480AF0EE480A4B
:1008B00009EB0704002104F554702A4607F0B4FE42
:1008C000B0EE480AF0EE480A04F5427000213246C4
:1008D00007F0AAFEB837E7D142F6605742F6006645
:1008E000A8F1400400254FF0FF38C2F20047C2F2E1
:1008F000004600BF58FA85F034F8402FA18802283E
:1009000030464FF00A0338BF384600F0BDFCA070F7
:100910000A200BF0BDF80135042DEBD14FF47A70AD
:100920000BF0B6F80BF0B8FBB1EE008A43F2587545
:1009300040F6603742F2947642F6240AC2F200454D
:100940004FF00108C2F200479FED309AC2F2004614
:100950009FED2FAA4FF000099FED2EBAC2F2004A78
:1009600007AC079048E000BFB7F90600B7F90210DE
:1009700000EE100AB7F9040002EE101A01EE100A98
:10098000B8EEC00AB8EEC22AB8EEC11A20EE080AC4
:1009900080EE093A21EE080A86ED003A22EE081AA6
:1009A000B0EEC32A80EE090A86ED010A81EE091A2B
:1009B000B4EE4A2A86ED021AB0EEC00AF1EE10FA41
:1009C000B8BFC6F80090B4EE4A0AF1EE10FAB8BF0C
:1009D000C6F80490B7F9000000EE100AB8EEC00A9D
:1009E00020EE0B0A80EE090A8AED000A0AF094FC58
:1009F000052120460BF0B0F828780028B4D1FFF785
:100A000063FE85F80080AFE7000000000000254489
:100A10008FC2F53C0000B44310B52DED0E8B84B0B1
:100A200090ED009A9FED520AB0EE491A90ED02CA7D
:100A300090ED01AA9FED4FBAACEE001AB0EE4A0A53
:100A4000ACEE0B0AB7EEC11AB7EEC00A21EE018B6D
:100A500020EE00DB38EE0D1BB1EEC10BB4EE400B07
:100A6000F1EE10FA63D69FED441AACEE019AB1EEA6
:100A70004CCAB7EEC91A9FED3C9B21EE01EB20EE6C
:100A8000092B3EEE0D1BB7EEC22B8DED002AB1EE09
:100A9000C10BB4EE400BF1EE10FA4FD6ACEE0BAA40
:100AA00020EE092BB7EEC22BB7EECA1A8DED012A44
:100AB00021EE01AB3EEE0A1BB1EEC10BB4EE400BD2
:100AC000F1EE10FA41D638EE0A1B20EE092BB1EEFA
:100AD000C10BB7EEC22BB4EE400B8DED022AF1EE46
:100AE00010FA39D620EE090B40F69430C2F20040DD
:100AF000023901380022B7EEC00BEC468DED030A37
:100B00000CEB020410F9013F043294ED000A102AA4
:100B1000BDEEC00A10EE104A04FB03F3C3F100035C
:100B200021F8023FECD104B0BDEC0E8B10BDB0EE4D
:100B3000410B0C460BF0FCFD214694E7B0EE410B57
:100B40000C460BF0F5FD2146A8E7B0EE410B0C4634
:100B50000BF0EEFD2146B6E7B0EE410B0C460BF074
:100B6000E7FD2146BEE700BF00000020191E9E40A1
:100B7000CDCC4C3EEC51383ECDCC4CBE00000000FC
:100B800043F200600121C2F200402422C1660168E4
:100B9000A0F85C20D0F880008A6842F040028A60A9
:100BA0000A6842F010020A60006800BF026822F082
:100BB000010202600268D207F8D12431816040F25C
:100BC0000001C2F20041C160123101611221416095
:100BD000016841F480210160016841F00101016078
:100BE0007047000000000000FEE700000000000069
:100BF0000020704700000000002070470000000047
:100C000010B542F62C0441F64401C2F20044C2F28F
:100C100000410022204608F07FFE41F244012046B8
:100C2000C2F2004108F068FE002010BD0000000084
:100C300080B508880AF024FA002080BD000000007A
:100C4000002070470000000084B042F6605842F671
:100C5000006600244FF00A29C2F200480DF1080A8C
:100C60004FF42065C2F200466F4600BFFFF7D0FD8B
:100C70004FF40071082340465246CDE90244CDE9C5
:100C80000044CDF80A900AF0FFFA4FF400710823EF
:100C900030463A46ADF80050ADF806500AF0F4FA86
:100CA00001200AF045FCE1E7B2F5002F40F0C280D8
:100CB0008A7902770A8812BA120C82824A8812BA9A
:100CC000120C42828A880178022912BA4FEA124233
:100CD000028228D0012914D0002918BF7047017B57
:100CE00029B9818AC1820021816101210173B0F992
:100CF0001410B0F91620914227DA8B1A03F500532D
:100D000027E0017B29B9818AC1820021816101210B
:100D10000173B0F91410B0F9162091421EDA8B1A43
:100D200003F500531EE0017B29B9818AC1820021AD
:100D3000816101210173B0F91410B0F916209142BC
:100D400015DA8B1A03F5005315E019DD8B1AA3F59C
:100D5000005300EE103AB8EEC00A13E02DDD8B1AF6
:100D6000A3F5005300EE103AB8EEC00A27E03FDDCD
:100D70008B1AA3F5005300EE103AB8EEC00A39E022
:100D80009FED2D0A8A1AC18201EE102AB8EEC12AFF
:100D9000B0EEC01AB0EEC23AB4EE431A90ED061AA5
:100DA000F1EE10FA04DD9FED280A22EE000A3BE086
:100DB0009FED252A20EE020A36E09FED1F0A8A1ACF
:100DC000C18201EE102AB8EEC12AB0EEC01AB0EE10
:100DD000C23AB4EE431A90ED061AF1EE10FA04DDB1
:100DE0009FED180A82EE000A1EE09FED162A19E018
:100DF0009FED110A8A1AC18201EE102AB8EEC12AAB
:100E0000B0EEC01AB0EEC23AB4EE431A90ED061A34
:100E1000F1EE10FA04DD9FED090A82EE000A03E00C
:100E20009FED062A80EE020A9FED052AA0EE021A27
:100E300080ED061A704700BF0000000000009048D7
:100E40000000B44300001848000000390000000012
:100E500042F60830C2F2004000F0F2BE000000008E
:100E600042F68030C2F2004000F0EABE000000000E
:100E700042F6F830C2F2004000F0E2BE000000008E
:100E800042F67040C2F2004000F0DABE00000000FE
:100E900042F6E840C2F2004000F0D2BE000000007E
:100EA00040F20F42D0F800C0C4F20202944510DCB8
:100EB0006F22C4F20202944520DC3F22C4F20202F7
:100EC000944536DC1022C4F20202944554D0282204
:100ED0004EE040F26F42C4F2020294451ADC40F246
:100EE0003F42C4F2020294452ADC40F21042C4F2AE
:100EF0000202944540D040F2284239E09F22C4F2D9
:100F00000202944525DC7022C4F20202944533D0DB
:100F100088222DE040F29F42C4F2020294451FDC79
:100F200040F27042C4F20202944525D040F2884259
:100F30001EE04022C4F2020294451DD0582217E060
:100F400040F24042C4F20202944515D040F25842A9
:100F50000EE0A022C4F2020294450DD0B82207E0B0
:100F600040F2B842C4F20202944505D040F2A042D9
:100F7000C4F20202944517D10CF0F8024AF6AB23F2
:100F8000103ACAF6AA23A2FB033109A35F2AC1F3D0
:100F900002115B5C40F2FF312CEA0101C36588BF9E
:100FA00004318165084670472CF0FF01F9E700BF66
:100FB00000061016000610162DE9F04182B00B88CD
:100FC0009046B3F5007F00F08480B3F5807F5FD05A
:100FD000002B40F08980B2EE093AB3EE0E4A9FED45
:100FE000465AB1EE047A21EE051A898830EE030ADA
:100FF0009FED403A30EE844A21EE856A20EE030AE6
:10100000B3EE093A24EE054A80EE030A9FED3B3A1F
:1010100084EE033AB2EE044ABDEEC00A32EE042A70
:101020009FED374A81EE041A86EE074A10EE102A29
:1010300022EE052AB3EE045ABDEEC33A8DF8012024
:10104000BDEEC11A170A82EE052A8DF80070BDEEBA
:10105000C44A13EE103A11EE104ABDEEC22A14EE45
:10106000105A1A098DF802201A0112EE106A42EA8B
:1010700014228DF803202A098DF80520320A8DF8F4
:10108000044042EA05128DF806208DF807601DE045
:1010900010EE102A898801F580718DF8002089B240
:1010A000130A8DF80130130C8DF8023010EE903ACF
:1010B000120E8DF803208DF804301A0A8DF80520E1
:1010C0001A0C8DF806201A0E8DF807206A460823A0
:1010D00008E0898810EE902A042301F5007100923F
:1010E00089B26A460AF0D0F840460AF021FA02B006
:1010F000BDE8F08100FF7F4700F07F4500007042AF
:101100000000FA4300000000B2F5002F18BF70473E
:1011100010B50A789FED2D1ABBEE0E4A02F00F02B1
:1011200082810A781209C281B1F8012052BA0261A3
:10113000CB7891F804C01B0143EA1C1EC0F814E0F0
:1011400091F804C019235A434C790CF00F0300EEB8
:10115000102A44EA03228261CEEB0E139B00B8EE04
:10116000400A02EE103A02EB82039B0003EE103AB3
:1011700080EE010ABAEE091AB8EE422AB8EE433AF6
:1011800030EE010A9FED121A82EE012A80ED090A63
:1011900083EE011ABAEE043A32EE040A80ED0A0A2E
:1011A00031EE030A80ED0B0A8A7900EE102AB8EEC0
:1011B000400A80ED0E0AC97900EE101AB8EE400A16
:1011C00080ED0F0ABDE81040704700BF00FF7F4769
:1011D00000F07F45000000004EF6FC51CEF2000109
:1011E0000A6842F080720A6041F200010022CEF2E9
:1011F00000014A600B6843F001030B6044F2402198
:10120000C0F20F01484340F6AC31C2F20041086021
:1012100044F6D351C1F26201A0FB01134DF6836184
:10122000C4F21B31A0FB010140F6B030C2F2004015
:101230009B090360880C40F6B431C2F2004108609B
:1012400040F6B830C2F20040026070470000000073
:10125000704700000000000010B582B011441C4629
:101260004FF0FF33CDF803300093FD2289B28DF8A3
:1012700007206A4608230AF007F820460AF058F9C2
:10128000002002B010BD000010B582B011441C4611
:101290004FF0FF33CDF803300093FC2289B28DF874
:1012A00007206A46082309F0EFFF20460AF040F9BC
:1012B000012002B010BD0000EFF3108072B600BF35
:1012C000FEE700000000000010B58AB000240220F4
:1012D00004900120CDE9050442F6605002A9C2F253
:1012E00000400794CDE9024401F096FD08B1FFF7F4
:1012F000E3FF42F660500221C2F2004002220023C6
:10130000009401F0CDFD08B1FFF7D6FF42F6605022
:101310000121C2F20040002201F006FD08B1FFF7F2
:10132000CBFF42F66050C2F2004002F0CDFB08B1A4
:10133000FFF7C2FF0AB010BD42F66050C2F2004093
:1013400001F09EBE0000000010B58AB0012003909D
:10135000022002A9CDE9040042F600600024C2F296
:1013600000400294CDE9064401F056FD08B1FFF7B4
:10137000A3FF42F600600221C2F2004002220023D5
:10138000009401F08DFD08B1FFF796FF42F6006072
:101390001021C2F20040002201F0C6FC08B1FFF7A4
:1013A0008BFF42F60060C2F2004002F08DFB08B1F4
:1013B000FFF782FF0AB010BD42F60060C2F20040A3
:1013C00001F05EBE0000000010B58AB000240220CB
:1013D000CDE90300012002A9CDE9050442F6A06091
:1013E0000294C2F20040079401F016FD08B1FFF725
:1013F00063FF42F6A0600221C2F2004002220023F5
:10140000009401F04DFD08B1FFF756FF42F6A060D1
:101410001021C2F20040002201F086FC08B1FFF763
:101420004BFF42F6A060C2F2004002F04DFB08B153
:10143000FFF742FF0AB010BD42F6A060C2F20040C2
:1014400001F01EBE00000000F0B5D1E900C4D1F8E3
:1014500008E00D692CB14EEA0C04254345F0804CA0
:1014600003E045EA8C4444EA0E0C856ED0F88470A3
:10147000D1E907466B438D6944EA0660D1F814E070
:101480000543CC6807EB830045EA0E0647F823C006
:1014900046EA04034360CB68B3F5803F38BFF0BD34
:1014A0004CF6A81C083001320023C0F6000C00BF27
:1014B000D71857F8017CC750CF8904331CF8077040
:1014C000BB42F5D3F0BD00002DE9F041044602F027
:1014D0001BFC14B3054694F83500022820D140F2D5
:1014E0000F472668C4F2020740F26F48BE426FF011
:1014F0000E00C4F2020817DC6F21C4F202018E4212
:1015000023DC3F21C4F202018E4239DC1021C4F2F7
:1015100002018E4258D0282151E00120BDE8F0811F
:1015200080206065012037E246451ADC40F23F41E9
:10153000C4F202018E422ADC40F21041C4F20201E0
:101540008E4241D040F2284139E09F21C4F202018D
:101550008E4225DC7021C4F202018E4234D08821F3
:101560002DE040F29F41C4F202018E421FDC40F2A6
:101570007041C4F202018E4226D040F288411EE042
:101580004021C4F202018E421ED0582117E040F2E1
:101590004041C4F202018E4216D040F258410EE0A2
:1015A000A021C4F202018E420ED0B82107E040F221
:1015B000B841C4F202018E4206D040F2A041C4F20A
:1015C00002018E42314607D13146306820F01E00BC
:1015D00041F8140B6FF080000A68464500EA0200EB
:1015E000086019DC9F20C4F20200864231DC5720DB
:1015F000C4F20200864256DC1020C4F20200864289
:1016000000F091802820C4F20200864200F08B8016
:101610004020C4F2020084E045F22F40C5F60200EB
:1016200086422BDC40F2B740C4F20200864248DC1E
:1016300040F27040C4F20200864274D040F288400A
:10164000C4F2020086426ED040F2A040C4F2020012
:1016500067E040F22740C4F20200864240DCA0204E
:10166000C4F2020086425ED0B820C4F20200864274
:1016700059D040F21040C4F2020052E045F26B40F3
:10168000C5F6020086423CDC45F23040C5F6020059
:10169000864248D045F24440C5F60200864242D018
:1016A00045F258403BE05820C4F2020086423AD04E
:1016B0007020C4F20200864235D08820C4F20200B5
:1016C0002FE040F2B840C4F2020086422BD045F22F
:1016D0000840C5F60200864225D045F21C401EE0B7
:1016E00040F22840C4F2020086421CD040F2404042
:1016F000C4F20200864216D040F25840C4F2020002
:101700000FE045F26C40C5F6020086420BD045F270
:101710009440C5F60200864205D045F28040C5F6E9
:101720000200864204D1206E016821F480710160BC
:10173000306820F0010030603068C0070BD002F044
:10174000E3FA401B0628F7D320206065032084F8C5
:101750003500012020E120680821B8424FF03F0207
:1017600010DC6F23C4F2020398421CDC3F23C4F256
:101770000203984232DC1023C4F20203984251D093
:1017800028234AE040451ADC40F23F43C4F20203FA
:1017900098422ADC40F21043C4F20203984241D03E
:1017A00040F2284339E09F23C4F20203984225DC2B
:1017B0007023C4F20203984234D088232DE040F213
:1017C0009F43C4F2020398421FDC40F27043C4F20C
:1017D0000203984226D040F288431EE04023C4F220
:1017E000020398421ED0582317E040F24043C4F24F
:1017F0000203984216D040F258430EE0A023C4F2F0
:10180000020398420ED0B82307E040F2A043C4F28E
:101810000203984206D040F2B843C4F20203984251
:1018200040F0BF80D4E9163707F01F07404502FAA1
:1018300007F25A5019DC9F21C4F20201884231DCC0
:101840005721C4F20201884256DC1021C4F2020181
:10185000884200F091802821C4F20201884200F001
:101860008B804021C4F2020184E045F22F41C5F68D
:10187000020188422BDC40F2B741C4F202018842E7
:1018800048DC40F27041C4F20201884274D040F258
:101890008841C4F2020188426ED040F2A041C4F2F5
:1018A000020167E040F22741C4F20201884240DCB5
:1018B000A021C4F2020188425ED0B821C4F2020124
:1018C000884259D040F21041C4F2020152E045F280
:1018D0006B41C5F6020188423CDC45F23041C5F659
:1018E0000201884248D045F24441C5F602018842CF
:1018F00042D045F258413BE05821C4F202018842EF
:101900003AD07021C4F20201884235D08821C4F255
:1019100002012FE040F2B841C4F2020188422BD00C
:1019200045F20841C5F60201884225D045F21C4126
:101930001EE040F22841C4F2020188421CD040F26D
:101940004041C4F20201884216D040F25841C4F22C
:1019500002010FE045F26C41C5F6020188420BD04E
:1019600045F29441C5F60201884205D045F2804116
:10197000C5F6020188420BD1616EA26EE06E4A602C
:1019800030B1016821F480710160D4E91C0141602B
:10199000012084F835000020002184F83410BDE8CF
:1019A000F081042101223DE7F0B190F835100229C1
:1019B00018D180B540F20F420168C4F20202914290
:1019C00014DC6F23C4F20203994224DC3F23C4F2E7
:1019D000020399423ADC1023C4F20203994258D020
:1019E000282352E0802141650120704740F26F4377
:1019F000C4F2020399421ADC40F23F43C4F20203EC
:101A000099422ADC40F21043C4F20203994240D0CA
:101A100040F2284339E09F23C4F20203994225DCB7
:101A20007023C4F20203994233D088232DE040F2A0
:101A30009F43C4F2020399421FDC40F27043C4F298
:101A40000203994225D040F288431EE04023C4F2AD
:101A5000020399421DD0582317E040F24043C4F2DC
:101A60000203994215D040F258430EE0A023C4F27D
:101A7000020399420DD0B82307E040F2B843C4F204
:101A80000203994205D040F2A043C4F202039942F6
:101A90006ED191424FF0040280F8352010DC6F20A7
:101AA000C4F20200814220DC3F20C4F202008142E5
:101AB00036DC1020C4F20200814253D028204EE0D0
:101AC00040F26F40C4F2020081421ADC40F23F4013
:101AD000C4F2020081422ADC40F21040C4F202004B
:101AE00081423FD040F2284039E09F20C4F20200FA
:101AF000814225DC7020C4F20200814232D088206D
:101B00002DE040F29F40C4F2020081421FDC40F20F
:101B10007040C4F20200814224D040F288401EE0AE
:101B20004020C4F2020081421CD0582017E040F24D
:101B30004040C4F20200814214D040F258400EE00E
:101B4000A020C4F2020081420CD0B82007E040F28D
:101B5000B840C4F20200814204D040F2A040C4F276
:101B600002008142086820F001000860002080BD6A
:101B70000A6822F00E020A6045F25742C5F60202D8
:101B800091420A6822F001020A600EDC45F22F42FF
:101B9000C5F60202914217DC45F20842C5F6020280
:101BA000914226D045F21C421FE045F27F42C5F625
:101BB0000202914211DC45F25842C5F602029142FE
:101BC00017D045F26C4210E045F23042C5F60202F1
:101BD00091420ED045F2444207E045F29442C5F6E8
:101BE0000202914205D045F28042C5F602029142BE
:101BF0001AD1D0E9181CD0E916E30A6822F48072E1
:101C00000A6003F01F01012202FA01F1CEF804106C
:101C1000816ECCF80410C16E31B10A6822F4807272
:101C20000A60D0E91C124A60012180F83510016D6C
:101C30000022002980F8342098D08847002080BDF9
:101C40002DE9F04381B00021009140F6882148F24F
:101C5000B513C2F20041C1F64E33856D40F26F49B3
:101C60000A680168C4F202092E68A2FB03284945EC
:101C70002B6815DC9F22C4F2020291422BDC572212
:101C8000C4F2020291424FDC1022C4F202029142DD
:101C900078D02822C4F20202914273D040226CE034
:101CA00045F22F42C5F60202914227DC40F2B742CC
:101CB000C4F20202914243DC40F27042C4F20202DA
:101CC00091425FD040F28842C4F20202914259D060
:101CD00040F2A04251E040F22742C4F20202914297
:101CE0003DDCA022C4F2020291424BD0B822C4F2E1
:101CF0000202914246D040F210423EE045F26B4271
:101D0000C5F60202914275DC45F23042C5F6020288
:101D1000914200F0828045F24442C5F602029142AF
:101D20007BD045F2584273E05822C4F2020291423D
:101D300028D07022C4F20202914223D088221CE0F3
:101D400040F2B842C4F2020291421BD045F208426E
:101D5000C5F60202914260D045F21C4258E040F2C2
:101D60002842C4F2020291420CD040F24042C4F236
:101D70000202914206D040F25842C4F2020291425D
:101D800040F02D84C26D082302F01F0293403342BD
:101D900000F0168140F20F44C4F20204A1424FF059
:101DA000040413DC6F27C4F20207B94200F39180E8
:101DB0003F27C4F20207B94200F3D2801027C4F2D1
:101DC0000207B94200F0F0802827E8E0494500F317
:101DD0008C8040F23F47C4F20207B94200F3C7804B
:101DE00040F21047C4F20207B94200F0DD8040F231
:101DF0002847D4E045F26C42C5F6020291420CD06D
:101E000045F28042C5F60202914206D045F2944264
:101E1000C5F60202914240F0E2830E68C26D02F004
:101E20001F02042707FA02F41C4218BF16F0040729
:101E30002CD1022707FA02F41C4218BF16F0020741
:101E400062D1D3401B0740F1CA8316F0080300F0AB
:101E5000C68340F20F43C4F2020399426FF01C03A1
:101E600000F318836F27C4F20207B94200F35483CA
:101E70003F27C4F20207B94200F3B4831027C4F22B
:101E80000207B94200F0D3832827CAE332046C600A
:101E90005ED4B20600F1A18340F20F42C4F2020206
:101EA00091426FF0080200F3E3826F23C4F2020351
:101EB000994200F302833F23C4F20203994200F3E4
:101EC00047831023C4F20203994200F0838328233E
:101ED0007AE39F27C4F20207B94251DC7027C4F2AB
:101EE0000207B94260D0882759E040F29F47C4F208
:101EF0000207B9424BDC40F27047C4F20207B94214
:101F000052D040F288474AE032046C6000F19C8273
:101F1000B20600F1CF8340F20F42C4F202029142B6
:101F20006FF0140200F3D6826F23C4F202039942C9
:101F300000F315833F23C4F20203994200F38C831C
:101F40001023C4F20203994200F0AB832823A2E3DA
:101F5000F10300F14283816C002940F079833EE374
:101F60004027C4F20207B9421ED0582717E040F2BA
:101F70004047C4F20207B94216D040F258470EE07B
:101F8000A027C4F20207B9420ED0B82707E040F2FA
:101F9000A047C4F20207B94206D040F2B847C4F2E3
:101FA0000207B94218BF08240F68274208D00F68FB
:101FB00027F004070F60AB60436D43F001034365F6
:101FC0000123934033426FD040F20F47C4F202071F
:101FD000B94210DC6F27C4F20207B9421CDC3F276C
:101FE000C4F20207B94232DC1027C4F20207B94238
:101FF00051D028274AE049451ADC40F23F47C4F255
:102000000207B9422ADC40F21047C4F20207B94283
:1020100041D040F2284739E09F27C4F20207B94275
:1020200025DC7027C4F20207B94234D088272DE09E
:1020300040F29F47C4F20207B9421FDC40F27047EA
:10204000C4F20207B94226D040F288471EE040277A
:10205000C4F20207B9421ED0582717E040F24047A9
:10206000C4F20207B94216D040F258470EE0A0274A
:10207000C4F20207B9420ED0B82707E040F2B847D1
:10208000C4F20207B94206D040F2A047C4F20207E8
:10209000B94240F0E1814F6907F0800424B1AB60A0
:1020A000436D43F0020343650423934033426FD0F2
:1020B00040F20F47C4F20207B94210DC6F27C4F2A6
:1020C0000207B9421CDC3F27C4F20207B94232DCE6
:1020D0001027C4F20207B94251D028274AE04945E7
:1020E0001ADC40F23F47C4F20207B9422ADC40F250
:1020F0001047C4F20207B94241D040F2284739E004
:102100009F27C4F20207B94225DC7027C4F20207F8
:10211000B94234D088272DE040F29F47C4F202072D
:10212000B9421FDC40F27047C4F20207B94226D020
:1021300040F288471EE04027C4F20207B9421ED091
:10214000582717E040F24047C4F20207B94216D0C0
:1021500040F258470EE0A027C4F20207B9420ED061
:10216000B82707E040F2B847C4F20207B94206D0E8
:1021700040F2A047C4F20207B94240F073810F68F1
:1021800007F0020424B1AB60436D43F004034365E0
:10219000102303FA02F232427ED040F20F43C4F21F
:1021A000020399424FF0080310DC6F27C4F20207C4
:1021B000B9421CDC3F27C4F20207B94232DC1027C7
:1021C000C4F20207B94251D028274AE049451ADC37
:1021D00040F23F47C4F20207B9422ADC40F21047FE
:1021E000C4F20207B94241D040F2284739E09F27A4
:1021F000C4F20207B94225DC7027C4F20207B942D3
:1022000034D088272DE040F29F47C4F20207B9423C
:102210001FDC40F27047C4F20207B94226D040F2F8
:1022200088471EE04027C4F20207B9421ED0582753
:1022300017E040F24047C4F20207B94216D040F21C
:1022400058470EE0A027C4F20207B9420ED0B827C3
:1022500007E040F2A047C4F20207B94206D040F2BC
:10226000B847C4F20207B94218BF04230F681F42DF
:1022700012D0AA600A6852030A6806D4D20506D4AE
:102280000A6822F008020A6001E0110352D4016CCE
:1022900011B1044688472046C16D01F01F0220217C
:1022A00001FA02F3334200F0A68040F20F470168C2
:1022B000C4F202071026B94210DC6F27C4F20207ED
:1022C000B9421CDC3F27C4F20207B94236DC1027B2
:1022D000C4F20207B94255D028274EE049451ADC1E
:1022E00040F23F47C4F20207B9422EDC40F21047E9
:1022F000C4F20207B94245D040F228473DE09F278B
:10230000C4F20207B94229DC7027C4F20207B942BD
:1023100038D0882731E040F29F47C4F20207B94223
:1023200023DC40F27047C4F20207B9422AD040F2DF
:10233000884722E0816C0029ABD1ADE74027C4F289
:102340000207B9421ED0582717E040F24047C4F2B6
:102350000207B94216D040F258470EE0A027C4F257
:102360000207B9420ED0B82707E040F2A047C4F2F6
:102370000207B94206D040F2B847C4F20207B94298
:1023800018BF02260F68374235D0AB6090F8353061
:10239000042B0B6816D123F016030B604B6923F056
:1023A00080034B61036C0BB9836C1BB10B6823F08A
:1023B00008030B603F219140A960012180F835108E
:1023C000016D3FE15A030A680CD4D2050ED40A68A5
:1023D00022F010020A60012180F83510002180F8F7
:1023E000341003E0110301D4416C00E0C16B11B162
:1023F000044688472046416D002900F0F080416D79
:10240000C9071CD0042180F8351001684FEA9822D2
:102410000B6823F001030B60009B01330093934290
:1024200002D80B68DB07F7D10968C9074FF0030131
:1024300008BF012180F83510002180F83410C16CEC
:10244000002940F00581CAE0F10300F13381416CBD
:10245000002940F0FD80C2E000240F68002C7FF4CA
:102460001EAE21E600240F68002C7FF48CAE8FE6B0
:10247000494542DC40F23F43C4F2020399427CDC0E
:1024800040F21043C4F20203994200F0A38040F2EC
:10249000284399E049454CDC40F23F47C4F202072B
:1024A000B94200F3A68040F21047C4F20207B942D5
:1024B00000F0BD8040F22847B3E09F23C4F202033E
:1024C000994263DC7023C4F20203994200F08280D7
:1024D000882379E0494560DC40F23F43C4F20203BF
:1024E000994200F3C08040F21043C4F202039942C3
:1024F00000F0D78040F22843CDE040F29F43C4F281
:102500000203994258DC40F27043C4F2020399423C
:1025100060D040F2884357E09F27C4F20207B942D7
:1025200070DC7027C4F20207B94200F0808088276F
:1025300077E040F29F47C4F20207B94269DC40F2FB
:102540007047C4F20207B94271D040F2884768E090
:102550004023C4F2020399423CD0582334E09F2325
:10256000C4F20203994200F387807023C4F202038D
:10257000994200F0968088238DE040F24043C4F2F7
:102580000203994226D040F258431DE0A023C4F232
:10259000020399421ED0B82316E040F29F43C4F2D2
:1025A000020399426FDC40F27043C4F20203994285
:1025B00077D040F288436EE040F2A043C4F20203B9
:1025C000994207D040F2B843C4F20203994218BFBF
:1025D0006FF004020B681A400A60016CC1BB01B0C5
:1025E000BDE8F0834027C4F20207B9421FD0582744
:1025F00017E040F24047C4F20207B94217D040F258
:1026000058470EE0A027C4F20207B9420FD0B827FE
:1026100007E040F2A047C4F20207B94207D040F2F7
:10262000B847C4F20207B94218BF6FF00E030F6833
:102630003B400B60012101FA02F26A60416580F8BB
:102640003510C16C00294FF0000280F83420C6D04C
:1026500001B0BDE8F04308474023C4F202039942A9
:102660001FD0582317E040F24043C4F202039942BE
:1026700017D040F258430EE0A023C4F2020399425F
:102680000FD0B82307E040F2A043C4F202039942FE
:1026900007D040F2B843C4F20203994218BF6FF06A
:1026A0000A020B681A400A60012180F835100021E7
:1026B00080F83410C16B0029CAD190E700000000F7
:1026C0002DE9F041044601F01FFBECB140F26F48E8
:1026D00005462068C4F20208404518DC9F21C4F278
:1026E000020188422EDC5721C4F20201884254DCE8
:1026F0001021C4F2020188427ED02821C4F20201D6
:10270000884279D0402172E00120BDE8F08145F295
:102710002F41C5F60201884227DC40F2B741C4F2DE
:102720000201884245DC40F27041C4F20201884255
:1027300062D040F28841C4F2020188425CD040F28B
:10274000A04154E040F22741C4F20201884240DC3B
:10275000A021C4F2020188424ED0B821C4F2020185
:10276000884249D040F2104141E045F26B41C5F644
:102770000201884200F3B88045F23041C5F60201FB
:10278000884200F0C38045F24441C5F60201884208
:1027900000F0BC8045F25841B4E05821C4F2020177
:1027A000884229D07021C4F20201884224D08821B5
:1027B0001DE040F2B841C4F2020188421CD045F24B
:1027C0000841C5F60201884200F0A08045F21C4194
:1027D00098E040F22841C4F2020188420CD040F255
:1027E0004041C4F20201884206D040F25841C4F28E
:1027F0000201884240F0CE80022184F83510002189
:1028000084F83410016821F001010160206801683A
:10281000C9070CD001F078FA401B0628F6D3202017
:102820006065032084F835000120BDE8F08148F29E
:102830003F0204F108070168CFF610621140666993
:102840008CCF1143D4F818C01943E3693943276A80
:102850000E43616A3343042943EA070343EA0C0346
:1028600003D1D4E90B7637433B436568A5F12906CC
:10287000292E00F2A1800127DFE806F015151515B5
:1028800015159E9E9E9E9E9E9E9E9E9E9E9E9E9E7A
:102890009E9E151515159E9E9E9E15159E9E9E9E8E
:1028A0009E9E15151515002F18BF43F4801304299B
:1028B0000360426922F0070241EA020140F0908081
:1028C000D4E90A53002B41EA050100F08980BCF5E8
:1028D000005F61D0BCF1000F6AD1022D74D0012DD0
:1028E00060D0002D70D072E045F26C41C5F6020157
:1028F00088420BD045F28041C5F60201884205D0DE
:1029000045F29441C5F60201884243D104F1080E14
:10291000022184F83510002184F834100168A3697D
:102920009EE80450A2F18005E769B5FA85F566696D
:102930006D09402A4FEA853543EA07026FF310110B
:1029400042EA060208BF102541EADC0142EA0E0213
:102950002943236A41EAD2014AF6F832CAF2FD72EB
:102960004CF6CD470244CCF6CC4741EA1311A2FB0A
:10297000072301606FF0030000EA9300E065204642
:10298000FEF78EFAE16D012201F01F0102FA01F15A
:10299000416030E0402043E7032D18D8DFE805F020
:1029A0000A140A02A3F1C072B2FA82F252090FE0CD
:1029B000032D08D201220BE025F00302743AB2FA8B
:1029C00082F257096FE702D1C3F3006200E00022F0
:1029D00032B140206065012084F83500BDE8F08107
:1029E00041612046FEF75CFAE16D3F2201F01F01D4
:1029F00002FA01F181602068404519DC9F21C4F290
:102A00000201884231DC5721C4F20201884256DCBF
:102A10001021C4F20201884200F092802821C4F201
:102A20000201884200F08C804021C4F2020184E05F
:102A300045F22F41C5F6020188422BDC40F2B74136
:102A4000C4F20201884248DC40F27041C4F2020143
:102A5000884275D040F28841C4F2020188426FD0AA
:102A600040F2A041C4F2020167E040F22741C4F203
:102A70000201884240DCA021C4F2020188425FD0FA
:102A8000B821C4F2020188425AD040F21041C4F287
:102A9000020152E045F26B41C5F6020188423CDC7E
:102AA00045F23041C5F60201884249D045F2444121
:102AB000C5F60201884243D045F258413BE0582117
:102AC000C4F2020188423BD07021C4F20201884264
:102AD00036D08821C4F202012FE040F2B841C4F29E
:102AE000020188422CD045F20841C5F60201884215
:102AF00026D045F21C411EE040F22841C4F20201FA
:102B000088421DD040F24041C4F20201884217D0F1
:102B100040F25841C4F202010FE045F26C41C5F6A3
:102B2000020188420CD045F29441C5F60201884268
:102B300006D045F28041C5F60201884240F0D080BF
:102B400045F2574C45F6FC0EC5F6020CC5F6020ED2
:102B500060450EDC45F22F43C5F60203984217DCB0
:102B600045F20843C5F60203984226D045F21C43BD
:102B70001FE045F27F43C5F60203984211DC45F29F
:102B80005843C5F60203984217D045F26C4310E053
:102B900045F23043C5F6020398420ED045F2444355
:102BA00007E045F29443C5F60203984205D045F28A
:102BB0008043C5F60203984250D100F0FC034CF666
:102BC000CD47083BCCF6CC47A3FB0737AEF1FC055D
:102BD000AEF17C063B0905EB83022266A26803F096
:102BE0001F030127802A666607FA03F2A26601D155
:102BF000002262606368A56ED4E91826DFB2591E10
:102C000007291760756015D87E1E072E62D86045AB
:102C10000EF1440213DC45F22F41C5F60201884251
:102C20003CDC45F20841C5F6020188424BD045F232
:102C30001C4144E000206067C4E91B0050E045F2FD
:102C40007F41C5F60201884231DC45F25841C5F6A4
:102C50000201884237D045F26C4130E000F0F803C1
:102C60004AF6AB27103BCAF6AA27A3FB073740F268
:102C70000F43C4F2020308253E09984203F1AA0259
:102C8000334688BF05EB171340F600059042C4F2A7
:102C9000020528BF334605F180069CE745F2304126
:102CA000C5F6020188420ED045F2444107E045F2E4
:102CB0008041C5F60201884205D045F29441C5F62F
:102CC0000201884213D10EEB8300E06601202267E7
:102CD000B040606704F16C02002307CA03604A60D9
:102CE00000206065012184F83510BDE8F08140F6D0
:102CF0000000C4F2020000F1FC0E00F5A072E2E751
:102D0000B0B5044601F000F840F698310546C2F22D
:102D10000041621C097818BF0C4400BF00F0F4FFAA
:102D2000401BA042FAD3B0BD90F89830013B012B74
:102D30000BD80068836D0B420CD0836D0B408B4227
:102D40000CD1C36D43F0020309E000F19C010120A6
:102D5000022221E0C36D43F0010300E00323C365B9
:102D60008B0504D5D0F8E0301343C0F8E0304B05B4
:102D700004D5D0F8E4301A43C0F8E4204FF6FF72CF
:102D8000436DC3F6CF720A401A4342658A0F4AF672
:102D900014010020C4F200010B681A430A60704756
:102DA00090F89830022B1BD1B0B50368D3F8C0500F
:102DB00015F07C5F1CD0D3F8C450AD021DD4D3F8FD
:102DC000C4300546C3F304442346FEF73DFB2868A0
:102DD0000121A140C0F8D0100020C5F89410B0BD6A
:102DE000D0F89C1041F00801C0F89C1001207047F9
:102DF000D0F89C1041F0200103E0D0F89C1041F481
:102E00000071C0F89C100120B0BD0000000000005F
:102E1000704700000000000090F89820013A012A55
:102E20000BD880B50A68002ACA680ED00B69072A39
:102E300043EA427E16D18B6919E0D0F89C1041F02C
:102E40000201C0F89C1001207047072A18D10A69B6
:102E5000D1E906C3120442EA032242EA0C0242F01C
:102E6000605217E0D1F808C04B6943EA8C73006FD9
:102E7000496800EBC10240F831E05360002080BD9A
:102E80008B68D1E904CE9B0743EAC26242EA0C4256
:102E900042EA0E024968C06E40F82120002080BD41
:102EA00090F898C0BCF1010F0DD19200006842EA81
:102EB0000111DDF800C041EA430141EA0C01C0F80C
:102EC000801000207047D0F89C1041F00401C0F839
:102ED0009C100120704700007047000000000000B7
:102EE000704700000000000070B590F89850022D67
:102EF0001CD140291FD10568D5F8A04014F4FE0F5D
:102F000000F08F80D5F8A440640600F09680D5F8D4
:102F1000A440E40148BFD5F8A040D5F8A45000F182
:102F20007404C5F3052E456CF44629E0D0F89C10D6
:102F300041F0080185E0412918D10568D5F8B04075
:102F400014F4FE0F6DD0D5F8B440640675D0D5F8F2
:102F5000B440E40148BFD5F8B040D5F8B45000F112
:102F60007804C5F3052EC56CF44609E0056DA94249
:102F700057D200F17C04D0F854E04FF0000C0D461D
:102F800005FB0EF6246854F8265015F08045556070
:102F900054F826E02EF0604508BFCEF38A4504EBD6
:102FA000860E156054F8265005F00055956054F8CB
:102FB000264004F000441461BEF80440D461DEF8F9
:102FC000044004F47024D460DEF80450B4F5803F6B
:102FD00005F480155561DEF8045005F4001595617F
:102FE0009EF8075005F07F051562DEF804504FEAA1
:102FF000D57454620ED30EF108054CF6A81E0024B9
:10300000C0F6000E2E5D1E550134D6891EF80660EE
:10301000B442F7D3402909D10068C0F8A8C0002005
:1030200070BDD0F89C1041F020010AE041290CD17C
:103030000068C0F8B8C0002070BDD0F89C1041F402
:103040008071C0F89C10012070BD1F2907D800684E
:10305000012202FA01F1C0F89810002070BD00684A
:1030600001F01F01012202FA01F1C0F89C100020BA
:1030700070BD00000000000070470000000000006C
:103080002DE9F04F87B004464AF61000C4F2000064
:1030900001684AF61400C4F20000026820680A4081
:1030A000D0F850B0D0F85490056D466D036D029382
:1030B000436D0193036D0693436D0593036D049374
:1030C000436D0393D0F854A0D0F850805FEACA5300
:1030D00010D518F480710DD04FF4807101654AF657
:1030E00010010020C4F20001174608602046FFF7D7
:1030F000C3FF3A460BEA090B4AF610095FEA4A5049
:10310000C4F200094FEA82771AD518F4806017D00C
:1031100020689146D0F8DC10D0F8E42011404FF43C
:10312000806202654AF61002C4F2000200201060BC
:10313000204600F0FDFC4A464AF61009C4F2000998
:1031400005EA06050BF4704657B1206800210165B9
:1031500002F00300C9F8000020463946FFF758FE88
:10316000DDE9011000EA010705F00F0546B120680E
:10317000314606650020C9F80000204600F0E0FC5A
:1031800007F0F00645B12068294605650020C9F81A
:103190000000204600F0E4FB46B120683146066599
:1031A0000020C9F80000204600F036FC5FEA0A5013
:1031B0000CD518F4006009D020684FF40061016557
:1031C0000020C9F80000204600F0BEFC5FEA8A50EB
:1031D00011D518F400700ED02068D0F8D810D0F8AF
:1031E000E02011404FF4007202650020C9F8000091
:1031F000204600F0A1FC5FEA0A300CD518F400204C
:1032000009D020684FF4002101650020C9F80000B2
:10321000204600F0A1FB5FEACA300CD518F48030DC
:1032200009D020684FF4803101650020C9F8000002
:10323000204600F079FC5FEA4A30DDE9031000EA3D
:1032400001050CD518F4802009D020684FF48021A6
:1032500001650020C9F80000204600F061FC5FEA2B
:103260008A30DDE9051000EA010005F060710FD534
:1032700018F400320CD022684FF40033136500229A
:10328000C9F80020D4F89C2042F08002C4F89C20A9
:1032900000F0715539B1206801650020C9F80000BF
:1032A0002046FFF71DFE4DB1206805650020C9F8D6
:1032B0000000D4F89C002843C4F89C002068A9F5BD
:1032C0000161884209D0D4F89C00002868D02046CB
:1032D00007B0BDE8F04FFFF7FFBD60688168890760
:1032E000F1D0016A426A036A476A114003EA0702A1
:1032F00002F03005D0F82080D0F82490D0F820B02B
:10330000466A026A069211F00F01426A0592D0F8ED
:1033100024A0026A049203D00162204600F0F4FB6C
:1033200008EA09072DB1606829460562204600F0C9
:10333000F3FB5FEA4A6006EA0B0607F4C0750ED598
:10334000049810F040000AD060684023C16BC26B43
:10335000090C02F03F020362204600F0D9FBDDE9D0
:10336000051000EA010706F4FC462DB16068294605
:103370000562204600F0C4FB07F4F02036B1616816
:103380000E62D4F89C103143C4F89C1000289AD0E7
:1033900061680862D4F89C100843C4F89C0092E766
:1033A00007B0BDE8F08F000040B32DE9F04F83B0C7
:1033B0004AF200080446C4F200080068404502D101
:1033C00008F58070606094F8980028B9002084F8AF
:1033D0009900204600F0CCF92068816921F01001A5
:1033E000816100F091FC054620688169090707D5D5
:1033F00000F08AFC401B0B28F6D312E00120704736
:10340000816941F00101816100F07EFC054600BF49
:1034100020688169C90711D100F076FC401B0B2898
:10342000F6D30120D4F89C100843C4F89C00032074
:1034300084F89800012003B0BDE8F08F816941F065
:1034400002018161217C826922F04002012918BFBA
:1034500040328261617C826922F48042012908BF86
:1034600002F580428261A17C826922F480520129A6
:1034700018BF02F580528261816921F44073D4E95A
:1034800002120B438361836923F0A4038361036900
:1034900023F0100303619AB1012A0DD0022A09D04A
:1034A0008369032A43F080038361036943F01002B8
:1034B000026105D1202200E0042283691A4382615F
:1034C000D4E90572E369561E6FF0FF02256A02EB2C
:1034D0000323B1F5407F43EA4663A5F1010646EABE
:1034E000030640F20003CFF6FF7303EB074746EAFB
:1034F0000701C16110D1D4E90B65D4E90917013F77
:1035000002EB06226FF00F063A4306EB05173A432B
:1035100003EB01411143C160236E2BB1616ED0F802
:10352000C0201143C0F8C010E16DCDE90113D942AC
:103530004CF62811C0F6000109D0D0F8C820A36EBF
:1035400022F0070251F823301A43C0F8C820D4F8FB
:1035500040C0BCF1000F09D0D0F8BC20636C22F051
:10356000070251F823301A43C0F8BC20D4F848B001
:10357000BBF1000F0AD0D0F8BC20E36C22F070023F
:1035800051F8233042EA0312C0F8BC20D4F850A00E
:10359000BAF1000F0AD0D0F8BC20636D22F4E062CB
:1035A00051F8231042EA0121C0F8BC10404504D173
:1035B00061688A6822F003028A600021C4F89410CE
:1035C000C4F89C10012184F8981004F13409D0F853
:1035D00084104FF6FC729143656C99E80C020095DB
:1035E00041EA8201C0F88410D0F8841021F47F01F0
:1035F00041EA0341C0F884109918D0F888306FF37D
:103600008F0343EA8103C0F88830D0F8883023F470
:10361000FE0343EA0943C0F8883001EB4903D0F8C0
:10362000A0606FF38F0646EA8306C0F8A060D0F86A
:10363000A06026F4FE0646EA0C46C0F8A06005FB32
:103640000C36D0F8B0306FF38F0343EA8603C0F82E
:10365000B030D0F8B03023F4FE0343EA0B43C0F897
:10366000B030E36CD0F8AC506FF38F0503FB0B6602
:1036700045EA8605C0F8AC50D4F8548008FB0A65CA
:10368000D0F8F0606FF38F0646EA8506C0F8F06068
:10369000D0F8F0E0A66D2EF47C1747EA0647C0F894
:1036A000F070F70007EB8507D0F8C0506FF38F0577
:1036B0002F43C0F8C070D0F8C070009DDDF804E062
:1036C00027F47C1705FB0CFC4AF2000547EA0E477D
:1036D000C0F8C070C4F2000503FB0BC305F54067DA
:1036E000D0F8C05007EB820207EB810125F07C5730
:1036F000029D47EA0567C0F8C07001EBC90008FBEE
:103700000A372167A16E00EB8C0C606700EB830326
:10371000E266C4E91EC30EFB01F300EB87006943B8
:10372000C4F8800000EBC600C4F8840000EB8300FE
:10373000C4F8880000EB81004DF2FC31C4F20001B6
:10374000C4F89000884201D920206BE6824208D25A
:10375000002000BF42F8040BD4F890108A42F9D33D
:1037600069E6002003B0BDE8F08F00000000000013
:10377000B0B5B6B0044602A8B8210025CDE934554D
:10378000CDE932553195FCF707FE4DF20041206836
:10379000C4F20001884200F095804AF20041C4F270
:1037A0000001884249D04AF20001C4F20001884277
:1037B00040F0CF80002003904FF4004002904FF083
:1037C00080501D9002A801F0C7FB08B1FDF774FD01
:1037D00040F6BC3144F2E040C2F20041C5F60200BE
:1037E0000A68002A02F101020A6008D1C16841F4A6
:1037F0008071C160C16801F4807101910199016813
:1038000041F008010160006831A900F00800019052
:10381000019803203190022032900020CDE933003E
:103820000920359040F60040C5F6020000F090F9FE
:10383000132006210022132486E0002003904FF479
:10384000004002904FF080501D9002A801F084FBD0
:1038500008B1FDF731FD40F6BC3144F2E040C2F260
:103860000041C5F602000A68002A02F101020A605E
:1038700008D1C16841F48071C160C16801F48071F0
:1038800001910199016841F002010160006840F670
:10389000004100F002000190C5F60201019860208D
:1038A0003190022032900020CDE93300092035907C
:1038B000A1F5006031A900F04BF914200521002288
:1038C000142441E04FF4004002904FF080501D90CE
:1038D00002A8039501F040FB08B1FDF7EDFC40F6AE
:1038E000BC3144F2E040C2F20041C5F602000A6871
:1038F000002A02F101020A6008D1C16841F4807116
:10390000C160C16801F4807101910199016841F0C1
:1039100008010160006831A900F0080001900198D9
:103920004FF440503190022032900020CDE9330016
:103930000520359040F60040C5F6020000F008F979
:103940009F20052100229F2400F0AAFA204600F0C3
:1039500093FA36B0B0BD00007047000000000000D0
:1039600070B5C90706D04AF200020168C4F200022D
:10397000914200D070BD42F2A4754021C2F20045D0
:1039800006462846FCF708FD40F6CC344021C2F23A
:103990000044304622462B46FFF7A6FA206840F244
:1039A000012188420ADC122818D01328E2D142F201
:1039B0002430E268C2F20040803015E040F202217B
:1039C000884219D040F20321884218BF70BD42F2EC
:1039D0000470E268C2F20040483013E042F2243042
:1039E000E268C2F20040403042F2A471C2F20041EB
:1039F000BDE87040FDF788BB42F20470E268C2F295
:103A00000040243042F2A471C2F20041BDE870408F
:103A1000FDF74AB90000000070B5C90606D54AF2A4
:103A200000420168C4F20002914200D070BD42F22F
:103A3000E4754021C2F2004506462846FCF7ACFC7E
:103A400040F6F4344121C2F20044304622462B466F
:103A5000FFF74AFA2068B0F5007F0ADC112817D07A
:103A60001428E3D142F22430E268C2F20040C030B0
:103A700013E040F20121884217D0B0F5017F18BF52
:103A800070BD42F20470E268C2F200406C3011E096
:103A900042F22430E268C2F2004042F2E471C2F223
:103AA0000041BDE87040FDF72FBB42F20470E268B0
:103AB000C2F2004042F2E471C2F20041BDE870403F
:103AC000FDF7F2B80000000090F8981001290CD121
:103AD000022180F8981001688A6922F001028A6147
:103AE0000021C0F89C1000207047D0F89C1041F0D5
:103AF0000401C0F89C100120704700000000000085
:103B00007047000000000000704700000000000047
:103B10007047000000000000704700000000000037
:103B20007047000000000000704700000000000027
:103B30007047000000000000704700000000000017
:103B40007047000000000000704700000000000007
:103B50002DE9F04F83B00E68002E00F0C78000F111
:103B6000264742F2004507F1FF77C5F602050A2213
:103B7000A8424FEAB72500F1200308BF09220093AD
:103B8000082D38BF4FEAB722002400274FF0000A63
:103B900001920AE00AF1010A0E6836FA0AF207F108
:103BA000020704F1040400F0A180012202FA0AFBDA
:103BB00016EA0B08EED0D1F80490032209F0030EA8
:103BC000AEF10106012E02FA07F610D8D0F808C0AF
:103BD000CD682CEA0602BD402A438260C9F3001575
:103BE000426822EA0B0205FA0AF52A434260BEF156
:103BF000030F1FD0C2688D68B243BD40BEF1020FF3
:103C000042EA0502C26015D16FF00302009D02EA8C
:103C10005A0B04F01C030F2255F80BC002FA03FEE6
:103C2000D1F810902CEA0E0C09FA03F343EA0C03C6
:103C300045F80B3002684B68B24303F00306BE4000
:103C400013F4403F42EA06020260A3D044F2F44378
:103C500040F2084CC5F60203C5F6000C0F251A68A1
:103C600042F002021A601A6802F0020202922AF07E
:103C70000302029B04F00C0352F80C609D40AE431B
:103C8000019D05FA03F3334342F80C304FF0B04C7A
:103C9000DCF800204B6842EA0806DD0258BF22EA41
:103CA00008069D02CCF8006040F2040CC5F6000C3A
:103CB000DCF8002042EA080658BF22EA08069D0305
:103CC000CCF80060DCF8802042EA080658BF22EAFF
:103CD0000806DB03CCF88060DCF87C2042EA0806AA
:103CE00058BF22EA0806CCF87C6053E703B0BDE871
:103CF000F08F000000000000002A08BF0904816165
:103D000070470000000000004AF66070C2F20040F8
:103D1000006870470000000040F698304AF6607175
:103D2000C2F20040C2F2004100780A681044086004
:103D3000704700000000000080B5032000F0E0F8AC
:103D400001F09AFF44F218414CF68013C5F60201C7
:103D5000C0F600030A68C2F303229A5C096801F006
:103D60000F0102F01F02595CD04040F68C22C2F2D3
:103D7000004201F01F0120FA01F1116040F6882194
:103D8000C2F2004108600F2000F00AF800281CBFB2
:103D9000012080BD00F058F8002080BD0000000028
:103DA0000F2845D8B0B58AB004461C200022214611
:103DB000002500F075F81C2000F05EF840F69C30FD
:103DC000C2F20040046044F2E840C5F60200016817
:103DD00041F001010160006801A900F001000290BA
:103DE000029802A801F094FE079C002C18BF012441
:103DF00001F0E2FE4DF68361A040C4F21B314FF0AA
:103E0000FF32A0FB010143F2D440C2F200404FF068
:103E10008043036002EB9141C0E9011540F2E731B4
:103E2000C0E9031502F01CFE20B101200AB0B0BDAC
:103E30000120704743F2D440C2F2004002F044FE39
:103E40000AB0B0BD0000000081B044F2F44000228E
:103E5000C5F60200016841F00201016000680F210F
:103E600000F0020000906FF00100009B01B000F034
:103E700017B8000000000000002848BF704700F09D
:103E80001F01012202FA01F14EF20012C0F34A10A2
:103E9000CEF2000242F8201070470000000000003F
:103EA00070B54EF60C5C4FF0FF36CEF2000C00F110
:103EB000604505F56445DCF80030C3F3022E8EF052
:103EC0000703042B28BF0423BEF1030406FA03F3FF
:103ED00021EA030100F00F0338BF0024043B00284F
:103EE000634406FA04F048BF03F10C05A14022EA3E
:103EF000000008430001287070BD000000000000B1
:103F00004EF60C514FF6FF03CEF200010A681A403C
:103F100060F30A2242F0806040F0FD700860704754
:103F200001680122C0F80025002280F8F424886985
:103F300040F000608861486D40F08052002042F0FF
:103F400003024A657047000070470000000000004F
:103F50000268002051627047B0B5D0F800E0DEF88A
:103F60002400D1B1DEF82830B1F1010C00EB13438D
:103F70000BD05FFA8CF10EF58070002450F8045FCE
:103F800001348C4203EB1543F8D30EEB8C0043EA6B
:103F90000241C0F804110020B0BD40EA0240CEF852
:103FA00028000020B0BD0000D0F8080505F05CBF77
:103FB00001EBC10200EB8202D0F80805926C05F01B
:103FC000BFBE00000000000001EBC10200EB820256
:103FD000D0F80805D2F8882205F00ABF00000000DA
:103FE000D0F8080505F044BF10B54FFA81FC0A4629
:103FF00001F00F0E4FF41F71BCF1000F4FEAD21207
:1040000048BF3C210EEBCE0C90F8BC44431803EBA8
:104010008C01012C03F82CE04A7001D1022010BD64
:10402000012280F8BC2402680446104606F07CFC9D
:10403000002084F8BC0410BDB0B501F00F03426845
:104040009A4201D20120B0BD4AB24FF41F74002A37
:1040500003EBC30E48BF3C24C909021990F8BC44C5
:1040600002EB8E0C012C4FF000048CF801108CF840
:10407000024002F82E3001D10220B0BD012180F8AB
:10408000BC14016805460846614606F0D9FD204685
:1040900085F8BC44B0BD000001F00F0101EBC10187
:1040A00000EB8100D0F89002704700000000000093
:1040B00070B58C464FF41F7449B20CF00F0E0029F6
:1040C00048BF3C240EEBCE0604445FEADC1504EB4B
:1040D000860104F826E04D708A600B7118BFA1F8C4
:1040E0001AE0022B01D100224A7190F8BC24012A67
:1040F00001D1022070BD012280F8BC240268044670
:10410000104606F031FB002084F8BC0470BD0000AE
:1041100080B501F00F0C0CEBCC0100EB810E0021FF
:10412000CEE9A331C3688EF87D120EF51F71CEF86B
:104130008822012B8EF87CC208BFCA61DAB20068FF
:1041400006F0C6FD002080BDB0B501F00F04426846
:1041500094424FF001022AD84BB24FEAD11C002BF7
:104160004FF41F7548BF214648BF3C2590F8BCE47A
:1041700001EBC1030544BEF1010F05EB830105F816
:10418000234081F801C08A7001D10220B0BD80F8BF
:10419000BC240546006806F07BFD2CB9297B286805
:1041A00005F2C44206F01CFD002285F8BC2410462E
:1041B000B0BD00000000000080B501F00F0CD0F889
:1041C0000CE0BEF1010F0CEBCC0100EB810101F81A
:1041D0003CCF4FF0000CC1E90323C1F814C04FF0ED
:1041E00001034B7008BFCA615FFA8EF2006806F0E7
:1041F0006FFD002080BD00002DE9F04F87B00568FD
:104200008246284606F0E4FE10B107B0BDE8F08F04
:10421000DAF8000006F00CFF0028F6D0D5F8080800
:10422000C0F30D20CAF8FC04DAF8000006F000FF25
:10423000800705D5DAF80000416901F0020141610B
:1042400005F500600590DAF8000006F0F1FEC00602
:10425000069536D5DAF80000816921F010018161F8
:104260002C6A04F00F0000EBC001C4F343400AEBDA
:104270008101062801F51F7511D002281AD147F6D1
:10428000F07014EA000615D03409E9680698224651
:1042900006F0D2FEE86800EB1610E86007E00AF2CC
:1042A000C4410822069806F0C7FEC4F30A146869E0
:1042B00020446861DAF80000816941F010018161F1
:1042C000069DDAF8000006F0B3FE000340F1F2802C
:1042D000DAF8000006F088FE002800F0EB800646C1
:1042E0004FF4306800244FF0000B0AF2C4400490F1
:1042F00009E000BF0BF1010B760808F1200804F17A
:10430000240400F0D780F007F4D05FFA8BF9DAF8D4
:104310000000494606F084FE0746C0075FD005EB63
:10432000080001218160DAF8000008EB0001036C4D
:104330008A68DAF80C50012D25D1150732D495067C
:1043400000F1B08043F20B05C4F65475AB42069DF4
:1043500002D312F400422FD10AEB0402D2F89C32AD
:1043600009696FF3DF41A3EB0101C2F8901294BB1E
:10437000D2F88C32002B00F09B80D2F888020844DF
:10438000C2F8880227E043F20B05C4F65475FF35E6
:10439000AB4217D11004069D0ED490061BD52020E9
:1043A000886018E043F20B00069DC4F65470834207
:1043B00015D312F4004012D04FF400408860380743
:1043C0000FD437E0069D34B9DAF88C1219B9002100
:1043D000049A06F005FC50464946FFF7F5FD3807FC
:1043E00028D505EB08000821816043F20B01DAF8BB
:1043F0000000C4F65471056C40448D42816805D3B9
:1044000011F400411CBF4FF400418160504600F0A0
:10441000FBFB43F20B00C4F654708542069D09D3A2
:10442000DAF80C00012805D1DAF800000121049A1D
:1044300006F0D6FBF80607D4B8070BD4B80624D488
:10444000B8047FF557AF27E005EB08001021816025
:10445000B807F3D56869000604D50599486840F4A3
:10446000806048600AEB040090F87F12012906D1B1
:10447000002180F87F125046494600F0ADFA05EB66
:10448000080002218160B806DAD505EB080020217A
:104490008160B8047FF52EAF05EB08004FF40051A2
:1044A000816027E720208860069D380799D4C1E7FE
:1044B00001218DE7DAF8000006F0BAFD400340F173
:1044C000DC80DAF8000006F087FD002800F0D580D7
:1044D0000646069800F510690AF13C0B00270AF21F
:1044E000C4400290CDE903B905E000BF760807F1AA
:1044F000010700F0C280F007F8D0FDB2DAF8000042
:10450000294606F079FD0446C0070BD1200733D4B5
:10451000E00637D460063BD4A0073FD42006E5D59B
:1045200055E000BF059B07F00F004FF0010C09EBB1
:1045300047120CFA00F0596B21EA00005863C2F8E8
:1045400008C0DAF80C00012810D107EBC7000BEB0C
:104550008000D0E902121144C1603FB9006928B956
:10456000DAF800000121029A06F03AFB504629468B
:10457000FFF71EFD2007CBD509EB4710082181600E
:10458000E006C7D509EB4710102181606006C3D54E
:1045900009EB471040218160A007BFD50698394636
:1045A00006F0DEFC07EBC7000BEB800010F8031FE2
:1045B000012905D1002101705046294600F008FA72
:1045C00009EB47100221816020067FF58FAF07EBD2
:1045D000C7000BEB8008D8E904108142FFF486AFD6
:1045E000DAF80040081AD8F80810884238BF0146A7
:1045F00004EB47100331D0F8182992B2B2EB910FB7
:1046000028D300F5106900BFD8E90410814221D9F0
:10461000081A9AF80C20D8E902B1584538BF8346E9
:10462000009220461FFA8BF32A4606F015FED8F8B2
:104630000C00D8F814105844C8F80C0001EB0B001B
:10464000C8F814000BF10300D9F8181089B2B1EBC7
:10465000900FD9D2D8E904018842DDE903B93FF6C9
:1046600045AF07F00F00012101FA00F0D4F834182B
:1046700021EA0000C4F8340838E7DAF8000006F050
:10468000D7FCB0F1FF3F069C19DC0599486820F083
:10469000010048609AF8F404012807D100208AF844
:1046A000F40400215046FFF74FFC02E0504600F0B2
:1046B0008BFADAF80000416901F000414161DAF853
:1046C000000006F0B5FC00050CD505988068C00711
:1046D00002D0504600F0C0FADAF80000416901F457
:1046E00000614161DAF8000006F0A2FC000117D574
:1046F000DAF80000416901F0006141619AF8F414B0
:1047000019B1504600F0A8FA0AE001218AF8F41421
:10471000406DC0F38300CAF8F8045046FFF714FC5C
:10472000DAF8000006F084FCC00452D50599486808
:1047300020F001004860DAF80000102106F010FCBB
:10474000DAF80400D8B104F510614FF67F3200BFEB
:104750008A6001380B6823F400130B60C1F808224B
:10476000D1F8003223F40013C1F80032D1F800323E
:1047700043F00063C1F8003201F12001E8D1059E49
:1047800084210B224423F06940F00110F061DAF833
:104790003000002808BF142104BF42F22B0210236E
:1047A000DAF8000077583A437250F1580AF2C442DE
:1047B00041F00B01F150316821F4FE6131609AF84B
:1047C0000C1006F00DFADAF80000416901F480518E
:1047D0004161DAF8000006F02BFC80041CD5DAF801
:1047E000000006F005F8DAF8000006F0E1FBCAF870
:1047F0001000DAF8004001F0B7F99AF810200146ED
:10480000204606F0A1FC504600F0C6F9DAF8000098
:10481000416901F400514161DAF8000006F008FC3A
:10482000000708D5504600F0D3F9DAF800004169D6
:1048300001F008014161DAF8000006F0F9FB00061A
:104840002AD50699886920F080008861DAF804008A
:10485000022821D30AF51F740AF13C05012640F213
:10486000A32706E00136DAF80400864207F12407A0
:1048700012D21AF807000128F4D106F00F00320610
:1048800000EBC00005EB800158BF04EB8001DAF8B3
:10489000000006F015FBE5E7DAF8000006F0C8FBBB
:1048A000C00232D5DAF80400022828D306980AF1AB
:1048B0003C0400F512650AF163064FF00108012778
:1048C00009E000BF0137DAF80400874205F120054E
:1048D00006F1240613D2286871780129F2D1B0F1CB
:1048E000FF3FEFDC07F00F0086F8008000EBC00010
:1048F00004EB8001DAF8000006F0E2FAE2E7DAF809
:104900000000416901F480114161DAF8000006F00D
:104910008FFB800235D5DAF80410069D02292AD3D0
:1049200005F5326001390AF52972012306E000BF5E
:10493000013900F1200002F124021CD0076816782A
:10494000012EF5D1B7F1FF3FF2DCDAF8FC6407F491
:10495000803706F00106B742EAD102F8013CAF69A0
:1049600047F08007AF616F693F06E1D40599486859
:1049700040F400704860DAF80000416901F4001169
:104980004161DAF8000006F053FB400008D55046BC
:10499000FFF70AFBDAF80000416901F0804141614C
:1049A000DAF8000006F044FB40077FF52EACDAF899
:1049B00000004468600702D55046FFF711FBDAF8A3
:1049C000000041682143416007B0BDE8F08F00005E
:1049D000D0F8080505F0B4BAD0F8080505F0C8BA53
:1049E000002800F08B802DE9F04F8BB0044605685D
:1049F00090F8BD0428B9002084F8BC04204600F0DB
:104A000093F8032084F8BD04E86BC00501D40020AE
:104A1000E060206806F0DCF820680A9004F1040EDB
:104A200004F11C0AD4E90C509EE80E589AE8C0071D
:104A3000CDE9085003A88DE8005880E8C0070A981F
:104A400005F0E6FE002852D120680021002506F07E
:104A500033FB616869B304F13C004FF0010C0022A4
:104A6000002300BF02EBC20200EB820700F82230F5
:104A7000DAB201337A83DAB287F801C091423D712C
:104A8000BD60FD603D61EDD804F51F70002200257A
:104A9000002300BF05EBC50700F827300133DDB266
:104AA00000EB8706A94272703271B260F260326127
:104AB000F0D804F1140E04F1240A2268A0680A90C8
:104AC000D4E903379EE840589AE80007D4E90C502F
:104AD000CDE9085002A8CDE9007680E8005805A885
:104AE00080E8000710460A9A05F07EFF40B10220D8
:104AF00084F8BD0401200BB0BDE8F08F01207047A1
:104B0000002084F83800012084F8BD04606A012880
:104B100002D12046FFF704FA206805F055FF002077
:104B20000BB0BDE8F08F000010B5B0B0044602A88D
:104B3000B821FBF731FC00212068C4F2040188424F
:104B400001D030B010BD002003904FF480200290BF
:104B50004FF44010239002A800F0FEF908B1FCF7D2
:104B6000ABFB00F0B9F844F2D8400022C5F60200D1
:104B7000016841F0007101600068052100F00070DB
:104B8000019001984D20FFF78BF94D20FFF774F944
:104B900030B010BD0000000010B50446006928B117
:104BA000022801D0FCF788FB012100E00021D4F8A5
:104BB000080505F069FAD4F80805BDE8104005F0CD
:104BC00017BA000000000000D0F8080505F040BA50
:104BD000D0F8080505F048BA90F8BC24012A01D1A4
:104BE0000220704710B5012280F8BC2480F83810EC
:104BF00004460268104606F093FA002084F8BC04CC
:104C000010BD000000000000D0F8082500F2C441EB
:104C1000104605F051BA000010B5044690F8BC04E7
:104C2000012801D1022010BD2068012184F8BC14A4
:104C3000C16BC90506D4A16A012903D1816B41F476
:104C40008031816306F084F9206805F0ADFE002014
:104C500084F8BC0410BD000010B50446D0F8080567
:104C600005F082FA2068D0F8001E41F00101C0F87A
:104C7000001E206A002808BF10BD4EF61050CEF26C
:104C80000000016841F00601016010BD0000000055
:104C9000B0B544F60C05C5F6020529684907296830
:104CA00005D401F00701081A18BF0120B0BD21F09A
:104CB000070108432860FFF727F8044655F8080C59
:104CC000800407D4FFF720F8001BB0F57A7FF5D9F0
:104CD0000120B0BD0020B0BD44F60C00C5F60200B6
:104CE000016841F080710160704700000000000021
:104CF00080B500F039FF44F220414CF68012C5F631
:104D00000201C0F600020968C1F30211515C01F012
:104D10001F01C84080BD000080B544F2384EC5F682
:104D2000020E5EF8103C5EF8101C5EF80C2CC1F30D
:104D3000053CDEF80410BCF1000F18D0C9089FED47
:104D40003A1AD20601EAE27103F003026FF35F310F
:104D500000EE101AB8EE400ADFE802F0021F0E1F44
:104D60005EF8381C89060AD49FED311A15E000213F
:104D70008160C0E9001180BD9FED2C1A0DE05EF846
:104D8000381C49F20002C0F2D032C1F3C10122FA4C
:104D900001F101EE101AB8EE411ADEF800109FED95
:104DA000253A6FF35F2102EE101ADEF80010C1F30E
:104DB0004621B8EE422A013100EE032A00EE10CA65
:104DC000B7EE003AB8EE400A81EE000A32EE031A5E
:104DD00020EE010A01EE101AB8EE411A80EE011A17
:104DE000BCEEC11A80ED001ADEF80010C1F30641D6
:104DF000013101EE101AB8EE411A80EE011ABCEE34
:104E0000C11A80ED011ADEF80010C1F3066101310C
:104E100001EE101AB8EE411A80EE010ABCEEC00A8B
:104E200010EE101A816080BD0024744A001BB74B3D
:104E30000024744C0000003980B544F2404EC5F6A1
:104E4000020E5EF8183C5EF8181C5EF8142CC1F3D4
:104E5000055CDEF80410BCF1000F18D0C9089FED06
:104E60003A1AD20501EAE27103F003026FF35F31EF
:104E700000EE101AB8EE400ADFE802F0021F0E1F23
:104E80005EF8401C89060AD49FED311A15E0002116
:104E90008160C0E9001180BD9FED2C1A0DE05EF825
:104EA000401C49F20002C0F2D032C1F3C10122FA23
:104EB00001F101EE101AB8EE411ADEF800109FED74
:104EC000253A6FF35F2102EE101ADEF80010C1F3ED
:104ED0004621B8EE422A013100EE032A00EE10CA44
:104EE000B7EE003AB8EE400A81EE000A32EE031A3D
:104EF00020EE010A01EE101AB8EE411A80EE011AF6
:104F0000BCEEC11A80ED001ADEF80010C1F30641B4
:104F1000013101EE101AB8EE411A80EE011ABCEE12
:104F2000C11A80ED011ADEF80010C1F306610131EB
:104F300001EE101AB8EE411A80EE010ABCEEC00A6A
:104F400010EE101A816080BD0024744A001BB74B1C
:104F50000024744C000000392DE9F04381B0044670
:104F6000C07844F22C490007C5F6020901D4002597
:104F700020E0606E4FEA3050032835D80025DFE886
:104F800000F0020A1C22D9F8000040F40030C9F8F1
:104F90000000D5B906E004F10800022103F09CFBF3
:104FA000054695B9D9F82400616E20F440100843F5
:104FB000C9F824004FF0000808E004F1280002219D
:104FC00003F01AFC0546002DECD0A8466078C00717
:104FD0001ED0A06D04283ED8DFE800F02B340A0371
:104FE00003006DB1A84613E00125002DEDD1D9E7EE
:104FF00004F12800002103F0FFFB0546002DF1D14C
:10500000D9F82400A16D20F007000843C9F8240056
:105010006078400747D5D4F8A4004FEA70500528BF
:105020002CD8DFE800F01C2F2503030395B3A84616
:1050300039E0D9F8000040F40030C9F80000002D34
:10504000D0D1DDE704F10800002103F045FB05465F
:10505000002DC7D1D4E70125002DC3D1D0E7D9F861
:10506000000040F40030C9F80000002DDFD111E04D
:1050700004F12800002103F0BFFB08E00125002D0A
:10508000D5D107E004F10800002103F025FB054617
:10509000002DCCD1D9F82C00D4F8A41020F4600055
:1050A0000843C9F82C006078000731D5D4F8A8006F
:1050B0004FEA3060052816D8DFE800F006190F0324
:1050C0000303E5B1A84623E0D9F8000040F400301E
:1050D000C9F80000002DF5D111E004F128000021ED
:1050E00003F08AFB08E00125002DEBD107E004F175
:1050F0000800002103F0F0FA0546002DE2D1D9F8AE
:105100002C00D4F8A81020F0E0600843C9F82C0067
:10511000E07880071BD5E06C4FEA301003282FD8C9
:10512000DFE800F0020525024DB1A8460FE0D9F8EE
:10513000000040F40030C9F80000002DF5D1D9F886
:105140002000E16C20F030000843C9F820006078AE
:10515000C00629D5E06D4FEA3030042849D8DFE891
:1051600000F0363F13030300B5B1A8461CE004F17C
:105170000800022103F0B0FA0546002DD5D1DEE784
:105180000125002DD1D1DAE704F12800002103F038
:1051900033FB0546002DE8D1D9F82400E16D20F459
:1051A000E0400843C9F824006078800639D5206EB5
:1051B0004FEA3040052829D8DFE800F025031F25F5
:1051C000252504F10800012103F086FA1AE0D9F838
:1051D000000040F40030C9F80000002DC5D1DBE725
:1051E00004F10800002103F077FA0546002DBCD138
:1051F000D2E70125002DB8D1CEE704F12800012126
:1052000003F0FAFA054625B1A8460AE00125002D6B
:10521000FAD1D9F82400216E20F4E0200843C9F81F
:1052200024006078400625D5D4F8AC004FEA3070F1
:10523000052813D8DFE800F00F03090F0F0F04F162
:105240000800012103F048FA04E004F128000121DC
:1052500003F0D2FA054625B1A8460BE00125002D42
:10526000FAD1D9F82C00D4F8AC1020F0E040084373
:10527000C9F82C006078000620D5E06ED8B1B0F1F6
:10528000005F12D0B0F1805F26D1D9F8000040F461
:105290000030C9F8000085B9D9F82400E16E20F08B
:1052A00040500843C9F8240008E004F10800012137
:1052B00003F012FA0546002DEED0A846E078C007AC
:1052C0001ED0A06C032800F28080DFE800F0020905
:1052D00074026DB1A84613E00125002DEDD1DBE786
:1052E000D9F8000040F40030C9F80000002DF1D1D9
:1052F000D9F82000A16C20F003000843C9F8200071
:10530000A078400644D5D9F8D40340F48070C9F899
:10531000D403FEF7F9FC0646D9F8D403C00505D43A
:10532000FEF7F2FC801B6528F6D303257DBBD9F878
:105330004410D4F8B000414011F4407F11D0D9F8A6
:105340004410D9F8442042F48032C9F84420D9F8F6
:10535000442021F4407122F48032C9F84420C9F875
:105360004410B0F5807F0FD1FEF7CEFC064641F227
:10537000893700BFD9F84400800705D4FEF7C4FC84
:10538000801BB842F6D30325002D00F07A82A84690
:105390002078C00732D0A06F4FEAF000052822D84D
:1053A000DFE800F01E03181E1E1E04F10800012194
:1053B00003F092F913E004F10800022103F08CF9E4
:1053C0000546002D7FF486AF92E70125002D7FF47E
:1053D00081AF8DE704F12800012103F00DFA0546A5
:1053E00025B1A8460AE00125002DFAD1D9F82800F8
:1053F000A16F20F038000843C9F828002078800702
:1054000021D5606F052813D8DFE800F00F03090FDE
:105410000F0F04F10800012103F05EF904E004F12C
:105420002800012103F0E8F9054625B1A8460AE065
:105430000125002DFAD1D9F82800616F20F007006E
:105440000843C9F828002078400723D5D4F89000F5
:10545000052813D8DFE800F00F03090F0F0F04F140
:105460000800012103F038F904E004F128000121CB
:1054700003F0C2F9054625B1A8460BE00125002D31
:10548000FAD1D9F82C00D4F8901020F00700084386
:10549000C9F82C002078800625D5D4F88C004FEA76
:1054A0003070052813D8DFE800F00F03090F0F0F45
:1054B00004F10800002103F00FF904E004F12800D2
:1054C000022103F099F9054625B1A8460BE0012514
:1054D000002DFAD1D9F82800D4F88C1020F0E04043
:1054E0000843C9F828002078400625D5D4F898004C
:1054F0004FEAB020052813D8DFE800F00F03090FAA
:105500000F0F04F10800002103F0E6F804E004F1B5
:105510002800022103F070F9054625B1A8460BE0EA
:105520000125002DFAD1D9F82C00D4F8981020F4D8
:10553000E0500843C9F82C002078000625D5D4F89F
:105540009C004FEA7030052813D8DFE800F00F0305
:10555000090F0F0F04F10800002103F0BDF804E06B
:1055600004F12800022103F047F9054625B1A846B9
:105570000BE00125002DFAD1D9F82C00D4F89C10AD
:1055800020F460400843C9F82C002078000716D5A5
:10559000D4F88000B0F5805F08D104F12800022122
:1055A00003F02AF9002818BF4FF00108D9F82800A5
:1055B000D4F8801020F440500843C9F8280020781F
:1055C000C00616D5D4F89400B0F5807F08D104F158
:1055D0002800022103F010F9002818BF4FF001083D
:1055E000D9F82C00D4F8941020F440700843C9F87E
:1055F0002C00A078000724D5D4F8A000B0F5003F17
:105600001CD0B0F5803F13D0002840F0E58004F1B5
:105610000800002103F060F805468DB9D9F82C0088
:10562000D4F8A01020F440300843C9F82C0008E05A
:1056300004F12800022103F0DFF80546002DEDD02B
:10564000A846A078400725D5D4F88400B0F5401FBF
:105650001DD0B0F5001F14D0B0F5801F40F0C18000
:10566000D9F8000040F40030C9F800008DB9D9F82D
:105670002800D4F8841020F440100843C9F828000A
:1056800008E004F12800012103F0B6F80546002DDA
:10569000EDD0A846A078C0071FD0206DB0F5803FA0
:1056A0000BD0002840F09380D9F8000040F400307F
:1056B000C9F800004DB1A8460FE004F1080002212E
:1056C00003F00AF80546002DF5D1D9F82000216D28
:1056D00020F480300843C9F82000E078800608D51F
:1056E00004F12800022103F087F8002818BF4FF0CA
:1056F0000108D4E900108A0340F18280E26F6FF064
:10570000010303EB3223022B0AD34FEA32233BB1CE
:10571000012B6BD1D9F8003043F40033C9F80030C5
:10572000002D66D0CA026ED48A0277D44A0000F1F6
:105730008080CA0F40F08D80090200F19580C0077B
:1057400007D004F10800002102F0C6FF002818BFAE
:1057500005462079800707D504F10800012102F0F1
:10576000BBFF002818BF05462079400707D504F184
:105770000800022102F0B0FF002818BF054620797A
:10578000000707D504F12800002103F035F80028B0
:1057900018BF05462079C00607D504F1280001216D
:1057A00003F02AF8002818BF05462079800607D59F
:1057B00004F12800022103F01FF8002818BF01257A
:1057C000002D18BF0125284601B0BDE8F083012552
:1057D000002D7FF470AF78E70125002D7FF430AF06
:1057E0001CE70125002D7FF454AF40E70125002D73
:1057F00098D1D9F8283023F440731A43C9F82820E7
:105800004546CA0290D5D9F82420236F22F00042E1
:105810001A43C9F824208A027FF588AFD9F82420DA
:10582000A36E22F080721A43C9F824204A007FF543
:1058300080AF59F81C2C22F4004249F81C2CD4F8F3
:10584000B42059F81C3C1A4349F81C2CCA0F3FF4E9
:1058500073AFD9F82020636D22F040521A43C9F883
:10586000202009027FF56BAFD9F82810D4F88820E2
:1058700021F440011143C9F82810C0077FF461AF3B
:1058800067E74FF6CF73D4F8B00059F81C2CC0F27C
:10589000FF0300F4407122F47C5203EA1013B1F5C7
:1058A000407F08BF1A436FF31F3049F81C2CD9F80A
:1058B00044100843C9F844006AE5000000000000F5
:1058C0002DE9F04381B0002800F0F88042F2000892
:1058D0000446C5F200288946D8F8000000F00F0001
:1058E00081420ED9D8F8000020F00F0040EA0900EC
:1058F000C8F80000D8F8000000F00F00484540F05C
:10590000DD80206844F218474107C5F602070AD532
:1059100021693A6802F07002914204D93A6822F093
:1059200070021143396001070AD561697A6802F093
:105930007002914204D97A6822F0700211437960B2
:10594000C1060AD5A1697A6802F4E062914204D9DD
:105950007A6822F4E0621143796081060AD5E16930
:10596000BA6802F07002914204D9BA6822F070025B
:105970001143B96081070AD5E1683A6802F00F0265
:10598000914204D93A6822F00F0211433960C007EE
:1059900040F08080206881070AD5E1683A6802F00B
:1059A0000F02914204D23A6822F00F02114339608B
:1059B000D8F8001001F00F0189450DD2D8F8001079
:1059C00021F00F0141EA0901C8F80010D8F80010D1
:1059D00001F00F01494571D141070AD521693A68A3
:1059E00002F07002914204D23A6822F07002114330
:1059F000396001070AD561697A6802F07002914244
:105A000004D27A6822F0700211437960C1060AD587
:105A1000A1697A6802F4E062914204D27A6822F4C1
:105A2000E0621143796080060AD5E069B96801F047
:105A30007001884204D2B96821F070010843B8604F
:105A400000F01AF939684CF68012C0F60002C1F372
:105A50000321515C3B6803F00F0301F01F01D25C8E
:105A600020FA01F102F01F0040F68C22C2F200423F
:105A700021FA00F0106040F69C3040F68822C2F215
:105A80000040C2F200420068116001B0BDE8F0437E
:105A9000FEF786B9386820F47061D4E90102114339
:105AA0003960012857F8181C0CD0032804D00228AC
:105AB00028D1890302D507E0890105D4012001B06E
:105AC000BDE8F083C905F9D557F8081C21F0070196
:105AD000084347F8080CFEF717F9064641F28835E7
