:020000040800F2
:10000000880C002089010008392D000853210008C0
:10001000352D00083D030008593900080000000094
:100020000000000000000000000000009134000803
:100030004103000800000000673400089334000802
:10004000A3010008A3010008A3010008A301000800
:10005000A3010008A3010008A3010008A3010008F0
:10006000A3010008A3010008A3010008A3010008E0
:10007000A3010008A3010008A3010008A3010008D0
:10008000A3010008A3010008A3010008A3010008C0
:10009000A3010008A3010008A3010008A3010008B0
:1000A000A301000805350008A3010008A30100080A
:1000B000A3010008A3010008A3010008A301000890
:1000C000A3010008A3010008A3010008A301000880
:1000D000A301000849390008A3010008A301000892
:1000E000A3010008A3010008A301000800F002F822
:1000F00000F03AF80AA090E8000C82448344AAF188
:100100000107DA4501D100F02FF8AFF2090EBAE885
:100110000F0013F0010F18BFFB1A43F0010318473B
:1001200090480000B0480000103A24BF78C878C159
:10013000FAD8520724BF30C830C144BF04680C60ED
:10014000704700000023002400250026103A28BF35
:1001500078C1FBD8520728BF30C148BF0B60704739
:100160001FB51FBD10B510BD00F09EF81146FFF77A
:10017000F7FF03F00FFC00F0BCF803B4FFF7F2FF49
:1001800003BC00F0BFF80000094880470948004759
:10019000FEE7FEE7FEE7FEE7FEE7FEE7FEE7FEE737
:1001A000FEE7FEE704480549054A064B7047000094
:1001B00001350008ED00000888060020880C0020AA
:1001C00088080020880800204FF0000200B5134680
:1001D00094469646203922BFA0E80C50A0E80C5067
:1001E000B1F12001BFF4F7AF090728BFA0E80C5018
:1001F00048BF0CC05DF804EB890028BF40F8042B11
:1002000008BF704748BF20F8022B11F0804F18BF7D
:1002100000F8012B704700004FF0013C50F8042B10
:1002200051F8043B9A4221D1A2EB0C03934313EA09
:10023000CC1317D150F8042B51F8043B9A4215D136
:10024000A2EB0C03934313EACC130BD150F8042B0D
:1002500051F8043B9A4209D1A2EB0C03934313EAF1
:10026000CC13DBD04FF00000704700BFD01A01BAAA
:10027000B1FA81F101F0180122FA01F0CB40C1F18D
:100280002001DBB2C0B2C01A2CFA01F3D11A91439B
:1002900011EAC311E6D170477047704770470000FC
:1002A00000487047280600207546FFF7F9FFAE4664
:1002B00005006946534620F00700854618B020B572
:1002C000FFF770FFBDE820404FF000064FF0000739
:1002D0004FF000084FF0000B21F00701AC46ACE8EE
:1002E000C009ACE8C009ACE8C009ACE8C0098D465B
:1002F000704710B50446AFF300802046BDE81040BB
:10030000FFF73BBF01491820ABBEFEE72600020005
:100310007047000010B501221146252000F088FE2C
:10032000252000F075FE01220249034801F0AAFED3
:1003300010BD00003F0000207C01002000BFFEE750
:10034000704772B600BFFEE70146002291F8210017
:10035000022808D00420886300BF002081F8200014
:1003600000BF012070470868006820F00E000B688D
:1003700018600868006820F001000B68186091F8A8
:10038000403001209840CB6B5860012081F821005B
:1003900000BF002081F8200000BF1046E2E7000007
:1003A00070B50446002594F82100022803D00420EB
:1003B000A063012548E02068006820F00E00216855
:1003C00008602068006820F00100216808601F496B
:1003D0002068884201D1012026E01C4914312068A0
:1003E000884201D110201FE0184928312068884236
:1003F00001D1801518E015493C312068884201D1AF
:10040000801411E0114950312068884202D14FF424
:10041000803009E00D4964312068884202D14FF4F0
:10042000801001E04FF080700849083948600120D1
:1004300084F8210000BF002084F8200000BF606B1A
:1004400010B12046616B8847284670BD0800024005
:100450002DE9F8470346002294466EE14FF001086B
:1004600008FA02F4D1F8008008EA0400A0427DD125
:10047000DFF8DCA2D1F80480A8EB0A09D0453AD015
:1004800014DCB8F1030F50D009DCB8F1000F31D003
:10049000B8F1010F1CD0B8F1020F49D120E0B8F13A
:1004A000110F18D0B8F1120F42D11EE0B9F5881F14
:1004B00025D006DCB9F5803F20D0B9F5801F37D1B3
:1004C0001AE0B9F5001F18D0B9F5041F30D117E0B4
:1004D000D1F80CC02DE0D1F80C8008F1040C28E014
:1004E000D1F80C8008F1080C23E0D1F80C8008F159
:1004F0000C0C1EE000BF00BF00BF00BF00BF00BF6C
:10050000D1F80880B8F1000F02D14FF0040C0BE0D5
:10051000D1F80880B8F1010F03D14FF0080C1C612D
:1005200002E04FF0080C5C6103E04FF0000C00E0CB
:1005300000BF00BFFF2801D8984601E003F104087E
:100540004646FF2802D84FEA820803E0A2F10808D5
:100550004FEA88084746D6F800804FF00F0909FA9D
:1005600007F928EA09080CFA07F900E088E048EAE8
:100570000908C6F80080D1F8048008F08058B8F166
:10058000805F7DD100BFDFF8CC81D8F8188048F0BB
:100590000108DFF8C091C9F81880C846D8F818805B
:1005A00008F00108CDF8008000BF00BF4FEAB9385D
:1005B0004FEA920958F829504FEA82784FEA1879A1
:1005C0004FF00F0808FA09F825EA0805DFF88881D6
:1005D000434502D14FF0000816E0DFF88081434523
:1005E00002D14FF001080FE0DFF87481434502D1DA
:1005F0004FF0020808E0DFF86C81434502D14FF06C
:10060000030801E04FF004084FEA82794FEA1979B4
:1006100008FA09F848EA0505DFF84C814FEA920923
:1006200048F82950D1F8048008F48018B8F5801FE4
:100630000AD1DFF83881D8F8008048EA0008DFF8EE
:100640002C91C9F8008009E0DFF82081D8F80080FB
:1006500028EA0008DFF81491C9F80080D1F8048076
:1006600008F40018B8F5001F10D1DFF8008108F178
:100670000408D8F8008048EA0008DFF8F09000E0AD
:100680005AE009F10409C9F800800DE0DFF8DC80C8
:1006900008F10408D8F8008028EA0008DFF8CC90B8
:1006A00009F10409C9F80080D1F8048008F4003881
:1006B000B8F5003F0ED1DFF8B480A8F10408D8F8EF
:1006C000008048EA0008DFF8A490A9F10409C9F8FD
:1006D00000800DE0DFF89480A8F10408D8F80080CD
:1006E00028EA0008DFF88490A9F10409C9F800801D
:1006F000D1F8048008F48038B8F5803F0ED1DFF8D7
:100700006C80A8F10808D8F8008048EA0008DFF8F3
:100710005C90A9F10809C9F800800DE0DFF84C8071
:10072000A8F10808D8F8008028EA0008DFF83C9013
:10073000A9F10809C9F80080521CD1F8008028FAF4
:1007400002F8B8F1000F7FF489AEBDE8F887000029
:10075000000011100010024000080140000C014090
:10076000001001400014014008000140080401404D
:10077000024693680B400BB1012000E00020704757
:100780000AB1016101E00B04036170470148006890
:10079000704700001400002070B504460CB9012019
:1007A00070BD94F83D0028B9002084F83C00204634
:1007B00000F046FB242084F83D002068006820F00B
:1007C0000100216808602068006840F4004021684A
:1007D00008602068006820F400402168086000F08C
:1007E00045FD05465C496068884206D85B488542FD
:1007F00001D2012007E0002005E05948854201D2DE
:10080000012000E00020012800D1C9E75548B5FBD0
:10081000F0F62068406820F03F00304321684860CF
:100820004D496068884201D8701C07E04FF496700B
:1008300070434FF47A71B0FBF1F0401C2168096AF3
:1008400021F03F01084321680862434960688842FB
:1008500014D8681E61684900B0FBF1F0401CC0F379
:100860000B00042801D204203DE0681E61684900A5
:10087000B0FBF1F0401CC0F30B0034E0A06838B9C5
:10088000681E616801EB4101B0FBF1F0401C0AE019
:10089000681E616801EBC10202EB0111B0FBF1F0CF
:1008A000401C40F48040C0F30B0008B901201AE05E
:1008B000A06848B9681E616801EB4101B0FBF1F026
:1008C000401CC0F30B000CE0681E616801EBC10224
:1008D00002EB0111B0FBF1F0401CC0F30B0040F43F
:1008E000804040F400402168C9694CF6FF72914392
:1008F00008432168C861D4E90701084321680968F1
:1009000021F0C001084321680860D4E903100843BE
:100910002168896848F2FF32914308432168886062
:10092000D4E9050108432168C96821F0FF010843A3
:100930002168C8602068006840F0010021680860F4
:1009400000202064202084F83D000020206384F8EB
:100950003E0000BF24E70000A086010080841E0046
:1009600000093D0040420F002DE9FE4F04460F46AE
:1009700090469946DDE90CAB0E9E00200290FFF7F1
:1009800005FF054694F83D00202872D11923012265
:10099000CE492046009501F050FD10B10220BDE87F
:1009A000FE8F00BF94F83C00012801D10220F6E739
:1009B000012084F83C0000BF2068006800F00100BE
:1009C00028B92068006840F00100216808602068AC
:1009D000006820F4006021680860222084F83D004F
:1009E000402084F83E0000202064C4F824A0A4F82D
:1009F0002AB0608D2085B648E0624B4642463946B3
:100A00002046CDE9006501F0C5FB08B10120C6E72D
:100A1000208D88B900BF00200190206840690190B6
:100A200020688069019000BF00BF2068006840F422
:100A30000070216808604BE0208D01281AD12068E1
:100A4000006820F480602168086072B600BF002052
:100A5000019020684069019020688069019000BF82
:100A600000BF2068006840F400702168086062B62A
:100A70002EE029E1208D022819D12068006840F479
:100A800000602168086072B600BF002001902068F5
:100A90004069019020688069019000BF00BF206814
:100AA000006820F480602168086062B610E0206869
:100AB000006840F480602168086000BF0020019059
:100AC00020684069019020688069019000BF00BFE4
:100AD000EBE0208D03287DD8208D012815D12A46F2
:100AE0003146204601F085FD08B1012057E7206816
:100AF0000069616A0870606A401C6062208D401E57
:100B00002085608D401E6085CFE0208D02282CD18D
:100B1000334600226F492046009501F08EFC08B153
:100B200001203CE772B62068006840F4007021683C
:100B3000086020680069616A0870606A401C606231
:100B4000208D401E2085608D401E608562B6206825
:100B50000069616A0870606A401C6062208D401EF6
:100B60002085608D401E60859FE0334600225949F4
:100B70002046009501F061FC08B101200FE72068D4
:100B8000006820F480602168086072B620680069FF
:100B9000616A0870606A401C6062208D401E20857A
:100BA000608D401E60854C4800681921B0FBF1F053
:100BB0004FF47A71B0FBF1F0C0EBC00000EB8000A5
:100BC000029000BF0298401E02900298A8B900202F
:100BD000206300E039E0202084F83D00002084F804
:100BE0003E00206C40F02000206462B600BF002070
:100BF00084F83C0000BF0120D1E620684069C0F3C2
:100C000080000028DED02068006840F40070216871
:100C1000086020680069616A0870606A401C606250
:100C2000208D401E2085608D401E608562B6206844
:100C30000069616A0870606A401C6062208D401E15
:100C40002085608D401E60852FE02A463146204673
:100C500001F0CFFC08B10120A1E620680069616ABB
:100C60000870606A401C6062208D401E2085608D87
:100C7000401E608520684069C0F38000A8B1208DC7
:100C8000032805D12068006820F48060216808608E
:100C900020680069616A0870606A401C6062208D8B
:100CA000401E2085608D401E6085208D00287FF4C9
:100CB00010AF202084F83D00002084F83E0000BFE3
:100CC00084F83C0000BF6AE6022068E602001000DB
:100CD0000000FFFF04000100200000202DE9FC5F60
:100CE00004460F4690469946DDE90CAB0E9EFFF791
:100CF0004DFD054694F83D0020287DD119230122A1
:100D00004D492046009501F098FB10B10220BDE846
:100D1000FC9F00BF94F83C00012801D10220F6E7B7
:100D2000012084F83C0000BF2068006800F001004A
:100D300028B92068006840F0010021680860206838
:100D4000006820F4006021680860212084F83D00DC
:100D5000402084F83E0000202064C4F824A0A4F8B9
:100D60002AB0608D20853548E0624B4642463946C0
:100D70002046CDE9006501F0BDFA08B10120C6E7C3
:100D800031E02A463146204601F078FC50B1206C13
:100D9000042805D12068006840F4007021680860CC
:100DA0000120B4E7606A007821680861606A401C2D
:100DB0006062208D401E2085608D401E6085206809
:100DC0004069C0F3800070B1208D60B1606A007826
:100DD00021680861606A401C6062208D401E208589
:100DE000608D401E6085208D0028CAD12A4631467C
:100DF000204601F0EFFA00E01CE050B1206C04281E
:100E000005D12068006840F4007021680860012066
:100E10007DE72068006840F40070216808602020A9
:100E200084F83D00002084F83E0000BF84F83C00B8
:100E300000BF6CE702206AE7020010000000FFFF1D
:100E400010B586B0044600200290039004900590EF
:100E50003049206888422FD100BF2F48806940F078
:100E600008002D4988610846806900F0080001905B
:100E700000BF00BF4FF44070029012200390032087
:100E8000059002A92548FFF7E3FA00BF2449486806
:100E900040F0E06040F00200486000BF00BF1E4824
:100EA000C06940F400101C49C8610846C06900F4DC
:100EB0000010019000BF2AE01A492068884226D11C
:100EC00000BF1548806940F0080013498861084652
:100ED000806900F00800019000BF00BF4FF440603F
:100EE0000290122003900320059002A90B48FFF7FF
:100EF000AFFA00BF0848C06940F480000649C861E5
:100F00000846C06900F48000019000BF00BF06B031
:100F100010BD00000054004000100240000C0140D1
:100F20000000014000580040034800680349097868
:100F30000844014908607047140000201C0000208C
:100F400010B50848006840F010000649086003200A
:100F500000F0ACF80F2000F007F800F02BF80020AC
:100F600010BD00000020024070B504460E48007815
:100F70004FF47A71B1FBF0F00C490968B1FBF0F560
:100F8000284600F0FDFB08B1012070BD102C07D2EF
:100F900000222146501E00F04BF80548046001E095
:100FA0000120F2E70020F0E71C00002020000020D4
:100FB0001800002008B500BF1348806940F0010008
:100FC000114988610846806900F00100009000BF67
:100FD00000BF00BF0846C06940F08050C8610846A5
:100FE000C06900F08050009000BF00BF052000F0F5
:100FF0005DF800BF0549486820F0E06040F00070EF
:10100000486000BF08BD0000001002400000014021
:1010100001460846002809DB00F01F0301229A4020
:1010200043099B0003F1E023C3F8002100BF704790
:101030002DE9F05F80460D461646002702F08EFC33
:10104000074639462A46334601F00700C0F1070A31
:10105000BAF1040F02D94FF0040A01E0C0F1070A07
:10106000D14600F1040ABAF1070F02D24FF0000A8C
:1010700001E0A0F1030AD4464FF0010A0AFA09FA86
:10108000AAF1010A0AEA020A0AFA0CFA4FF0010B65
:101090000BFA0CFBABF1010B0BEA030B4AEA0B0456
:1010A0002146404602F062FCBDE8F09F00BF00F020
:1010B0000702064B19684FF6FF031940044B0B4318
:1010C00043EA0221014B196000BF70470CED00E0BC
:1010D0000000FA0570B504460D460CB9012070BD3C
:1010E0005A48006800F00700A8420ED2574800682E
:1010F00020F007002843554908600846006800F0C2
:101100000700A84201D00120E9E7207800F00200A2
:1011100002281DD1207800F00400042805D14C4895
:10112000406840F4E0604A494860207800F00800D8
:10113000082805D14648406840F46050444948605A
:101140004348406820F0F000A168084340494860E7
:10115000207800F0010078B36068012806D13C488F
:10116000006800F4003090B90120B8E760680228F8
:1011700006D13748006800F0007040B90120AEE7A2
:101180003348006800F0020008B90120A7E73048A2
:10119000406820F00300616808432D494860FFF76C
:1011A000F5FA064609E0FFF7F1FA801B41F28831B3
:1011B000884202D9032092E707E02548406800F002
:1011C0000C006168B0EB810FEDD12048006800F0A1
:1011D0000700A8420ED91D48006820F007002843E8
:1011E0001A4908600846006800F00700A84201D0CC
:1011F000012074E7207800F00400042807D1144887
:10120000406820F4E060E1680843114948602078B4
:1012100000F00800082808D10D48406820F460500C
:10122000216940EAC1000A49486000F03FF80849D6
:101230004968C1F30311074A515CC8400649086078
:1012400006480068FFF790FE002048E700200240B3
:10125000001002402A3B0008200000201800002057
:1012600001480068704700002000002000B5FFF72B
:10127000F7FF04494968C1F30221034A515CC840A1
:1012800000BD0000001002403A3B000800B5FFF727
:10129000E7FF04494968C1F3C221034A515CC840D1
:1012A00000BD0000001002403A3B000870B500216C
:1012B0000022002400230020134D696801F00C0572
:1012C000F5B1042D02D0082D19D101E00F4819E025
:1012D0000F4DC1F38346AB5D01F4803555B10A4D26
:1012E0006D68C5F340450B4E725D084D5D43B5FB1F
:1012F000F2F402E0084D03FB05F4204602E000BFD3
:10130000024800BF00BF70BD0010024000127A000A
:10131000183B0008283B000800093D00F8B50446CA
:101320000CB90120F8BD207800F00100002878D029
:10133000F848406800F00C0004280CD0F5484068DC
:1013400000F00C00082811D1F248406800F4803009
:10135000B0F5803F0AD1EF48006800F40030002863
:101360005FD0606800285CD10120DBE700BF6068C7
:10137000B0F5803F06D1E748006840F48030E54989
:10138000086028E0606858B9E248006820F48030BE
:10139000E04908600846006820F4802008601AE0F0
:1013A0006068B0F5A02F0BD1DA48006840F48020C7
:1013B000D84908600846006840F4803008600AE0B8
:1013C000D448006820F48030D2490860084600689C
:1013D00020F48020086000BF606888B1FFF7D6F96C
:1013E000054606E0FFF7D2F9401B642801D9032027
:1013F00098E7C848006800F400300028F2D010E0F8
:10140000FFF7C4F9054606E0FFF7C0F9401B642862
:1014100001D9032086E7BF48006800F400300028A7
:10142000F2D1207800F00200022857D1B948406874
:1014300000F00C0050B1B748406800F00C000828DC
:1014400018D1B448406800F4803098B9B1480068B9
:1014500000F0020020B12069012801D0012061E7DD
:10146000AC48006820F0F800616940EAC100A94971
:10147000086033E02069E8B10120A7490860FFF760
:1014800085F9054606E0FFF781F9401B022801D9DE
:10149000032047E79F48006800F002000028F2D0D0
:1014A0009C48006820F0F800616940EAC100994951
:1014B000086013E0002098490860FFF767F90546C7
:1014C00006E0FFF763F9401B022801D9032029E752
:1014D0009048006800F002000028F2D1207800F067
:1014E000080008282DD1A069B8B101208B490860F7
:1014F000FFF74CF9054606E0FFF748F9401B0228C4
:1015000001D903200EE78348406A00F0020000285A
:10151000F2D0012001F0A8FF13E000207F4908600D
:10152000FFF734F9054606E0FFF730F9401B0228C3
:1015300001D90320F6E67748406A00F0020000284F
:10154000F2D1207800F00400042873D100277148FC
:10155000C06900F0805070B900BF6E48C06940F0AB
:1015600080506C49C8610846C06900F08050009006
:1015700000BF00BF01276A48006800F48070B0B95E
:101580006748006840F4807065490860FFF7FEF81E
:10159000054606E0FFF7FAF8401B642801D903204E
:1015A000C0E65F48006800F480700028F2D000BFF9
:1015B000E068012806D15748006A40F0010055490B
:1015C000086227E0E06858B95248006A20F001003C
:1015D000504908620846006A20F00400086219E0D9
:1015E000E06805280BD14B48006A40F004004949E7
:1015F00008620846006A40F0010008620AE04548B7
:10160000006A20F00100434908620846006A20F0A1
:101610000400086200BFE068A0B1FFF7B7F8054614
:1016200009E0FFF7B3F8401B41F28831884202D944
:10163000032077E622E03748006A00F00200002825
:10164000EFD012E0FFF7A2F8054608E0FFF79EF89A
:10165000401B41F28831884201D9032062E62D48BF
:10166000006A00F002000028F0D1012F05D12948BE
:10167000C06920F080502749C86100BFE069C8B345
:101680002448406800F00C00082860D0E069022877
:1016900048D1002020490866FFF778F8054606E0A3
:1016A000FFF774F8401B022801D903203AE61948D5
:1016B000006800F000700028F2D1206AB0F5803F89
:1016C00007D11448406820F40030A168084311494C
:1016D0004860D4E9080108430E49496821F47411AF
:1016E00008430C49486001200B490866FFF74EF893
:1016F000054607E03DE0FFF749F8401B022801D905
:1017000003200FE60348006800F000700028F2D0C4
:101710002FE00000001002400000424280044242DC
:1017200000700040002014490866FFF72FF80546B6
:1017300006E0FFF72BF8401B022801D90320F1E552
:101740000E48006800F000700028F2D111E0E06956
:10175000012800D1E6E50948466806F48031206A90
:10176000814204D106F47011606A814201D00120E7
:10177000D8E50020D6E500000000424200100240FB
:1017800070B504462546681EB0F1807F01D3012064
:101790000FE0681E4FF0E02148610F214FF0FF304D
:1017A00002F0E4F800204FF0E02188610720086192
:1017B000002070BD7047704730B502460B4600BF31
:1017C00092F83C00012801D1022030BD012082F8AE
:1017D0003C0000BF022082F83D0010684468106899
:1017E000816824F070041868044310684460104D48
:1017F0001068A8420BD01068B0F1804F07D00D4D93
:101800001068A84203D00C4D1068A84205D121F001
:1018100080015868014310688160012082F83D0012
:1018200000BF002082F83C0000BF00BFCDE70000F1
:10183000002C0140000400400008004010B50446A0
:101840000CB9012010BD94F83D0028B9002084F89F
:101850003C00204600F026F8022084F83D00211DBF
:10186000206801F057FE012084F8460000BF84F88C
:101870003E0001213F2001554020015541200155E6
:1018800000BF00BF012084F84200432001554420DE
:1018900001554520015500BF012084F83D0000207E
:1018A000D0E7000038B5044616492068884216D1B2
:1018B00000BF1548806940F40060134988610846FC
:1018C000806900F40060009000BF00BF0122114653
:1018D0001920FFF7ADFB1920FFF79AFB11E02068F4
:1018E000B0F1804F0DD100BF0748C06940F0010042
:1018F0000549C8610846C06900F00100009000BFBA
:1019000000BF38BD002C014000100240014691F894
:101910003D00012801D001207047022081F83D00E0
:10192000124B086898420BD00868B0F1804F07D07E
:101930000F4B0868984203D00E4B086898420CD1B0
:101940000868806800F00702062A0CD00868006862
:1019500040F001000B68186005E00868006840F07E
:1019600001000B6818600020D6E70000002C014041
:101970000004004000080040014691F83D000128A5
:1019800001D001207047022081F83D000868C0683E
:1019900040F001000B68D860124B086898420BD0E9
:1019A0000868B0F1804F07D00F4B0868984203D009
:1019B0000E4B086898420CD10868806800F0070256
:1019C000062A0CD00868006840F001000B68186017
:1019D00005E00868006840F001000B68186000200E
:1019E000D0E70000002C0140000400400008004047
:1019F0002DE9F04104460D46002700BF94F83C0055
:101A0000012802D10220BDE8F081012084F83C00C9
:101A100000BF022084F83D002068866826F0770623
:101A200026F47F46206886602868502833D00CDC76
:101A3000202850D004DC00284BD0102851D149E098
:101A4000302849D040284CD139E060282DD070286A
:101A500007D0B0F5805F03D0B0F5005F41D10DE055
:101A600041E0D5E902136A68206801F095FD20681D
:101A7000866846F077062068866034E0D5E9021370
:101A80006A68206801F088FD2068806840F4804022
:101A90002168886027E0EA686968206801F090FDA5
:101AA0005021206801F083FD1DE0EA686968206824
:101AB00001F099FD6021206801F079FD13E0EA68EA
:101AC0006968206801F07CFD4021206801F06FFD0D
:101AD00009E000BF00BF00BF2968206801F067FD72
:101AE00001E0012700BF00BF012084F83D0000BFD6
:101AF000002084F83C0000BF384684E7704770B58A
:101B000004462068C5682068066906F002000228BD
:101B100019D105F00200022815D1401F2168086183
:101B2000012020772068806900F0030018B120466A
:101B3000FFF7E4FF05E0204600F097F8204600F0AC
:101B400095F80020207706F00400042819D105F04C
:101B50000400042815D1C0432168086102202077C1
:101B60002068806900F4407018B12046FFF7C6FF76
:101B700005E0204600F079F8204600F077F80020D4
:101B8000207706F00800082819D105F00800082879
:101B900015D1C04321680861042020772068C069FE
:101BA00000F0030018B12046FFF7A8FF05E020462B
:101BB00000F05BF8204600F059F80020207706F08E
:101BC0001000102819D105F01000102815D1C043BD
:101BD00021680861082020772068C06900F44070FF
:101BE00018B12046FFF78AFF05E0204600F03DF8D7
:101BF000204600F03BF80020207706F0010048B1B5
:101C000005F0010030B16FF0010021680861204645
:101C100000F02EF806F08000802809D105F0800041
:101C2000802805D1C043216808612046FFF7C2FD26
:101C300006F04000402809D105F04000402805D1B9
:101C4000C04321680861204600F01EF806F020001D
:101C5000202809D105F02000202805D1C0432168A3
:101C600008612046FFF7A7FD70BD70477047000070
:101C700010B5044603492068884201D100F054FDA4
:101C800010BD0000002C01407047704770470000F5
:101C90002DE9F84F0446206805682068C66820686A
:101CA00047694FF00009CA4605F00F09B9F1000F66
:101CB0000AD105F0200038B106F0200020B12046FE
:101CC00001F0F5FCBDE8F88FB9F1000F7BD007F00B
:101CD000010018B906F49070002874D005F00100D6
:101CE00030B106F4807018B1606C40F0010060649F
:101CF00005F0040030B107F0010018B1606C40F04D
:101D00000200606405F0020030B107F0010018B174
:101D1000606C40F00400606405F0080048B106F013
:101D2000200010B907F0010018B1606C40F0080005
:101D30006064606C002845D005F0200028B106F0F2
:101D4000200010B1204601F0B2FC20684069C0F3C9
:101D5000801A606C00F0080010B9BAF1000F2CD0A6
:101D6000204601F05EFC2068406900F0400000B3AE
:101D700000BF00BF2168143151E8001F21F040006E
:101D80002168143141E80002002AF3D100BFE06B62
:101D900050B17748E16B4863E06BFEF701FB88B117
:101DA000E06B416B88470DE02046FFF76FFF09E0CD
:101DB00009E02046FFF76AFF04E02046FFF766FFD0
:101DC000002060647EE7206B012877D105F01000C9
:101DD000002873D006F010000028FAD000BF0020C1
:101DE000009020680068009020684068009000BF64
:101DF00000BF2068406900F0400000285FD0E06B21
:101E0000006840681FFA80F8B8F1000F55D0A08D27
:101E1000404552DDA4F82E80E06B8069202843D035
:101E200000BF00BF21680C3151E8001F21F4807011
:101E300021680C3141E80002002AF3D100BF00BF45
:101E400000BF2168143151E8001F21F00100216812
:101E5000143141E80002002AF3D100BF00BF00BFE7
:101E60002168143151E8001F21F04000216814312D
:101E700041E80002002AF3D100BF202084F842008C
:101E80000020206300BF00BF21680C3151E8001F13
:101E900021F0100021680C3141E80002002AF3D142
:101EA00000BFE06BFEF750FA02206063A08DE28D68
:101EB000801A81B22046FFF7E8FE03E742E0A08DDA
:101EC000E18D401A1FFA80F8E08DD0B3B8F1000F11
:101ED00037D000BF00BF21680C3151E8001F21F44A
:101EE000907021680C3141E80002002AF3D100BF54
:101EF00000BF00BF2168143151E8001F21F001002C
:101F00002168143141E80002002AF3D100BF2020EB
:101F100084F842000020206300BF00BF21680C311C
:101F200051E8001F21F0100021680C3141E8000247
:101F3000002AF3D100BF0220606341462046FFF72C
:101F4000A4FEBFE605F0800030B106F0800018B1B5
:101F5000204601F0C9FCB5E605F0400030B106F0BE
:101F6000400018B1204601F092FBABE600BFA9E6A5
:101F70000F36000810B504460CB9012010BDA06949
:101F800000B100E000BF94F8410028B9002084F8B7
:101F90004000204600F02AF8242084F84100206800
:101FA000C06820F400502168C860204601F0FEFBA4
:101FB0002068006920F49040216808612068406929
:101FC00020F02A00216848612068C06840F4005071
:101FD0002168C86000206064202084F8410084F8F3
:101FE00042000020606300BFC8E7000010B586B063
:101FF0000446002002900390049005901E4920683A
:10200000884237D100BF1D48806940F480401B4999
:1020100088610846806900F48040019000BF00BFDD
:1020200000BF0846806940F0040088610846806966
:1020300000F00400019000BF00BF4815029002208C
:1020400003900320059002A90D48FEF701FA4FF412
:1020500080600290002003900120049002A90848AB
:10206000FEF7F6F9012211462520FEF7E1FF2520B3
:10207000FEF7CEFF06B010BD003801400010024050
:102080000008014070B504460D46164694F842001B
:1020900020280BD105B10EB9012070BD00202063AE
:1020A00032462946204601F0FFFBF6E70220F4E71E
:1020B00010B504461F492068884239D11E4800786F
:1020C00068B91E4800785B282DD11D48007850BBA8
:1020D00001201949087000201A49087023E01648A9
:1020E000007801281FD1154800785D280AD100200A
:1020F000114908701449134A127888540120104974
:10210000087010E00D4800780F490E4A1278885484
:102110000C480078401C0B4908700846007863287A
:1021200001DB63200870012204490848FFF7AAFF79
:1021300010BD000000380140400000203F0000209A
:102140003E00002041000020C40500207C0100204A
:10215000704700BFFEE7014608684069C0F3802071
:10216000B0B16FF480600A685061002008632020DD
:1021700081F83D00002081F83E00086C40F004002A
:10218000086400BF002081F83C0000BF01207047B8
:102190000020FCE72DE9F84304460F461546994612
:1021A000DDE908862068006840F4806021680860E6
:1021B0002068006840F4807021680860434600226F
:1021C0004FF001112046009600F037F960B1206809
:1021D000006800F48070B0F5807F02D14FF4007089
:1021E00020640320BDE8F88307F0FE002168086141
:1021F000334642463E49204600F07EF908B10120B0
:10220000F0E700BF0020009020684069009020683F
:102210008069009000BF00BF32464146204600F072
:102220002DFA50B1206C042805D12068006840F4D4
:102230000070216808600120D4E7B9F1010F03D1D3
:10224000E8B22168086117E0C5F30720216808613A
:1022500032464146204600F011FA50B1206C042865
:1022600005D12068006840F40070216808600120F2
:10227000B8E7E8B22168086132464146204600F0DE
:10228000FDF950B1206C042805D12068006840F4A5
:102290000070216808600120A4E72068006840F40D
:1022A000807021680860434600224FF001112046EB
:1022B000009600F0C2F858B12068006800F4807001
:1022C000B0F5807F02D14FF400702064032089E7CD
:1022D000F8B240F0010021680861334642460449E3
:1022E000204600F009F908B101207BE7002079E7DA
:1022F000020001002DE9F843044688461546994638
:10230000DDE908672068006840F480702168086093
:10231000334600224FF001112046009700F08DF85F
:1023200060B12068006800F48070B0F5807F02D151
:102330004FF4007020640320BDE8F88308F0FE002D
:10234000216808613B4632462149204600F0D4F816
:1023500008B10120F0E700BF00200090206840692C
:10236000009020688069009000BF00BF3A46314667
:10237000204600F083F950B1206C042805D1206874
:10238000006840F40070216808600120D4E7B9F1CA
:10239000010F03D1E8B22168086117E0C5F30720F7
:1023A000216808613A463146204600F067F950B18D
:1023B000206C042805D12068006840F40070216872
:1023C00008600120B8E7E8B2216808610020B3E79F
:1023D0000200010070B504460D46164625E0204671
:1023E000FFF7B9FE08B1012070BD681CE8B1FEF727
:1023F000CDF9801BA84200D8BDB920684069C0F360
:10240000800090B900202063202084F83D00002047
:1024100084F83E00206C40F02000206400BF0020C3
:1024200084F83C0000BF0120DEE720684069C0F36B
:1024300080000028D3D00020D6E72DE9F0410446E3
:102440000D4617461E46DDF8188038E0701CA8B30C
:10245000FEF79CF9A0EB0800B04200D876BBC5F3AC
:10246000074001280AD120684069A9B20840A9B2F2
:10247000884201D101200BE0002009E0206880693A
:10248000A9B20840A9B2884201D1012000E0002091
:10249000B84214D100202063202084F83D000020A1
:1024A00084F83E00206C40F02000206400BF002033
:1024B00084F83C0000BF0120BDE8F081FFE7C5F3D0
:1024C000074001280AD120684069A9B20840A9B292
:1024D000884201D101200BE0002009E020688069DA
:1024E000A9B20840A9B2884201D1012000E0002031
:1024F000B842ABD00020DFE72DE9F04104460D469D
:1025000016461F4658E020684069C0F38020E8B1B5
:102510002068006840F40070216808606FF48060F3
:102520002168486100202063202084F83D000020BD
:1025300084F83E00206C40F00400206400BF0020BE
:1025400084F83C0000BF0120BDE8F081701C90B30E
:10255000FEF71CF9C01BB04200D866BBC5F30740AC
:1025600001280AD120684069A9B20840A9B288426E
:1025700001D101200BE0002009E020688069A9B2A8
:102580000840A9B2884201D1012000E0002090B9A2
:1025900000202063202084F83D00002084F83E00C5
:1025A000206C40F02000206400BF002084F83C0034
:1025B00000BF0120C8E7FFE7C5F3074001280AD1A3
:1025C00020684069A9B20840A9B2884201D101201F
:1025D0000BE0002009E020688069A9B20840A9B298
:1025E000884201D1012000E0002000288BD000208B
:1025F000AAE770B504460D46164637E020684069E4
:10260000C0F30010A0B16FF01000216848610020F5
:102610002063202084F83D00002084F83E00206CD8
:10262000206400BF002084F83C0000BF012070BD82
:10263000FEF7ACF8801BA84200D8BDB920684069FD
:10264000C0F3801090B900202063202084F83D0062
:10265000002084F83E00206C40F02000206400BF81
:10266000002084F83C0000BF0120E0E720684069BA
:10267000C0F380100028C1D00020D8E770B5044610
:102680000D46164625E02046FFF765FD08B10120FE
:1026900070BD681CE8B1FEF779F8801BA84200D82D
:1026A000BDB920684069C0F3C01090B90020206314
:1026B000202084F83D00002084F83E00206C40F08B
:1026C0002000206400BF002084F83C0000BF0120EF
:1026D000DEE720684069C0F3C0100028D3D0002096
:1026E000D6E7000010B5044634B902210D48FEF7C4
:1026F0003FF8A0B9012010BD022C06D121030948E2
:10270000FEF736F801280AD1F5E7032C07D14FF47C
:1027100000410448FEF72CF8012800D1EBE7002027
:10272000E9E70000000C014010B50020A349087043
:1027300016E0A348A149097830F8110000280ADD05
:102740009F489E49097830F81100401E9C499B4AD9
:10275000127821F8120099480078401C97490870B7
:10276000964800780428E4DB96480078401C954998
:10277000087008460078142871DB002008708F4923
:10278000087015E190488D490978415C8F488B4A63
:102790001278815489480078FFF7A4FF8A49874A54
:1027A00012788854084685490978405C01280AD186
:1027B000874882490978405C40F0010084497F4A9B
:1027C0001278885409E082487C490978405C20F0FE
:1027D00001007F49794A127888547B487749097803
:1027E000405C01280ED1794874490978405C48B9A9
:1027F000774872490978405C40F0020174486F4A9A
:102800001278815470486D490978405C78B96F48F6
:102810006A490978405C012809D16D4867490978FF
:10282000405C40F004016A48644A12788154694867
:1028300062490978405C98B9634860490978405C0E
:1028400001280BD14FF4FA605D495C4A127821F8F7
:10285000120001205F49594A12788854A3E0ACE085
:102860005C4856490978405C01282DD156485349A7
:102870000978405C58B9C8205149504A127821F86B
:102880001200022053494D4A127888548BE04C487C
:102890004A49097830F81100002814D164204849C9
:1028A000464A127821F81200494844490978405CA8
:1028B00040F020004649414A127888540420454996
:1028C0003E4A127888546EE042483C490978405CA0
:1028D00002282BD13C4839490978405C01280FD1A6
:1028E0003B4836490978405C40F010003849334A8B
:1028F0001278885403203749304A1278885452E0BD
:102900002F482E49097830F81100F8B930482B4982
:102910000978405C40F008002D49284A1278885414
:1029200000202C49254A127888543CE02948234944
:102930000978405C03280AD1234820490978405C83
:1029400020B9002023491D4A127888542BE02148E1
:102950001A490978405C042825D11B481749097891
:10296000405C28B900201B49144A127888541AE0A8
:1029700013481249097830F81100A0B964201049B1
:102980000E4A127821F8120011480C490978405C6F
:1029900040F040000E49094A1278885404200D493D
:1029A000064A1278885405480078401C034908708C
:1029B000024800780428FFF6E5AE10BD290000208B
:1029C00036000020280000202A0000202E000020D1
:1029D00024000020320000202DE9F05F06460F465B
:1029E00090469946DDE90AAB3B2000F06BF80446BF
:1029F0003C2000F067F8054645EA042000B230802C
:102A00003D2000F05FF804463E2000F05BF80546EC
:102A100045EA042000B238803F2000F053F8044615
:102A2000402000F04FF8054645EA042000B2A8F81F
:102A30000000432000F046F80446442000F042F82D
:102A4000054645EA042000B2A9F80000452000F040
:102A500039F80446462000F035F8054645EA0420DA
:102A600000B2AAF80000472000F02CF804464820E5
:102A700000F028F8054645EA042000B2ABF8000053
:102A8000BDE8F09F10B5752000F01CF810BD10B522
:102A900001216B2000F02AF800216C2000F026F8BC
:102AA0000921192000F022F806211A2000F01EF852
:102AB00018211B2000F01AF818211C2000F016F82D
:102AC00010BD00001FB504466420012103AA0B4677
:102AD000CDE9002102902246D0210348FDF744FFB2
:102AE0009DF80C0004B010BD9800002013B584B010
:102AF00004466420012105AA0B46CDE9002102907D
:102B00002246D0210248FEF7E9F806B010BD0000C9
:102B10009800002000B585B000200190029003903D
:102B2000049000BF1E48806940F020001C49886165
:102B30000846806900F02000009000BF00BF00BF81
:102B40000846806940F0080088610846806900F006
:102B50000800009000BF00BF00BF0846806940F039
:102B6000040088610846806900F00400009000BFFE
:102B700000BF02200190002002900120039001A9D3
:102B80000848FDF765FC4FF42040019000200290BA
:102B90000220039001A90348FDF75AFC05B000BDCF
:102BA00000100240000C014010B50B480B490860B2
:102BB0000B484860002109488160C1604FF48041A2
:102BC0000161002141618161C1610162FDF7E4FDA4
:102BD00008B1FDF7B6FB10BD0054004044000020D2
:102BE000A086010010B50B480B4908600B484860EF
:102BF000002109488160C1604FF4804101610021DA
:102C000041618161C1610162FDF7C6FD08B1FDF757
:102C100098FB10BD0058004098000020A0860100DD
:102C200000B587B0002003900490059006900190B5
:102C30000290154815490860472048600021134854
:102C4000816040F2E731C160002101614161802172
:102C50008161FEF7F3FD08B1FDF773FB4FF480507F
:102C6000039003A90948FEF7C3FE08B1FDF769FB0D
:102C700000200190029001A90448FEF79DFD08B1D3
:102C8000FDF75FFB07B000BD002C0140EC00002009
:102C900000B587B000200390049005900690019045
:102CA00002904FF08040144908604720486000219E
:102CB000114881604FF6FF71C160002101618021E0
:102CC0008161FEF7BBFD08B1FDF73BFB4FF480507F
:102CD000039003A90848FEF78BFE08B1FDF731FB0E
:102CE00000200190029001A90348FEF765FD08B19C
:102CF000FDF727FB07B000BD3401002010B50B48DD
:102D00000B4908604FF41650486000210848816064
:102D1000C16001610C21416100218161C161FFF746
:102D200029F908B1FDF70DFB10BD00000038014086
:102D30007C01002000BFFEE700BFFEE700200CE0A2
:102D4000002106E00022064B03EBC0135A544A1C34
:102D5000D1B28029F6DB421CD0B20828F0DB7047E4
:102D6000C40100202DE9F04304460D4616461F46D7
:102D7000284638E0224631E0002A2DDB7F2A2BDC72
:102D8000002829DB3F2827DC4FEAE07C00EB5C7C55
:102D90004FEAEC0CDFF8588008EBCC1C1CF802C0A2
:102DA00003464FEAE07800EB58784FEAE808A0EBDA
:102DB000C8094FF0010808FA09F82CEA080C014686
:102DC0004FEAE07800EB58784FEAE808DFF8209007
:102DD00009EBC81808F802C0511C0AB2A1199142A7
:102DE000CADC411C08B2E9198142C3DCBDE8F083AA
:102DF000C401002000B585B000200190029003902E
:102E0000049000BF1548806940F0080013498861AC
:102E10000846806900F00800009000BF00BF8815D8
:102E2000019011200290012003900320049001A939
:102E30000B48FDF70DFB4FF40070019001A9084805
:102E4000FDF706FB012211020548FDF799FC01225E
:102E500051020348FDF794FC05B000BD001002408C
:102E6000000C014070B5002406E0002500E06D1C58
:102E7000B5F57A7FFBD3641CB4F57A7FF5D30120D6
:102E800000F0AAFA012000F0B7FA70BD70B505464F
:102E9000002411E080212141294009B1012100E0F5
:102EA0000021084600F0A8FA012000F095FA002061
:102EB00000F092FA601CC4B2082CEBDB012000F099
:102EC0008BFA002000F088FA70BD10B5012000F0E8
:102ED00093FA012000F080FA002000F08DFA002023
:102EE00000F07AFA10BD10B5002000F085FA01203C
:102EF00000F072FA012000F07FFA10BD10B5FFF764
:102F0000B1FFAE2000F088FAD52000F085FA8020CD
:102F100000F082FAA82000F07FFA3F2000F07CFA4F
:102F2000D32000F079FA002000F076FA402000F07B
:102F300073FAA12000F070FAC82000F06DFADA20D0
:102F400000F06AFA122000F067FA812000F064FABB
:102F5000CF2000F061FAD92000F05EFAF12000F0F5
:102F60005BFADB2000F058FA302000F055FAA4207C
:102F700000F052FAA62000F04FFA8D2000F04CFA33
:102F8000142000F049FAAF2000F046FAFFF7D6FE11
:102F900000F00EFA10BD10B50246012000E05043CB
:102FA0000B1EA1F10101FAD110BD70B505460C460A
:102FB00045F0B00000F030FA102141EA141000F0A2
:102FC0002BFA04F00F0000F027FA70BDF8B50646A2
:102FD0000F4614461D46082D0CD1A4F120000E49C1
:102FE00001EB00101023082239460090304600F013
:102FF00047F80FE0062D0DD1A4F1200000EB4000B2
:10300000064901EB4000082306223946009030466D
:1030100000F036F8F8BD0000423B000832410008DD
:103020002DE9F04706468A4691461F46DDF8208086
:10303000002421E0381B411E1020FFF7ACFFB9FB34
:10304000F0F000F00F050A2D0ADA05F13001CAB2DE
:1030500004FB086108B243465146FFF7B7FF09E099
:1030600005F13701CAB204FB086108B24346514674
:10307000FFF7ACFF601CC4B2BC42DBDBBDE8F087ED
:103080002DE9FF4F80460E469146DDF834B000250D
:1030900000244A4631464046039BFFF763FE00BFCB
:1030A0005EE0002558E008EB0500002852DB08EB45
:1030B00005007F284EDC3046F11706EB5171C91030
:1030C0000FB2F11706EB5171C910A6EBC10A002E21
:1030D00005DA781E07B20AF108000FFA80FA3819EB
:1030E000002817DB3819072814DC3819224901EBAE
:1030F000C01008EB0501405C04FB09511BF80110EE
:1031000001FA0AF1084339191B4A02EBC11108EB15
:10311000050288543819401C00281BDB3819401C54
:10312000072817DC3819401C134901EBC01008EBC5
:103130000501405C04FB09511BF80110CAF10802AB
:10314000114108433919491C0B4A02EBC11108EB24
:1031500005028854681CC5B24D45A4DB601CC4B28E
:103160000399481EC11700EB5171012202EBE101E6
:10317000A14296DCBDE8FF8FC40100202DE9F04F8D
:1031800080468A4615461E46DDF82490002D07DB52
:103190004B462B2251464046FFF718FF2F4606E0CC
:1031A0004B462D2251464046FFF710FF6F42002448
:1031B00018E0301B411E0A20FFF7EDFEB7FBF0F0D0
:1031C0000A21B0FBF1F201FB120000F1300B611C8F
:1031D00001FB098108B24B465A465146FFF7F6FEFD
:1031E000601CC4B2B442E4DBBDE8F08F2DE9FE4FB1
:1031F00007468A46144698460025AB460026CBE093
:10320000605D00F0800058B94FF0010B2846691C42
:103210008DB2205C8DF8040000208DF805006BE075
:10322000605D00F0E000C02814D14FF0020B28468A
:10323000691C8DB2205C8DF80400605D00B9AFE0C0
:103240002846691C8DB2205C8DF8050000208DF8A1
:10325000060051E0605D00F0F000E0281DD14FF065
:10326000030B2846691C8DB2205C8DF80400605D5C
:1032700000B995E02846691C8DB2205C8DF80500E8
:10328000605D00B98CE02846691C8DB2205C8DF829
:10329000060000208DF807002EE0605D00F0F800C9
:1032A000F02826D14FF0040B2846691C8DB2205C13
:1032B0008DF80400605D00B972E02846691C8DB28B
:1032C000205C8DF80500605D00B969E02846691C46
:1032D0008DB2205C8DF80600605D00B960E0284684
:1032E000691C8DB2205C8DF8070000208DF8080065
:1032F00002E0681C85B24FE0BBF1010F0BD19DF8D5
:103300000420B91908B243465146FFF75FFE06EBA9
:10331000080086B23FE04FF000090EE009EB89019A
:1033200001EB4911204A881801A9FCF775FF00B983
:103330000EE009F101001FFA80F909EB890101EBA8
:103340004911194A881819A1FCF766FF0028E5D130
:1033500000BFB8F1080F12D109EB890000EB49104A
:1033600011490844401DB919009008B210231A46AB
:103370005146FFF785FE06F1100086B20BE0B8F16A
:10338000060F08D1B91908B206233F225146FFF7AC
:103390001DFEB01D86B200BF605D00287FF430AF17
:1033A00000BFBDE8FE8F00006C4300080000000075
:1033B00010B500240BE000212046FFF7F6FD05497B
:1033C00001EBC410802100F037F8601CC4B2082C57
:1033D000F1DB10BDC401002010B504460CB1012082
:1033E00000E0002002464FF480710248FDF7C8F962
:1033F00010BD0000000C014010B504460CB10120C6
:1034000000E0002002464FF400710248FDF7B8F9D1
:1034100010BD0000000C014010B50446FFF755FD3B
:103420007820FFF733FD0020FFF730FD2046FFF73F
:103430002DFDFFF758FD10BD70B505460E46FFF790
:1034400044FD7820FFF722FD4020FFF71FFD0024F8
:1034500004E0285DFFF71AFD601CC4B2B442F8DB3B
:10346000FFF741FD70BD704708B508490968C908F4
:103470004FF47A72B1FBF2F14143009100BF00BFFB
:1034800000994A1E00920029F9D108BD20000020B1
:10349000704710B5FDF748FD10BD00B58FB028216D
:1034A00005A8FCF791FE14216846FCF78DFE01206B
:1034B000059000040690002007900120099002204A
:1034C0000C90C1030D914FF4E0110E9105A8FDF78A
:1034D00025FF08B1FCF735FF0F2000900220019076
:1034E000002002904FF4806003900020049002219D
:1034F0006846FDF7EFFD08B1FCF723FF0FB000BDF4
:103500007047000010B50248FEF7F9FA10BD000040
:10351000EC00002010B502681C4B984208D0B0F1B6
:10352000804F05D01A4B984202D01A4B984203D1D3
:1035300022F070024B681A43144B984208D0B0F145
:10354000804F05D0124B984202D0124B984203D1C3
:1035500022F44072CB681A4322F080034C6943EA9C
:10356000040202608B68C3620B688362074B984257
:1035700001D10B69036301234361036903F0010374
:103580001BB1036923F00103036110BD002C01404E
:10359000000400400008004030B50C46816821F46A
:1035A0007F4142EA032525432943816030BD0A4615
:1035B000816821F0700142F0070319438160704770
:1035C00030B50B461446026A056A25F0010505620E
:1035D000816921F0F00141EA041122F00A021A4344
:1035E0008161026230BD30B50B461446026A056A3D
:1035F00025F010050562816921F4704141EA04312A
:1036000022F0A00242EA03128161026230BD70B56D
:1036100005466C6A0020E085E0842046FEF736FB14
:1036200070BD00BF00BF02680C3252E8002F22F4C8
:10363000907102680C3242E80013002BF3D100BFF6
:1036400000BF00BF0268143252E8002F22F00101CF
:103650000268143242E80013002BF3D100BF016B63
:1036600001290ED100BF00BF02680C3252E8002FC2
:1036700022F0100102680C3242E80013002BF3D153
:1036800000BF202180F8421000210163704710B56F
:1036900004462068C06820F040002168C8602020EF
:1036A00084F841002046FEF753FD002010BDF8B518
:1036B000044694F84200222875D1A068B0F5805FD6
:1036C0000CD1206950B90025A66A20684068C0F373
:1036D00008003080A06A801CA06215E0A56A002660
:1036E000A068B0F5805F03D0A06828B9206918B938
:1036F00020684068287004E02068406800F07F007F
:103700002870A06A401CA062E08D401E80B2E08557
:10371000002846D12068C06820F020002168C860D9
:103720002068C06820F480702168C8602068406903
:1037300020F0010021684861202084F84200002028
:103740006063206B012826D10020206300BF00BFEA
:1037500021680C3151E8001F21F0100021680C3164
:1037600041E80002002AF3D100BF2068006800F0A1
:10377000100010280AD100BF0020009020680068C7
:10378000009020684068009000BF00BFA18D2046D7
:10379000FEF77BFA02E02046FEF78AFC0020F8BD27
:1037A00001E00020FBE70220F9E7000070B50446C5
:1037B0002168096921F44051E268114322681161CE
:1037C0002269A1681143626941EA02052168C9685A
:1037D00041F20C62914329432268D1602168496912
:1037E00021F44071A2691143226851612D4A216878
:1037F000914202D1FDF74AFD01E0FDF737FD00EBF4
:10380000C00101EB001162689200B1FBF2F100EB24
:10381000C00202EB001263689B00B2FBF3F2642368
:10382000B2FBF3F202EBC20303EB0212A1EB820143
:10383000322202EB01116422B1FBF2F101F0F0013E
:1038400000EBC00202EB001263689B00B2FBF3F2D4
:103850006423B2FBF3F201EB021200EBC00101EBB7
:10386000001163689B00B1FBF3F100EBC00303EBB5
:1038700000136668B600B3FBF6F36426B3FBF6F3F9
:1038800003EBC30606EB0313A1EB8301322303EB27
:1038900001116423B1FBF3F101F00F01114422681F
:1038A000916070BD0038014010B5034699629A8559
:1038B000DA8500205864222083F84200186928B174
:1038C0001868C06840F480701C68E060186840693F
:1038D00040F001001C6860611868C06840F020007A
:1038E0001C68E060002010BD014691F841002128CD
:1038F00028D18868B0F5805F0BD1086948B90A6A99
:103900001088C0F308000B685860086A801C0862C1
:1039100005E00B6A581C086218780B685860C88C60
:10392000401E80B2C88458B90868C06820F0800082
:103930000B68D8600868C06840F040000B68D86029
:10394000002070470220FCE710B50248FEF7A0F9FE
:1039500010BD00007C01002000BFFEE702480068A7
:10396000C0F30220704700000CED00E010B5002805
:1039700004DB0A07130E054A135406E00A07140E67
:10398000034A00F00F031B1FD45410BD00E400E0F5
:1039900018ED00E01CB5FDF7D3FAFFF77EFDFFF749
:1039A000B9F8FFF73DF9FFF7FFF8FFF7A7F9FFF7C1
:1039B0006FF9FFF717F94848FDF7DEFF4748FDF7B5
:1039C000A5FFFFF717FAFFF799FAFCF7A3FCFFF73B
:1039D0005EF8062342A200210846FFF707FCFFF726
:1039E00051F84049087006200223009008460278EA
:1039F00000212020FFF714FBFFF7DAFC6BE03A48C8
:103A00003A493B4B3B4ACDE900103B493B48FEF766
:103A1000E3FF06233AA210210020FFF7E7FB062070
:103A2000052300903548B0F9002010211220FFF73F
:103A3000A5FB062333A220210020FFF7D7FB062099
:103A4000052300902C48B0F9002020211220FFF718
:103A500095FB06232CA230210020FFF7C7FB062090
:103A6000052300902348B0F9002030211220FFF7F1
:103A700085FB062325A210213E20FFF7B7FB062079
:103A8000052300901A48B0F9002010214E20FFF7BE
:103A900075FB06231EA220213E20FFF7A7FB062070
:103AA000052300901148B0F9002020214E20FFF797
:103AB00065FB062317A230213E20FFF797FB062067
:103AC000052300900848B0F9002030214E20FFF770
:103AD00055FBFFF76DFC92E7EC000020340100205D
:103AE00049443A0004000020100000200E0000208D
:103AF0000C0000200A000020080000200600002022
:103B000041583A0041593A00415A3A0047583A0060
:103B100047593A00475A3A000203040506070809C4
:103B20000A0B0C0D0E0F1010010200000000000027
:103B3000000001020304060708090000000001025A
:103B4000030400000000000000000000000000006E
:103B50000000000000F8000000000000003330000A
:103B6000000000160E00160E00000000000000000D
:103B7000000040C07840C0784000043F04043F0487
:103B80000400007088FC08300000001820FF211E8F
:103B90000000F008F000E018000000211C031E21C6
:103BA0001E0000F00888700000001E212324192741
:103BB0002110000000160E000000000000000000B0
:103BC0000000000000E018040200000000071820B8
:103BD000400000020418E000000000402018070028
:103BE0000000404080F0804040000202010F0102CE
:103BF0000200000000F0000000000101011F0101AF
:103C00000100000000000000000000B07000000093
:103C1000000000000000000000000001010101019F
:103C20000101000000000000000000303000000032
:103C30000000000000008060180400601806010009
:103C4000000000E010080810E000000F1020201015
:103C50000F00001010F8000000000020203F20207E
:103C60000000007008080888700000302824222115
:103C700030000030088888483000001820202011CB
:103C80000E000000C02010F8000000070424243FAC
:103C9000240000F808888808080000192120201155
:103CA0000E0000E0108888180000000F112020117D
:103CB0000E0000380808C83808000000003F000067
:103CC00000000070880808887000001C2221212252
:103CD0001C0000E010080810E00000003122221152
:103CE0000F00000000C0C0000000000000303000E5
:103CF0000000000000C0C0000000000080B07000A4
:103D0000000000008040201008000001020408109C
:103D100020004040404040404000040404040404AB
:103D20000400000810204080000000201008040259
:103D30000100007048080808F0000000003036015B
:103D40000000C030C828E810E0000718272423141A
:103D50000B000000C038E0000000203C23020227D6
:103D6000382008F8888888700000203F2020201123
:103D70000E00C0300808080838000718202020105E
:103D8000080008F808080810E000203F2020201054
:103D90000F0008F88888E8081000203F2020232022
:103DA000180008F88888E8081000203F2000030069
:103DB0000000C03008080838000007182020221E24
:103DC000020008F808000008F808203F210101213E
:103DD0003F20000808F8080800000020203F2020AD
:103DE000000000000808F8080800C08080807F00FC
:103DF000000008F888C028180800203F2001263855
:103E0000200008F8080000000000203F20202020AB
:103E1000300008F8F800F8F80800203F003F003FA5
:103E2000200008F830C00008F808203F20000718DC
:103E30003F00E01008080810E0000F1020202010BC
:103E40000F0008F808080808F000203F21010101D0
:103E50000000E01008080810E0000F182424385073
:103E60004F0008F8888888887000203F2000030CE5
:103E700030200070880808083800003820212122EE
:103E80001C00180808F8080818000000203F20004F
:103E9000000008F808000008F808001F2020202073
:103EA0001F000878880000C83808000007380E0195
:103EB0000000F80800F80008F800033C0700073C81
:103EC0000300081868808068180820302C03032C31
:103ED00030200838C800C83808000000203F200003
:103EE000000010080808C8380800203826212020C3
:103EF0001800000000FE020202000000007F4040A7
:103F00004000000C30C00000000000000001063836
:103F1000C00000020202FE000000004040407F009E
:103F2000000000201008040810200000000000001D
:103F30000000000000000000000080808080808081
:103F40008080000204080000000000000000000063
:103F500000000000808080800000001924222222BE
:103F60003F2008F8008080000000003F1120201151
:103F70000E000000008080800000000E1120202034
:103F80001100000000808088F800000E1120201031
:103F90003F200000808080800000001F222222221B
:103FA0001300008080F0888888180020203F20209F
:103FB00000000000808080808000006B94949493C7
:103FC000600008F8008080800000203F2100002071
:103FD0003F2000809898000000000020203F202013
:103FE0000000000000809898000000C08080807F62
:103FF000000008F8000080808000203F24022D305F
:104000002000000808F8000000000020203F2020C9
:1040100000008080808080808000203F20003F2042
:10402000003F008080008080000000203F210020B1
:104030003F200000808080800000001F2020202082
:104040001F00808000808000000080FFA1202011E0
:104050000E000000008080808000000E112020A053
:10406000FF80808080008080800020203F21200011
:1040700001000000808080808000003324242424FC
:104080001900008080E0808000000000001F2020D8
:1040900000008080000000808000001F2020201091
:1040A0003F20808080000080808000010E30080664
:1040B000010080800080008080800F300C030C3075
:1040C0000F0000808000808080000020312E0E31A3
:1040D0002000808080000080808080818E701806A3
:1040E000010000808080808080000021302C22210F
:1040F000300000000000807C020200000000003F51
:10410000404000000000FF00000000000000FF0031
:1041100000000002027C800000000040403F0000E0
:10412000000000804040800000800000000000018E
:1041300001000000000000000000002F000000004F
:104140000700070000147F147F1400242A7F2A121E
:10415000002313086462003649552250000000070E
:10416000000000001C224100000041221C0000143D
:10417000083E08140008083E0808000000A060007F
:10418000000808080808000060600000002010080F
:104190000402003E5149453E0000427F400000427B
:1041A00061514946002141454B31001814127F10DE
:1041B000002745454539003C4A494930000171090D
:1041C000050300364949493600064949291E0000C1
:1041D0003636000000005636000000081422410068
:1041E0000014141414140000412214080002015198
:1041F0000906003E4955592E007C1211127C007FA1
:1042000049494936003E41414122007F4141221C3B
:10421000007F49494941007F09090901003E4149A0
:10422000497A007F0808087F0000417F4100002094
:1042300040413F01007F08142241007F4040404040
:10424000007F020C027F007F0408107F003E414186
:10425000413E007F09090906003E4151215E007F71
:10426000091929460046494949310001017F0101E8
:10427000003F4040403F001F2040201F003F40388B
:10428000403F0063140814630007087008070061CA
:104290005149454300007F414100000204081020BD
:1042A000000041417F000004020102040040404040
:1042B0004040000001020400002054545478007F64
:1042C0004844443800384444442000384444487F3B
:1042D00000385454541800087E0901020018A4A4A0
:1042E000A47C007F080404780000447D4000004066
:1042F00080847D00007F102844000000417F400042
:10430000007C04180478007C0804047800384444D5
:10431000443800FC242424180018242418FC007CB1
:104320000804040800485454542000043F4440202A
:10433000003C4040207C001C2040201C003C4030C1
:10434000403C004428102844001CA0A0A07C00444D
:1043500064544C440000087F41000000007F0000CE
:104360000000417F0800000804081008EFBC8C0022
:10437000000000000000000000000000000000003D
:10438000000000583800000000000000000000009D
:1043900000E3808200000000000000000000000038
:1043A0000000000000000000182424180000000095
:1043B000000000000000E4BDA00000008060F807DD
:1043C0004020180F08C80808281800010000FF0046
:1043D000100C0340807F0001061800E5A5BD000019
:1043E0001010F01F10F000808282E2928A86800016
:1043F000402215081661000040807F000000000088
:10440000E4B8960000202020FE2020FF202020FF7E
:1044100020202020000000007F40404744444447C3
:104420004040400000E7958C0000000000FE9292A2
:1044300092FE929292FE0000000008080484621E20
:10444000010001FE020404080800E590B400000029
:1044500000809E929292929292929E80000000849E
:1044600084444424140C070C14244444848400E839
:10447000B7830000003E22E2223E40444444FE4214
:1044800043424000203F201F11118040300E010E9A
:1044900030408000E4B89C00000008884828180FCD
:1044A000E8080808080808000000201109054181F3
:1044B0007F0101050911200000E59180000000FC4A
:1044C0000404FC00C2BA828282FE82828000000F55
:1044D00004040F2010080442817F00000000E88BD4
:1044E0008F0000044444445F44F44444445FC404E3
:1044F00004040000108E40201807004080403F0058
:10450000010E00E696B0000040445465C664544471
:1045100000FC4444C442400020124A827F020A92B6
:10452000601F0000FF000000E79A93000000F80CF5
:104530000B08F8A09E8888FF8888888000007F216B
:1045400021217F00FC4444444444FC0000E4BD8D30
:104550000000008060F80710901011161010D010A5
:104560000000010000FF4040415E4040704E41406D
:1045700040000000000000FF0101013109090909A4
:10458000897101010101FFFF808080808080968118
:10459000808080808080FFFF01818181FD8991A1E1
:1045A000C1FD81818101FFFF808080809F8884829E
:1045B000819F80808080FF000000000000000000DC
:1045C0000000000000000080E0F8F8FCFCFEFEFFA8
:1045D000C78381010101000080C0F4F0E080000089
:1045E00000000000000000000000000000000000CB
:1045F0000000000080C0C0F0FF3FFF7F77FF7F3FDB
:104600007767C7878706060C0C0C1979F3FF070F2D
:10461000000000000000000000000080C0E010105A
:104620003030180CCC6E6FF3F93D1C0C0603037B85
:104630007A78706000000101030363F7F3F363C34A
:10464000C383070E0C1CF8F00000000000000409F2
:1046500001C2361E06010000001F3FFEFCFCF000F8
:1046600000000000000030F0F0B0B01000000000CA
:10467000600700010102060603010000000000F8C7
:10468000F81C030000008080C0E0E0F0F0381F0F4D
:1046900007033CC00000010103030367630303F841
:1046A000FCFCF8F8F0F0E0E0C0C080000000000082
:1046B00000FFFFE0F0F8FEFEFFFFFFFF010100E05A
:1046C000C000C0C00018F8F8F080000000C0F0FC86
:1046D000FEFFFFFFFFFFFFFFFFFFFFFFFFFFFEFCEF
:1046E000F8F0F0033FFFFFFFFFFFFFFFFFFFFCE0DD
:1046F000E03F7F7FFFFFF8803F1FBFFFFCF8FCFF1C
:10470000FF7F7FFFFFFFBFFFFFDFFFFFFFFFFFFF19
:10471000FFFFFFFFFF0000031F1F1F1F0F0F1F1FC3
:104720001FFFFF0006040F3F3F0F0600077FFFFF3C
:10473000FFFFFE78787B7FFFDF9FDFCFFFF9FFFF72
:10474000EFEFFFFFFFFFFF00000000000000000090
:10475000000000000000000000C0E0F0F8F87C7EDF
:104760007E7F7F1F1F1F0F0F0F0F0F3F3F7F7F7F2A
:10477000FEFEFCFCF8F0E0E0C0800000000000005D
:104780000000000000000000000000000000000029
:104790000000000000000000000000000000000019
:1047A000000000F8FE3F0F070707030000000000AD
:1047B00000000000000000000000000000010307EE
:1047C0000707070F1F3FFFFFFCF8E0000000000095
:1047D00000000000000000000000000000000000D9
:1047E0000000000000000000000000000040E0F8B1
:1047F000FFFFFFFEFCFEFEFCFCC4C4CCD8F0E000D2
:1048000080C08000008080F8F8FCFCFCFCBC3CFC14
:10481000FCF8F0F1F7FFFFFFFF00000000000000D0
:104820000000000000000000000000000000000088
:104830000000000000000000000000073F7FFFFFB5
:10484000FFFFBF9F8783C1E1F9FFFF7D00000707DE
:10485000008001030303030303030F0F4F1F1F1FF8
:10486000FFFFDF9F8FFFF800000000000000000046
:104870000000000000000000000000000000000038
:104880000000000000000000000000FFFFFFFF0329
:10489000010101010707070704048484868787074D
:1048A000070000000000000000000000C0FFFFFF44
:1048B0007F3F1F0700000000000000000000000014
:1048C00000000000000000000000000000000000E8
:1048D0000000000000000000010F3FFFF080000218
:1048E0000F1F1F1F0F0F0F0F0F0F0F2F1F1F0F0770
:1048F00003000000000080E0FCFFFFF7CFFFFEFC9C
:10490000E0E0E0E0E0E0C0C0C0C0808080000000E7
:104910000000000000000000000080C0C0E06070E7
:10492000F8F8FCFCF8FCFCFEFEEFFFFFFEFCF0E0FC
:10493000C0C0C0C0C0C0C0C0C0E0606030301000A7
:1049400000E0FBFF1F777FFFFFFFFFFFFFFFFFFF81
:10495000E3E1E0E0E0E0E0E1E1F3F3F7860C0818E2
:1049600030600202000101C0E0C0808080F7FFFFDC
:10497000FFFFFFFFFFFFFF1F1F1F1F0303E0E0E01C
:10498000C0818180C0E0E030080C0C1E1E1F1F3F5C
:10499000BFFCFCFEFFFFFF7F3F3F03000000000065
:1049A000000000010303070F0F1F3E3C7C78F0005E
:1049B000D049000800000020440000002801000841
:1049C000144A000844000020440C00004401000880
:1049D00000000000000000000000000000000000D7
:1049E00000000000000000001000000001000000B6
:1049F00000127A000000000000000000000000002B
:104A000000000000000000000000000000000000A6
:044A100000000000A2
:04000005080000ED02
:00000001FF
