:020000040800F2
:10000000100E002089010008AD2B0008B521000862
:10001000A92B0008B90200082134000800000000E4
:100020000000000000000000000000007D2E00081D
:10003000F902000800000000532E00087F2E00087F
:10004000A3010008A3010008A3010008A301000800
:10005000A3010008A3010008A3010008A3010008F0
:10006000A3010008A3010008A3010008A3010008E0
:10007000A3010008A3010008A3010008A3010008D0
:10008000A3010008BD020008A3010008A3010008A5
:10009000A3010008A3010008A3010008A3010008B0
:1000A000A3010008F12E0008A3010008A301000825
:1000B000A3010008A3010008A3010008A301000890
:1000C000A3010008A3010008A3010008A301000880
:1000D000A301000811340008A3010008A3010008CF
:1000E000A3010008A3010008A301000800F002F822
:1000F00000F03AF80AA090E8000C82448344AAF188
:100100000107DA4501D100F02FF8AFF2090EBAE885
:100110000F0013F0010F18BFFB1A43F0010318473B
:100120003437000054370000103A24BF78C878C133
:10013000FAD8520724BF30C830C144BF04680C60ED
:10014000704700000023002400250026103A28BF35
:1001500078C1FBD8520728BF30C148BF0B60704739
:100160001FB51FBD10B510BD00F05CF81146FFF7BC
:10017000F7FF03F099F900F07AF803B4FFF7F2FF04
:1001800003BC00F07DF8000009488047094800479B
:10019000FEE7FEE7FEE7FEE7FEE7FEE7FEE7FEE737
:1001A000FEE7FEE704480549054A064B7047000094
:1001B000ED2E0008ED00000810080020100E0020B1
:1001C000100A0020100A00204FF0000200B513466C
:1001D00094469646203922BFA0E80C50A0E80C5067
:1001E000B1F12001BFF4F7AF090728BFA0E80C5018
:1001F00048BF0CC05DF804EB890028BF40F8042B11
:1002000008BF704748BF20F8022B11F0804F18BF7D
:1002100000F8012B704770477047704700487047DF
:10022000AC0700207546FFF7F9FFAE4605006946AA
:10023000534620F00700854618B020B5FFF7B2FFFF
:10024000BDE820404FF000064FF000074FF00008D7
:100250004FF0000B21F00701AC46ACE8C009ACE858
:10026000C009ACE8C009ACE8C0098D46704710B5BC
:100270000446AFF300802046BDE81040FFF77DBF85
:1002800001491820ABBEFEE72600020070470000BF
:1002900010B501221146252000F05EFE252000F059
:1002A0004BFE01220249034801F0D6FE10BD0000BA
:1002B0002B0000207401002000BFFEE710B50248AB
:1002C00000F0B0F810BD00000402002030B590F836
:1002D00040500124AC40C56B6C60046863604468A6
:1002E000102C04D10468A2600468E16003E0046893
:1002F000A1600468E26030BD704772B600BFFEE7DF
:1003000008B50090009A0A70009A120A4A70009A82
:10031000120C8A70009A120ECA7008BD01460022A3
:1003200091F82100022808D00420886300BF002033
:1003300081F8200000BF012070470868006820F0A5
:100340000E000B6818600868006820F001000B6858
:10035000186091F8403001209840CB6B5860012024
:1003600081F8210000BF002081F8200000BF104666
:10037000E2E7000070B50446002594F82100022849
:1003800003D00420A063012548E02068006820F025
:100390000E00216808602068006820F001002168D4
:1003A00008601F492068884201D1012026E01C49CD
:1003B00014312068884201D110201FE018492831EB
:1003C0002068884201D1801518E015493C31206829
:1003D000884201D1801411E01149503120688842CF
:1003E00002D14FF4803009E00D4964312068884221
:1003F00002D14FF4801001E04FF0807008490839B5
:100400004860012084F8210000BF002084F820000B
:1004100000BF606B10B12046616B8847284670BDF5
:100420000800024070B50446E06B05682068066865
:1004300094F84010042088402840002846D006F058
:100440000400002842D02068006800F0200028B98D
:100450002068006820F0040021680860574920687F
:10046000884201D1042027E0544914312068884291
:1004700001D1402020E0514928312068884201D133
:10048000001519E04D493C312068884202D14FF4F3
:10049000804011E0494950312068884202D14FF430
:1004A000802009E0454964312068884202D14FF438
:1004B000800001E04FF08060404908394860E06A00
:1004C00000287AD02046E16A884776E094F8401008
:1004D000022088402840A0B306F0020088B32068BC
:1004E000006800F0200040B92068006820F00A0091
:1004F00021680860012084F8210030492068884282
:1005000001D1022028E02D4914312068884201D110
:10051000202021E0294928312068884201D1401556
:100520001AE026493C312068884202D14FF400503D
:1005300012E0224950312068884203D14FF4003044
:100540000AE017E01D4964312068884202D14FF467
:10055000001001E04FF0007018490839486000BFF2
:10056000002084F8200000BFA06A30B32046A16AB2
:10057000884722E094F84010082088402840E0B1E5
:1005800006F00800C8B12068006820F00E0021685D
:10059000086094F8401001208840E16B4860012019
:1005A000A06384F8210000BF002084F8200000BF71
:1005B000206B10B12046216B884770BD08000240B7
:1005C0000146002209B901207047164B0868C01A7D
:1005D0001423B0FBF3F08000086412480838C863A5
:1005E000022081F821000868026843F6F070824317
:1005F000D1E901031843CB6818430B6918434B69D1
:1006000018438B691843CB6918430243086802609A
:1006100000208863012081F82100002081F820005B
:1006200000BFD1E7080002402DE9F04104460D4625
:1006300016461F464FF0000800BF94F8200001281E
:1006400002D10220BDE8F081012084F8200000BF23
:1006500094F8210001282CD1022084F821000020E8
:10066000A0632068006820F00100216808603B4614
:10067000324629462046FFF729FEE06A30B120685D
:10068000006840F00E00216808600BE020680068F8
:1006900020F00400216808602068006840F00A002B
:1006A000216808602068006840F001002168086047
:1006B00006E000BF002084F8200000BF4FF00208D1
:1006C0004046BFE770B5044600F0AEF90646254641
:1006D000681C10B104480078054400BF00F0A4F97C
:1006E000801BA842FAD370BD080000202DE9F8470E
:1006F0000346002294466EE14FF0010808FA02F426
:10070000D1F8008008EA0400A0427DD1DFF8DCA225
:10071000D1F80480A8EB0A09D0453AD014DCB8F12E
:10072000030F50D009DCB8F1000F31D0B8F1010F40
:100730001CD0B8F1020F49D120E0B8F1110F18D048
:10074000B8F1120F42D11EE0B9F5881F25D006DCA2
:10075000B9F5803F20D0B9F5801F37D11AE0B9F53F
:10076000001F18D0B9F5041F30D117E0D1F80CC024
:100770002DE0D1F80C8008F1040C28E0D1F80C80B1
:1007800008F1080C23E0D1F80C8008F10C0C1EE0F5
:1007900000BF00BF00BF00BF00BF00BFD1F808808E
:1007A000B8F1000F02D14FF0040C0BE0D1F8088033
:1007B000B8F1010F03D14FF0080C1C6102E04FF0BB
:1007C000080C5C6103E04FF0000C00E000BF00BFCC
:1007D000FF2801D8984601E003F104084646FF28A7
:1007E00002D84FEA820803E0A2F108084FEA88081D
:1007F0004746D6F800804FF00F0909FA07F928EAB2
:1008000009080CFA07F900E088E048EA0908C6F888
:100810000080D1F8048008F08058B8F1805F7DD165
:1008200000BFDFF8CC81D8F8188048F00108DFF865
:10083000C091C9F81880C846D8F8188008F0010897
:10084000CDF8008000BF00BF4FEAB9384FEA9209E7
:1008500058F829504FEA82784FEA18794FF00F087C
:1008600008FA09F825EA0805DFF88881434502D12E
:100870004FF0000816E0DFF88081434502D14FF0C9
:1008800001080FE0DFF87481434502D14FF0020800
:1008900008E0DFF86C81434502D14FF0030801E026
:1008A0004FF004084FEA82794FEA197908FA09F8FB
:1008B00048EA0505DFF84C814FEA920948F82950CB
:1008C000D1F8048008F48018B8F5801F0AD1DFF849
:1008D0003881D8F8008048EA0008DFF82C91C9F880
:1008E000008009E0DFF82081D8F8008028EA0008BD
:1008F000DFF81491C9F80080D1F8048008F40018DA
:10090000B8F5001F10D1DFF8008108F10408D8F80D
:10091000008048EA0008DFF8F09000E05AE009F1B2
:100920000409C9F800800DE0DFF8DC8008F1040854
:10093000D8F8008028EA0008DFF8CC9009F1040913
:10094000C9F80080D1F8048008F40038B8F5003FF9
:100950000ED1DFF8B480A8F10408D8F8008048EA86
:100960000008DFF8A490A9F10409C9F800800DE09F
:10097000DFF89480A8F10408D8F8008028EA00087D
:10098000DFF88490A9F10409C9F80080D1F8048047
:1009900008F48038B8F5803F0ED1DFF86C80A8F1FC
:1009A0000808D8F8008048EA0008DFF85C90A9F150
:1009B0000809C9F800800DE0DFF84C80A8F10808AC
:1009C000D8F8008028EA0008DFF83C90A9F108096F
:1009D000C9F80080521CD1F8008028FA02F8B8F15A
:1009E000000F7FF489AEBDE8F88700000000111009
:1009F0000010024000080140000C014000100140BE
:100A000000140140080001400804014002469368B8
:100A10000B400BB1012000E0002070470AB10161DA
:100A200001E00B0403617047014800687047000053
:100A30000000002070B504460CB9012070BD94F888
:100A40003D0028B9002084F83C00204600F08CF9D5
:100A5000242084F83D002068006820F0010021680F
:100A600008602068006840F4004021680860206841
:100A7000006820F400402168086000F08BFB054608
:100A80005C496068884206D85B48854201D20120F3
:100A900007E0002005E05948854201D2012000E02E
:100AA0000020012800D1C9E75548B5FBF0F62068C1
:100AB000406820F03F003043216848604D4960683D
:100AC000884201D8701C07E04FF4967070434FF4D1
:100AD0007A71B0FBF1F0401C2168096A21F03F01F6
:100AE00008432168086243496068884214D8681E38
:100AF00061684900B0FBF1F0401CC0F30B00042812
:100B000001D204203DE0681E61684900B0FBF1F0AD
:100B1000401CC0F30B0034E0A06838B9681E61685F
:100B200001EB4101B0FBF1F0401C0AE0681E616876
:100B300001EBC10202EB0111B0FBF1F0401C40F4EB
:100B40008040C0F30B0008B901201AE0A06848B942
:100B5000681E616801EB4101B0FBF1F0401CC0F37D
:100B60000B000CE0681E616801EBC10202EB011191
:100B7000B0FBF1F0401CC0F30B0040F4804040F4A7
:100B800000402168C9694CF6FF729143084321680F
:100B9000C861D4E9070108432168096821F0C00150
:100BA000084321680860D4E9031008432168896874
:100BB00048F2FF329143084321688860D4E9050177
:100BC00008432168C96821F0FF0108432168C86013
:100BD0002068006840F0010021680860002020645F
:100BE000202084F83D000020206384F83E0000BFF0
:100BF00024E70000A086010080841E0000093D005B
:100C000040420F002DE9FC5F04460F46904699468E
:100C1000DDE90CAB0E9EFFF707FF054694F83D009B
:100C200020287DD1192301224D492046009501F04D
:100C300086FB10B10220BDE8FC9F00BF94F83C0089
:100C4000012801D10220F6E7012084F83C0000BF12
:100C50002068006800F0010028B92068006840F0B2
:100C60000100216808602068006820F400602168A5
:100C70000860212084F83D00402084F83E000020D8
:100C80002064C4F824A0A4F82AB0608D20853548DB
:100C9000E0624B46424639462046CDE9006501F008
:100CA000ABFA08B10120C6E731E02A4631462046BA
:100CB00001F021FC50B1206C042805D120680068A7
:100CC00040F40070216808600120B4E7606A007891
:100CD00021680861606A401C6062208D401E20858A
:100CE000608D401E608520684069C0F3800070B14F
:100CF000208D60B1606A007821680861606A401CDC
:100D00006062208D401E2085608D401E6085208D94
:100D10000028CAD12A463146204601F0DDFA00E01B
:100D20001CE050B1206C042805D12068006840F414
:100D300000702168086001207DE72068006840F4A9
:100D4000007021680860202084F83D00002084F8AD
:100D50003E0000BF84F83C0000BF6CE702206AE759
:100D6000020010000000FFFF10B586B0044600200E
:100D700002900390049005903049206888422FD15A
:100D800000BF2F48806940F008002D49886108465F
:100D9000806900F00800019000BF00BF4FF4407070
:100DA0000290122003900320059002A92548FFF726
:100DB0009DFC00BF2449486840F0E06040F002001C
:100DC000486000BF00BF1E48C06940F400101C49C5
:100DD000C8610846C06900F40010019000BF2AE015
:100DE0001A492068884226D100BF1548806940F022
:100DF0000800134988610846806900F008000190E6
:100E000000BF00BF4FF44060029012200390032007
:100E1000059002A90B48FFF769FC00BF0848C069AC
:100E200040F480000649C8610846C06900F48000AB
:100E3000019000BF00BF06B010BD0000005400408C
:100E400000100240000C014000000140005800402A
:100E5000034800680349097808440149086070475D
:100E6000000000200800002010B50848006840F08D
:100E7000100006490860032000F0ACF80F2000F0D5
:100E800007F800F02BF8002010BD00000020024001
:100E900070B504460E4800784FF47A71B1FBF0F05B
:100EA0000C490968B1FBF0F5284600F0FDFB08B1DC
:100EB000012070BD102C07D200222146501E00F0E8
:100EC0004BF80548046001E00120F2E70020F0E75C
:100ED000080000200C0000200400002008B500BF1E
:100EE0001348806940F00100114988610846806913
:100EF00000F00100009000BF00BF00BF0846C069BD
:100F000040F08050C8610846C06900F080500090F1
:100F100000BF00BF052000F05DF800BF054948682C
:100F200020F0E06040F00070486000BF08BD0000A5
:100F3000001002400000014001460846002809DB7D
:100F400000F01F0301229A4043099B0003F1E023B4
:100F5000C3F8002100BF70472DE9F05F80460D46C1
:100F60001646002702F084FA074639462A463346D9
:100F700001F00700C0F1070ABAF1040F02D94FF0DF
:100F8000040A01E0C0F1070AD14600F1040ABAF1EF
:100F9000070F02D24FF0000A01E0A0F1030AD44685
:100FA0004FF0010A0AFA09FAAAF1010A0AEA020A4A
:100FB0000AFA0CFA4FF0010B0BFA0CFBABF1010B28
:100FC0000BEA030B4AEA0B042146404602F058FAAA
:100FD000BDE8F09F00BF00F00702064B19684FF60E
:100FE000FF031940044B0B4343EA0221014B1960F4
:100FF00000BF70470CED00E00000FA0570B5044634
:101000000D460CB9012070BD5A48006800F0070079
:10101000A8420ED25748006820F0070028435549DF
:1010200008600846006800F00700A84201D00120CF
:10103000E9E7207800F0020002281DD1207800F0B6
:101040000400042805D14C48406840F4E0604A4957
:101050004860207800F00800082805D1464840681C
:1010600040F46050444948604348406820F0F00034
:10107000A168084340494860207800F0010078B337
:101080006068012806D13C48006800F4003090B93F
:101090000120B8E76068022806D13748006800F0F0
:1010A000007040B90120AEE73348006800F002004C
:1010B00008B90120A7E73048406820F003006168C4
:1010C00008432D494860FFF7AFFC064609E0FFF7EB
:1010D000ABFC801B41F28831884202D9032092E7A1
:1010E00007E02548406800F00C006168B0EB810F14
:1010F000EDD12048006800F00700A8420ED91D4835
:10110000006820F0070028431A4908600846006874
:1011100000F00700A84201D0012074E7207800F019
:101120000400042807D11448406820F4E060E16816
:10113000084311494860207800F00800082808D1C9
:101140000D48406820F46050216940EAC1000A4916
:10115000486000F03FF808494968C1F30311074AA5
:10116000515CC8400649086006480068FFF790FED9
:10117000002048E700200240001002403C380008F0
:101180000C000020040000200148006870470000A7
:101190000C00002000B5FFF7F7FF04494968C1F3D0
:1011A0000221034A515CC84000BD0000001002400B
:1011B0004C38000800B5FFF7E7FF04494968C1F360
:1011C000C221034A515CC84000BD0000001002402B
:1011D0004C38000870B500210022002400230020B4
:1011E000134D696801F00C05F5B1042D02D0082DEE
:1011F00019D101E00F4819E00F4DC1F38346AB5DF3
:1012000001F4803555B10A4D6D68C5F340450B4E6C
:10121000725D084D5D43B5FBF2F402E0084D03FB3F
:1012200005F4204602E000BF024800BF00BF70BDC9
:101230000010024000127A002A3800083A380008EC
:1012400000093D00F8B504460CB90120F8BD20782E
:1012500000F00100002878D0F848406800F00C0049
:1012600004280CD0F548406800F00C00082811D183
:10127000F248406800F48030B0F5803F0AD1EF4872
:10128000006800F4003000285FD0606800285CD15E
:101290000120DBE700BF6068B0F5803F06D1E7487A
:1012A000006840F48030E549086028E0606858B97B
:1012B000E248006820F48030E04908600846006891
:1012C00020F4802008601AE06068B0F5A02F0BD1F0
:1012D000DA48006840F48020D84908600846006871
:1012E00040F4803008600AE0D448006820F4803080
:1012F000D24908600846006820F48020086000BFDA
:10130000606888B1FFF790FB054606E0FFF78CFBAD
:10131000401B642801D9032098E7C848006800F4FE
:1013200000300028F2D010E0FFF77EFB054606E013
:10133000FFF77AFB401B642801D9032086E7BF48EA
:10134000006800F400300028F2D1207800F002009C
:10135000022857D1B948406800F00C0050B1B74896
:10136000406800F00C00082818D1B448406800F428
:10137000803098B9B148006800F0020020B12069BF
:10138000012801D0012061E7AC48006820F0F80096
:10139000616940EAC100A949086033E02069E8B109
:1013A0000120A7490860FFF73FFB054606E0FFF76D
:1013B0003BFB401B022801D9032047E79F480068F8
:1013C00000F002000028F2D09C48006820F0F800ED
:1013D000616940EAC1009949086013E0002098491A
:1013E0000860FFF721FB054606E0FFF71DFB401BE9
:1013F000022801D9032029E79048006800F0020084
:101400000028F2D1207800F0080008282DD1A0692A
:10141000B8B101208B490860FFF706FB054606E0DE
:10142000FFF702FB401B022801D903200EE7834887
:10143000406A00F002000028F2D0012001F00AFD0D
:1014400013E000207F490860FFF7EEFA054606E04A
:10145000FFF7EAFA401B022801D90320F6E6774895
:10146000406A00F002000028F2D1207800F0040069
:10147000042873D100277148C06900F0805070B90A
:1014800000BF6E48C06940F080506C49C861084692
:10149000C06900F08050009000BF00BF01276A487B
:1014A000006800F48070B0B96748006840F480704C
:1014B00065490860FFF7B8FA054606E0FFF7B4FA99
:1014C000401B642801D90320C0E65F48006800F48F
:1014D00080700028F2D000BFE068012806D157488C
:1014E000006A40F001005549086227E0E06858B9F9
:1014F0005248006A20F00100504908620846006A1C
:1015000020F00400086219E0E06805280BD14B4880
:10151000006A40F00400494908620846006A40F049
:10152000010008620AE04548006A20F001004349D2
:1015300008620846006A20F00400086200BFE06804
:10154000A0B1FFF771FA054609E0FFF76DFA401BFD
:1015500041F28831884202D9032077E622E03748F9
:10156000006A00F002000028EFD012E0FFF75CFAFA
:10157000054608E0FFF758FA401B41F288318842DF
:1015800001D9032062E62D48006A00F0020000281D
:10159000F0D1012F05D12948C06920F0805027499A
:1015A000C86100BFE069C8B32448406800F00C007F
:1015B000082860D0E069022848D100202049086648
:1015C000FFF732FA054606E0FFF72EFA401B022825
:1015D00001D903203AE61948006800F0007000289D
:1015E000F2D1206AB0F5803F07D11448406820F45A
:1015F0000030A168084311494860D4E90801084354
:101600000E49496821F4741108430C4948600120CF
:101610000B490866FFF708FA054607E03DE0FFF7CB
:1016200003FA401B022801D903200FE60348006893
:1016300000F000700028F2D02FE0000000100240FF
:1016400000004242800442420070004000201449E1
:101650000866FFF7E9F9054606E0FFF7E5F9401BE4
:10166000022801D90320F1E50E48006800F000705F
:101670000028F2D111E0E069012800D1E6E509482F
:10168000466806F48031206A814204D106F4701164
:10169000606A814201D00120D8E50020D6E5000033
:1016A000000042420010024070B504462546681E04
:1016B000B0F1807F01D301200FE0681E4FF0E021E0
:1016C00048610F214FF0FF3001F0DAFE00204FF0AB
:1016D000E021886107200861002070BD70477047D5
:1016E00030B502460B4600BF92F83C00012801D1FC
:1016F000022030BD012082F83C0000BF022082F8A9
:101700003D00106844681068816824F0700418680F
:10171000044310684460104D1068A8420BD0106854
:10172000B0F1804F07D00D4D1068A84203D00C4D8A
:101730001068A84205D121F0800158680143106863
:101740008160012082F83D0000BF002082F83C004B
:1017500000BF00BFCDE70000002C014000040040A6
:101760000008004010B504460CB9012010BD94F8E3
:101770003D0028B9002084F83C00204600F026F8FF
:10178000022084F83D00211D206801F0B9FB0120F2
:1017900084F8460000BF84F83E0001213F20015537
:1017A000402001554120015500BF00BF012084F8B1
:1017B000420043200155442001554520015500BFFA
:1017C000012084F83D000020D0E7000038B5044631
:1017D00016492068884216D100BF1548806940F438
:1017E0000060134988610846806900F40060009039
:1017F00000BF00BF012211461920FFF7ADFB1920E1
:10180000FFF79AFB11E02068B0F1804F0DD100BFC7
:101810000748C06940F001000549C8610846C06931
:1018200000F00100009000BF00BF38BD002C014057
:1018300000100240014691F83D00012801D001202E
:101840007047022081F83D00124B086898420BD087
:101850000868B0F1804F07D00F4B0868984203D05A
:101860000E4B086898420CD10868806800F00702A7
:10187000062A0CD00868006840F001000B68186068
:1018800005E00868006840F001000B68186000205F
:10189000D6E70000002C0140000400400008004092
:1018A000014691F83D00012801D001207047022037
:1018B00081F83D000868C06840F001000B68D860FE
:1018C000124B086898420BD00868B0F1804F07D0DF
:1018D0000F4B0868984203D00E4B086898420CD111
:1018E0000868806800F00702062A0CD008680068C3
:1018F00040F001000B68186005E00868006840F0DF
:1019000001000B6818600020D0E70000002C0140A7
:1019100000040040000800402DE9F04104460D4657
:10192000002700BF94F83C00012802D10220BDE846
:10193000F081012084F83C0000BF022084F83D00C3
:101940002068866826F0770626F47F462068866041
:101950002868502833D00CDC202850D004DC002824
:101960004BD0102851D149E0302849D040284CD1E3
:1019700039E060282DD0702807D0B0F5805F03D003
:10198000B0F5005F41D10DE041E0D5E902136A688E
:10199000206801F0F7FA2068866846F0770620682C
:1019A000866034E0D5E902136A68206801F0EAFA3B
:1019B0002068806840F480402168886027E0EA68F9
:1019C0006968206801F0F2FA5021206801F0E5FA18
:1019D0001DE0EA686968206801F0FBFA6021206870
:1019E00001F0DBFA13E0EA686968206801F0DEFACA
:1019F0004021206801F0D1FA09E000BF00BF00BF1C
:101A00002968206801F0C9FA01E0012700BF00BF82
:101A1000012084F83D0000BF002084F83C0000BF96
:101A2000384684E7704770B504462068C56820686A
:101A3000066906F00200022819D105F0020002280A
:101A400015D1401F21680861012020772068806936
:101A500000F0030018B12046FFF7E4FF05E0204640
:101A600000F097F8204600F095F80020207706F067
:101A70000400042819D105F00400042815D1C0433E
:101A800021680861022020772068806900F4407096
:101A900018B12046FFF7C6FF05E0204600F079F8B0
:101AA000204600F077F80020207706F0080008288C
:101AB00019D105F00800082815D1C0432168086134
:101AC000042020772068C06900F0030018B1204688
:101AD000FFF7A8FF05E0204600F05BF8204600F085
:101AE00059F80020207706F01000102819D105F0D1
:101AF0001000102815D1C043216808610820207704
:101B00002068C06900F4407018B12046FFF78AFFD2
:101B100005E0204600F03DF8204600F03BF80020AC
:101B2000207706F0010048B105F0010030B16FF0F8
:101B3000010021680861204600F02EF806F08000C0
:101B4000802809D105F08000802805D1C043216894
:101B500008612046FFF7C2FD06F04000402809D189
:101B600005F04000402805D1C043216808612046A7
:101B700000F01EF806F02000202809D105F0200012
:101B8000202805D1C043216808612046FFF7A7FD42
:101B900070BD70477047000010B5044603492068C7
:101BA000884201D100F034FD10BD0000002C01403E
:101BB00070477047704700002DE9F84F04462068D1
:101BC00005682068C668206847694FF00009CA4662
:101BD00005F00F09B9F1000F0AD105F0200038B166
:101BE00006F0200020B1204601F0C5FABDE8F88FCC
:101BF000B9F1000F7BD007F0010018B906F490701E
:101C0000002874D005F0010030B106F4807018B1DE
:101C1000606C40F00100606405F0040030B107F032
:101C2000010018B1606C40F00200606405F0020031
:101C300030B107F0010018B1606C40F0040060643E
:101C400005F0080048B106F0200010B907F00100C7
:101C500018B1606C40F008006064606C002845D0EA
:101C600005F0200028B106F0200010B1204601F058
:101C700082FA20684069C0F3801A606C00F00800A6
:101C800010B9BAF1000F2CD0204601F01BFA2068E1
:101C9000406900F0400000B300BF00BF216814316C
:101CA00051E8001F21F040002168143141E8000292
:101CB000002AF3D100BFE06B50B17748E16B486375
:101CC000E06BFEF757FB88B1E06B416B88470DE096
:101CD0002046FFF76FFF09E009E02046FFF76AFFA3
:101CE00004E02046FFF766FF002060647EE7206B7B
:101CF000012877D105F01000002873D006F01000FD
:101D00000028FAD000BF00200090206800680090F2
:101D100020684068009000BF00BF2068406900F064
:101D2000400000285FD0E06B006840681FFA80F830
:101D3000B8F1000F55D0A08D404552DDA4F82E809B
:101D4000E06B8069202843D000BF00BF21680C31C0
:101D500051E8001F21F4807021680C3141E8000235
:101D6000002AF3D100BF00BF00BF2168143151E841
:101D7000001F21F001002168143141E80002002A0F
:101D8000F3D100BF00BF00BF2168143151E8001F2C
:101D900021F040002168143141E80002002AF3D10B
:101DA00000BF202084F842000020206300BF00BF55
:101DB00021680C3151E8001F21F0100021680C311E
:101DC00041E80002002AF3D100BFE06BFEF7A6FA5B
:101DD00002206063A08DE28D801A81B22046FFF759
:101DE000E8FE03E742E0A08DE18D401A1FFA80F87B
:101DF000E08DD0B3B8F1000F37D000BF00BF21682D
:101E00000C3151E8001F21F4907021680C3141E839
:101E10000002002AF3D100BF00BF00BF21681431C7
:101E200051E8001F21F001002168143141E800024F
:101E3000002AF3D100BF202084F842000020206354
:101E400000BF00BF21680C3151E8001F21F01000D5
:101E500021680C3141E80002002AF3D100BF0220C2
:101E6000606341462046FFF7A4FEBFE605F0800010
:101E700030B106F0800018B1204601F099FAB5E6BD
:101E800005F0400030B106F0400018B1204601F0E6
:101E90004FF9ABE600BFA9E6FB2F000810B50446DA
:101EA0000CB9012010BDA06900B100E000BF94F89A
:101EB000410028B9002084F84000204600F02AF8AC
:101EC000242084F841002068C06820F40050216874
:101ED000C860204601F0CEF92068006920F49040E7
:101EE000216808612068406920F02A002168486163
:101EF0002068C06840F400502168C8600020606419
:101F0000202084F8410084F842000020606300BF74
:101F1000C8E7000010B586B0044600200290039088
:101F20000490059046492068884238D100BF454852
:101F3000806940F48040434988610846806900F424
:101F40008040019000BF00BF00BF0846806940F09C
:101F5000040088610846806900F00400019000BF19
:101F600000BF48150290022003900320059002A9AB
:101F70003548FEF7BBFB4FF48060029000200390D1
:101F80000120049002A93048FEF7B0FB012211465F
:101F90002520FEF7E1FF2520FEF7CEFF4DE02B497F
:101FA0002068884249D100BF2648C06940F400300B
:101FB0002449C8610846C06900F40030019000BFA0
:101FC00000BF00BF0846806940F0040088610846F1
:101FD000806900F00400019000BF00BF042002905F
:101FE000022003900320059002A91748FEF77EFB0C
:101FF00008200290002003900120049002A91248BA
:10200000FEF774FB12481349086010204860002155
:10201000104881608021C16000210161416120215F
:1020200081610902C161FEF7CBFA08B1FEF765F9DB
:1020300000BF0848A063446200BF06B010BD0000A6
:1020400000380140001002400008014000440040F8
:10205000800002400402002070B504460D4616467A
:1020600094F8420020280BD105B10EB9012070BDB3
:102070000020206332462946204601F079F9F6E730
:102080000220F4E710B504461F492068884239D180
:102090001E48007868B91E4800785B282DD11D487D
:1020A000007850BB01201949087000201A490870B7
:1020B00023E01648007801281FD1154800785D28D4
:1020C0000AD10020114908701449134A1278885423
:1020D00001201049087010E00D4800780F490E4AA1
:1020E000127888540C480078401C0B490870084648
:1020F0000078632801DB6320087001220449084846
:10210000FFF7AAFF10BD0000003801402C0000209E
:102110002B0000202A0000202D000020480600206F
:1021200074010020F7B50446154694F841002028B4
:1021300036D1019800B10DB90120FEBD0198206291
:10214000A584E58400206064212084F841001548BE
:10215000A16B88621448A16BC8621448A16B086324
:102160000020A16B486301AE23681A1D31682B461D
:10217000A06BFEF759FA6FF040002168086000BFBD
:1021800000BF2168143151E8001F41F08000216830
:10219000143141E80002002AF3D100BF0020CCE74F
:1021A0000220CAE75F300008B73000080F3000088F
:1021B0007047704700BFFEE7014608684069C0F3FA
:1021C0008020B0B16FF480600A685061002008631D
:1021D000202081F83D00002081F83E00086C40F08E
:1021E0000400086400BF002081F83C0000BF01200B
:1021F00070470020FCE700002DE9F84304468846BC
:1022000015469946DDE908672068006840F480704B
:1022100021680860334600224FF0011120460097E4
:1022200000F08DF860B12068006800F48070B0F5AF
:10223000807F02D14FF4007020640320BDE8F88352
:1022400008F0FE00216808613B46324621492046DD
:1022500000F0D4F808B10120F0E700BF00200090A2
:1022600020684069009020688069009000BF00BF2E
:102270003A463146204600F03EF950B1206C042821
:1022800005D12068006840F40070216808600120D2
:10229000D4E7B9F1010F03D1E8B22168086117E072
:1022A000C5F30720216808613A463146204600F010
:1022B00022F950B1206C042805D12068006840F450
:1022C0000070216808600120B8E7E8B22168086161
:1022D0000020B3E70200010070B504460D46164623
:1022E00025E02046FFF768FF08B1012070BD681C9B
:1022F000E8B1FEF799FB801BA84200D8BDB9206861
:102300004069C0F3800090B900202063202084F849
:102310003D00002084F83E00206C40F02000206446
:1023200000BF002084F83C0000BF0120DEE72068E9
:102330004069C0F380000028D3D00020D6E72DE903
:10234000F04104460D4617461E46DDF8188038E079
:10235000701CA8B3FEF768FBA0EB0800B04200D8E1
:1023600076BBC5F3074001280AD120684069A9B2AD
:102370000840A9B2884201D101200BE0002009E009
:1023800020688069A9B20840A9B2884201D1012021
:1023900000E00020B84214D100202063202084F8FF
:1023A0003D00002084F83E00206C40F020002064B6
:1023B00000BF002084F83C0000BF0120BDE8F08190
:1023C000FFE7C5F3074001280AD120684069A9B298
:1023D0000840A9B2884201D101200BE0002009E0A9
:1023E00020688069A9B20840A9B2884201D10120C1
:1023F00000E00020B842ABD00020DFE72DE9F0413B
:1024000004460D4616461F4658E020684069C0F352
:102410008020E8B12068006840F4007021680860FE
:102420006FF480602168486100202063202084F8D8
:102430003D00002084F83E00206C40F00400206441
:1024400000BF002084F83C0000BF0120BDE8F081FF
:10245000701C90B3FEF7E8FAC01BB04200D866BB10
:10246000C5F3074001280AD120684069A9B2084095
:10247000A9B2884201D101200BE0002009E02068C8
:102480008069A9B20840A9B2884201D1012000E0C8
:10249000002090B900202063202084F83D00002017
:1024A00084F83E00206C40F02000206400BF002033
:1024B00084F83C0000BF0120C8E7FFE7C5F30740F0
:1024C00001280AD120684069A9B20840A9B288420F
:1024D00001D101200BE0002009E020688069A9B249
:1024E0000840A9B2884201D1012000E00020002864
:1024F0008BD00020AAE770B504460D46164625E0AD
:102500002046FFF759FE08B1012070BD681CE8B1F4
:10251000FEF78AFA801BA84200D8BDB9206840693E
:10252000C0F3C01090B900202063202084F83D0043
:10253000002084F83E00206C40F02000206400BFA2
:10254000002084F83C0000BF0120DEE720684069DD
:10255000C0F3C0100028D3D00020D6E71CB54FF040
:102560007E511648006800F0CDFF144908604FF016
:102570007E511348006801F0E3F8114908601149E1
:102580000E48006801F0ABF802D200200B49086049
:1025900000210B48006801F023F802D209480849DD
:1025A0000860064800680090054800680190022213
:1025B0006946054800F036FF1CBD000034000020CD
:1025C000380000200000C842BC01002010B50446BD
:1025D00034B902210D48FEF719FAA0B9012010BD47
:1025E000022C06D121030948FEF710FA01280AD16E
:1025F000F5E7032C07D14FF400410448FEF706FA33
:10260000012800D1EBE70020E9E70000000C0140C1
:1026100010B50020A349087016E0A348A149097825
:1026200030F8110000280ADD9F489E49097830F8EB
:102630001100401E9C499B4A127821F812009948CB
:102640000078401C97490870964800780428E4DB1D
:1026500096480078401C9549087008460078142870
:1026600071DB002008708F49087015E190488D4992
:102670000978415C8F488B4A1278815489480078E8
:10268000FFF7A4FF8A49874A12788854084685498B
:102690000978405C01280AD1874882490978405C62
:1026A00040F0010084497F4A1278885409E082484A
:1026B0007C490978405C20F001007F49794A127812
:1026C00088547B4877490978405C01280ED17948C5
:1026D00074490978405C48B9774872490978405C88
:1026E00040F0020174486F4A1278815470486D4975
:1026F0000978405C78B96F486A490978405C0128DC
:1027000009D16D4867490978405C40F004016A4886
:10271000644A12788154694862490978405C98B9E2
:10272000634860490978405C01280BD14FF4FA6096
:102730005D495C4A127821F8120001205F49594A2C
:1027400012788854A3E0ACE05C4856490978405CB4
:1027500001282DD1564853490978405C58B9C82002
:102760005149504A127821F81200022053494D4A2B
:10277000127888548BE04C484A49097830F81100A7
:10278000002814D164204849464A127821F81200E2
:10279000494844490978405C40F020004649414A94
:1027A00012788854042045493E4A127888546EE0D5
:1027B00042483C490978405C02282BD13C483949C1
:1027C0000978405C01280FD13B4836490978405CC4
:1027D00040F010003849334A1278885403203749B2
:1027E000304A1278885452E02F482E49097830F840
:1027F0001100F8B930482B490978405C40F00800D6
:102800002D49284A1278885400202C49254A1278EC
:1028100088543CE0294823490978405C03280AD1C0
:10282000234820490978405C20B9002023491D4AEB
:10283000127888542BE021481A490978405C042812
:1028400025D11B4817490978405C28B900201B494D
:10285000144A127888541AE013481249097830F85B
:102860001100A0B9642010490E4A127821F8120014
:1028700011480C490978405C40F040000E49094A73
:102880001278885404200D49064A12788854054865
:102890000078401C03490870024800780428FFF6BD
:1028A000E5AE10BD1500002022000020140000201D
:1028B000160000201A000020100000201E0000203A
:1028C00010B501216B2000F015F800216C2000F0FC
:1028D00011F80921192000F00DF806211A2000F046
:1028E00009F818211B2000F005F818211C2000F021
:1028F00001F810BD13B584B004466420012105AA77
:102900000B46CDE9002102902246D0210248FEF775
:1029100079F906B010BD00009000002008B500BF96
:102920000A48406940F0010008494861084640698A
:1029300000F00100009000BF00BF002211461120EE
:10294000FEF70AFB1120FEF7F7FA08BD001002405F
:1029500000B585B00020019002900390049000BF64
:102960001E48806940F020001C4988610846806943
:1029700000F02000009000BF00BF00BF0846806943
:1029800040F0040088610846806900F0040000906F
:1029900000BF00BF00BF0846806940F008008861A2
:1029A0000846806900F00800009000BF00BF0220C8
:1029B0000190002002900120039001A90848FDF732
:1029C00095FE4FF4204001900020029002200390D9
:1029D00001A90348FDF78AFE05B000BD00100240C2
:1029E000000C014010B50B480B4908600B484860CB
:1029F000002109488160C1604FF4804101610021DC
:102A000041618161C1610162FEF714F808B1FDF70F
:102A100074FC10BD005400403C000020A086010062
:102A200010B50B480B4908600B4848600021094865
:102A30008160C1604FF48041016100214161816189
:102A4000C1610162FDF7F6FF08B1FDF756FC10BD4C
:102A50000058004090000020A086010000B587B01B
:102A60000020039004900590069001900290154874
:102A7000154908604720486000211348816040F2F2
:102A8000E731C16000210161416180218161FEF770
:102A900069FE08B1FDF731FC4FF48050039003A9A3
:102AA0000948FEF739FF08B1FDF727FC0020019027
:102AB000029001A90448FEF713FE08B1FDF71DFCC2
:102AC00007B000BD002C0140E400002000B587B035
:102AD00000200390049005900690019002904FF022
:102AE00080401449086047204860002111488160F7
:102AF0004FF6FF71C1600021016180218161FEF705
:102B000031FE08B1FDF7F9FB4FF48050039003A9A3
:102B10000848FEF701FF08B1FDF7EFFB0020019028
:102B2000029001A90348FEF7DBFD08B1FDF7E5FBC4
:102B300007B000BD2C01002010B50B480B49086000
:102B40004FF416504860002108488160C16001615F
:102B50000C21416100218161C161FFF79FF908B13A
:102B6000FDF7CBFB10BD00000038014074010020D0
:102B700010B50B480B4908604FF4E1304860002164
:102B800008488160C16001610C21416100218161BF
:102B9000C161FFF783F908B1FDF7AFFB10BD00007D
:102BA00000440040BC01002000BFFEE700BFFEE77C
:102BB00000200CE0002106E00022064B03EBC013CE
:102BC0005A544A1CD1B28029F6DB421CD0B20828E4
:102BD000F0DB70474802002000B585B0002001906E
:102BE00002900390049000BF1548806940F00800EF
:102BF000134988610846806900F00800009000BF12
:102C000000BF88150190112002900120039003203D
:102C1000049001A90B48FDF769FD4FF40070019085
:102C200001A90848FDF762FD012211020548FDF7E0
:102C3000F5FE012251020348FDF7F0FE05B000BD8C
:102C400000100240000C014070B5002406E0002591
:102C500000E06D1CB5F57A7FFBD3641CB4F57A7F78
:102C6000F5D3012000F0AEF8012000F0BBF870BDF4
:102C700070B50546002411E080212141294009B1A9
:102C8000012100E00021084600F0ACF8012000F02E
:102C900099F8002000F096F8601CC4B2082CEBDB19
:102CA000012000F08FF8002000F08CF870BD10B506
:102CB000012000F097F8012000F084F8002000F0D7
:102CC00091F8002000F07EF810BD10B5002000F053
:102CD00089F8012000F076F8012000F083F810BD9B
:102CE00010B5FFF7B1FFAE2000F08CF8D52000F052
:102CF00089F8802000F086F8A82000F083F83F20B3
:102D000000F080F8D32000F07DF8002000F07AF881
:102D1000402000F077F8A12000F074F8C82000F0FF
:102D200071F8DA2000F06EF8122000F06BF88120C4
:102D300000F068F8CF2000F065F8D92000F062F8C4
:102D4000F12000F05FF8DB2000F05CF8302000F0AC
:102D500059F8A42000F056F8A62000F053F88D2072
:102D600000F050F8142000F04DF8AF2000F04AF8C1
:102D7000FFF71EFF00F012F810BD70B505460C46B7
:102D800045F0B00000F03EF8102141EA141000F0C8
:102D900039F804F00F0000F035F870BD10B50024CC
:102DA0000BE000212046FFF7E8FF054901EBC410C6
:102DB000802100F037F8601CC4B2082CF1DB10BD94
:102DC0004802002010B504460CB1012000E00020AC
:102DD00002464FF480710248FDF720FE10BD00004E
:102DE000000C014010B504460CB1012000E00020A9
:102DF00002464FF400710248FDF710FE10BD0000BE
:102E0000000C014010B50446FFF751FF7820FFF792
:102E10002FFF0020FFF72CFF2046FFF729FFFFF7C9
:102E200054FF10BD70B505460E46FFF740FF7820F1
:102E3000FFF71EFF4020FFF71BFF002404E0285D82
:102E4000FFF716FF601CC4B2B442F8DBFFF73DFF8A
:102E500070BD704708B508490968C9084FF47A720F
:102E6000B1FBF2F14143009100BF00BF00994A1E3F
:102E700000920029F9D108BD0C000020704710B560
:102E8000FDF7E6FF10BD00B58FB0282105A8FDF7BE
:102E90009BF914216846FDF797F90120059000047D
:102EA0000690002007900120099002200C90C10399
:102EB0000D914FF4E0110E9105A8FEF7C3F908B18A
:102EC000FDF71BFA0F2000900220019000200290D5
:102ED0004FF4806003900020049002216846FEF7C2
:102EE0008DF808B1FDF709FA0FB000BD704700007A
:102EF00010B50248FEF797FD10BD0000E400002069
:102F000010B502681C4B984208D0B0F1804F05D034
:102F10001A4B984202D01A4B984203D122F0700209
:102F20004B681A43144B984208D0B0F1804F05D03B
:102F3000124B984202D0124B984203D122F44072B5
:102F4000CB681A4322F080034C6943EA0402026012
:102F50008B68C3620B688362074B984201D10B698F
:102F6000036301234361036903F001031BB1036998
:102F700023F00103036110BD002C01400004004058
:102F80000008004030B50C46816821F47F4142EAD8
:102F9000032525432943816030BD0A46816821F01D
:102FA000700142F0070319438160704730B50B464A
:102FB0001446026A056A25F001050562816921F05F
:102FC000F00141EA041122F00A021A43816102620F
:102FD00030BD30B50B461446026A056A25F010056F
:102FE0000562816921F4704141EA043122F0A002B6
:102FF00042EA03128161026230BD70B505466C6A17
:103000000020E085E0842046FEF7D4FD70BD70B559
:1030100006460025746A20684069C0F3C01594F81C
:103020004100212805D125B10020E084204600F090
:103030008FF820684069C0F3801594F84200222878
:1030400005D125B10020E085204600F03BF8606CFA
:1030500040F0100060642046FEF7ACFD70BD70B516
:1030600005466C6A2868006800F02000F8B9002066
:10307000E08400BF00BF2168143151E8001F21F037
:1030800080002168143141E80002002AF3D100BF1A
:1030900000BF00BF21680C3151E8001F41F0400023
:1030A00021680C3141E80002002AF3D102E02046F9
:1030B000FFF77EF870BD70B50446656A2846FFF7D5
:1030C00078F870BD00BF00BF02680C3252E8002FD4
:1030D00022F4907102680C3242E80013002BF3D105
:1030E00000BF00BF00BF0268143252E8002F22F078
:1030F00001010268143242E80013002BF3D100BF33
:10310000016B01290ED100BF00BF02680C3252E8EA
:10311000002F22F0100102680C3242E80013002B4D
:10312000F3D100BF202180F84210002101637047D5
:1031300010B504462068C06820F040002168C860CF
:10314000202084F841002046FFF732F8002010BD0F
:1031500000BF00BF02680C3252E8002F22F0C0010D
:1031600002680C3242E80013002BF3D100BF20218B
:1031700080F841107047F8B5044694F842002228C0
:1031800075D1A068B0F5805F0CD1206950B90025D9
:10319000A66A20684068C0F308003080A06A801CDE
:1031A000A06215E0A56A0026A068B0F5805F03D094
:1031B000A06828B9206918B920684068287004E020
:1031C0002068406800F07F002870A06A401CA06260
:1031D000E08D401E80B2E085002846D12068C0689E
:1031E00020F020002168C8602068C06820F480704A
:1031F0002168C8602068406920F0010021684861AA
:10320000202084F8420000206063206B012826D132
:103210000020206300BF00BF21680C3151E8001F6F
:1032200021F0100021680C3141E80002002AF3D19E
:1032300000BF2068006800F0100010280AD100BF0D
:10324000002000902068006800902068406800908E
:1032500000BF00BFA18D2046FEF7ABFC02E0204678
:10326000FEF710FF0020F8BD01E00020FBE7022080
:10327000F9E7000070B504462168096921F440515E
:10328000E2681143226811612269A16811436269F1
:1032900041EA02052168C96841F20C629143294361
:1032A0002268D1602168496921F44071A269114303
:1032B000226851612D4A2168914202D1FDF77AFFBF
:1032C00001E0FDF767FF00EBC00101EB0011626850
:1032D0009200B1FBF2F100EBC00202EB0012636856
:1032E0009B00B2FBF3F26423B2FBF3F202EBC203E6
:1032F00003EB0212A1EB8201322202EB01116422E4
:10330000B1FBF2F101F0F00100EBC00202EB0012A0
:1033100063689B00B2FBF3F26423B2FBF3F201EBB0
:10332000021200EBC00101EB001163689B00B1FBCE
:10333000F3F100EBC00303EB00136668B600B3FBC8
:10334000F6F36426B3FBF6F303EBC30606EB0313B5
:10335000A1EB8301322303EB01116423B1FBF3F1F1
:1033600001F00F0111442268916070BD00380140E6
:1033700010B5034699629A85DA85002058642220A8
:1033800083F84200186928B11868C06840F480705A
:103390001C68E0601868406940F001001C686061CA
:1033A0001868C06840F020001C68E060002010BD74
:1033B000014691F84100212828D18868B0F5805F46
:1033C0000BD1086948B90A6A1088C0F308000B6875
:1033D0005860086A801C086205E00B6A581C086285
:1033E00018780B685860C88C401E80B2C88458B9E1
:1033F0000868C06820F080000B68D8600868C06862
:1034000040F040000B68D860002070470220FCE7C5
:1034100010B50248FEF7D0FB10BD0000740100207B
:1034200000BFFEE72DE9F04180460E461746002416
:10343000002509E00C4A111956F82500FCF760FF39
:10344000201D84B2681CC5B2BD42F3DB064820448F
:10345000064909680160201D84B22246024940469F
:10346000FEF760FEBDE8F081AC06002030000020D1
:1034700002480068C0F30220704700000CED00E035
:1034800010B5002804DB0A07130E054A135406E0A2
:103490000A07140E034A00F00F031B1FD45410BD7B
:1034A00000E400E018ED00E0FDF7DEFCFFF7EBFCC8
:1034B000FFF74EFAFFF732FAFFF7D0FAFFF792FA6A
:1034C000FFF73AFBFFF702FBFFF7AAFAFFF750FB03
:1034D0000A48FEF7E5F90A48FEF7ACF9FFF77CFB6E
:1034E000FFF7FEFBFCF7D4FEFFF7EAF904E0FFF775
:1034F00035F86420FDF7E6F8F9E70000E400002065
:103500002C01002090EA010F48BF81F0004100F13A
:103510001E81421A3CBF801A89184FEAD0524FF0E0
:103520007F4C1CEA410FA2EBD15318BF9CEA026FFB
:1035300000F03B804FF0004C4CEA00204CEA0121A7
:1035400021FA03FC10EB0C0C1ED202F1FF325FEAF1
:103550001C2040EBC25038BF70471CF07F0F4FEA71
:10356000400C18BFBCF17F4F38BF7047C3F1200338
:10357000994008BF20F00100BCF17F4F38BF704771
:10358000A0F1C04000F0A6B84FEA3C00000A40EBB2
:10359000C25028BF1CF0FF0F4FEA400CE6D018BF06
:1035A000BCF17F4F38BF7047EAE79CEA026F05D055
:1035B00010EA5C0F08BF00F00040704710B500F043
:1035C00043F800BF64FBBE3E401058BFC0F140400E
:1035D000491058BFC1F140418142EFF3008070476C
:1035E00050EA010C00F113801CF5000F58BFBCF528
:1035F000000F01D48842704707D710F5000F58BF5D
:1036000011F5000F15D488427047894270471CF5A8
:10361000000F04D5BCF5000FF7D5814270474FF07D
:10362000807C1CEB400F38BF1CEB410F01D2814264
:10363000704710B500F008F8922449004FF0005090
:103640004FF08051FFF7C0BF0EF1020E2EF0030EB7
:103650005EF8044B244204D44FEA4102B2F17F4F9A
:1036600011D84FEA4003B3F17F4F0CD80ED14FEA87
:10367000D07CB2F17F4F0CEB4C0C0CF1020C08BF6C
:103680004CEBD17C04E04FF0080C01E04FEAD17C18
:103690000CEB4C0324FA03F404F00704B4F1040C1B
:1036A00006D20EEB840CBDE810404CF0010C6047D4
:1036B000DFE80CF0070802024FF00040A0F58000A0
:1036C00010BD0846420018BFD2F1807288BF00F0DA
:1036D000004010BDFF2141EAD050C005704751EABB
:1036E000000C00F113801CF5000F58BFBCF5000F53
:1036F00001D48142704707D711F5000F58BF10F56C
:10370000000F15D481427047894270471CF5000FA5
:1037100004D5BCF5000FF7D5884270474FF0807C88
:103720001CEB410F38BF1CEB400F01D288427047A1
:1037300080EA010081EA000180EA0100FFF779BF19
:1037400090EA010F48BF81F000413FF5E2AE421A16
:1037500004D882F00042A0EB020011444FEAD0529C
:103760004FF07F4C1CEA410FA2EBD15318BF9CEAEB
:10377000026F4AD04FF0004C4CEA00204CEA012185
:1037800021FA03FCB0EB0C0C0FD412F0FE0F36D074
:103790005FEA4C001DD5001240EBC25038BF7047A5
:1037A0001CF03F0F18BF70470BE0A2F101025FEA67
:1037B0001C2040EBC25038BF70471CF07F0F18BF71
:1037C0007047C3F12003994014BF401E20F0010050
:1037D000704780084FEA122308BF7047B0FA80FC98
:1037E000A2EB0C02CCF1280C60FA0CF093EA122F39
:1037F00004BF00EBC25070474FEAC3707047130A12
:103800005FEADC1008BF7047F6E79CEA026F04D05D
:1038100010EA5C0F08BF0020704710B5FFF714FFD7
:1038200040DFF63E81F000407047020304050607C2
:1038300008090A0B0C0D0E0F101001020000000009
:103840000000000001020304060708090000000050
:103850000102030474380008000000203C0000004E
:1038600028010008B03800083C000020D40D0000FA
:1038700044010008000000001000000001000000EA
:1038800000127A00000000000000000000000000AC
:103890000000000000000000000000000000000028
:1038A000000000000000807F000000000000C8420F
:04000005080000ED02
:00000001FF
