:020000040800F2
:10000000680D0020350200085953000865490008B2
:1000100055530008F3280008415F00080000000065
:10002000000000000000000000000000CD590008A2
:100030000929000800000000A3590008CF59000852
:100040004F0200084F0200084F0200084F0200084C
:100050004F0200084F0200084F0200084F0200083C
:100060004F0200084F0200084F0200084F0200082C
:100070004F0200084F0200084F0200084F0200081C
:100080004F020008F92800084F0200084F0200083C
:100090004F0200084F0200084F0200084F020008FC
:1000A0004F020008415A00084F0200084F020008A2
:1000B0004F0200084F0200084F0200084F020008DC
:1000C0004F0200084F0200084F0200084F020008CC
:1000D0004F020008315F00084F0200084F0200087D
:1000E0004F0200084F0200084F02000800F002F81B
:1000F00000F090F80AA090E8000C82448344AAF132
:100100000107DA4501D100F085F8AFF2090EBAE82F
:100110000F0013F0010F18BFFB1A43F0010318473B
:100120005077000070770000103A24BF78C878C17B
:10013000FAD8520724BF30C830C144BF04680C60ED
:10014000704700000023002400250026103A28BF35
:1001500078C1FBD8520728BF30C148BF0B60704739
:100160006E2900F0C781702900F00983662906F026
:100170003283652906F02F83672906F02C836129D5
:1001800006F02B8303681B0A28BF41F08001692910
:1001900000F07481642900F07181752900F06E818E
:1001A0006F2900F09682782900F0D582E92900F0C5
:1001B0003182E42900F02E82F52900F02B82EF290C
:1001C00000F09382F82900F0D4820368DB0928BF8D
:1001D00041F08001632901F09780732901F09C8030
:1001E000E32901F0A780F32901F0AC8000207047DB
:1001F0001FB501F07DF904000020002106F014F97C
:10020000401C60600020002106F0F8F8E0601FBD8F
:1002100010B510BD01F047F91146FFF7E9FF05F0F1
:10022000C5FF01F0A5FC03B4FFF7F2FF03BC01F02A
:10023000D3FE00000948804709480047FEE7FEE773
:10024000FEE7FEE7FEE7FEE7FEE7FEE7FEE7FEE786
:1002500004480549054A064B704700003D5A00080E
:10026000ED00000868070020680D002068090020E4
:10027000680900201CB50C46064B7B44694600907B
:10028000204600F050F904460020694600F05EF96F
:1002900020461CBDCF02000070B5064600F07CF879
:1002A0000468054630460A22002100F089FB2C60D4
:1002B00070BD0000014A00F0BBBB000048000020F8
:1002C0004FF0000200B5134694469646203922BFEF
:1002D000A0E80C50A0E80C50B1F12001BFF4F7AF3A
:1002E000090728BFA0E80C5048BF0CC05DF804EB1C
:1002F000890028BF40F8042B08BF704748BF20F88A
:10030000022B11F0804F18BF00F8012B704700003E
:100310004FF0013C50F8042B51F8043B9A4221D194
:10032000A2EB0C03934313EACC1317D150F8042B20
:1003300051F8043B9A4215D1A2EB0C03934313EA04
:10034000CC130BD150F8042B51F8043B9A4209D13D
:10035000A2EB0C03934313EACC13DBD04FF0000065
:10036000704700BFD01A01BAB1FA81F101F018014B
:1003700022FA01F0CB40C1F12001DBB2C0B2C01AB9
:100380002CFA01F3D11A914311EAC311E6D1704757
:10039000704770477047000000487047040700200E
:1003A00010B5FFF7F9FF006810BD10B50446FFF760
:1003B000F3FF046010BD70B5044685690068C1068E
:1003C00001D5302600E02026C00707D070BDD4E953
:1003D000012130469047206A401C20626D1EF6D5F0
:1003E00070BD70B5044685690078C00707D170BD3F
:1003F000D4E9012120209047206A401C20626D1E14
:10040000F6D570BD09684A0501D540B27047C905E7
:10041000FCD500B2704709684A0501D5C0B27047E3
:10042000C905FCD580B2704770B50C460546012A57
:1004300005D02878800600D5EA69002302E0012370
:1004400005E05B1C934202D2E05C0028F9D1A86968
:10045000E618C01AA861286A184428622846FFF7DF
:10046000AAFF04E0D5E9012114F8010B9047B4423A
:10047000F8D32846FFF7B5FF70BD00002DE9F04125
:100480000646002410687529314616A510D0FFF7DE
:10049000B9FF002802DA404213A507E031688A0755
:1004A00001D512A502E0490704D511A5012401E0F8
:1004B000FFF7B1FF00210A2206F1240709E0B0FB93
:1004C000F2FCB0FBF2F302FB1C003030785418460B
:1004D000491C0028F3D123462A463046BDE8F041A6
:1004E00000F022BB000000002D0000002B000000E7
:1004F0002000000011680268006A530501D50870E9
:100500000AE0D30501D5088006E0130603D5C2171B
:10051000C1E9000200E008600120704701694A1C3F
:1005200002610878704700B58FB0CDE90131002134
:10053000059105497944CDE903101146684600F05C
:1005400029F90FB000BD0000E5FFFFFF0A6802F8BF
:10055000010B0A60704700002DE9FF5F15468A46CF
:100560000446DFF8AC80F8440027D8E900103E4686
:10057000CDE9001010E03AF816106A4602A800F023
:1005800054FF411C07D02178890603D5E269391848
:1005900091420DD80744761C2078800602D5E06988
:1005A000B84205DDAE42E6DB3AF816000028E2D19B
:1005B000A069C01BA0612046FFF7FDFED8E900102E
:1005C000CDE90010002017E03AF818106A4602A89A
:1005D00000F02BFFB0F1FF3F81460BD000250DF15D
:1005E000080B05E0D4E901211BF8050090476D1CBC
:1005F0004D45F7D308F10100B0428046E4DB206AA4
:10060000384420622046FFF7ECFEBDE8FF9F000063
:100610000A7200002DE9F0418046D21D22F0070247
:100620000025D2E90002F52915A614D0011E72F1A9
:10063000000106DA0023D0EB030063EB020211A6EF
:1006400008E0D8F800108B0701D50FA602E0490793
:1006500001D50EA601251146002408F1240704E067
:1006600000F014FA30323A55641C50EA0102F7D116
:100670002B46324621464046BDE8F04100F054BAD0
:10068000000000002D0000002B00000020000000F2
:1006900030B4002100F1240408E002F00705D2087C
:1006A000303542EA4372DB086554491C52EA0305BF
:1006B000F3D10468002310A2250707D5A40600D4AF
:1006C00021B1C46901230DA2641EC46130BC00F0D5
:1006D0002BBA10B5044621461068FFF79CFE02466F
:1006E0002046BDE810400023D2E7D21D22F00701CA
:1006F000D1E90023CCE7000000000000300000003A
:10070000F0B40D460188090502D5214C7C4402E075
:100710001F4C7C440E34002100F1240608E002F056
:100720000F071209E75D42EA03721B097754491C5F
:1007300052EA0307F3D102780023120704D5702D83
:1007400006D009B1022311342246F0BC00F0ECB906
:1007500001231034F8E770B504460D4621461068B1
:10076000FFF759FE024629462046BDE870400023A7
:10077000C6E7D21D22F00703D3E90023C0E70368D0
:10078000126843F0200303600823C3610023B7E726
:100790006C7000002DE9F05F894604464FF0000AB6
:1007A000DFF874B1FB44C0F820A02046E168884718
:1007B000002874D0252806D0D4E901219047206A6A
:1007C000401C2062F1E700265F462046E16888472A
:1007D0002028054607DB312D05D2781910F8200CAA
:1007E00008B10643F1E7B00701D526F00406C4F8C6
:1007F0001CA00027C4F818A02A2D09D0284605F00F
:1008000052FC38B304EB8708303DC8F8185019E0A3
:1008100059F8041B204604EB87029161E168884780
:10082000012F054618D1E069002820DA26F02006BD
:100830001DE0D8F8180000EB800005EB40003038D0
:10084000C8F818002046E1688847054605F02BFCEB
:100850000028EED1012F0AD02E2D08D12046E168C4
:1008600088477F1C0546022F46F02006C4DBA0699E
:10087000002803DA404246F00106A061F00701D0EB
:1008800026F010066C2D0BD0682D09D04C2D39D0D8
:100890006A2D35D0742D35D07A2D33D016E038E05E
:1008A000E1682F4620468847B842054609D16C2F9B
:1008B00026D04FF48060E16806432046884705460D
:1008C00004E06C2F1AD04FF4807006430DB3A5F1ED
:1008D0004100192802D8203546F400664A462946C8
:1008E000204626604E46FFF73BFC80B101280BD026
:1008F000F61D26F0070000F1080956E74020E4E75E
:100900008020D8E70020D6E706F104094DE7284605
:1009100052E7206ABDE8F09FFC6F00000FB400238F
:1009200000B589B00CA900910B99CB60214B7B4499
:100930000693214B7B44079304236FF00042CDE9DB
:1009400001321E4A7A446B4608920246002005F0A6
:10095000A6FF09B05DF814FB70B506464FF0FF30F6
:1009600015460C46324686B00091CDE90101694634
:100970000020049004A8FFF7D1FF02460498211834
:1009800025B108B1084600E02046286004980028F8
:100990000DD0002A02DD0098884208D03246081B9C
:1009A00069460094CDE9010404A8FFF7B7FF06B03B
:1009B00070BD00001B0A0000330A0000CF010000D8
:1009C0002DE9F04791460F4680460446002614F86C
:1009D000015B2DB100F052F80068405DC007F6D110
:1009E0002B2D02D02D2D18D0641E4A4639462046A4
:1009F00000F0CCFC27B13968A14201D1C7F80080D2
:100A00004FF0020471050BD54042002803DDFFF7CB
:100A1000C3FC0460A007BDE8F08746F48066E4E705
:100A20000028F8DAFFF7B8FC04606FF00040F2E746
:100A30002DE9F04115460E46040002D12C6804B998
:100A40000BA4204600F021FD0444207870B1274615
:100A50003146384600F009FD0444207810B10020EA
:100A600004F8010B38462C60BDE8F0810027F9E757
:100A700000000000004870470407002010B500F097
:100A800037FD001D10BD00BFA159000030B5B0F109
:100A90000A024FEA900E71F100034EEA817EB0EB3C
:100AA0000E0061EB91014FEA101E4EEA017E10EB41
:100AB0000E0041EB11114FEA102E4EEA016E10EBC1
:100AC0000E0041EB11214FEA104E4EEA014E10EBA1
:100AD0000E0041EB1141401841F100014FEAD000F6
:100AE00040EA41704FEAD10110EB80054FEA8104E2
:100AF00044EA907444EB01046D1944EB0404521B66
:100B0000A3414FF0000348BF0A3200D530BD401C5E
:100B100041F1000130BD10B50446FFF7AFFF00689A
:100B2000005D00F0010010BD2DE9F0470D4699462B
:100B30009246044600F124080168880604D5E0695D
:100B400021F01001216000E00120A84201DD471BD7
:100B500000E00027A1697A1902EB0900081AA061D8
:100B60002078C00602D42046FFF725FC002608E0C6
:100B7000D4E901211AF806009047206A401C761C2F
:100B800020624E45F4DB2078C0060AD52046FFF7E8
:100B900012FC06E0D4E9012130209047206A401C75
:100BA0002062381EA7F10107F4DC07E0D4E9012137
:100BB00018F805009047206A401C2062281EA5F105
:100BC0000105F3DC2046FFF70CFC2078000602D577
:100BD0000220BDE8F0870120FBE770472DE9FF4FB9
:100BE0000C461E464FF0FF378BB0D2E90001DDF80E
:100BF00060800A908A46C1F30A5505B93D46002136
:100C000008464FF00000BAF1000F00F4400005DA8A
:100C100000EB80004FF4400101EA50004FEA905988
:100C2000B9F1010F00DDB9460A9850EA4A000ED02A
:100C300044F61050A5F2FF3545432F14B8F1000FCC
:100C40001ED07542291E1EDDC9F100021CE0B8F15C
:100C5000010F4FF0000001D0302103E0F24305E026
:100C60002154401CB042FBDB3046002200212154BD
:100C70000B99C1F80880C1E900200FB0BDE8F08FE2
:100C8000BD1B6D1CDEE74A4600DA694206A800F08B
:100C9000FDFE06AB93E8070003AB83E80700504670
:100CA0000A9901F0B3F98DE80700A0F500501F384C
:100CB00000900398002D0ADD42F21F014A460844C5
:100CC000002303A90390684601F05EFC09E0A0F54B
:100CD00000504A461F38002303A90390684601F0DC
:100CE0007DFC8DE807000004000C03D04FF0FF30BE
:100CF000410800E01046B8F1000F03D00022009236
:100D000015461EE0751E05D4FFF7C0FE3032625551
:100D10006D1EF9D5B3460122084302D000227F1C84
:100D200004E02078302801D100227F1E002A099794
:100D300084D01DE0112D07DAFFF7A8FE303262558E
:100D40006D1C50EA0102F5D1084302D00098C8B1E9
:100D50000EE00021681E05E0235C625C63542254AF
:100D6000401E491C8142F7DBAB46A81B401E099080
:100D7000002004F80B000B98099AC0F80880C0E91D
:100D8000002B7AE711264FF0000857E72DE9F04FC6
:100D900088460446D21D22F0070191B0D1E9000136
:100DA000CDE90A0105F0CEF802460B98C00F01D03C
:100DB0002D2007E02068810701D52B2002E02021AB
:100DC00001EAC000032A099001D0072A05DB034687
:100DD0004146204600F090FB0BE12078800601D5CB
:100DE000E06900E00620B8F1650F814606D0B8F151
:100DF000660F18D0B8F1670F70D131E00020B9F15B
:100E0000110F009001DB112301E009F101030AAA8F
:100E100001A90CA8FFF7E2FEDDE90C70002609F13C
:100E20000105834647E001204B4600904FF0004704
:100E30000AAA01A90CA8FFF7D1FEDDE90DB00C99B3
:100E40005D46002610B909F101000D18B9EB050047
:100E500003D4C0F1FF3609F10105A5EB09002BE031
:100E6000B9F1010F01DA4FF001090020B9F1110FBA
:100E70000090484601DD112300E003460AAA01A9BB
:100E80000CA8FFF7ABFEDDE90C704D46002683464B
:100E9000207800070AD4AB4500DA5D4601A8012D91
:100EA00004DD411911F8011C302907D04F4502DA41
:100EB00017F1040F04DA012082460FE06D1EEEE701
:100EC000002F02DCED1B3E4403E0781CA84200DD4D
:100ED0007D1CB81B00F1010A4FF000472078000785
:100EE00003D4AA4501DB4FF0FF3A0021B7F1004FD0
:100EF0000DF143088DF8431024D002202B23002F3E
:100F000001DA7F422D230A21021EA0F1010000DC3C
:100F10005FB197FBF1FC97FBF1F201FB1C7C1746DC
:100F20000CF1300C08F801CDEEE7A8F101000370D8
:100F30002188090501D5452100E06521A0F10108BE
:100F400000F8011C09980FA9A1EB0807FF1D00B1CB
:100F50000120411901EBEA70A1693844081A401ECA
:100F6000A0612078C00602D42046FFF724FA099831
:100F700028B1D4E901219047206A401C20622078E2
:100F8000C00622D52046FFF716FA1EE0002E04DB2D
:100F9000B34502DD01A8805D00E03020D4E90121E5
:100FA0009047206A401C2062761CAAF101005FEA8B
:100FB000000A0AD100F09CFAC0680168405CD4E9DC
:100FC00001219047206A401C2062281EA5F10105DE
:100FD000DCDC07E0D4E9012118F8010B9047206A16
:100FE000401C2062381EA7F10107F3DC2046FFF702
:100FF000F8F9032011B041E62DE9F04F04460D4603
:10100000D21D22F0070089B0D0E900974846394642
:1010100004F098FF0246F80F01D02D2307E0206866
:10102000810701D52B2302E0202101EAC0038DF8BE
:1010300020300BB1012000E00020032A824601D0BD
:10104000072A04DB2946204600F056FA3FE12078C3
:10105000800601D40D2500E0E569C7F30A560D2D81
:1010600049DA00214FEA175B08464FF00000002FD5
:1010700000F4400007DA00EB80004FF4400100EB81
:10108000D07001EA60008115012901DD4FF0FF31C8
:1010900000224FEA850CBCF1180F06D31346ACF1C1
:1010A00018004FF08052C24003E04FF4801323FA3F
:1010B0000CF30CF10C0CBCF1200F04D3ACF1200CA0
:1010C00009FA0CF001E007FA0CF000294FF0004893
:1010D00001DD18B90FE00ED140450CD319EB020920
:1010E0005F4121B9404502D19F4329EA0209BBEB88
:1010F000175F00D0761C2088000502D57B48784415
:1011000002E07A487844193808AA302302F80A30F5
:10111000037C0AF10101002E0AF1020A53546A46C7
:1011200002DC4FF0300101E04FF031014FF00108D7
:101130008DF8001002D0A6F2FF3603E059EA47010D
:1011400000D06B4E002D02DC2178090704D54FF04A
:1011500002082E218DF80110C44600210BE0C7F3D0
:1011600003433F01C35C491C6D1E02F8083005298A
:1011700008F1010801DA002DF1DC00210CE000EBA0
:101180001973491C1B786D1E082902F808304FEAB4
:10119000091908F1010801DA002DF0DC21688B063D
:1011A00002D516E0A8F10108E04505DD02EB0803D1
:1011B00013F8013C302BF5D0B8F1000F09DD02EB3C
:1011C000080313F8013C2E2B03D1090701D4A8F121
:1011D0000108002D05DD3E2102F808106D1E08F102
:1011E0000108407C002E02F8080008F1010804DA2A
:1011F0002D20764202F8080002E02B2002F80800B9
:101200000A214FF47A70864208F101080BDB96FB45
:10121000F0F3303302F8083096FBF0F308F10108E0
:1012200000FB136601E0642E0CDB642096FBF0F3F8
:10123000303302F8083096FBF0F308F1010800FBA8
:10124000136601E00A2E06DB96FBF1F0303002F85F
:10125000080008F1010896FBF1F001FB1060303046
:1012600002F80800A16908F1010808EB050202EB89
:101270000A00081AA0612078C00602D42046FFF7B1
:101280009AF8216A08AE01EB0A00206204E0D4E972
:10129000012116F8010B9047BAF1010AF7D2207824
:1012A000C00602D52046FFF786F86E4609E016F81C
:1012B000010B3E280FD0D4E901219047206A401C41
:1012C0002062B8F10108F2D22046FFF78AF809B08F
:1012D0000320BDE8F08F206A2844206203E0D4E9AF
:1012E0000121302090476D1EEBD3F8E7C666000061
:1012F00002FCFFFF10B5436913B1AFF3008001E0BA
:10130000FFF792F8012010BD127800F124010A7055
:1013100000224A700122EDE711684FF0FF32E9E741
:1013200010B5436913B1AFF3008001E0FFF714F982
:10133000012010BD128800F1240182840022C284A1
:101340000122EDE711684FF0FF32E9E7426842B150
:10135000016811F8013B23B1521EC0E90012184682
:1013600070470121C160881E704742685AB1C36846
:10137000016843B983688B4205D0491E521CC0E9FD
:101380000012002070474FF0FF3070472DE9F05FEA
:10139000824615468B4600270AF10104B9460078BB
:1013A000302801D09DB113E014F8010B01277828F3
:1013B00003D0582801D045B10AE00DB1102D07D156
:1013C000002714F8010B102502E0082500E00A258B
:1013D0000026B0460EE005FB080005FB06F10127DC
:1013E0001FFA80F801EB1046B6F5803F00D3B946EE
:1013F00014F8010B294600F0BFF80028EBDABBF126
:10140000000F05D00FB1641E00E05446CBF8004039
:10141000B9F1000F06D0FEF7BFFF02210160C81E20
:10142000BDE8F09F48EA0640FAE770B516460C465C
:101430000546FFF723FB036893F80101012806D056
:10144000FF2C0FD8185D68B101202C7070BDD3F847
:1014500007013246214603F2071303442846BDE83C
:10146000704018474FF0FF3070BD30B503461D780F
:101470001DB10A4603E0AC4201D1181A30BD12F882
:10148000014B002CF7D15B1CF1E730B503461D780A
:101490003DB10A4612F8014B1CB1AC42FAD15B1CBB
:1014A000F5E7181A30BD7546FFF7E4FAAE460500B9
:1014B0006946534620F00700854618B020B5FEF770
:1014C000C7FEBDE820404FF000064FF000074FF088
:1014D00000084FF0000B21F00701AC46ACE8C00952
:1014E000ACE8C009ACE8C009ACE8C0098D4670475B
:1014F00000487047240700202DE9F0411F460446AC
:1015000003260168072A01F4006004DB08B116A570
:1015100005E016A503E008B115A500E015A521F02A
:1015200010002060A069C01EA0610FB1401EA06124
:101530002046FEF740FF4FB1D4E9012138469047DD
:10154000206A401C2062C01C206206E0206AFAE784
:10155000D4E9012115F8010B9047761EF8D22046F8
:10156000FEF73FFFBDE8F0814E414E006E616E0018
:10157000494E4600696E66003A2800D2303820F0A5
:101580002002412A01D3A2F13700884201D34FF053
:10159000FF3070472DE9FF4F06468BB00878FF28D3
:1015A00006D0491C2D2805D000244FF0000908E082
:1015B00000200CE00124F8E709EB8903491C00EB4B
:1015C00043090878FF28F7D114B1C9F1000081461A
:1015D000107800252C46AA4629462D2801D02B2814
:1015E00004D1521C2D2813D0002082468B4610783F
:1015F000FF280FD04FF0000C0A21521CA5FB0178E8
:1016000004FB018105FB0C11C5194BEB0104EEE74E
:101610000120EAE7002108464FF00000BAF1000F70
:1016200002D000EB80004008C0F38157012F01DD9C
:101630004FF0FF370E9955EA040009EB01080BD073
:101640004FF0020918F5FA7F16DA4FEACA70002F38
:10165000706008DD012007E04FEACA70C6E900B0FB
:101660000FB0BDE8F08F00203060FEF795FEC0F8A7
:1016700000901821084616E0B8F5FA7F18DD002F13
:1016800002DAF748784401E0F6487844D0E90010DF
:10169000C6E9001040EACA707060FEF77DFEC0F82F
:1016A0000090142108460FB0BDE8F04F05F090B847
:1016B000002108464FF00000B8F10001099002DA5D
:1016C000C7F1000200E03A4601DAC8F1000106A8BD
:1016D00000F0DCF906AB93E8070003AB83E80700F2
:1016E00044F23E005BEA04010090584604D144F203
:1016F0001E012C465D460091210C0904014306D1D0
:101700000099240444EA15442D041039009104F092
:101710007F41014306D10099240244EA15642D0259
:101720000839009104F07041014306D10099240169
:1017300044EA15742D01091F009104F04041014352
:1017400006D10099A40044EA9574AD00891E009169
:1017500004F00041084304D100986D196441401E13
:1017600000904FF001033A466846B8F1000FCDE90A
:10177000014503A902DD00F046FF01E000F019FF7A
:10178000BAF1000F04460D4601D084F00044002158
:1017900008464FF00000099940F2FF77484010F0EA
:1017A0000C0F07D124F00040284303D0C4F30A50A3
:1017B000B84212D1FEF7F0FDC0F80090C4F30A5011
:1017C000B8420AD1A8487844D0E90010C6E9001010
:1017D00004F000410843706042E7C6E900543FE767
:1017E0002DE9FF4F1F464FF0000A4FF0FF384546E6
:1017F00091B0D7E90146CDF83CA0FFF779FEC0686B
:101800000168405C1090B96912986D1C8847396A6C
:10181000814688470028F6D1B9F1FF3F0AD0002E53
:1018200024F4D06411DDB9F12B0F08D0B9F12D0FDC
:101830000BD102E0404615B013E744F48064B96967
:1018400012986D1C8847761E8146600504A901D553
:101850002D2000E02B20002E01F1010B0DF13008AE
:101860008DF810003FDDB9F1690F08D0B9F1490FCB
:1018700005D0B9F16E0F02D0B9F14E0F1CD13B4625
:1018800001A8009580E85002DDE912126FF0020015
:1018900005F009F8C11CCED10EE0B96912986D1C93
:1018A000884781461398761E44F4007405600F98AB
:1018B000401C002E0F9016DDB9F1300FEDD0B9F1BC
:1018C000780F02D0B9F1580F0DD10F9801280AD125
:1018D0003B46CDE90054DDE91212001F029604F0E8
:1018E000E0FFC11CA7D1109989453ED144F0800486
:1018F00006E01399681CAAF1010A44F40074086018
:10190000B9696D1C1298761E884730288146F0D040
:101910002BE01099894505D1200603D4761E44F0AA
:10192000800418E0484604F0BEFB08B3761E0DF1B3
:1019300023018B4544F4007408D2A9F130000BF860
:10194000010B200607D5AAF1010003E0200602D40E
:101950000AF101008246A00502D51399681C0860AF
:10196000B96912986D1C88478146002ED1DC53E07E
:10197000002E51DDB9F1650F02D0B9F1450F4BD101
:10198000A00549D5B9696D1C1298761E24F44074DF
:101990008847002E81460CDD2B2804D0B9F12D0F8D
:1019A00007D144F48074B96912986D1C8847761E7B
:1019B0008146E00501D52D2100E02B2108F8011B0F
:1019C000CDF8008021E0761E0DF13901884544F400
:1019D00000740CD2A9F1300010F0FF0088F800006C
:1019E00002D10099884509D908F1010806E0E0050F
:1019F00001D51E4801E042F20F708246B969129883
:101A00006D1C8847814613980560002E04DD48460A
:101A100004F049FB0028D6D1F96912988847FF20C5
:101A200053468BF8000088F8000000200A900B90C5
:101A300004AA0CA90AA8FFF7ADFDA00502D46FF017
:101A40000100F8E614F0240F12D0E0071CD138682A
:101A5000DDE90A12031D3B600068C0E9001213E0D3
:101A60001062000002620000C6600000F1D8FFFFB3
:101A70000AA9684604F0A6FAE00705D13868009A7A
:101A8000011D3960006802602846D4E62DE9F04760
:101A9000814616468AB0354878440DC88DE80D0059
:101AA00032487844801C03AC0DC884E80D0041F630
:101AB0009B300844372190FBF1F290FBF1F5A5F142
:101AC000800501FB12041B3C02D56442012000E0AA
:101AD0000020DFF898A080460027FA44AAF1BE0A49
:101AE0000EE0E0070AD03246684607EB47010123C3
:101AF0000AEB810100F072FD8DE8070064107F1C85
:101B0000002CEED1194F7F44AE3F19E0E80715D005
:101B100007EB04100DF1180A90E80E008AE80E0099
:101B2000C068F04201D1981908903246012306A9F5
:101B300003A800F053FD03AB83E807006D10641C9D
:101B4000002DE3D14FF0010332466946B8F1000F92
:101B500003A802D000F018FD01E000F03FFDC9E944
:101B60000001C9F808200AB0BDE8F087BC5D00009C
:101B700010B50446AFF300802046BDE81040FEF7E4
:101B800052BB00002DE9FF4F1F464FF03C0987B0C4
:101B90004FF00042DDE9141001F10108DDF858A012
:101BA00002EA405003900020059083460546044613
:101BB0000490B969461E08988847AAF1010A029064
:101BC000BAF1000F3BDD02982E2815D01021FFF747
:101BD000D3FC00282EDB4FF0010B0599014317D0F1
:101BE000B9F1000F0BDB4A46C11700F0FBF90543C2
:101BF0000C43A9F1040905E0012004900BE008B1B1
:101C000045F0010501200590049820B9361D02E039
:101C1000049800B1361FB969089808F1010888478F
:101C2000BBF1000FAAF1010A0290C9D00999C1F8CD
:101C30000080C5E70298702808D0502806D0F969BE
:101C400008988847BBF1000F14D04FE000200290A5
:101C50000120BBF1000F049009D0B969089808F180
:101C600001088847AAF10109B9F1000F07DCF969F9
:101C7000089888476FF001000BB0BDE8F08F2B2863
:101C800004D02D280CD14FF0FF300490B96908988A
:101C900008F101088847A9F10109B9F1000FE6DD53
:101CA000411CE4D00A21FFF767FC0028DFDB029922
:101CB00008F1010801EB810100EB41000290B969D4
:101CC000089888470A21FFF757FC099AA9F10109EA
:101CD000B9F1000FC2F8008001DD0028E7DAF969E8
:101CE000089888470499029800FB016655EA0400A9
:101CF00004D004F04041090002D006E0039898E0C7
:101D0000A40044EA9574AD00B61E04F0004108003A
:101D100002D16D196441761E159810F0240F03D07E
:101D20004FF00B095C4803E04FF028096FF07D008D
:101D30008246564507DAAAEB06018944B9F1410FFC
:101D400001DD4FF0410901200021A9F1010200F05D
:101D500049F9024628400B462140084301D00121A1
:101D600000E00021501E029143F1FF312840214044
:101D7000084301D0012000E000200299834651EA87
:101D80000B014FD0002108464FF00000039900F4EA
:101D9000400039B100EB80004FF4400100EBD070FF
:101DA00001EA60008015012802DD4FF0FF3000E0FD
:101DB00013D0401C36D0029860B3BBF1000F0CD199
:101DC0004A460120002100F00DF928402140084337
:101DD00001D0012000E00020E0B101204A460021AE
:101DE00000F000F9034640190A4661412D1A8C4162
:101DF00011D3B9F1400F09DD159810F0240F02D06E
:101E0000AAF1340603E0AAF1170600E0761C0025CB
:101E10004FF0004406E05B1E42F1FF3220EA03056A
:101E200021EA0204CAF10100B04206DA1B49039814
:101E300008430190002000900EE0039AC4F3D321E0
:101E4000E80A0A43164940EA44500A433146CDE9BC
:101E50000002684604F01CF9159810F0240F0BD00E
:101E60001598C00715D13868DDE90012031D3B60E5
:101E70000068C0E900120CE002A8694604F0A2F86C
:101E80001598C00705D13868029A011D39600068AD
:101E900002604046F0E6000002FCFFFF0000F07F19
:101EA0000000F03F2DE9FF4F92461D4685B04FF0F0
:101EB0000041DDE9124BDDE914727F1E01EA4B504F
:101EC000414940F0FF4940EA0108002122F020008A
:101ED0004928049102D04E2828D04CE03BA001268E
:101EE00007C88DE80700A9690698641C88477F1E0B
:101EF000014606D41DF8060018B121F020018142E8
:101F00000BD0E96906988847032E34D0082E32D0CA
:101F10006FF0010009B0BDE8F08F761C032E01D0F0
:101F2000082EE0D1601CCAF80000DCE7A969069819
:101F3000641C88477F1E2AD420F02000412826D127
:101F4000A9690698641C88477F1E20D420F02000D1
:101F50004E281CD1A9690698641C88477F1E48F446
:101F6000002849F48009CAF8004001D4282806D086
:101F7000E969069888475FEACB7012D022E0A96928
:101F80000698641C88477F1E01D4002803DAE9699B
:101F900006988847BCE72928F1D1641CCAF800409C
:101FA000E9E71BF0240F07D028680499031D2B6074
:101FB0000068C0E9001805E02868021D2A60006872
:101FC000C0F800902046A5E70000F07F494E464942
:101FD0004E4954590000000001491820ABBEFEE7ED
:101FE00026000200B2F120030AD5C2F1200301FA53
:101FF00002F120FA03F300FA02F041EA030170470C
:1020000000FA03F14FF00000704770475FEA400CA0
:1020100008BF91F0000F4FEA8C234FEAC12243EA38
:1020200051514FEA1C5018BF00F5F0404FEA300004
:1020300018BF41F000415FEA6C5C00F02980BCF100
:10204000FF3F08BF40F080407047130C06BF1204EA
:102050004FF0100C4FF0000C130E04BF12020CF1E5
:10206000080C130F04BF12010CF1040C930F04BFF2
:1020700092000CF1020CD30F04BF52000CF1010CC2
:1020800011464FF00002A0F11F00A0EB0C007047BA
:1020900011F0004F08BF704731F000413FF4D5AF59
:1020A0000B0C06BF09044FF0100C4FF0000C0B0E88
:1020B00004BF09020CF1080C0B0F04BF09010CF15D
:1020C000040C8B0F04BF89000CF1020CCB0F04BF72
:1020D00049000CF1010CCCF12003A0EB0C0022FA1A
:1020E00003F302FA0CF241EA030100F10100704728
:1020F00020F07F4C80EA030023F07F47ACEB07031E
:1021000003F57C5300F0004003F1FF032DE9804903
:102110004FEA154B09B44FEA144325EA0B4E24EA63
:1021200003480FF2042606EB132749083E785FEABE
:10213000320203FB0667C7F5000707FB06F64FEA06
:1021400054374FEAD64606F1020607FB066CCCF17F
:10215000005C4FEA1C472CEA074C07FB06F40CFB1B
:1021600006F504EB15464FEA961634BF00204FF0F3
:1021700000404FEAD13706FB07FC4FEA1C4C0CFB32
:102180000BF7D21B03FB0CF761EB07010CFB0EF7FF
:10219000B0EB074072EB17420CFB08F734BFA2EB21
:1021A0000742B2EB074261EB17414FEA0C444FEA9A
:1021B000910706FB07FC4FEA1C4C0CFB0BF7B0EB3E
:1021C000C74072EB573203FB0CF734BFA2EBC74298
:1021D000B2EBC74261EB57310CFB0EF7B0EBC70017
:1021E00072EB57720CFB08F734BFA2EBC702B2EBDD
:1021F000C70261EB5771039F4FEA816141EA921177
:1022000004EBCC044FEAD1374FEA826206FB07FCAD
:1022100042EA90124FEA80604FEA1C4C0CFB0BF72D
:10222000D21B03FB0CF761EB07010CFB0EF7B0EBC5
:10223000074072EB17420CFB08F734BFA2EB0742D2
:10224000B2EB074261EB17414FEA8C554FEA910719
:1022500004EB9C2406FB07FC4FEA1C4C0CFB0BF721
:10226000B0EBC74072EB573203FB0CF734BFA2EB65
:10227000C742B2EBC74261EB57310CFB0EF7B0EB34
:10228000C70072EB57720CFB08F734BFA2EBC70212
:10229000B2EBC70261EB577115EB4C254FEA816138
:1022A00041EA92114FEA82624FEAD13742EA901234
:1022B00006FB07FC44F100044FEA80604FEA1C4C27
:1022C0000CFB0BF7D21B03FB0CF761EB07010CFBBC
:1022D0000EF7B0EB074072EB17420CFB08F734BF68
:1022E000A2EB0742B2EB074261EB174115EB1C155D
:1022F0004FEA813141EA92414FEA823242EA90420A
:102300004FEA80304FEA0C7644F1000448EA034378
:102310004EEA0B484FF0000EB2EB080C71EB0307CE
:1023200024BF624639464EEB0E0E4FF0000B0018EC
:10233000524149414BEB0B0BB2EB080C71EB03071D
:102340007BF1000B24BF624639464EEB0E0E4FF078
:10235000000B0018524149414BEB0B0BB2EB080C40
:1023600071EB03077BF1000B24BF624639464EEB4D
:102370000E0E51EA020718BF46F0010616EB0E7664
:1023800055F1000254F1000103D5BDE88901BDE813
:102390000088BDE88901BDE80048B619524141EB0B
:1023A0000101A3F10103704780807F7E7D7C7B7AF1
:1023B0007978777676757473727171706F6E6E6DF1
:1023C0006C6C6B6A6A696868676666656464636397
:1023D00062616160605F5F5E5E5D5D5C5C5B5B5A1D
:1023E0005A5959585857575656555555545453538A
:1023F00052525251515050504F4F4F4E4E4D4D4DE5
:102400004C4C4C4B4B4B4A4A4A494949484848472F
:10241000474747464646454545444444444343436D
:10242000434242424241414146EA0646A3F57053C7
:102430004FEA164646EA42564FEAD22242EA415253
:1024400010B54FEAD121A3F1010300F02FF820F0DD
:10245000004000F1020C00F0004701EB0050114673
:10246000BCF5006F40EA070000D210BDBAF1000FC2
:102470000AD01CB503B44FF004004FF004014FF034
:1024800000000FBCBDE810404FF00001BBF1010F90
:10249000B9BF04484FF0FF310348002140EA07006C
:1024A00010BD00BFFFFFEF7F0000F07F002B9C46B8
:1024B00030D477002BD01CB54FEA370703B44FF068
:1024C00010004FF01001BAF1000F06D0BCF1000F60
:1024D000DCBF40F0080040F008014FF000000FBCE6
:1024E000BDE810400BF1010BBBF1010F08BF5FEA23
:1024F000170722BF12F1010211F101014FF0004153
:1025000043F1000300F0004043EA00007047F9D3B4
:102510005708D0E746EA064613F1400F4FEA164641
:102520001FDD13F1200FDFBF16430A4600212033C1
:102530005B42BED0C3F1200746EA064602FA07F71F
:102540004FEA164646EA0706C3F1200722FA03F2CD
:1025500001FA07F721FA03F14FF0000342EA0702FC
:10256000A7E746EA020646EA06464FEA164646EA64
:102570000106BCBF46EA0646360C4FF000034FF09A
:1025800000024FF0000194E72DE9804C9A469346F3
:1025900070B491E8380007C831EA400C48BF34EA0B
:1025A000430C03D5FFF7A4FDFFF780FFF0BCBDE8A7
:1025B000008C2DE9804C9A46934670B491E838001F
:1025C00007C831EA400C48BF34EA430C03D5FFF793
:1025D0008FFDFFF729FFF0BCBDE8008C2DE9804C92
:1025E0009A46934670B491E8380007C810F0804FBF
:1025F00008BF13F0804F03D100F01AF8FFF756FF21
:10260000F0BCBDE8008C2DE9804C9A46934670B42E
:1026100091E8380007C810F0804F08BF13F0804FD2
:1026200003D100F005F8FFF7FFFEF0BCBDE8008C19
:1026300020F07F4780EA030023F07F4C07EB0C0378
:10264000A3F57C5300F00040A3F1FE0392F0000FCD
:1026500000F0B38095F0000F00F077802DE901497C
:102660004FEA11404FEA144621EA004800FB06FCFD
:1026700024EA064708FB06F607FB08F800FB07F705
:1026800018EB06484CEB164C4FEA124B18EB074878
:102690004FEA15464CEB174022EA0B4E0BFB06FCAB
:1026A00025EA06470EFB06F607FB0EFE0BFB07F7B7
:1026B0001EEB064E4CEB164C4FF000061EEB074E81
:1026C0004CEB174B18EB0B0840F1000018EB0E0B0E
:1026D00058EB000840F100008F1A4FF000013CBF9A
:1026E000C943661B14BFB5EB040C00213CBFC943B2
:1026F000F61B4FEA17444EEA8E0E27EA04454FEACE
:102700001C4704FB07622CEA074C05FB07F70CFB90
:1027100005F604FB0CFC16EB074642EB174216EBE2
:102720000C4642EB1C421BEB060658EB02024141F1
:1027300046EA9E0601D5BDE80189B619524141EB32
:102740000101A3F10103BDE801894FEA14454FEAF5
:10275000114724EA054621EA074C05FB07F406FB6E
:1027600007F70CFB06F105FB0CFC11EB074144EBF2
:1027700017444FEA124711EB0C4144EB1C4422EA88
:10278000074C05FB07F206FB07F70CFB06F605FBFB
:102790000CFC16EB074642EB174216EB0C4642EBDD
:1027A0001C456A1854F1000148BF7047B6195241E0
:1027B00041EB0101A3F10103704795F0000F37D001
:1027C0004FEA11424FEA144721EA024624EA074C35
:1027D00002FB07F106FB07F70CFB06F402FB0CFCFF
:1027E00014EB074441EB17414FEA154714EB0C4437
:1027F00041EB1C4125EA074C02FB07F506FB07F7F6
:102800000CFB06F602FB0CFC16EB074645EB1745E6
:1028100016EB0C4645EB1C42121951F1000148BF62
:102820007047B619524141EB0101A3F10103704712
:102830004FEA14454FEA114724EA054621EA074CBE
:1028400005FB07F106FB07F70CFB06F24FF000064D
:1028500005FB0CFC12EB074241EB174112EB0C425B
:1028600051EB1C4148BF7047921841EB0101A3F1A5
:102870000103704710B501221146252000F018FE13
:10288000252000F005FE01220249034801F0A4FFC3
:1028900010BD000043000020CC0100200FB400B5A3
:1028A0009BB01DA8019002A8019A1C99FDF7E2FCBB
:1028B0000020019002A800F00FF81BB05DF814FB97
:1028C00001B54FF0FF3301226946024801F0EAFFEB
:1028D00008BD0000CC01002070B50446002504E0CE
:1028E000605DFFF7EDFF681C85B2605D0028F7D1E1
:1028F00070BD00BFFEE7000010B5024800F0A0F870
:1029000010BD00005C020020704700000449096807
:10291000496A08B20021024A1268516270470000F9
:102920008401002010B53C21014801F0C1FB10BD1D
:102930008401002072B600BFFEE70146002291F834
:102940002100022808D00420886300BF002081F8FD
:10295000200000BF012070470868006820F00E00CA
:102960000B6818600868006820F001000B681860A8
:1029700091F8403001209840CB6B5860012081F8DD
:10298000210000BF002081F8200000BF1046E2E7D0
:1029900070B50446002594F82100022803D00420D5
:1029A000A063012548E02068006820F00E0021683F
:1029B00008602068006820F00100216808601F4955
:1029C0002068884201D1012026E01C49143120688A
:1029D000884201D110201FE0184928312068884220
:1029E00001D1801518E015493C312068884201D199
:1029F000801411E0114950312068884202D14FF40F
:102A0000803009E00D4964312068884202D14FF4DA
:102A1000801001E04FF080700849083948600120BB
:102A200084F8210000BF002084F8200000BF606B04
:102A300010B12046616B8847284670BD08000240EF
:102A400070B50446E06B05682068066894F840108D
:102A5000042088402840002846D006F004000028C2
:102A600042D02068006800F0200028B92068006883
:102A700020F004002168086057492068884201D18D
:102A8000042027E0544914312068884201D14020B5
:102A900020E0514928312068884201D1001519E011
:102AA0004D493C312068884202D14FF4804011E00A
:102AB000494950312068884202D14FF4802009E012
:102AC000454964312068884202D14FF4800001E01A
:102AD0004FF08060404908394860E06A00287AD0A9
:102AE0002046E16A884776E094F84010022088404A
:102AF0002840A0B306F0020088B32068006800F008
:102B0000200040B92068006820F00A0021680860B1
:102B1000012084F8210030492068884201D1022038
:102B200028E02D4914312068884201D1202021E07D
:102B3000294928312068884201D140151AE02649E8
:102B40003C312068884202D14FF4005012E0224903
:102B500050312068884203D14FF400300AE017E07A
:102B60001D4964312068884202D14FF4001001E011
:102B70004FF0007018490839486000BF002084F801
:102B8000200000BFA06A30B32046A16A884722E037
:102B900094F84010082088402840E0B106F0080072
:102BA000C8B12068006820F00E002168086094F821
:102BB000401001208840E16B48600120A06384F848
:102BC000210000BF002084F8200000BF206B10B15E
:102BD0002046216B884770BD080002400146002254
:102BE00009B901207047164B0868C01A1423B0FBBE
:102BF000F3F08000086412480838C863022081F8A6
:102C000021000868026843F6F0708243D1E90103AD
:102C10001843CB6818430B6918434B6918438B69F9
:102C20001843CB6918430243086802600020886398
:102C3000012081F82100002081F8200000BFD1E7A9
:102C4000080002402DE9F8470346002294466EE151
:102C50004FF0010808FA02F4D1F8008008EA0400F5
:102C6000A0427DD1DFF8DCA2D1F80480A8EB0A09EC
:102C7000D0453AD014DCB8F1030F50D009DCB8F1DC
:102C8000000F31D0B8F1010F1CD0B8F1020F49D1BB
:102C900020E0B8F1110F18D0B8F1120F42D11EE0A8
:102CA000B9F5881F25D006DCB9F5803F20D0B9F5ED
:102CB000801F37D11AE0B9F5001F18D0B9F5041FED
:102CC00030D117E0D1F80CC02DE0D1F80C8008F11C
:102CD000040C28E0D1F80C8008F1080C23E0D1F8AE
:102CE0000C8008F10C0C1EE000BF00BF00BF00BF4D
:102CF00000BF00BFD1F80880B8F1000F02D14FF03B
:102D0000040C0BE0D1F80880B8F1010F03D14FF0AB
:102D1000080C1C6102E04FF0080C5C6103E04FF00E
:102D2000000C00E000BF00BFFF2801D8984601E07A
:102D300003F104084646FF2802D84FEA820803E060
:102D4000A2F108084FEA88084746D6F800804FF0FD
:102D50000F0909FA07F928EA09080CFA07F900E04F
:102D600088E048EA0908C6F80080D1F8048008F035
:102D70008058B8F1805F7DD100BFDFF8CC81D8F8F2
:102D8000188048F00108DFF8C091C9F81880C846DB
:102D9000D8F8188008F00108CDF8008000BF00BF07
:102DA0004FEAB9384FEA920958F829504FEA827829
:102DB0004FEA18794FF00F0808FA09F825EA0805D4
:102DC000DFF88881434502D14FF0000816E0DFF8B4
:102DD0008081434502D14FF001080FE0DFF8748194
:102DE000434502D14FF0020808E0DFF86C8143450B
:102DF00002D14FF0030801E04FF004084FEA827956
:102E00004FEA197908FA09F848EA0505DFF84C8114
:102E10004FEA920948F82950D1F8048008F4801844
:102E2000B8F5801F0AD1DFF83881D8F8008048EA69
:102E30000008DFF82C91C9F8008009E0DFF8208154
:102E4000D8F8008028EA0008DFF81491C9F800805B
:102E5000D1F8048008F40018B8F5001F10D1DFF88D
:102E6000008108F10408D8F8008048EA0008DFF87B
:102E7000F09000E05AE009F10409C9F800800DE083
:102E8000DFF8DC8008F10408D8F8008028EA0008A0
:102E9000DFF8CC9009F10409C9F80080D1F804806A
:102EA00008F40038B8F5003F0ED1DFF8B480A8F17F
:102EB0000408D8F8008048EA0008DFF8A490A9F1D7
:102EC0000409C9F800800DE0DFF89480A8F1040837
:102ED000D8F8008028EA0008DFF88490A9F10409F6
:102EE000C9F80080D1F8048008F48038B8F5803F34
:102EF0000ED1DFF86C80A8F10808D8F8008048EA05
:102F00000008DFF85C90A9F10809C9F800800DE01D
:102F1000DFF84C80A8F10808D8F8008028EA0008FB
:102F2000DFF83C90A9F10809C9F80080521CD1F8DB
:102F3000008028FA02F8B8F1000F7FF489AEBDE8EE
:102F4000F887000000001110001002400008014046
:102F5000000C014000100140001401400800014035
:102F600008040140024693680B400BB1012000E0C9
:102F7000002070470AB1016101E00B040361704752
:102F800001480068704700001800002070B5044632
:102F90000CB9012070BD94F83D0028B9002084F8D8
:102FA0003C00204600F08CF9242084F83D00206885
:102FB000006820F00100216808602068006840F483
:102FC0000040216808602068006820F40040216803
:102FD000086000F08BFB05465C496068884206D8B3
:102FE0005B48854201D2012007E0002005E05948F6
:102FF000854201D2012000E00020012800D1C9E76C
:103000005548B5FBF0F62068406820F03F0030439B
:10301000216848604D496068884201D8701C07E00B
:103020004FF4967070434FF47A71B0FBF1F0401C8E
:103030002168096A21F03F01084321680862434979
:103040006068884214D8681E61684900B0FBF1F0DE
:10305000401CC0F30B00042801D204203DE0681E90
:1030600061684900B0FBF1F0401CC0F30B0034E094
:10307000A06838B9681E616801EB4101B0FBF1F04E
:10308000401C0AE0681E616801EBC10202EB0111FD
:10309000B0FBF1F0401C40F48040C0F30B0008B9D5
:1030A00001201AE0A06848B9681E616801EB41017F
:1030B000B0FBF1F0401CC0F30B000CE0681E61682F
:1030C00001EBC10202EB0111B0FBF1F0401CC0F3B7
:1030D0000B0040F4804040F400402168C9694CF680
:1030E000FF72914308432168C861D4E9070108438E
:1030F0002168096821F0C001084321680860D4E90B
:10310000031008432168896848F2FF32914308435D
:1031100021688860D4E9050108432168C96821F065
:10312000FF0108432168C8602068006840F0010082
:103130002168086000202064202084F83D000020E1
:10314000206384F83E0000BF24E70000A086010051
:1031500080841E0000093D0040420F002DE9FC5F05
:1031600004460F4690469946DDE90CAB0E9EFFF7EC
:1031700007FF054694F83D0020287DD11923012240
:103180004D492046009501F0B2FC10B10220BDE887
:10319000FC9F00BF94F83C00012801D10220F6E713
:1031A000012084F83C0000BF2068006800F00100A6
:1031B00028B92068006840F0010021680860206894
:1031C000006820F4006021680860212084F83D0038
:1031D000402084F83E0000202064C4F824A0A4F815
:1031E0002AB0608D20853548E0624B46424639461C
:1031F0002046CDE9006501F0D7FB08B10120C6E704
:1032000031E02A463146204601F04DFD50B1206C98
:10321000042805D12068006840F400702168086027
:103220000120B4E7606A007821680861606A401C88
:103230006062208D401E2085608D401E6085206864
:103240004069C0F3800070B1208D60B1606A007881
:1032500021680861606A401C6062208D401E2085E4
:10326000608D401E6085208D0028CAD12A463146D7
:10327000204601F009FC00E01CE050B1206C04285D
:1032800005D12068006840F40070216808600120C2
:103290007DE72068006840F4007021680860202005
:1032A00084F83D00002084F83E0000BF84F83C0014
:1032B00000BF6CE702206AE7020010000000FFFF79
:1032C00010B586B00446002002900390049005904B
:1032D0003049206888422FD100BF2F48806940F0D4
:1032E00008002D4988610846806900F008000190B7
:1032F00000BF00BF4FF440700290122003900320E3
:10330000059002A92548FFF79DFC00BF24494868A5
:1033100040F0E06040F00200486000BF00BF1E487F
:10332000C06940F400101C49C8610846C06900F437
:103330000010019000BF2AE01A492068884226D177
:1033400000BF1548806940F00800134988610846AD
:10335000806900F00800019000BF00BF4FF440609A
:103360000290122003900320059002A90B48FFF75A
:1033700069FC00BF0848C06940F480000649C86184
:103380000846C06900F48000019000BF00BF06B08D
:1033900010BD00000054004000100240000C01402D
:1033A00000000140005800400348006803490978C4
:1033B00008440149086070471800002020000020E0
:1033C00010B50848006840F0100006490860032066
:1033D00000F0ACF80F2000F007F800F02BF8002008
:1033E00010BD00000020024070B504460E48007871
:1033F0004FF47A71B1FBF0F00C490968B1FBF0F5BC
:10340000284600F0FDFB08B1012070BD102C07D24A
:1034100000222146501E00F04BF80548046001E0F0
:103420000120F2E70020F0E7200000202400002027
:103430001C00002008B500BF1348806940F001005F
:10344000114988610846806900F00100009000BFC2
:1034500000BF00BF0846C06940F08050C861084600
:10346000C06900F08050009000BF00BF052000F050
:103470005DF800BF0549486820F0E06040F000704A
:10348000486000BF08BD000000100240000001407D
:1034900001460846002809DB00F01F0301229A407C
:1034A00043099B0003F1E023C3F8002100BF7047EC
:1034B0002DE9F05F80460D461646002702F056FDC6
:1034C000074639462A46334601F00700C0F1070A8D
:1034D000BAF1040F02D94FF0040A01E0C0F1070A63
:1034E000D14600F1040ABAF1070F02D24FF0000AE8
:1034F00001E0A0F1030AD4464FF0010A0AFA09FAE2
:10350000AAF1010A0AEA020A0AFA0CFA4FF0010BC0
:103510000BFA0CFBABF1010B0BEA030B4AEA0B04B1
:103520002146404602F02AFDBDE8F09F00BF00F0B2
:103530000702064B19684FF6FF031940044B0B4373
:1035400043EA0221014B196000BF70470CED00E017
:103550000000FA0570B504460D460CB9012070BD97
:103560005A48006800F00700A8420ED25748006889
:1035700020F007002843554908600846006800F01D
:103580000700A84201D00120E9E7207800F00200FE
:1035900002281DD1207800F00400042805D14C48F1
:1035A000406840F4E0604A494860207800F0080034
:1035B000082805D14648406840F4605044494860B6
:1035C0004348406820F0F000A16808434049486043
:1035D000207800F0010078B36068012806D13C48EB
:1035E000006800F4003090B90120B8E76068022854
:1035F00006D13748006800F0007040B90120AEE7FE
:103600003348006800F0020008B90120A7E73048FD
:10361000406820F00300616808432D494860FFF7C7
:10362000AFFC064609E0FFF7ABFC801B41F2883196
:10363000884202D9032092E707E02548406800F05D
:103640000C006168B0EB810FEDD12048006800F0FC
:103650000700A8420ED91D48006820F00700284343
:103660001A4908600846006800F00700A84201D027
:10367000012074E7207800F00400042807D11448E2
:10368000406820F4E060E168084311494860207810
:1036900000F00800082808D10D48406820F4605068
:1036A000216940EAC1000A49486000F03FF8084932
:1036B0004968C1F30311074A515CC84006490860D4
:1036C00006480068FFF790FE002048E7002002400F
:1036D00000100240EC680008240000201C000020BC
:1036E00001480068704700002400002000B5FFF783
:1036F000F7FF04494968C1F30221034A515CC840FD
:1037000000BD000000100240FC68000800B5FFF793
:10371000E7FF04494968C1F3C221034A515CC8402C
:1037200000BD000000100240FC68000870B50021D8
:103730000022002400230020134D696801F00C05CD
:10374000F5B1042D02D0082D19D101E00F4819E080
:103750000F4DC1F38346AB5D01F4803555B10A4D81
:103760006D68C5F340450B4E725D084D5D43B5FB7A
:10377000F2F402E0084D03FB05F4204602E000BF2E
:10378000024800BF00BF70BD0010024000127A0066
:10379000DA680008EA68000800093D00F8B5044648
:1037A0000CB90120F8BD207800F00100002878D085
:1037B000F848406800F00C0004280CD0F548406838
:1037C00000F00C00082811D1F248406800F4803065
:1037D000B0F5803F0AD1EF48006800F400300028BF
:1037E0005FD0606800285CD10120DBE700BF606823
:1037F000B0F5803F06D1E748006840F48030E549E5
:10380000086028E0606858B9E248006820F4803019
:10381000E04908600846006820F4802008601AE04B
:103820006068B0F5A02F0BD1DA48006840F4802022
:10383000D84908600846006840F4803008600AE013
:10384000D448006820F48030D249086008460068F7
:1038500020F48020086000BF606888B1FFF790FB0B
:10386000054606E0FFF78CFB401B642801D90320C6
:1038700098E7C848006800F400300028F2D010E053
:10388000FFF77EFB054606E0FFF77AFB401B642846
:1038900001D9032086E7BF48006800F40030002803
:1038A000F2D1207800F00200022857D1B9484068D0
:1038B00000F00C0050B1B748406800F00C00082838
:1038C00018D1B448406800F4803098B9B148006815
:1038D00000F0020020B12069012801D0012061E739
:1038E000AC48006820F0F800616940EAC100A949CD
:1038F000086033E02069E8B10120A7490860FFF7BC
:103900003FFB054606E0FFF73BFB401B022801D9C1
:10391000032047E79F48006800F002000028F2D02B
:103920009C48006820F0F800616940EAC1009949AC
:10393000086013E0002098490860FFF721FB054666
:1039400006E0FFF71DFB401B022801D9032029E7F1
:103950009048006800F002000028F2D1207800F0C2
:10396000080008282DD1A069B8B101208B49086052
:10397000FFF706FB054606E0FFF702FB401B0228A7
:1039800001D903200EE78348406A00F002000028B6
:10399000F2D0012002F006F813E000207F49086011
:1039A000FFF7EEFA054606E0FFF7EAFA401B0228A9
:1039B00001D90320F6E67748406A00F002000028AB
:1039C000F2D1207800F00400042873D10027714858
:1039D000C06900F0805070B900BF6E48C06940F007
:1039E00080506C49C8610846C06900F08050009062
:1039F00000BF00BF01276A48006800F48070B0B9BA
:103A00006748006840F4807065490860FFF7B8FABD
:103A1000054606E0FFF7B4FA401B642801D90320ED
:103A2000C0E65F48006800F480700028F2D000BF54
:103A3000E068012806D15748006A40F00100554966
:103A4000086227E0E06858B95248006A20F0010097
:103A5000504908620846006A20F00400086219E034
:103A6000E06805280BD14B48006A40F00400494942
:103A700008620846006A40F0010008620AE0454812
:103A8000006A20F00100434908620846006A20F0FD
:103A90000400086200BFE068A0B1FFF771FA0546B4
:103AA00009E0FFF76DFA401B41F28831884202D9E4
:103AB000032077E622E03748006A00F00200002881
:103AC000EFD012E0FFF75CFA054608E0FFF758FA7E
:103AD000401B41F28831884201D9032062E62D481B
:103AE000006A00F002000028F0D1012F05D129481A
:103AF000C06920F080502749C86100BFE069C8B3A1
:103B00002448406800F00C00082860D0E0690228D2
:103B100048D1002020490866FFF732FA054606E042
:103B2000FFF72EFA401B022801D903203AE6194874
:103B3000006800F000700028F2D1206AB0F5803FE4
:103B400007D11448406820F40030A16808431149A7
:103B50004860D4E9080108430E49496821F474110A
:103B600008430C49486001200B490866FFF708FA32
:103B7000054607E03DE0FFF703FA401B022801D9A4
:103B800003200FE60348006800F000700028F2D020
:103B90002FE0000000100240000042428004424238
:103BA00000700040002014490866FFF7E9F9054657
:103BB00006E0FFF7E5F9401B022801D90320F1E5F3
:103BC0000E48006800F000700028F2D111E0E069B2
:103BD000012800D1E6E50948466806F48031206AEC
:103BE000814204D106F47011606A814201D0012043
:103BF000D8E50020D6E50000000042420010024057
:103C000070B504462546681EB0F1807F01D30120BF
:103C10000FE0681E4FF0E02148610F214FF0FF30A8
:103C200002F0ACF900204FF0E02188610720086124
:103C3000002070BD7047704730B502460B4600BF8C
:103C400092F83C00012801D1022030BD012082F809
:103C50003C0000BF022082F83D00106844681068F4
:103C6000816824F070041868044310684460104DA3
:103C70001068A8420BD01068B0F1804F07D00D4DEE
:103C80001068A84203D00C4D1068A84205D121F05D
:103C900080015868014310688160012082F83D006E
:103CA00000BF002082F83C0000BF00BFCDE700004D
:103CB000002C0140000400400008004010B50446FC
:103CC0000CB9012010BD94F83D0028B9002084F8FB
:103CD0003C00204600F026F8022084F83D00211D1B
:103CE000206801F0B5FE012084F8460000BF84F88A
:103CF0003E0001213F200155402001554120015542
:103D000000BF00BF012084F8420043200155442039
:103D100001554520015500BF012084F83D000020D9
:103D2000D0E7000038B5044616492068884216D10D
:103D300000BF1548806940F4006013498861084657
:103D4000806900F40060009000BF00BF01221146AE
:103D50001920FFF7ADFB1920FFF79AFB11E020684F
:103D6000B0F1804F0DD100BF0748C06940F001009D
:103D70000549C8610846C06900F00100009000BF15
:103D800000BF38BD002C014000100240014691F8F0
:103D90003D00012801D001207047022081F83D003C
:103DA000124B086898420BD00868B0F1804F07D0DA
:103DB0000F4B0868984203D00E4B086898420CD10C
:103DC0000868806800F00702062A0CD008680068BE
:103DD00040F001000B68186005E00868006840F0DA
:103DE00001000B6818600020D6E70000002C01409D
:103DF0000004004000080040014691F83D00012801
:103E000001D001207047022081F83D000868C06899
:103E100040F001000B68D860124B086898420BD044
:103E20000868B0F1804F07D00F4B0868984203D064
:103E30000E4B086898420CD10868806800F00702B1
:103E4000062A0CD00868006840F001000B68186072
:103E500005E00868006840F001000B681860002069
:103E6000D0E70000002C01400004004000080040A2
:103E70002DE9F04104460D46002700BF94F83C00B0
:103E8000012802D10220BDE8F081012084F83C0025
:103E900000BF022084F83D002068866826F077067F
:103EA00026F47F46206886602868502833D00CDCD2
:103EB000202850D004DC00284BD0102851D149E0F4
:103EC000302849D040284CD139E060282DD07028C6
:103ED00007D0B0F5805F03D0B0F5005F41D10DE0B1
:103EE00041E0D5E902136A68206801F004FE206809
:103EF000866846F077062068866034E0D5E90213CC
:103F00006A68206801F0F7FD2068806840F480400E
:103F10002168886027E0EA686968206801F0FFFD91
:103F20005021206801F0F2FD1DE0EA686968206810
:103F300001F008FE6021206801F0E8FD13E0EA6866
:103F40006968206801F0EBFD4021206801F0DEFD8A
:103F500009E000BF00BF00BF2968206801F0D6FD5E
:103F600001E0012700BF00BF012084F83D0000BF31
:103F7000002084F83C0000BF384684E72DE9F0417A
:103F800004460D4614B90120BDE8F08194F83D00C7
:103F900028B9002084F83C00204600F051F80220A7
:103FA00084F83D002068806844F207018843216856
:103FB0008860211D206801F04BFD2068D0F8088042
:103FC000206886692068076A286840EA080840F285
:103FD00003308643A969A86840EA0120064340F6F9
:103FE0000C4086434FF2F0008643E969E86840EAF6
:103FF0000120064328690001296A40EA013006438E
:1040000027F022076969686840EA011007432068C1
:10401000C0F808802068866120680762012084F863
:10402000460084F83E0001213F200155012084F81C
:10403000420043200155012084F83D000020A3E701
:1040400010B586B0044600200290039004900590BD
:1040500014492068884223D100BF1348C06940F04A
:1040600002001149C8610846C06900F002000190D1
:1040700000BF00BF00BF0846806940F004008861AF
:104080000846806900F00400019000BF00BFC02016
:10409000029000200390049002A90448FEF7D2FD8C
:1040A00006B010BD000400400010024000080140AE
:1040B0002DE9F04304460D4694F83E603F20075D2D
:1040C00094F84280432010F804906DB9012E02D17B
:1040D000B8F1010F02D00120BDE8F083022084F87E
:1040E0003E0084F8420025E0042D0CD1012F02D1BE
:1040F000B9F1010F01D00120EEE702213F20015567
:104100004320015516E0012E07D1012F05D1B8F14A
:10411000010F02D1B9F1010F01D00120DCE702202B
:1041200084F83E0002213F200155022084F842001D
:104130004320015515B1042D0CD105E001220021C9
:10414000206801F0C7FC10E001220421206801F082
:10415000C1FC0AE001220021206801F0BBFC012221
:104160000421206801F0B6FC00BF00BF2068006891
:1041700040F00100216808600020ADE7704770B58D
:1041800004462068C5682068066906F00200022817
:1041900019D105F00200022815D1401F21680861DD
:1041A000012020772068806900F0030018B12046C4
:1041B000FFF7E4FF05E0204600F097F8204600F006
:1041C00095F80020207706F00400042819D105F0A6
:1041D0000400042815D1C04321680861022020771B
:1041E0002068806900F4407018B12046FFF7C6FFD0
:1041F00005E0204600F079F8204600F077F800202E
:10420000207706F00800082819D105F008000828D2
:1042100015D1C04321680861042020772068C06957
:1042200000F0030018B12046FFF7A8FF05E0204684
:1042300000F05BF8204600F059F80020207706F0E7
:104240001000102819D105F01000102815D1C04316
:1042500021680861082020772068C06900F4407058
:1042600018B12046FFF78AFF05E0204600F03DF830
:10427000204600F03BF80020207706F0010048B10E
:1042800005F0010030B16FF001002168086120469F
:1042900000F02EF806F08000802809D105F080009B
:1042A000802805D1C043216808612046FFF7C2FC81
:1042B00006F04000402809D105F04000402805D113
:1042C000C04321680861204600F032F806F0200063
:1042D000202809D105F02000202805D1C0432168FD
:1042E00008612046FFF7A7FC70BD704770470000CB
:1042F00010B504460B492068884212D100F028FD11
:1043000009480088401C0849088008460088B0F524
:104310007A7F06D1FEF7FAFA0449088000200249A4
:10432000088010BD002C0140140000201200002065
:1043300070477047704700002DE9F84F0446206829
:1043400005682068C668206847694FF00009CA46BA
:1043500005F00F09B9F1000F0AD105F0200038B1BE
:1043600006F0200020B1204601F050FCBDE8F88F97
:10437000B9F1000F7BD007F0010018B906F4907076
:10438000002874D005F0010030B106F4807018B137
:10439000606C40F00100606405F0040030B107F08B
:1043A000010018B1606C40F00200606405F002008A
:1043B00030B107F0010018B1606C40F00400606497
:1043C00005F0080048B106F0200010B907F0010020
:1043D00018B1606C40F008006064606C002845D043
:1043E00005F0200028B106F0200010B1204601F0B1
:1043F0000DFC20684069C0F3801A606C00F0080072
:1044000010B9BAF1000F2CD0204601F0B9FB20689A
:10441000406900F0400000B300BF00BF21681431C4
:1044200051E8001F21F040002168143141E80002EA
:10443000002AF3D100BFE06B50B17748E16B4863CD
:10444000E06BFEF7A5FA88B1E06B416B88470DE0A1
:104450002046FFF76FFF09E009E02046FFF76AFFFB
:1044600004E02046FFF766FF002060647EE7206BD3
:10447000012877D105F01000002873D006F0100055
:104480000028FAD000BF002000902068006800904B
:1044900020684068009000BF00BF2068406900F0BD
:1044A000400000285FD0E06B006840681FFA80F889
:1044B000B8F1000F55D0A08D404552DDA4F82E80F4
:1044C000E06B8069202843D000BF00BF21680C3119
:1044D00051E8001F21F4807021680C3141E800028E
:1044E000002AF3D100BF00BF00BF2168143151E89A
:1044F000001F21F001002168143141E80002002A68
:10450000F3D100BF00BF00BF2168143151E8001F84
:1045100021F040002168143141E80002002AF3D163
:1045200000BF202084F842000020206300BF00BFAD
:1045300021680C3151E8001F21F0100021680C3176
:1045400041E80002002AF3D100BFE06BFEF7F5F965
:1045500002206063A08DE28D801A81B22046FFF7B1
:10456000E8FE03E742E0A08DE18D401A1FFA80F8D3
:10457000E08DD0B3B8F1000F37D000BF00BF216885
:104580000C3151E8001F21F4907021680C3141E892
:104590000002002AF3D100BF00BF00BF2168143120
:1045A00051E8001F21F001002168143141E80002A8
:1045B000002AF3D100BF202084F8420000202063AD
:1045C00000BF00BF21680C3151E8001F21F010002E
:1045D00021680C3141E80002002AF3D100BF02201B
:1045E000606341462046FFF7A4FEBFE605F0800069
:1045F00030B106F0800018B1204601F023FCB5E68A
:1046000005F0400030B106F0400018B1204601F03E
:10461000EDFAABE600BFA9E66D5B000810B50446F5
:104620000CB9012010BDA06900B100E000BF94F8F2
:10463000410028B9002084F84000204600F02AF804
:10464000242084F841002068C06820F400502168CC
:10465000C860204601F058FB2068006920F49040B3
:10466000216808612068406920F02A0021684861BB
:104670002068C06840F400502168C8600020606471
:10468000202084F8410084F842000020606300BFCD
:10469000C8E7000010B586B00446002002900390E1
:1046A0000490059046492068884238D100BF4548AB
:1046B000806940F48040434988610846806900F47D
:1046C0008040019000BF00BF00BF0846806940F0F5
:1046D000040088610846806900F00400019000BF72
:1046E00000BF48150290022003900320059002A904
:1046F0003548FEF7A7FA4FF480600290002003903F
:104700000120049002A93048FEF79CFA01221146CC
:104710002520FEF7CDFE2520FEF7BAFE4DE02B4901
:104720002068884249D100BF2648C06940F4003063
:104730002449C8610846C06900F40030019000BFF8
:1047400000BF00BF0846806940F004008861084649
:10475000806900F00400019000BF00BF04200290B7
:10476000022003900320059002A91748FEF76AFA79
:1047700008200290002003900120049002A9124812
:10478000FEF760FA124813490860102048600021C3
:10479000104881608021C1600021016141612021B8
:1047A00081610902C161FEF719FA08B1FEF7C2F88A
:1047B00000BF0848A063446200BF06B010BD0000FF
:1047C0000038014000100240000801400044004051
:1047D000800002405C02002070B504460D4616467B
:1047E00094F8420020280BD105B10EB9012070BD0C
:1047F0000020206332462946204601F003FBF6E7FD
:104800000220F4E710B504461F492068884239D1D8
:104810001E48007868B91E4800785B282DD11D48D5
:10482000007850BB01201949087000201A4908700F
:1048300023E01648007801281FD1154800785D282C
:104840000AD10020114908701449134A127888547B
:1048500001201049087010E00D4800780F490E4AF9
:10486000127888540C480078401C0B4908700846A0
:104870000078632801DB632008700122044908489E
:10488000FFF7AAFF10BD00000038014044000020DF
:10489000430000204200002045000020A006002028
:1048A000CC0100202DE9F84F04460E4617469946E4
:1048B0004FF0000A94F84100202850D106B117B9F2
:1048C0000120BDE8F88F00206064212084F84100B9
:1048D000FEF756FB8246A784E784A068B0F5805FA8
:1048E00004D1206910B90025B04602E035464FF0EA
:1048F00000081EE05346002280212046CDF800909B
:1049000001F0D0FA20B1202084F841000320D8E73C
:1049100045B9B8F80000C0F308002168486008F104
:10492000020803E02878216848606D1CE08C401E76
:10493000E084E08C0028DDD153460022402120464F
:10494000CDF8009001F0AEFA20B1202084F84100AB
:104950000320B6E7202084F841000020B1E70220C0
:10496000AFE7704700BFFEE7014608684069C0F343
:104970008020B0B16FF480600A6850610020086345
:10498000202081F83D00002081F83E00086C40F0B6
:104990000400086400BF002081F83C0000BF012033
:1049A00070470020FCE700002DE9F84304468846E4
:1049B00015469946DDE908672068006840F4807074
:1049C00021680860334600224FF00111204600970D
:1049D00000F08DF860B12068006800F48070B0F5D8
:1049E000807F02D14FF4007020640320BDE8F8837B
:1049F00008F0FE00216808613B4632462149204606
:104A000000F0D4F808B10120F0E700BF00200090CA
:104A100020684069009020688069009000BF00BF56
:104A20003A463146204600F03EF950B1206C042849
:104A300005D12068006840F40070216808600120FA
:104A4000D4E7B9F1010F03D1E8B22168086117E09A
:104A5000C5F30720216808613A463146204600F038
:104A600022F950B1206C042805D12068006840F478
:104A70000070216808600120B8E7E8B22168086189
:104A80000020B3E70200010070B504460D4616464B
:104A900025E02046FFF768FF08B1012070BD681CC3
:104AA000E8B1FEF76DFA801BA84200D8BDB92068B6
:104AB0004069C0F3800090B900202063202084F872
:104AC0003D00002084F83E00206C40F0200020646F
:104AD00000BF002084F83C0000BF0120DEE7206812
:104AE0004069C0F380000028D3D00020D6E72DE92C
:104AF000F04104460D4617461E46DDF8188038E0A2
:104B0000701CA8B3FEF73CFAA0EB0800B04200D836
:104B100076BBC5F3074001280AD120684069A9B2D5
:104B20000840A9B2884201D101200BE0002009E031
:104B300020688069A9B20840A9B2884201D1012049
:104B400000E00020B84214D100202063202084F827
:104B50003D00002084F83E00206C40F020002064DE
:104B600000BF002084F83C0000BF0120BDE8F081B8
:104B7000FFE7C5F3074001280AD120684069A9B2C0
:104B80000840A9B2884201D101200BE0002009E0D1
:104B900020688069A9B20840A9B2884201D10120E9
:104BA00000E00020B842ABD00020DFE72DE9F04163
:104BB00004460D4616461F4658E020684069C0F37B
:104BC0008020E8B12068006840F400702168086027
:104BD0006FF480602168486100202063202084F801
:104BE0003D00002084F83E00206C40F0040020646A
:104BF00000BF002084F83C0000BF0120BDE8F08128
:104C0000701C90B3FEF7BCF9C01BB04200D866BB65
:104C1000C5F3074001280AD120684069A9B20840BD
:104C2000A9B2884201D101200BE0002009E02068F0
:104C30008069A9B20840A9B2884201D1012000E0F0
:104C4000002090B900202063202084F83D0000203F
:104C500084F83E00206C40F02000206400BF00205B
:104C600084F83C0000BF0120C8E7FFE7C5F3074018
:104C700001280AD120684069A9B20840A9B2884237
:104C800001D101200BE0002009E020688069A9B271
:104C90000840A9B2884201D1012000E0002000288C
:104CA0008BD00020AAE770B504460D46164625E0D5
:104CB0002046FFF759FE08B1012070BD681CE8B11D
:104CC000FEF75EF9801BA84200D8BDB92068406994
:104CD000C0F3C01090B900202063202084F83D006C
:104CE000002084F83E00206C40F02000206400BFCB
:104CF000002084F83C0000BF0120DEE72068406906
:104D0000C0F3C0100028D3D00020D6E710B5044669
:104D100034B902210D48FEF725F9A0B9012010BDD4
:104D2000022C06D121030948FEF71CF901280AD1FB
:104D3000F5E7032C07D14FF400410448FEF712F9C0
:104D4000012800D1EBE70020E9E70000000C01405A
:104D500010B50020A349087016E0A348A1490978BE
:104D600030F8110000280ADD9F489E49097830F884
:104D70001100401E9C499B4A127821F81200994864
:104D80000078401C97490870964800780428E4DBB6
:104D900096480078401C9549087008460078142809
:104DA00071DB002008708F49087015E190488D492B
:104DB0000978415C8F488B4A127881548948007881
:104DC000FFF7A4FF8A49874A127888540846854924
:104DD0000978405C01280AD1874882490978405CFB
:104DE00040F0010084497F4A1278885409E08248E3
:104DF0007C490978405C20F001007F49794A1278AB
:104E000088547B4877490978405C01280ED179485D
:104E100074490978405C48B9774872490978405C20
:104E200040F0020174486F4A1278815470486D490D
:104E30000978405C78B96F486A490978405C012874
:104E400009D16D4867490978405C40F004016A481F
:104E5000644A12788154694862490978405C98B97B
:104E6000634860490978405C01280BD14FF4FA602F
:104E70005D495C4A127821F8120001205F49594AC5
:104E800012788854A3E0ACE05C4856490978405C4D
:104E900001282DD1564853490978405C58B9C8209B
:104EA0005149504A127821F81200022053494D4AC4
:104EB000127888548BE04C484A49097830F8110040
:104EC000002814D164204849464A127821F812007B
:104ED000494844490978405C40F020004649414A2D
:104EE00012788854042045493E4A127888546EE06E
:104EF00042483C490978405C02282BD13C4839495A
:104F00000978405C01280FD13B4836490978405C5C
:104F100040F010003849334A12788854032037494A
:104F2000304A1278885452E02F482E49097830F8D8
:104F30001100F8B930482B490978405C40F008006E
:104F40002D49284A1278885400202C49254A127885
:104F500088543CE0294823490978405C03280AD159
:104F6000234820490978405C20B9002023491D4A84
:104F7000127888542BE021481A490978405C0428AB
:104F800025D11B4817490978405C28B900201B49E6
:104F9000144A127888541AE013481249097830F8F4
:104FA0001100A0B9642010490E4A127821F81200AD
:104FB00011480C490978405C40F040000E49094A0C
:104FC0001278885404200D49064A127888540548FE
:104FD0000078401C03490870024800780428FFF656
:104FE000E5AE10BD2D0000203A0000202C0000206E
:104FF0002E00002032000020280000203600002073
:1050000010B501216B2000F015F800216C2000F094
:1050100011F80921192000F00DF806211A2000F0DE
:1050200009F818211B2000F005F818211C2000F0B9
:1050300001F810BD13B584B004466420012105AA0F
:105040000B46CDE9002102902246D0210248FEF70E
:1050500085F806B010BD0000A000002008B500BF14
:105060000A48406940F00100084948610846406923
:1050700000F00100009000BF00BF00221146112087
:10508000FEF716FA1120FEF703FA08BD00100240E1
:1050900000B585B00020019002900390049000BFFD
:1050A0001948806940F020001749886108468069E6
:1050B00000F02000009000BF00BF00BF08468069DC
:1050C00040F0040088610846806900F00400009008
:1050D00000BF00BF00BF0846806940F0080088613B
:1050E0000846806900F00800009000BF00BF4FF440
:1050F00020400190002002900220039001A9034863
:10510000FDF7A0FD05B000BD00100240000C0140FD
:1051100010B50B480B4908600B484860002109484E
:105120008160C1604FF48041016100214161816172
:10513000C1610162FDF72AFF08B1FDF7FBFB10BD5D
:10514000005400404C000020A086010010B50B4820
:105150000B4908600B484860002109488160C16024
:105160004FF480410161002141618161C1610162AF
:10517000FDF70CFF08B1FDF7DDFB10BD0058004046
:10518000A0000020A086010000B587B00020039099
:10519000049005900690019002901548154908600A
:1051A0004720486000211348816040F2E731C16028
:1051B00000210161416180218161FEF77FFD08B11D
:1051C000FDF7B8FB4FF48050039003A90948FEF7A0
:1051D0004FFE08B1FDF7AEFB00200190029001A93F
:1051E0000448FEF729FD08B1FDF7A4FB07B000BD98
:1051F000002C0140F400002000B587B0002003908F
:10520000049005900690019002904FF08040144960
:105210000860472048600021114881604FF6FF7107
:10522000C1600021016180218161FEF747FD08B165
:10523000FDF780FB4FF48050039003A90848FEF768
:1052400017FE08B1FDF776FB00200190029001A93E
:105250000348FEF7F1FC08B1FDF76CFB07B000BD99
:105260003C01002000B58BB0242102A8FBF728F8F0
:1052700000200090019019481949086000204860FA
:105280000021174881604FF6FF71C1600021016164
:1052900081610320029000200390012004900020EF
:1052A00005900F2006900020079001200890002014
:1052B00009900F200A9002A90948FEF75FFE08B185
:1052C000FDF738FB00200090019069460448FEF786
:1052D000B3FC08B1FDF72EFB0BB000BD000400408D
:1052E0008401002010B50B480B4908604FF416509C
:1052F0004860002108488160C16001610C21416162
:1053000000218161C161FFF789F908B1FDF712FB46
:1053100010BD000000380140CC01002010B50B4842
:105320000B4908604FF4E130486000210848816073
:10533000C16001610C21416100218161C161FFF700
:105340006DF908B1FDF7F6FA10BD00000044004009
:105350001402002000BFFEE700BFFEE700200CE0C3
:10536000002106E00022064B03EBC0135A544A1CEE
:10537000D1B28029F6DB421CD0B20828F0DB70479E
:10538000A00200202DE9F04304460D4616461F46B4
:10539000284638E0224631E0002A2DDB7F2A2BDC2C
:1053A000002829DB3F2827DC4FEAE07C00EB5C7C0F
:1053B0004FEAEC0CDFF8588008EBCC1C1CF802C05C
:1053C00003464FEAE07800EB58784FEAE808A0EB94
:1053D000C8094FF0010808FA09F82CEA080C014640
:1053E0004FEAE07800EB58784FEAE808DFF82090C1
:1053F00009EBC81808F802C0511C0AB2A119914261
:10540000CADC411C08B2E9198142C3DCBDE8F08363
:10541000A002002000B585B000200190029003900A
:10542000049000BF1548806940F008001349886166
:105430000846806900F00800009000BF00BF881592
:10544000019011200290012003900320049001A9F3
:105450000B48FDF7F7FB4FF40070019001A90848D5
:10546000FDF7F0FB012211020548FDF783FD012243
:1054700051020348FDF77EFD05B000BD001002405B
:10548000000C014070B5002406E0002500E06D1C12
:10549000B5F57A7FFBD3641CB4F57A7FF5D3012090
:1054A00000F038FA012000F045FA70BD70B50546ED
:1054B000002411E080212141294009B1012100E0AF
:1054C0000021084600F036FA012000F023FA0020FF
:1054D00000F020FA601CC4B2082CEBDB012000F0C5
:1054E00019FA002000F016FA70BD10B5012000F086
:1054F00021FA012000F00EFA002000F01BFA002033
:1055000000F008FA10BD10B5002000F013FA0120D9
:1055100000F000FA012000F00DFA10BD10B5FFF701
:10552000B1FFAE2000F016FAD52000F013FA80206B
:1055300000F010FAA82000F00DFA3F2000F00AFA5F
:10554000D32000F007FA002000F004FA402000F019
:1055500001FAA12000F0FEF9C82000F0FBF9DA20E2
:1055600000F0F8F9122000F0F5F9812000F0F2F9CE
:10557000CF2000F0EFF9D92000F0ECF9F12000F095
:10558000E9F9DB2000F0E6F9302000F0E3F9A4208F
:1055900000F0E0F9A62000F0DDF98D2000F0DAF946
:1055A000142000F0D7F9AF2000F0D4F9FFF7D6FEB1
:1055B00000F09CF910BD70B505460C4645F0B000F2
:1055C00000F0C8F9102141EA141000F0C3F904F00A
:1055D0000F0000F0BFF970BDF8B506460F4614463F
:1055E0001D46082D0CD1A4F120000E4901EB00103E
:1055F0001023082239460090304600F017F80FE0DB
:10560000062D0DD1A4F1200000EB4000064901EB6E
:1056100040000823062239460090304600F006F884
:10562000F8BD000004690008F46E00082DE9FF4F82
:1056300080460E469146DDF834B0002500244A46E7
:1056400031464046039BFFF79DFE00BF5EE000250C
:1056500058E008EB0500002852DB08EB05007F2826
:105660004EDC3046F11706EB5171C9100FB2F1173D
:1056700006EB5171C910A6EBC10A002E05DA781E9F
:1056800007B20AF108000FFA80FA3819002817DB70
:105690003819072814DC3819224901EBC01008EB2F
:1056A0000501405C04FB09511BF8011001FA0AF1E5
:1056B000084339191B4A02EBC11108EB0502885453
:1056C0003819401C00281BDB3819401C072817DC40
:1056D0003819401C134901EBC01008EB0501405C70
:1056E00004FB09511BF80110CAF1080211410843DB
:1056F0003919491C0B4A02EBC11108EB0502885409
:10570000681CC5B24D45A4DB601CC4B20399481E99
:10571000C11700EB5171012202EBE101A14296DCBD
:10572000BDE8FF8FA00200202DE9FE4F07468A4604
:10573000144698460025AB460026CBE0605D00F09D
:10574000800058B94FF0010B2846691C8DB2205CCF
:105750008DF8040000208DF805006BE0605D00F01E
:10576000E000C02814D14FF0020B2846691C8DB20E
:10577000205C8DF80400605D00B9AFE02846691C2C
:105780008DB2205C8DF8050000208DF8060051E0F8
:10579000605D00F0F000E0281DD14FF0030B2846BB
:1057A000691C8DB2205C8DF80400605D00B995E045
:1057B0002846691C8DB2205C8DF80500605D00B93B
:1057C0008CE02846691C8DB2205C8DF80600002014
:1057D0008DF807002EE0605D00F0F800F02826D17B
:1057E0004FF0040B2846691C8DB2205C8DF8040034
:1057F000605D00B972E02846691C8DB2205C8DF8AE
:105800000500605D00B969E02846691C8DB2205C26
:105810008DF80600605D00B960E02846691C8DB215
:10582000205C8DF8070000208DF8080002E0681C5D
:1058300085B24FE0BBF1010F0BD19DF80420B919DF
:1058400008B243465146FFF7C7FE06EB080086B292
:105850003FE04FF000090EE009EB890101EB49112F
:10586000204A881801A9FAF753FD00B90EE009F1A2
:1058700001001FFA80F909EB890101EB4911194A6E
:10588000881819A1FAF744FD0028E5D100BFB8F146
:10589000080F12D109EB890000EB491011490844A7
:1058A000401DB919009008B210231A465146FFF75F
:1058B000BDFE06F1100086B20BE0B8F1060F08D16C
:1058C000B91908B206233F225146FFF785FEB01DE5
:1058D00086B200BF605D00287FF430AF00BFBDE836
:1058E000FE8F00002E7100080000000010B500249B
:1058F0000BE000212046FFF75EFE054901EBC410D6
:10590000802100F037F8601CC4B2082CF1DB10BD18
:10591000A002002010B504460CB1012000E00020D8
:1059200002464FF480710248FDF724FB10BD0000D1
:10593000000C014010B504460CB1012000E000202D
:1059400002464FF400710248FDF714FB10BD000041
:10595000000C014010B50446FFF7C7FD7820FFF7A3
:10596000A5FD0020FFF7A2FD2046FFF79FFDFFF7F2
:10597000CAFD10BD70B505460E46FFF7B6FD78208E
:10598000FFF794FD4020FFF791FD002404E0285D1F
:10599000FFF78CFD601CC4B2B442F8DBFFF7B3FD27
:1059A00070BD704708B508490968C9084FF47A7294
:1059B000B1FBF2F14143009100BF00BF00994A1EC4
:1059C00000920029F9D108BD24000020704710B5CD
:1059D000FDF7EAFC10BD00B58FB0282105A8FAF745
:1059E0006FFC14216846FAF76BFC01200590000457
:1059F0000690002007900120099002200C90C1031E
:105A00000D914FF4E0110E9105A8FDF7C7FE08B106
:105A1000FCF790FF0F2000900220019000200290E0
:105A20004FF4806003900020049002216846FDF747
:105A300091FD08B1FCF77EFF0FB000BD704700007C
:105A400010B50248FEF79BFB10BD0000F4000020DB
:105A500010B502681C4B984208D0B0F1804F05D0B9
:105A60001A4B984202D01A4B984203D122F070028E
:105A70004B681A43144B984208D0B0F1804F05D0C0
:105A8000124B984202D0124B984203D122F440723A
:105A9000CB681A4322F080034C6943EA0402026097
:105AA0008B68C3620B688362074B984201D10B6914
:105AB000036301234361036903F001031BB103691D
:105AC00023F00103036110BD002C014000040040DD
:105AD0000008004030B501F01F05012404FA05F369
