:020000040800F2
:10000000680E002075020008D1590008494E00080A
:1000100031570008E12900080169000800000000CC
:10002000000000000000000000000000F161000876
:10003000A52B000800000000C5610008036200084D
:100040008F0200088F0200088F0200088F0200084C
:100050008F0200088F0200088F0200088F0200083C
:100060008F0200088F0200088F0200088F0200082C
:100070008F0200088F020008952B00088F020008ED
:100080008F0200088F0200088F0200088F0200080C
:100090008F0200088F0200088F0200088F020008FC
:1000A0008F020008756200088F0200088F020008A6
:1000B0008F0200088F0200088F0200088F020008DC
:1000C0008F0200088F0200088F0200088F020008CC
:1000D0008F020008E1680008F16800088F0200083C
:1000E0008F0200088F0200088F02000800F002F85B
:1000F00000F0B0F80AA090E8000C82448344AAF112
:100100000107DA4501D100F0A5F8AFF2090EBAE80F
:100110000F0013F0010F18BFFB1A43F0010318473B
:1001200034900000549000000A444FF0000C10F886
:10013000013B13F0070408BF10F8014B1D1108BF65
:1001400010F8015B641E05D010F8016B641E01F805
:10015000016BF9D113F0080F1EBF10F8014BAD1C55
:100160000C1B09D16D1E58BF01F801CBFAD505E073
:1001700014F8016B01F8016B6D1EF9D59142D6D3CD
:10018000704700000023002400250026103A28BFF5
:1001900078C1FBD8520728BF30C148BF0B607047F9
:1001A0006E2900F0B981702900F0FB82662907F002
:1001B0003187652907F02E87672907F02B8761298A
:1001C00007F02A8703681B0A28BF41F080016929CC
:1001D00000F06681642900F06381752900F0608178
:1001E0006F2900F08882782900F0C782E92900F0A1
:1001F0002382E42900F02082F52900F01D82EF29F6
:1002000000F08582F82900F0C6820368DB0928BF68
:1002100041F08001632901F05180732901F056807B
:10022000E32901F06180F32901F066800020704726
:100230001FB501F0E9F804000020002106F040FF9E
:10024000401C60600020002106F024FFE0601FBD1C
:1002500010B510BD01F0B2F81146FFF7E9FF06F046
:10026000AFFE01F011FC03B4FFF7F2FF03BC01F095
:100270003FFE00000948804709480047FEE7FEE7C7
:10028000FEE7FEE7FEE7FEE7FEE7FEE7FEE7FEE746
:1002900004480549054A064B704700007162000892
:1002A000ED00000868080020680E0020680A0020A1
:1002B000680A00201CB50C46064B7B44694600903A
:1002C000204600F042F904460020694600F050F94B
:1002D00020461CBDB3020000014A00F083BB0000B1
:1002E000580100204FF0000200B513469446964690
:1002F000203922BFA0E80C50A0E80C50B1F1200139
:10030000BFF4F7AF090728BFA0E80C5048BF0CC0E6
:100310005DF804EB890028BF40F8042B08BF704744
:1003200048BF20F8022B11F0804F18BF00F8012BB6
:10033000704700004FF0013C50F8042B51F8043B8B
:100340009A4221D1A2EB0C03934313EACC1317D1A9
:1003500050F8042B51F8043B9A4215D1A2EB0C0340
:10036000934313EACC130BD150F8042B51F8043B00
:100370009A4209D1A2EB0C03934313EACC13DBD0CE
:100380004FF00000704700BFD01A01BAB1FA81F1F6
:1003900001F0180122FA01F0CB40C1F12001DBB2DB
:1003A000C0B2C01A2CFA01F3D11A914311EAC31159
:1003B000E6D17047704770477047000000487047AB
:1003C0000808002010B5FFF7F9FF006810BD10B550
:1003D0000446FFF7F3FF046010BD70B5044685695D
:1003E0000068C10601D5302600E02026C00707D0EE
:1003F00070BDD4E9012130469047206A401C20623C
:100400006D1EF6D570BD70B5044685690078C007CD
:1004100007D170BDD4E9012120209047206A401CFB
:1004200020626D1EF6D570BD09684A0501D540B23F
:100430007047C905FCD500B2704709684A0501D567
:10044000C0B27047C905FCD580B2704770B50C4684
:100450000546012A05D02878800600D5EA690023E0
:1004600002E0012305E05B1C934202D2E05C00281D
:10047000F9D1A869E618C01AA861286A1844286248
:100480002846FFF7AAFF04E0D5E9012114F8010B83
:100490009047B442F8D32846FFF7B5FF70BD00007F
:1004A0002DE9F0410646002410687529314616A54D
:1004B00010D0FFF7B9FF002802DA404213A507E089
:1004C00031688A0701D512A502E0490704D511A5B4
:1004D000012401E0FFF7B1FF00210A2206F1240701
:1004E00009E0B0FBF2FCB0FBF2F302FB1C00303081
:1004F00078541846491C0028F3D123462A46304632
:10050000BDE8F04100F0EABA000000002D00000054
:100510002B0000002000000011680268006A5305EB
:1005200001D508700AE0D30501D5088006E013065E
:1005300003D5C217C1E9000200E00860012070473E
:1005400001694A1C02610878704700B58FB0CDE997
:1005500001310021059105497944CDE90310114687
:10056000684600F029F90FB000BD0000E5FFFFFF6D
:100570000A6802F8010B0A60704700002DE9FF5F6E
:1005800015468A460446DFF8AC80F8440027D8E9CF
:1005900000103E46CDE9001010E03AF816106A4609
:1005A00002A800F0CDFE411C07D02178890603D5B2
:1005B000E269391891420DD80744761C20788006EC
:1005C00002D5E069B84205DDAE42E6DB3AF8160036
:1005D0000028E2D1A069C01BA0612046FFF7FDFE04
:1005E000D8E90010CDE90010002017E03AF8181003
:1005F0006A4602A800F0A4FEB0F1FF3F81460BD08E
:1006000000250DF1080B05E0D4E901211BF80500D8
:1006100090476D1C4D45F7D308F10100B04280466C
:10062000E4DB206A384420622046FFF7ECFEBDE898
:10063000FF9F0000228A00002DE9F0418046D21D74
:1006400022F007020025D2E90002F52915A614D0F0
:10065000011E72F1000106DA0023D0EB030063EB08
:10066000020211A608E0D8F800108B0701D50FA6EA
:1006700002E0490701D50EA601251146002408F124
:10068000240704E000F0DCF930323A55641C50EAEB
:100690000102F7D12B46324621464046BDE8F041E3
:1006A00000F01CBA000000002D0000002B0000002C
:1006B0002000000030B4002100F1240408E002F022
:1006C0000705D208303542EA4372DB086554491CFD
:1006D00052EA0305F3D10468002310A2250707D5C9
:1006E000A40600D421B1C46901230DA2641EC46113
:1006F00030BC00F0F3B910B5044621461068FFF78E
:100700009CFE02462046BDE810400023D2E7D21DE1
:1007100022F00701D1E90023CCE70000000000002F
:1007200030000000F0B40D460188090502D5214CC7
:100730007C4402E01F4C7C440E34002100F124066E
:1007400008E002F00F071209E75D42EA03721B0995
:100750007754491C52EA0307F3D1027800231207A9
:1007600004D5702D06D009B1022311342246F0BC05
:1007700000F0B4B901231034F8E770B504460D4613
:1007800021461068FFF759FE024629462046BDE87B
:1007900070400023C6E7D21D22F00703D3E90023EF
:1007A000C0E70368126843F0200303600823C361B5
:1007B0000023B7E7848800002DE9F05F89460446EE
:1007C0004FF0000ADFF874B1FB44C0F820A02046C7
:1007D000E1688847002874D0252806D0D4E9012193
:1007E0009047206A401C2062F1E700265F462046C1
:1007F000E16888472028054607DB312D05D27819A6
:1008000010F8200C08B10643F1E7B00701D526F037
:100810000406C4F81CA00027C4F818A02A2D09D08B
:10082000284606F07AF938B304EB8708303DC8F85B
:10083000185019E059F8041B204604EB8702916117
:10084000E1688847012F054618D1E069002820DAC1
:1008500026F020061DE0D8F8180000EB800005EB1C
:1008600040003038C8F818002046E168884705463F
:1008700006F053F90028EED1012F0AD02E2D08D111
:100880002046E16888477F1C0546022F46F0200677
:10089000C4DBA069002803DA404246F00106A061EB
:1008A000F00701D026F010066C2D0BD0682D09D072
:1008B0004C2D39D06A2D35D0742D35D07A2D33D0CA
:1008C00016E038E0E1682F4620468847B8420546E2
:1008D00009D16C2F26D04FF48060E1680643204692
:1008E0008847054604E06C2F1AD04FF48070064309
:1008F0000DB3A5F14100192802D8203546F4006651
:100900004A462946204626604E46FFF749FC80B1FC
:1009100001280BD0F61D26F0070000F1080956E764
:100920004020E4E78020D8E70020D6E706F104095C
:100930004DE7284652E7206ABDE8F09F1488000082
:100940000FB4002300B589B00CA900910B99CB60BE
:10095000214B7B440693214B7B44079304236FF088
:100960000042CDE901321E4A7A446B4608920246A3
:10097000002007F0B3FB09B05DF814FB70B5064624
:100980004FF0FF3015460C46324686B00091CDE957
:10099000010169460020049004A8FFF7D1FF024638
:1009A0000498211825B108B1084600E020462860C7
:1009B000049800280DD0002A02DD0098884208D053
:1009C0003246081B69460094CDE9010404A8FFF7EC
:1009D000B7FF06B070BD0000AB090000C3090000FE
:1009E0005F0100002DE9F04115460E46040002D1DA
:1009F0002C6804B90BA4204600F0D2FC04442078F3
:100A000070B127463146384600F0BAFC04442078DD
:100A100010B1002004F8010B38462C60BDE8F081CD
:100A20000027F9E700000000004870470808002090
:100A300010B500F0E9FC001D10BD00BF8566000088
:100A400030B5B0F10A024FEA900E71F100034EEAA0
:100A5000817EB0EB0E0061EB91014FEA101E4EEA71
:100A6000017E10EB0E0041EB11114FEA102E4EEA01
:100A7000016E10EB0E0041EB11214FEA104E4EEAD1
:100A8000014E10EB0E0041EB1141401841F1000105
:100A90004FEAD00040EA41704FEAD10110EB8005E7
:100AA0004FEA810444EA907444EB01046D1944EB6D
:100AB0000404521BA3414FF0000348BF0A3200D583
:100AC00030BD401C41F1000130BD10B50446FFF7B8
:100AD000AFFF0068005D00F0010010BD2DE9F04798
:100AE0000D4699469246044600F12408016888069E
:100AF00004D5E06921F01001216000E00120A84246
:100B000001DD471B00E00027A1697A1902EB09000B
:100B1000081AA0612078C00602D42046FFF75DFCC9
:100B2000002608E0D4E901211AF806009047206A5F
:100B3000401C761C20624E45F4DB2078C0060AD5A6
:100B40002046FFF74AFC06E0D4E901213020904717
:100B5000206A401C2062381EA7F10107F4DC07E080
:100B6000D4E9012118F805009047206A401C206252
:100B7000281EA5F10105F3DC2046FFF744FC207890
:100B8000000602D50220BDE8F0870120FBE7704790
:100B90002DE9FF4F0C461E464FF0FF378BB0D2E9D0
:100BA0000001DDF860800A908A46C1F30A5505B954
:100BB0003D46002108464FF00000BAF1000F00F456
:100BC000400005DA00EB80004FF4400101EA5000DC
:100BD0004FEA9059B9F1010F00DDB9460A9850EA81
:100BE0004A000ED044F61050A5F2FF3545432F14AD
:100BF000B8F1000F1ED07542291E1EDDC9F100029A
:100C00001CE0B8F1010F4FF0000001D0302103E0EB
:100C1000F24305E02154401CB042FBDB3046002289
:100C2000002121540B99C1F80880C1E900200FB0C0
:100C3000BDE8F08FBD1B6D1CDEE74A4600DA694255
:100C400006A800F0AFFE06AB93E8070003AB83E80D
:100C5000070050460A9901F065F98DE80700A0F5F4
:100C600000501F3800900398002D0ADD42F21F014A
:100C70004A460844002303A90390684601F010FC8B
:100C800009E0A0F500504A461F38002303A903904D
:100C9000684601F02FFC8DE807000004000C03D02B
:100CA0004FF0FF30410800E01046B8F1000F03D0CC
:100CB0000022009215461EE0751E05D4FFF7C0FE07
:100CC000303262556D1EF9D5B3460122084302D079
:100CD00000227F1C04E02078302801D100227F1EF2
:100CE000002A099784D01DE0112D07DAFFF7A8FE2E
:100CF000303262556D1C50EA0102F5D1084302D032
:100D00000098C8B10EE00021681E05E0235C625C1B
:100D100063542254401E491C8142F7DBAB46A81B9A
:100D2000401E0990002004F80B000B98099AC0F8A7
:100D30000880C0E9002B7AE711264FF0000857E73A
:100D40002DE9F04F88460446D21D22F0070191B0EC
:100D5000D1E90001CDE90A0105F0D4FD02460B9866
:100D6000C00F01D02D2007E02068810701D52B207E
:100D700002E0202101EAC000032A099001D0072ADD
:100D800005DB03464146204600F042FB0BE120789C
:100D9000800601D5E06900E00620B8F1650F8146C4
:100DA00006D0B8F1660F18D0B8F1670F70D131E0F6
:100DB0000020B9F1110F009001DB112301E009F1CE
:100DC00001030AAA01A90CA8FFF7E2FEDDE90C70F5
:100DD000002609F10105834647E001204B460090BB
:100DE0004FF000470AAA01A90CA8FFF7D1FEDDE9E0
:100DF0000DB00C995D46002610B909F101000D18DF
:100E0000B9EB050003D4C0F1FF3609F10105A5EBEC
:100E100009002BE0B9F1010F01DA4FF001090020C0
:100E2000B9F1110F0090484601DD112300E003469F
:100E30000AAA01A90CA8FFF7ABFEDDE90C704D462C
:100E400000268346207800070AD4AB4500DA5D46C9
:100E500001A8012D04DD411911F8011C302907D02A
:100E60004F4502DA17F1040F04DA012082460FE041
:100E70006D1EEEE7002F02DCED1B3E4403E0781C04
:100E8000A84200DD7D1CB81B00F1010A4FF00047AD
:100E90002078000703D4AA4501DB4FF0FF3A002178
:100EA000B7F1004F0DF143088DF8431024D0022014
:100EB0002B23002F01DA7F422D230A21021EA0F1ED
:100EC000010000DC5FB197FBF1FC97FBF1F201FB45
:100ED0001C7C17460CF1300C08F801CDEEE7A8F1A8
:100EE000010003702188090501D5452100E0652135
:100EF000A0F1010800F8011C09980FA9A1EB08074F
:100F0000FF1D00B10120411901EBEA70A1693844CD
:100F1000081A401EA0612078C00602D42046FFF7C0
:100F20005CFA099828B1D4E901219047206A401C55
:100F300020622078C00622D52046FFF74EFA1EE038
:100F4000002E04DBB34502DD01A8805D00E0302007
:100F5000D4E901219047206A401C2062761CAAF146
:100F600001005FEA000A0AD100F04EFAC068016889
:100F7000405CD4E901219047206A401C2062281E71
:100F8000A5F10105DCDC07E0D4E9012118F8010B2B
:100F90009047206A401C2062381EA7F10107F3DC4D
:100FA0002046FFF730FA032011B041E62DE9F04F5B
:100FB00004460D46D21D22F0070089B0D0E9009703
:100FC0004846394605F09EFC0246F80F01D02D2315
:100FD00007E02068810701D52B2302E0202101EAE8
:100FE000C0038DF820300BB1012000E00020032A5F
:100FF000824601D0072A04DB2946204600F008FA81
:101000003FE12078800601D40D2500E0E569C7F3B3
:101010000A560D2D49DA00214FEA175B08464FF0BA
:101020000000002F00F4400007DA00EB80004FF4CE
:10103000400100EBD07001EA60008115012901DD5B
:101040004FF0FF3100224FEA850CBCF1180F06D398
:101050001346ACF118004FF08052C24003E04FF449
:10106000801323FA0CF30CF10C0CBCF1200F04D309
:10107000ACF1200C09FA0CF001E007FA0CF00029A1
:101080004FF0004801DD18B90FE00ED140450CD3F8
:1010900019EB02095F4121B9404502D19F4329EA7A
:1010A0000209BBEB175F00D0761C2088000502D533
:1010B0007B48784402E07A487844193808AA3023FB
:1010C00002F80A30037C0AF10101002E0AF1020A3B
:1010D00053546A4602DC4FF0300101E04FF0310119
:1010E0004FF001088DF8001002D0A6F2FF3603E0A1
:1010F00059EA470100D06B4E002D02DC2178090728
:1011000004D54FF002082E218DF80110C4460021AD
:101110000BE0C7F303433F01C35C491C6D1E02F89B
:101120000830052908F1010801DA002DF1DC002161
:101130000CE000EB1973491C1B786D1E082902F89E
:1011400008304FEA091908F1010801DA002DF0DC36
:1011500021688B0602D516E0A8F10108E04505DDFF
:1011600002EB080313F8013C302BF5D0B8F1000F67
:1011700009DD02EB080313F8013C2E2B03D109070C
:1011800001D4A8F10108002D05DD3E2102F8081068
:101190006D1E08F10108407C002E02F8080008F1DD
:1011A000010804DA2D20764202F8080002E02B2024
:1011B00002F808000A214FF47A70864208F101080B
:1011C0000BDB96FBF0F3303302F8083096FBF0F3BC
:1011D00008F1010800FB136601E0642E0CDB6420BB
:1011E00096FBF0F3303302F8083096FBF0F308F189
:1011F000010800FB136601E00A2E06DB96FBF1F006
:10120000303002F8080008F1010896FBF1F001FB0C
:101210001060303002F80800A16908F1010808EBFD
:10122000050202EB0A00081AA0612078C00602D469
:101230002046FFF7D2F8216A08AE01EB0A002062CF
:1012400004E0D4E9012116F8010B9047BAF1010A34
:10125000F7D22078C00602D52046FFF7BEF86E46CA
:1012600009E016F8010B3E280FD0D4E90121904780
:10127000206A401C2062B8F10108F2D22046FFF734
:10128000C2F809B00320BDE8F08F206A284420622C
:1012900003E0D4E90121302090476D1EEBD3F8E73D
:1012A000F57F000002FCFFFF10B5436913B1AFF3F7
:1012B000008001E0FFF7CAF8012010BD127800F1AC
:1012C00024010A7000224A700122EDE711684FF0F4
:1012D000FF32E9E710B5436913B1AFF3008001E0D5
:1012E000FFF74CF9012010BD128800F1240182841F
:1012F0000022C2840122EDE711684FF0FF32E9E7D6
:10130000426842B1016811F8013B23B1521EC0E9A5
:101310000012184670470121C160881E704742685C
:101320005AB1C368016843B983688B4205D0491E2E
:10133000521CC0E90012002070474FF0FF30704788
:1013400070B516460C460546FFF772FB036893F826
:101350000101012806D0FF2C0FD8185D68B10120CB
:101360002C7070BDD3F807013246214603F20713F3
:1013700003442846BDE8704018474FF0FF3070BD69
:1013800030B503461D781DB10A4603E0AC4201D1D9
:10139000181A30BD12F8014B002CF7D15B1CF1E795
:1013A00030B503461D783DB10A4612F8014B1CB119
:1013B000AC42FAD15B1CF5E7181A30BD7546FFF751
:1013C00033FBAE4605006946534620F007008546CC
:1013D00018B020B5FEF75CFFBDE820404FF00006D6
:1013E0004FF000074FF000084FF0000B21F007010D
:1013F000AC46ACE8C009ACE8C009ACE8C009ACE850
:10140000C0098D467047000000487047280800203A
:101410002DE9F0411F46044603260168072A01F41E
:10142000006004DB08B116A505E016A503E008B1CD
:1014300015A500E015A521F010002060A069C01ED0
:10144000A0610FB1401EA0612046FEF7C6FF4FB15C
:10145000D4E9012138469047206A401C2062C01C14
:10146000206206E0206AFAE7D4E9012115F8010BB1
:101470009047761EF8D22046FEF7C5FFBDE8F08102
:101480004E414E006E616E00494E4600696E660028
:101490003A2800D2303820F02002412A01D3A2F1AC
:1014A0003700884201D34FF0FF3070472DE9FF4FDE
:1014B00006468BB00878FF2806D0491C2D2805D099
:1014C00000244FF0000908E000200CE00124F8E7B8
:1014D00009EB8903491C00EB43090878FF28F7D181
:1014E00014B1C9F100008146107800252C46AA46A7
:1014F00029462D2801D02B2804D1521C2D2813D089
:10150000002082468B461078FF280FD04FF0000C49
:101510000A21521CA5FB017804FB018105FB0C117B
:10152000C5194BEB0104EEE70120EAE7002108466C
:101530004FF00000BAF1000F02D000EB800040082D
:10154000C0F38157012F01DD4FF0FF370E9955EAA7
:10155000040009EB01080BD04FF0020918F5FA7FDF
:1015600016DA4FEACA70002F706008DD012007E02C
:101570004FEACA70C6E900B00FB0BDE8F08F002096
:101580003060FEF71BFFC0F800901821084616E0F7
:10159000B8F5FA7F18DD002F02DAF748784401E049
:1015A000F6487844D0E90010C6E9001040EACA7055
:1015B0007060FEF703FFC0F80090142108460FB0DA
:1015C000BDE8F04F06F023BD002108464FF00000B3
:1015D000B8F10001099002DAC7F1000200E03A46D2
:1015E00001DAC8F1000106A800F0DCF906AB93E8C7
:1015F000070003AB83E8070044F23E005BEA040106
:101600000090584604D144F21E012C465D460091DC
:10161000210C0904014306D10099240444EA15442D
:101620002D041039009104F07F41014306D1009947
:10163000240244EA15642D020839009104F0704137
:10164000014306D10099240144EA15742D01091FB4
:10165000009104F04041014306D10099A40044EAFE
:101660009574AD00891E009104F00041084304D137
:1016700000986D196441401E00904FF001033A46F6
:101680006846B8F1000FCDE9014503A902DD00F07D
:1016900046FF01E000F019FFBAF1000F04460D46C5
:1016A00001D084F00044002108464FF00000099961
:1016B00040F2FF77484010F00C0F07D124F00040B3
:1016C000284303D0C4F30A50B84212D1FEF776FE85
:1016D000C0F80090C4F30A50B8420AD1A848784430
:1016E000D0E90010C6E9001004F000410843706022
:1016F00042E7C6E900543FE72DE9FF4F1F464FF090
:10170000000A4FF0FF38454691B0D7E90146CDF8C1
:101710003CA0FFF779FEC0680168405C1090B96991
:1017200012986D1C8847396A814688470028F6D18F
:10173000B9F1FF3F0AD0002E24F4D06411DDB9F1D5
:101740002B0F08D0B9F12D0F0BD102E0404615B098
:1017500013E744F48064B96912986D1C8847761EBB
:101760008146600504A901D52D2000E02B20002E24
:1017700001F1010B0DF130088DF810003FDDB9F1DA
:10178000690F08D0B9F1490F05D0B9F16E0F02D039
:10179000B9F14E0F1CD13B4601A8009580E85002DC
:1017A000DDE912126FF0020006F09CFCC11CCED1E4
:1017B0000EE0B96912986D1C884781461398761E11
:1017C00044F4007405600F98401C002E0F9016DD45
:1017D000B9F1300FEDD0B9F1780F02D0B9F1580F4F
:1017E0000DD10F9801280AD13B46CDE90054DDE91F
:1017F0001212001F029606F073FCC11CA7D11099AB
:1018000089453ED144F0800406E01399681CAAF192
:10181000010A44F400740860B9696D1C1298761EC0
:10182000884730288146F0D02BE01099894505D1B2
:10183000200603D4761E44F0800418E0484605F0E4
:101840006CF908B3761E0DF123018B4544F4007446
:1018500008D2A9F130000BF8010B200607D5AAF138
:10186000010003E0200602D40AF101008246A0052F
:1018700002D51399681C0860B96912986D1C8847D5
:101880008146002ED1DC53E0002E51DDB9F1650F09
:1018900002D0B9F1450F4BD1A00549D5B9696D1CEE
:1018A0001298761E24F440748847002E81460CDD81
:1018B0002B2804D0B9F12D0F07D144F48074B969F5
:1018C00012986D1C8847761E8146E00501D52D21B2
:1018D00000E02B2108F8011BCDF8008021E0761EE6
:1018E0000DF13901884544F400740CD2A9F130009F
:1018F00010F0FF0088F8000002D10099884509D94E
:1019000008F1010806E0E00501D51E4801E042F2B9
:101910000F708246B96912986D1C884781461398EA
:101920000560002E04DD484605F0F7F80028D6D102
:10193000F96912988847FF2053468BF8000088F811
:10194000000000200A900B9004AA0CA90AA8FFF737
:10195000ADFDA00502D46FF00100F8E614F0240FED
:1019600012D0E0071CD13868DDE90A12031D3B6084
:101970000068C0E9001213E0DC7B0000CE7B0000B1
:10198000927A0000F1D8FFFF0AA9684605F054F8E2
:10199000E00705D13868009A011D396000680260CF
:1019A0002846D4E62DE9F047814616468AB03548E8
:1019B00078440DC88DE80D0032487844801C03AC93
:1019C0000DC884E80D0041F69B300844372190FB98
:1019D000F1F290FBF1F5A5F1800501FB12041B3C2F
:1019E00002D56442012000E00020DFF898A0804684
:1019F0000027FA44AAF1BE0A0EE0E0070AD03246F8
:101A0000684607EB470101230AEB810100F072FDF4
:101A10008DE8070064107F1C002CEED1194F7F4425
:101A2000AE3F19E0E80715D007EB04100DF1180AD6
:101A300090E80E008AE80E00C068F04201D19819C3
:101A400008903246012306A903A800F053FD03AB1A
:101A500083E807006D10641C002DE3D14FF00103F3
:101A600032466946B8F1000F03A802D000F018FD15
:101A700001E000F03FFDC9E90001C9F808200AB003
:101A8000BDE8F0878877000010B50446AFF300800A
:101A90002046BDE81040FEF7E6BB00002DE9FF4FF1
:101AA0001F464FF03C0987B04FF00042DDE91410AB
:101AB00001F10108DDF858A002EA4050039000202F
:101AC00005908346054604460490B969461E089869
:101AD0008847AAF1010A0290BAF1000F3BDD029893
:101AE0002E2815D01021FFF7D3FC00282EDB4FF055
:101AF000010B0599014317D0B9F1000F0BDB4A46E2
:101B0000C11700F0FBF905430C43A9F1040905E0F6
:101B1000012004900BE008B145F00105012005907B
:101B2000049820B9361D02E0049800B1361FB96947
:101B3000089808F101088847BBF1000FAAF1010AD3
:101B40000290C9D00999C1F80080C5E702987028B1
:101B500008D0502806D0F96908988847BBF1000FD3
:101B600014D04FE0002002900120BBF1000F049040
:101B700009D0B969089808F101088847AAF1010954
:101B8000B9F1000F07DCF969089888476FF0010088
:101B90000BB0BDE8F08F2B2804D02D280CD14FF0CE
:101BA000FF300490B969089808F101088847A9F145
:101BB0000109B9F1000FE6DD411CE4D00A21FFF76D
:101BC00067FC0028DFDB029908F1010801EB8101C5
:101BD00000EB41000290B969089888470A21FFF795
:101BE00057FC099AA9F10109B9F1000FC2F8008068
:101BF00001DD0028E7DAF969089888470499029816
:101C000000FB016655EA040004D004F040410900DD
:101C100002D006E0039898E0A40044EA9574AD0071
:101C2000B61E04F00041080002D16D196441761E11
:101C3000159810F0240F03D04FF00B095C4803E017
:101C40004FF028096FF07D008246564507DAAAEB6F
:101C500006018944B9F1410F01DD4FF0410901202E
:101C60000021A9F1010200F049F9024628400B4683
:101C70002140084301D0012100E00021501E0291C3
:101C800043F1FF3128402140084301D0012000E00A
:101C900000200299834651EA0B014FD000210846EB
:101CA0004FF00000039900F4400039B100EB8000D0
:101CB0004FF4400100EBD07001EA6000801501286C
:101CC00002DD4FF0FF3000E013D0401C36D0029808
:101CD00060B3BBF1000F0CD14A460120002100F097
:101CE0000DF928402140084301D0012000E00020E8
:101CF000E0B101204A46002100F000F903464019F6
:101D00000A4661412D1A8C4111D3B9F1400F09DD0A
:101D1000159810F0240F02D0AAF1340603E0AAF1BE
:101D2000170600E0761C00254FF0004406E05B1E1D
:101D300042F1FF3220EA030521EA0204CAF1010060
:101D4000B04206DA1B490398084301900020009036
:101D50000EE0039AC4F3D321E80A0A43164940EA85
:101D600044500A433146CDE90002684604F0CAFEF9
:101D7000159810F0240F0BD01598C00715D13868AE
:101D8000DDE90012031D3B600068C0E900120CE0B1
:101D900002A8694604F050FE1598C00705D13868BE
:101DA000029A011D3960006802604046F0E60000BA
:101DB00002FCFFFF0000F07F0000F03F2DE9FF4F25
:101DC00092461D4685B04FF00041DDE9124BDDE93A
:101DD00014727F1E01EA4B50414940F0FF4940EA2E
:101DE0000108002122F020004928049102D04E2849
:101DF00028D04CE03BA0012607C88DE80700A96960
:101E00000698641C88477F1E014606D41DF806000C
:101E100018B121F0200181420BD0E969069888476A
:101E2000032E34D0082E32D06FF0010009B0BDE887
:101E3000F08F761C032E01D0082EE0D1601CCAF86A
:101E40000000DCE7A9690698641C88477F1E2AD435
:101E500020F02000412826D1A9690698641C8847F3
:101E60007F1E20D420F020004E281CD1A96906989E
:101E7000641C88477F1E48F4002849F48009CAF88A
:101E8000004001D4282806D0E969069888475FEA0F
:101E9000CB7012D022E0A9690698641C88477F1E87
:101EA00001D4002803DAE96906988847BCE72928A5
:101EB000F1D1641CCAF80040E9E71BF0240F07D0F9
:101EC00028680499031D2B600068C0E9001805E02C
:101ED0002868021D2A600068C0F800902046A5E727
:101EE0000000F07F494E46494E4954590000000019
:101EF00001491820ABBEFEE726000200B2F1200324
:101F00000AD5C2F1200301FA02F120FA03F300FA24
:101F100002F041EA0301704700FA03F14FF00000BC
:101F2000704770475FEA400C08BF91F0000F4FEA1E
:101F30008C234FEAC12243EA51514FEA1C5018BF8B
:101F400000F5F0404FEA300018BF41F000415FEA71
:101F50006C5C00F02980BCF1FF3F08BF40F080407E
:101F60007047130C06BF12044FF0100C4FF0000C1A
:101F7000130E04BF12020CF1080C130F04BF120160
:101F80000CF1040C930F04BF92000CF1020CD30F60
:101F900004BF52000CF1010C11464FF00002A0F1F9
:101FA0001F00A0EB0C00704711F0004F08BF7047F6
:101FB00031F000413FF4D5AF0B0C06BF09044FF0E0
:101FC000100C4FF0000C0B0E04BF09020CF1080CB2
:101FD0000B0F04BF09010CF1040C8B0F04BF890027
:101FE0000CF1020CCB0F04BF49000CF1010CCCF139
:101FF0002003A0EB0C0022FA03F302FA0CF241EAF0
:10200000030100F10100704720F07F4C80EA0300DB
:1020100023F07F47ACEB070303F57C5300F000404F
:1020200003F1FF032DE980494FEA154B09B44FEA4C
:10203000144325EA0B4E24EA03480FF2042606EB6C
:10204000132749083E785FEA320203FB0667C7F5AB
:10205000000707FB06F64FEA54374FEAD64606F16B
:10206000020607FB066CCCF1005C4FEA1C472CEA29
:10207000074C07FB06F40CFB06F504EB15464FEA8C
:10208000961634BF00204FF000404FEAD13706FBD0
:1020900007FC4FEA1C4C0CFB0BF7D21B03FB0CF7A5
:1020A00061EB07010CFB0EF7B0EB074072EB174238
:1020B0000CFB08F734BFA2EB0742B2EB074261EB1F
:1020C00017414FEA0C444FEA910706FB07FC4FEA21
:1020D0001C4C0CFB0BF7B0EBC74072EB573203FB09
:1020E0000CF734BFA2EBC742B2EBC74261EB5731EA
:1020F0000CFB0EF7B0EBC70072EB57720CFB08F746
:1021000034BFA2EBC702B2EBC70261EB5771039F6A
:102110004FEA816141EA921104EBCC044FEAD137D6
:102120004FEA826206FB07FC42EA90124FEA8060A7
:102130004FEA1C4C0CFB0BF7D21B03FB0CF761EBBB
:1021400007010CFB0EF7B0EB074072EB17420CFBDC
:1021500008F734BFA2EB0742B2EB074261EB17412D
:102160004FEA8C554FEA910704EB9C2406FB07FCD1
:102170004FEA1C4C0CFB0BF7B0EBC74072EB57322D
:1021800003FB0CF734BFA2EBC742B2EBC74261EBD3
:1021900057310CFB0EF7B0EBC70072EB57720CFB1C
:1021A00008F734BFA2EBC702B2EBC70261EB57716D
:1021B00015EB4C254FEA816141EA92114FEA8262A8
:1021C0004FEAD13742EA901206FB07FC44F10004C3
:1021D0004FEA80604FEA1C4C0CFB0BF7D21B03FB51
:1021E0000CF761EB07010CFB0EF7B0EB074072EB4D
:1021F00017420CFB08F734BFA2EB0742B2EB0742D1
:1022000061EB174115EB1C154FEA813141EA924110
:102210004FEA823242EA90424FEA80304FEA0C762F
:1022200044F1000448EA03434EEA0B484FF0000E25
:10223000B2EB080C71EB030724BF624639464EEB44
:102240000E0E4FF0000B0018524149414BEB0B0BA7
:10225000B2EB080C71EB03077BF1000B24BF624665
:1022600039464EEB0E0E4FF0000B0018524149411B
:102270004BEB0B0BB2EB080C71EB03077BF1000B84
:1022800024BF624639464EEB0E0E51EA020718BFD4
:1022900046F0010616EB0E7655F1000254F10001EE
:1022A00003D5BDE88901BDE80088BDE88901BDE826
:1022B0000048B619524141EB0101A3F101037047F7
:1022C00080807F7E7D7C7B7A797877767675747373
:1022D000727171706F6E6E6D6C6C6B6A6A69686832
:1022E000676666656464636362616160605F5F5EC8
:1022F0005E5D5D5C5C5B5B5A5A595958585757563E
:1023000056555555545453535252525151505050A2
:102310004F4F4F4E4E4D4D4D4C4C4C4B4B4B4A4AF4
:102320004A49494948484847474747464646454538
:102330004544444444434343434242424241414171
:1023400046EA0646A3F570534FEA164646EA425659
:102350004FEAD22242EA415210B54FEAD121A3F10D
:10236000010300F02FF820F0004000F1020C00F013
:10237000004701EB00501146BCF5006F40EA070032
:1023800000D210BDBAF1000F0AD01CB503B44FF053
:1023900004004FF004014FF000000FBCBDE81040F6
:1023A0004FF00001BBF1010FB9BF04484FF0FF31FE
:1023B0000348002140EA070010BD00BFFFFFEF7F88
:1023C0000000F07F002B9C4630D477002BD01CB54A
:1023D0004FEA370703B44FF010004FF01001BAF185
:1023E000000F06D0BCF1000FDCBF40F0080040F049
:1023F00008014FF000000FBCBDE810400BF1010BCD
:10240000BBF1010F08BF5FEA170722BF12F10102FB
:1024100011F101014FF0004143F1000300F00040D1
:1024200043EA00007047F9D35708D0E746EA06466A
:1024300013F1400F4FEA16461FDD13F1200FDFBFE7
:1024400016430A46002120335B42BED0C3F1200769
:1024500046EA064602FA07F74FEA164646EA070634
:10246000C3F1200722FA03F201FA07F721FA03F178
:102470004FF0000342EA0702A7E746EA020646EAEF
:1024800006464FEA164646EA0106BCBF46EA06463D
:10249000360C4FF000034FF000024FF0000194E7BC
:1024A0002DE9804C9A46934670B491E8380007C8ED
:1024B00031EA400C48BF34EA430C03D5FFF7A4FDD2
:1024C000FFF780FFF0BCBDE8008C2DE9804C9A46F8
:1024D000934670B491E8380007C831EA400C48BF11
:1024E00034EA430C03D5FFF78FFDFFF729FFF0BC5B
:1024F000BDE8008C2DE9804C9A46934670B491E873
:10250000380007C810F0804F08BF13F0804F03D188
:1025100000F01AF8FFF756FFF0BCBDE8008C2DE97B
:10252000804C9A46934670B491E8380007C810F082
:10253000804F08BF13F0804F03D100F005F8FFF77C
:10254000FFFEF0BCBDE8008C20F07F4780EA03006E
:1025500023F07F4C07EB0C03A3F57C5300F0004005
:10256000A3F1FE0392F0000F00F0B38095F0000F8E
:1025700000F077802DE901494FEA11404FEA1446F7
:1025800021EA004800FB06FC24EA064708FB06F6A1
:1025900007FB08F800FB07F718EB06484CEB164C56
:1025A0004FEA124B18EB07484FEA15464CEB174021
:1025B00022EA0B4E0BFB06FC25EA06470EFB06F64D
:1025C00007FB0EFE0BFB07F71EEB064E4CEB164C03
:1025D0004FF000061EEB074E4CEB174B18EB0B08A9
:1025E00040F1000018EB0E0B58EB000840F1000022
:1025F0008F1A4FF000013CBFC943661B14BFB5EBF7
:10260000040C00213CBFC943F61B4FEA17444EEAB5
:102610008E0E27EA04454FEA1C4704FB07622CEAAA
:10262000074C05FB07F70CFB05F604FB0CFC16EB4F
:10263000074642EB174216EB0C4642EB1C421BEBE3
:10264000060658EB0202414146EA9E0601D5BDE866
:102650000189B619524141EB0101A3F10103BDE823
:1026600001894FEA14454FEA114724EA054621EA59
:10267000074C05FB07F406FB07F70CFB06F105FB0F
:102680000CFC11EB074144EB17444FEA124711EBE6
:102690000C4144EB1C4422EA074C05FB07F206FB05
:1026A00007F70CFB06F605FB0CFC16EB074642EBA6
:1026B000174216EB0C4642EB1C456A1854F1000118
:1026C00048BF7047B619524141EB0101A3F1010324
:1026D000704795F0000F37D04FEA11424FEA144788
:1026E00021EA024624EA074C02FB07F106FB07F742
:1026F0000CFB06F402FB0CFC14EB074441EB174106
:102700004FEA154714EB0C4441EB1C4125EA074CFA
:1027100002FB07F506FB07F70CFB06F602FB0CFCB9
:1027200016EB074645EB174516EB0C4645EB1C42EE
:10273000121951F1000148BF7047B619524141EBDF
:102740000101A3F1010370474FEA14454FEA114715
:1027500024EA054621EA074C05FB07F106FB07F7CB
:102760000CFB06F24FF0000605FB0CFC12EB0742D7
:1027700041EB174112EB0C4251EB1C4148BF704733
:10278000921841EB0101A3F10103704710B501223A
:102790000249034802F092FA10BD00003500002003
:1027A000180300200FB400B59BB01DA8019002A82B
:1027B000019A1C99FDF77EFD0020019002A800F00F
:1027C0000FF81BB05DF814FB01B54FF0FF33012289
:1027D0006946024802F0D8FA08BD0000180300203C
:1027E00070B50446002504E0605DFFF7EDFF681C4E
:1027F00085B2605D0028F7D170BD00002DE9F04181
:102800005D48007801287DD15CA15D48FDF764FD3D
:1028100080465CA14046FDF78DFD002873D157A18D
:10282000FDF75AFD064655A10020FDF755FD074668
:1028300056A13046FDF77EFD80B9384604F044FBD2
:10284000044604F053FC53490861384604F03CFB4D
:10285000044604F04BFC5049086185E04FA1304626
:10286000FDF768FD80B9384604F02EFB044604F0FD
:102870003DFC48498861384604F026FB044604F0D4
:1028800035FC454988616FE046A13046FDF752FDB1
:1028900080B9384604F018FB044604F027FC3D4993
:1028A0004861384604F010FB044604F01FFC3A4926
:1028B000486159E03DA13046FDF73CFD80B93846FE
:1028C00004F002FB044604F011FC3B490861384661
:1028D00004F0FAFA044604F009FC3849086143E0C0
:1028E00037A13046FDF726FD98B9384604F0ECFADA
:1028F000044604F0FBFB30498861384604F0E4FAF2
:10290000044601E035E030E004F0F0FB2B4988613B
:102910002AE02EA13046FDF70DFD80B9384604F0BF
:10292000D3FA044604F0E2FB23494861384604F038
:10293000CBFA044604F0DAFB2049486114E026A1F2
:102940003046FDF7F7FC78B9384604F0BDFA044686
:1029500004F0CCFB18490860384604F0B5FA044688
:1029600004F0C4FB1549086000BF0020024908704C
:1029700000BFBDE8F0810000340000202C00000002
:10298000A4030020736C6964657200004D314B70C4
:102990000000000064000020A00000204D314B64C6
:1029A000000000004D314B6900000000416E676C73
:1029B00065314B7000000000DC0000201801002091
:1029C000416E676C65314B6400000000416E676CBE
:1029D00065314B6900000000746172676574000026
:1029E00000BFFEE710B50648006806494860084683
:1029F00003F080FB0349C86800F018F810BD000020
:102A0000140000206400002010B506480068064944
:102A10004860084603F06EFB0349C86800F01CF8E4
:102A200010BD000018000020A000002070B5044672
:102A30000848046000F0E2F806494860084603F0E0
:102A400059FB0449C86805F01FF905B2284602F091
:102A500071FE70BDDC00002070B5044608480460BB
:102A600000F0CCF806494860084603F043FB0449EF
:102A7000C86805F009F905B2284602F085FE70BD68
:102A8000180100202DE9FF5F34480088801F00B244
:102A9000324908803248B0F9000004F0A9FD8246AE
:102AA0008B463048B0F9000004F0A2FD06465246BD
:102AB0005B4604F049F981F0004180462A4A2B4BDD
:102AC00004F002FC04460022294B04F0E5FDCDE9A8
:102AD000020104F00BFB274908602048B0F9000010
:102AE00004F086FD80460022234B04F0EDFB0646F1
:102AF0000022224B04F0D0FD0446214A214B04F071
:102B0000CBFD82468B462048006804F0EFFF52461A
:102B10005B46CDE9000104F01BFBCDE9020104F0A6
:102B2000E5FA1A4908601A4801684FF07E5005F02E
:102B3000F9F9064615480168304605F0F5F80446EF
:102B40000C4801681248006805F0EEF80546214679
:102B500004F0F8FF0C490860BDE8FF9F0800002062
:102B600004000020000000206E861BF0F9210940BF
:102B700000806640540000200000E04000409F407C
:102B80007B14AE47E17A843F5C00002058000020AF
:102B90006000002010B5024800F0BAF810BD000037
:102BA000600300207047000004490968496A08B2C0
:102BB0000021024A12685162704700004002002062
:102BC00004490968496A08B20021024A1268516240
:102BD000704700008802002010B53C21034801F036
:102BE0001FFB3C21024801F01BFB10BD40020020EE
:102BF0008802002072B600BFFEE7000001480068AE
:102C0000704700005C0000200146002291F821007E
:102C1000022808D00420886300BF002081F820002B
:102C200000BF012070470868006820F00E000B68A4
:102C300018600868006820F001000B68186091F8BF
:102C4000403001209840CB6B5860012081F8210072
:102C500000BF002081F8200000BF1046E2E700001E
:102C600070B50446002594F82100022803D0042002
:102C7000A063012548E02068006820F00E0021686C
:102C800008602068006820F00100216808601F4982
:102C90002068884201D1012026E01C4914312068B7
:102CA000884201D110201FE018492831206888424D
:102CB00001D1801518E015493C312068884201D1C6
:102CC000801411E0114950312068884202D14FF43C
:102CD000803009E00D4964312068884202D14FF408
:102CE000801001E04FF080700849083948600120E9
:102CF00084F8210000BF002084F8200000BF606B32
:102D000010B12046616B8847284670BD080002401C
:102D100070B50446E06B05682068066894F84010BA
:102D2000042088402840002846D006F004000028EF
:102D300042D02068006800F0200028B920680068B0
:102D400020F004002168086057492068884201D1BA
:102D5000042027E0544914312068884201D14020E2
:102D600020E0514928312068884201D1001519E03E
:102D70004D493C312068884202D14FF4804011E037
:102D8000494950312068884202D14FF4802009E03F
:102D9000454964312068884202D14FF4800001E047
:102DA0004FF08060404908394860E06A00287AD0D6
:102DB0002046E16A884776E094F840100220884077
:102DC0002840A0B306F0020088B32068006800F035
:102DD000200040B92068006820F00A0021680860DF
:102DE000012084F8210030492068884201D1022066
:102DF00028E02D4914312068884201D1202021E0AB
:102E0000294928312068884201D140151AE0264915
:102E10003C312068884202D14FF4005012E0224930
:102E200050312068884203D14FF400300AE017E0A7
:102E30001D4964312068884202D14FF4001001E03E
:102E40004FF0007018490839486000BF002084F82E
:102E5000200000BFA06A30B32046A16A884722E064
:102E600094F84010082088402840E0B106F008009F
:102E7000C8B12068006820F00E002168086094F84E
:102E8000401001208840E16B48600120A06384F875
:102E9000210000BF002084F8200000BF206B10B18B
:102EA0002046216B884770BD080002400146002281
:102EB00009B901207047164B0868C01A1423B0FBEB
:102EC000F3F08000086412480838C863022081F8D3
:102ED00021000868026843F6F0708243D1E90103DB
:102EE0001843CB6818430B6918434B6918438B6927
:102EF0001843CB69184302430868026000208863C6
:102F0000012081F82100002081F8200000BFD1E7D6
:102F1000080002402DE9F8470346002294466EE17E
:102F20004FF0010808FA02F4D1F8008008EA040022
:102F3000A0427DD1DFF8DCA2D1F80480A8EB0A0919
:102F4000D0453AD014DCB8F1030F50D009DCB8F109
:102F5000000F31D0B8F1010F1CD0B8F1020F49D1E8
:102F600020E0B8F1110F18D0B8F1120F42D11EE0D5
:102F7000B9F5881F25D006DCB9F5803F20D0B9F51A
:102F8000801F37D11AE0B9F5001F18D0B9F5041F1A
:102F900030D117E0D1F80CC02DE0D1F80C8008F149
:102FA000040C28E0D1F80C8008F1080C23E0D1F8DB
:102FB0000C8008F10C0C1EE000BF00BF00BF00BF7A
:102FC00000BF00BFD1F80880B8F1000F02D14FF068
:102FD000040C0BE0D1F80880B8F1010F03D14FF0D9
:102FE000080C1C6102E04FF0080C5C6103E04FF03C
:102FF000000C00E000BF00BFFF2801D8984601E0A8
:1030000003F104084646FF2802D84FEA820803E08D
:10301000A2F108084FEA88084746D6F800804FF02A
:103020000F0909FA07F928EA09080CFA07F900E07C
:1030300088E048EA0908C6F80080D1F8048008F062
:103040008058B8F1805F7DD100BFDFF8CC81D8F81F
:10305000188048F00108DFF8C091C9F81880C84608
:10306000D8F8188008F00108CDF8008000BF00BF34
:103070004FEAB9384FEA920958F829504FEA827856
:103080004FEA18794FF00F0808FA09F825EA080501
:10309000DFF88881434502D14FF0000816E0DFF8E1
:1030A0008081434502D14FF001080FE0DFF87481C1
:1030B000434502D14FF0020808E0DFF86C81434538
:1030C00002D14FF0030801E04FF004084FEA827983
:1030D0004FEA197908FA09F848EA0505DFF84C8142
:1030E0004FEA920948F82950D1F8048008F4801872
:1030F000B8F5801F0AD1DFF83881D8F8008048EA97
:103100000008DFF82C91C9F8008009E0DFF8208181
:10311000D8F8008028EA0008DFF81491C9F8008088
:10312000D1F8048008F40018B8F5001F10D1DFF8BA
:10313000008108F10408D8F8008048EA0008DFF8A8
:10314000F09000E05AE009F10409C9F800800DE0B0
:10315000DFF8DC8008F10408D8F8008028EA0008CD
:10316000DFF8CC9009F10409C9F80080D1F8048097
:1031700008F40038B8F5003F0ED1DFF8B480A8F1AC
:103180000408D8F8008048EA0008DFF8A490A9F104
:103190000409C9F800800DE0DFF89480A8F1040864
:1031A000D8F8008028EA0008DFF88490A9F1040923
:1031B000C9F80080D1F8048008F48038B8F5803F61
:1031C0000ED1DFF86C80A8F10808D8F8008048EA32
:1031D0000008DFF85C90A9F10809C9F800800DE04B
:1031E000DFF84C80A8F10808D8F8008028EA000829
:1031F000DFF83C90A9F10809C9F80080521CD1F809
:10320000008028FA02F8B8F1000F7FF489AEBDE81B
:10321000F887000000001110001002400008014073
:10322000000C014000100140001401400800014062
:1032300008040140024693680B400BB1012000E0F6
:10324000002070470AB1016101E00B04036170477F
:1032500001480068704700002400002070B5044653
:103260000CB9012070BD94F83D0028B9002084F805
:103270003C00204600F0DAF8242084F83D00206865
:10328000006820F00100216808602068006840F4B0
:103290000040216808602068006820F40040216830
:1032A000086000F0ABFA05465C496068884206D8C1
:1032B0005B48854201D2012007E0002005E0594823
:1032C000854201D2012000E00020012800D1C9E799
:1032D0005548B5FBF0F62068406820F03F003043C9
:1032E000216848604D496068884201D8701C07E039
:1032F0004FF4967070434FF47A71B0FBF1F0401CBC
:103300002168096A21F03F010843216808624349A6
:103310006068884214D8681E61684900B0FBF1F00B
:10332000401CC0F30B00042801D204203DE0681EBD
:1033300061684900B0FBF1F0401CC0F30B0034E0C1
:10334000A06838B9681E616801EB4101B0FBF1F07B
:10335000401C0AE0681E616801EBC10202EB01112A
:10336000B0FBF1F0401C40F48040C0F30B0008B902
:1033700001201AE0A06848B9681E616801EB4101AC
:10338000B0FBF1F0401CC0F30B000CE0681E61685C
:1033900001EBC10202EB0111B0FBF1F0401CC0F3E4
:1033A0000B0040F4804040F400402168C9694CF6AD
:1033B000FF72914308432168C861D4E907010843BB
:1033C0002168096821F0C001084321680860D4E938
:1033D000031008432168896848F2FF32914308438B
:1033E00021688860D4E9050108432168C96821F093
:1033F000FF0108432168C8602068006840F00100B0
:103400002168086000202064202084F83D0000200E
:10341000206384F83E0000BF24E70000A08601007E
:1034200080841E0000093D0040420F0010B586B0A8
:103430000446002002900390049005901A492068E9
:1034400088422FD100BF1948806940F00800174911
:1034500088610846806900F00800019000BF00BF45
:103460004FF440700290122003900320059002A9AF
:103470000F48FFF74FFD00BF0E49486840F0E0607D
:1034800040F00200486000BF00BF0848C06940F437
:1034900000100649C8610846C06900F40010019098
:1034A00000BF00BF06B010BD005400400010024035
:1034B000000C0140000001400348006803490978FE
:1034C0000844014908607047240000202C000020B7
:1034D00010B50848006840F0100006490860032055
:1034E00000F0ACF80F2000F007F800F02BF80020F7
:1034F00010BD00000020024070B504460E48007860
:103500004FF47A71B1FBF0F00C490968B1FBF0F5AA
:10351000284600F0FDFB08B1012070BD102C07D239
:1035200000222146501E00F04BF80548046001E0DF
:103530000120F2E70020F0E72C00002030000020FE
:103540002800002008B500BF1348806940F0010042
:10355000114988610846806900F00100009000BFB1
:1035600000BF00BF0846C06940F08050C8610846EF
:10357000C06900F08050009000BF00BF052000F03F
:103580005DF800BF0549486820F0E06040F0007039
:10359000486000BF08BD000000100240000001406C
:1035A00001460846002809DB00F01F0301229A406B
:1035B00043099B0003F1E023C3F8002100BF7047DB
:1035C0002DE9F05F80460D461646002703F0AEF960
:1035D000074639462A46334601F00700C0F1070A7C
:1035E000BAF1040F02D94FF0040A01E0C0F1070A52
:1035F000D14600F1040ABAF1070F02D24FF0000AD7
:1036000001E0A0F1030AD4464FF0010A0AFA09FAD0
:10361000AAF1010A0AEA020A0AFA0CFA4FF0010BAF
:103620000BFA0CFBABF1010B0BEA030B4AEA0B04A0
:103630002146404603F082F9BDE8F09F00BF00F04C
:103640000702064B19684FF6FF031940044B0B4362
:1036500043EA0221014B196000BF70470CED00E006
:103660000000FA0570B504460D460CB9012070BD86
:103670005A48006800F00700A8420ED25748006878
:1036800020F007002843554908600846006800F00C
:103690000700A84201D00120E9E7207800F00200ED
:1036A00002281DD1207800F00400042805D14C48E0
:1036B000406840F4E0604A494860207800F0080023
:1036C000082805D14648406840F4605044494860A5
:1036D0004348406820F0F000A16808434049486032
:1036E000207800F0010078B36068012806D13C48DA
:1036F000006800F4003090B90120B8E76068022843
:1037000006D13748006800F0007040B90120AEE7EC
:103710003348006800F0020008B90120A7E73048EC
:10372000406820F00300616808432D494860FFF7B6
:103730008FFD064609E0FFF78BFD801B41F28831C3
:10374000884202D9032092E707E02548406800F04C
:103750000C006168B0EB810FEDD12048006800F0EB
:103760000700A8420ED91D48006820F00700284332
:103770001A4908600846006800F00700A84201D016
:10378000012074E7207800F00400042807D11448D1
:10379000406820F4E060E1680843114948602078FF
:1037A00000F00800082808D10D48406820F4605057
:1037B000216940EAC1000A49486000F03FF8084921
:1037C0004968C1F30311074A515CC84006490860C3
:1037D00006480068FFF790FE002048E700200240FE
:1037E000001002402A81000830000020280000203C
:1037F00001480068704700003000002000B5FFF766
:10380000F7FF04494968C1F30221034A515CC840EB
:1038100000BD0000001002403A81000800B5FFF72B
:10382000E7FF04494968C1F3C221034A515CC8401B
:1038300000BD0000001002403A81000870B5002170
:103840000022002400230020134D696801F00C05BC
:10385000F5B1042D02D0082D19D101E00F4819E06F
:103860000F4DC1F38346AB5D01F4803555B10A4D70
:103870006D68C5F340450B4E725D084D5D43B5FB69
:10388000F2F402E0084D03FB05F4204602E000BF1D
:10389000024800BF00BF70BD0010024000127A0055
:1038A000188100082881000800093D00F8B5044689
:1038B0000CB90120F8BD207800F00100002878D074
:1038C000F848406800F00C0004280CD0F548406827
:1038D00000F00C00082811D1F248406800F4803054
:1038E000B0F5803F0AD1EF48006800F400300028AE
:1038F0005FD0606800285CD10120DBE700BF606812
:10390000B0F5803F06D1E748006840F48030E549D3
:10391000086028E0606858B9E248006820F4803008
:10392000E04908600846006820F4802008601AE03A
:103930006068B0F5A02F0BD1DA48006840F4802011
:10394000D84908600846006840F4803008600AE002
:10395000D448006820F48030D249086008460068E6
:1039600020F48020086000BF606888B1FFF770FC19
:10397000054606E0FFF76CFC401B642801D90320D4
:1039800098E7C848006800F400300028F2D010E042
:10399000FFF75EFC054606E0FFF75AFC401B642873
:1039A00001D9032086E7BF48006800F400300028F2
:1039B000F2D1207800F00200022857D1B9484068BF
:1039C00000F00C0050B1B748406800F00C00082827
:1039D00018D1B448406800F4803098B9B148006804
:1039E00000F0020020B12069012801D0012061E728
:1039F000AC48006820F0F800616940EAC100A949BC
:103A0000086033E02069E8B10120A7490860FFF7AA
:103A10001FFC054606E0FFF71BFC401B022801D9EE
:103A2000032047E79F48006800F002000028F2D01A
:103A30009C48006820F0F800616940EAC10099499B
:103A4000086013E0002098490860FFF701FC054674
:103A500006E0FFF7FDFB401B022801D9032029E700
:103A60009048006800F002000028F2D1207800F0B1
:103A7000080008282DD1A069B8B101208B49086041
:103A8000FFF7E6FB054606E0FFF7E2FB401B0228D6
:103A900001D903200EE78348406A00F002000028A5
:103AA000F2D0012002F090FB13E000207F49086073
:103AB000FFF7CEFB054606E0FFF7CAFB401B0228D6
:103AC00001D90320F6E67748406A00F0020000289A
:103AD000F2D1207800F00400042873D10027714847
:103AE000C06900F0805070B900BF6E48C06940F0F6
:103AF00080506C49C8610846C06900F08050009051
:103B000000BF00BF01276A48006800F48070B0B9A8
:103B10006748006840F4807065490860FFF798FBCB
:103B2000054606E0FFF794FB401B642801D90320FB
:103B3000C0E65F48006800F480700028F2D000BF43
:103B4000E068012806D15748006A40F00100554955
:103B5000086227E0E06858B95248006A20F0010086
:103B6000504908620846006A20F00400086219E023
:103B7000E06805280BD14B48006A40F00400494931
:103B800008620846006A40F0010008620AE0454801
:103B9000006A20F00100434908620846006A20F0EC
:103BA0000400086200BFE068A0B1FFF751FB0546C2
:103BB00009E0FFF74DFB401B41F28831884202D9F2
:103BC000032077E622E03748006A00F00200002870
:103BD000EFD012E0FFF73CFB054608E0FFF738FBAB
:103BE000401B41F28831884201D9032062E62D480A
:103BF000006A00F002000028F0D1012F05D1294809
:103C0000C06920F080502749C86100BFE069C8B38F
:103C10002448406800F00C00082860D0E0690228C1
:103C200048D1002020490866FFF712FB054606E050
:103C3000FFF70EFB401B022801D903203AE6194882
:103C4000006800F000700028F2D1206AB0F5803FD3
:103C500007D11448406820F40030A1680843114996
:103C60004860D4E9080108430E49496821F47411F9
:103C700008430C49486001200B490866FFF7E8FA41
:103C8000054607E03DE0FFF7E3FA401B022801D9B3
:103C900003200FE60348006800F000700028F2D00F
:103CA0002FE0000000100240000042428004424227
:103CB00000700040002014490866FFF7C9FA054665
:103CC00006E0FFF7C5FA401B022801D90320F1E501
:103CD0000E48006800F000700028F2D111E0E069A1
:103CE000012800D1E6E50948466806F48031206ADB
:103CF000814204D106F47011606A814201D0012032
:103D0000D8E50020D6E50000000042420010024045
:103D100070B504462546681EB0F1807F01D30120AE
:103D20000FE0681E4FF0E02148610F214FF0FF3097
:103D300002F004FE00204FF0E021886107200861B6
:103D4000002070BD7047704730B502460B4600BF7B
:103D500092F83C00012801D1022030BD012082F8F8
:103D60003C0000BF022082F83D00106844681068E3
:103D7000816824F070041868044310684460104D92
:103D80001068A8420BD01068B0F1804F07D00D4DDD
:103D90001068A84203D00C4D1068A84205D121F04C
:103DA00080015868014310688160012082F83D005D
:103DB00000BF002082F83C0000BF00BFCDE700003C
:103DC000002C0140000400400008004010B50446EB
:103DD0000CB9012010BD94F83D0028B9002084F8EA
:103DE0003C00204600F026F8022084F83D00211D0A
:103DF000206802F047FA012084F8460000BF84F8EA
:103E00003E0001213F200155402001554120015530
:103E100000BF00BF012084F8420043200155442028
:103E200001554520015500BF012084F83D000020C8
:103E3000D0E7000038B5044616492068884216D1FC
:103E400000BF1548806940F4006013498861084646
:103E5000806900F40060009000BF00BF002211469E
:103E60001920FFF7ADFB1920FFF79AFB11E020683E
:103E7000B0F1804F0DD100BF0748C06940F001008C
:103E80000549C8610846C06900F00100009000BF04
:103E900000BF38BD002C014000100240014691F8DF
:103EA0003D00012801D001207047022081F83D002B
:103EB000124B086898420BD00868B0F1804F07D0C9
:103EC0000F4B0868984203D00E4B086898420CD1FB
:103ED0000868806800F00702062A0CD008680068AD
:103EE00040F001000B68186005E00868006840F0C9
:103EF00001000B6818600020D6E70000002C01408C
:103F00000004004000080040014691F83D000128EF
:103F100001D001207047022081F83D000868C06888
:103F200040F001000B68D860124B086898420BD033
:103F30000868B0F1804F07D00F4B0868984203D053
:103F40000E4B086898420CD10868806800F00702A0
:103F5000062A0CD00868006840F001000B68186061
:103F600005E00868006840F001000B681860002058
:103F7000D0E70000002C0140000400400008004091
:103F80002DE9F04104460D46002700BF94F83C009F
:103F9000012802D10220BDE8F081012084F83C0014
:103FA00000BF022084F83D002068866826F077066E
:103FB00026F47F46206886602868502833D00CDCC1
:103FC000202850D004DC00284BD0102851D149E0E3
:103FD000302849D040284CD139E060282DD07028B5
:103FE00007D0B0F5805F03D0B0F5005F41D10DE0A0
:103FF00041E0D5E902136A68206802F096F920686A
:10400000866846F077062068866034E0D5E90213BA
:104010006A68206802F089F92068806840F480406E
:104020002168886027E0EA686968206802F04EFA33
:104030005021206802F084F91DE0EA686968206870
:1040400002F057FA6021206802F07AF913E0EA687A
:104050006968206802F03AFA4021206802F070F99D
:1040600009E000BF00BF00BF2968206802F068F9BE
:1040700001E0012700BF00BF012084F83D0000BF20
:10408000002084F83C0000BF384684E72DE9F04169
:1040900004460D4614B90120BDE8F08194F83D00B6
:1040A00028B9002084F83C00204600F051F8022096
:1040B00084F83D002068806844F207018843216845
:1040C0008860211D206802F0DDF82068D0F80880A3
:1040D000206886692068076A286840EA080840F274
:1040E00003308643A969A86840EA0120064340F6E8
:1040F0000C4086434FF2F0008643E969E86840EAE5
:104100000120064328690001296A40EA013006437C
:1041100027F022076969686840EA011007432068B0
:10412000C0F808802068866120680762012084F852
:10413000460084F83E0001213F200155012084F80B
:10414000420043200155012084F83D000020A3E7F0
:1041500010B586B0044600200290039004900590AC
:104160002A492068884225D100BF2948C06940F00B
:1041700002002749C8610846C06900F002000190AA
:1041800000BF00BF00BF0846806940F0040088619E
:104190000846806900F00400019000BF00BFC02005
:1041A0000290002003900120049002A91948FEF714
:1041B000B1FE28E018492068884224D100BF144885
:1041C000C06940F004001249C8610846C06900F0A7
:1041D0000400019000BF00BF00BF0846806940F0A6
:1041E000080088610846806900F00800019000BF5F
:1041F00000BFC0200290002003900120049002A97B
:104200000648FEF787FE06B010BD0000000400401F
:10421000001002400008014000080040000C01406E
:104220002DE9F04304460D4694F83E603F20075DBB
:1042300094F84280432010F804906DB9012E02D109
:10424000B8F1010F02D00120BDE8F083022084F80C
:104250003E0084F8420025E0042D0CD1012F02D14C
:10426000B9F1010F01D00120EEE702213F200155F5
:104270004320015516E0012E07D1012F05D1B8F1D9
:10428000010F02D1B9F1010F01D00120DCE70220BA
:1042900084F83E0002213F200155022084F84200AC
:1042A0004320015515B1042D0CD105E00122002158
:1042B000206802F029F810E001220421206802F0B1
:1042C00023F80AE001220021206802F01DF80122F3
:1042D0000421206802F018F800BF00BF20680068C1
:1042E00040F00100216808600020ADE7704770B51C
:1042F00004462068C5682068066906F002000228A6
:1043000019D105F00200022815D1401F216808616B
:10431000012020772068806900F0030018B1204652
:10432000FFF7E4FF05E0204600F0C2F8204600F069
:1043300076F90020207706F00400042819D105F052
:104340000400042815D1C0432168086102202077A9
:104350002068806900F4407018B12046FFF7C6FF5E
:1043600005E0204600F0A4F8204600F058F90020AF
:10437000207706F00800082819D105F00800082861
:1043800015D1C04321680861042020772068C069E6
:1043900000F0030018B12046FFF7A8FF05E0204613
:1043A00000F086F8204600F03AF90020207706F069
:1043B0001000102819D105F01000102815D1C043A5
:1043C00021680861082020772068C06900F44070E7
:1043D00018B12046FFF78AFF05E0204600F068F894
:1043E000204600F01CF90020207706F0010048B1BB
:1043F00005F0010030B16FF001002168086120462E
:1044000000F078F906F08000802809D105F08000DE
:10441000802805D1C043216808612046FFF792FC3F
:1044200006F04000402809D105F04000402805D1A1
:10443000C04321680861204600F0E4F906F020003E
:10444000202809D105F02000202805D1C04321688B
:1044500008612046FFF777FC70BD000010B586B0FC
:104460000446002002900390049005902068B0F16B
:10447000804F16D100BF0C48806940F004000A4903
:1044800088610846806900F00400019000BF00BF09
:104490000320029002200390059002A90348FEF732
:1044A00039FD06B010BD00000010024000080140B8
:1044B00070472DE9F04104460D461646002700BF1F
:1044C00094F83C00012802D10220BDE8F0810120CF
:1044D00084F83C0000BF36B1042E1BD0082E31D02A
:1044E0000C2E5ED145E02946206801F033FF20689C
:1044F000806940F00800216888612068806920F0A8
:10450000040021688861206880692969084321685E
:10451000886148E02946206801F04CFF20688069E6
:1045200040F40060216888612068806920F4806020
:104530002168886120688069296940EA0120216832
:10454000886130E02946206801F068FF2068C06972
:1045500040F008002168C8612068C06920F00400AC
:104560002168C8612068C069296908432168C86159
:1045700019E02946206801F085FF2068C06940F4F1
:1045800000602168C8612068C06920F480602168EB
:10459000C8612068C069296940EA01202168C861B2
:1045A00001E0012700BF00BF00BF002084F83C00ED
:1045B00000BF384689E710B504460CB9012010BD8C
:1045C00094F83D0028B9002084F83C00204600F013
:1045D00025F8022084F83D00211D206801F052FEDC
:1045E000012084F8460000BF84F83E0001213F20EE
:1045F0000155402001554120015500BF00BF012059
:1046000084F84200432001554420015545200155BE
:1046100000BF012084F83D000020D0E770477047BC
:1046200070B504460D4615B994F83E000BE0042D14
:1046300002D13F20005D06E0082D02D14020005D40
:1046400001E04120005D012801D0012070BD1DB9AD
:10465000022084F83E000EE0042D03D102213F2009
:10466000015508E0082D03D102214020015502E048
:1046700002214120015501222946206801F044FE13
:1046800019492068884201D1012000E0002028B1AA
:104690002068406C40F4004021684864124920685A
:1046A00088420BD02068B0F1804F07D00F492068B6
:1046B000884203D00E49206888420CD12068806867
:1046C00000F00706062E0CD02068006840F00100BC
:1046D0002168086005E02068006840F0010021685A
:1046E00008600020B2E70000002C014000040040F8
:1046F000000800402DE9FC5F82463249DAF80000EC
:1047000088425DD100F0E0FB2F480088401C2E4914
:10471000088008460088322801D1002008802B48F4
:104720000078401C2949087008460078322847D193
:104730000020087026482749274B284ACDE9001059
:104740002749284800F018FDFEF79CF9FEF72CFADF
:10475000834602F04DFF0022234BCDE9000102F019
:10476000B3FD8046214A224B02F0AEFD0646214AA7
:10477000214B02F0A9FD044602F0B8FC1F49086075
:10478000FEF71EFAC0F1000B584602F031FF064654
:104790000022154B02F098FD0446144A144B02F017
:1047A00093FD144A144BCDE9000102F08DFD8046C3
:1047B00002F09CFC12490860FEF714F9FEF724F998
:1047C000BDE8FC9F002C01401C00002022000020BE
:1047D0000A0000200800002006000020040000203D
:1047E0000200002000000020000046409A9999999C
:1047F0009999A93F04392861A68D22401400002010
:104800001800002070477047704700002DE9F84FEE
:104810000446206805682068C668206847694FF02C
:104820000009CA4605F00F09B9F1000F0AD105F0D9
:10483000200038B106F0200020B1204601F0BDFE76
:10484000BDE8F88FB9F1000F7BD007F0010018B96F
:1048500006F49070002874D005F0010030B106F421
:10486000807018B1606C40F00100606405F00400D5
:1048700030B107F0010018B1606C40F002006064D4
:1048800005F0020030B107F0010018B1606C40F093
:104890000400606405F0080048B106F0200010B97B
:1048A00007F0010018B1606C40F008006064606CB3
:1048B000002845D005F0200028B106F0200010B1F6
:1048C000204601F07AFE20684069C0F3801A606CCF
:1048D00000F0080010B9BAF1000F2CD0204601F00A
:1048E00026FE2068406900F0400000B300BF00BF12
:1048F0002168143151E8001F21F040002168143173
:1049000041E80002002AF3D100BFE06B50B17748C4
:10491000E16B4863E06BFEF7A3F988B1E06B416B94
:1049200088470DE02046FFF76FFF09E009E02046C9
:10493000FFF76AFF04E02046FFF766FF002060648F
:104940007EE7206B012877D105F01000002873D096
:1049500006F010000028FAD000BF00200090206868
:104960000068009020684068009000BF00BF206889
:10497000406900F0400000285FD0E06B00684068AC
:104980001FFA80F8B8F1000F55D0A08D404552DDD8
:10499000A4F82E80E06B8069202843D000BF00BFC0
:1049A00021680C3151E8001F21F4807021680C311E
:1049B00041E80002002AF3D100BF00BF00BF216818
:1049C000143151E8001F21F001002168143141E841
:1049D0000002002AF3D100BF00BF00BF21681431DC
:1049E00051E8001F21F040002168143141E8000225
:1049F000002AF3D100BF202084F842000020206369
:104A000000BF00BF21680C3151E8001F21F01000E9
:104A100021680C3141E80002002AF3D100BFE06BAD
:104A2000FEF7F2F802206063A08DE28D801A81B259
:104A30002046FFF7E8FE03E742E0A08DE18D401A33
:104A40001FFA80F8E08DD0B3B8F1000F37D000BF67
:104A500000BF21680C3151E8001F21F490702168DB
:104A60000C3141E80002002AF3D100BF00BF00BFB3
:104A70002168143151E8001F21F001002168143130
:104A800041E80002002AF3D100BF202084F8420050
:104A90000020206300BF00BF21680C3151E8001FD7
:104AA00021F0100021680C3141E80002002AF3D106
:104AB00000BF0220606341462046FFF7A4FEBFE628
:104AC00005F0800030B106F0800018B1204601F0FA
:104AD00091FEB5E605F0400030B106F0400018B197
:104AE000204601F05AFDABE600BFA9E61B650008B1
:104AF00010B504460CB9012010BDA06900B100E05A
:104B000000BF94F8410028B9002084F840002046F6
:104B100000F02AF8242084F841002068C06820F4BE
:104B200000502168C860204601F0C6FD2068006979
:104B300020F49040216808612068406920F02A0034
:104B4000216848612068C06840F400502168C8604E
:104B500000206064202084F8410084F84200002096
:104B6000606300BFC8E7000010B586B004460020AF
:104B700002900390049005904A492068884253D1DE
:104B800000BF4948806940F4804047498861084631
:104B9000806900F48040019000BF00BF00BF08465C
:104BA000806940F0040088610846806900F00400D4
:104BB000019000BF00BF481502900220039003201F
:104BC000059002A93948FEF7A5F94FF480600290DC
:104BD000002003900120049002A93448FEF79AF9BE
:104BE0003348344908601020486000213148816012
:104BF0008021C160002101614161202181610902A0
:104C0000C161FEF753F908B1FDF7F4FF00BF294871
:104C1000A063446200BF002201212520FEF7D0FCE2
:104C20002520FEF7BDFC3AE023492068884236D1B2
:104C300000BF1D48C06940F400301B49C8610846E8
:104C4000C06900F40030019000BF00BF00BF0846FB
:104C5000806940F0040088610846806900F0040023
:104C6000019000BF00BF04200290022003900320A7
:104C7000059002A90D48FEF74DF90820029000208A
:104C800003900120049002A90848FEF743F900228E
:104C900001212620FEF794FC2620FEF781FC06B0B9
:104CA00010BD000000380140001002400008014023
:104CB00044000240600300200044004070B50446F8
:104CC0000D46164694F8420020280BD105B10EB9C6
:104CD000012070BD0020206332462946204601F0A5
:104CE00069FDF6E70220F4E710B504461F49206885
:104CF000884239D11E48007868B91E4800785B2880
:104D00002DD11D48007850BB0120194908700020A2
:104D10001A49087023E01648007801281FD1154869
:104D200000785D280AD10020114908701449134AFF
:104D30001278885401201049087010E00D4800785E
:104D40000F490E4A127888540C480078401C0B49D1
:104D5000087008460078632801DB63200870012290
:104D600004490848FFF7AAFF10BD000000440040B6
:104D700036000020350000203400002037000020DD
:104D8000A4030020180300202DE9F84F04460E4626
:104D9000174699464FF0000A94F84100202850D158
:104DA00006B117B90120BDE8F88F0020606421200A
:104DB00084F84100FEF74CFA8246A784E784A06895
:104DC000B0F5805F04D1206910B90025B04602E03B
:104DD00035464FF000081EE0534600228021204651
:104DE000CDF8009001F036FD20B1202084F841007C
:104DF0000320D8E745B9B8F80000C0F308002168DF
:104E0000486008F1020803E02878216848606D1CBA
:104E1000E08C401EE084E08C0028DDD15346002267
:104E200040212046CDF8009001F014FD20B1202053
:104E300084F841000320B6E7202084F841000020D8
:104E4000B1E70220AFE7704700BFFEE70246074820
:104E5000805C084040B1012904D00448805C88434C
:104E6000024B9854012070470020FCE738000020D6
:104E700010B5044634B902211148FEF7DBF9E0B958
:104E8000012010BD012C06D101210D48FEF7D2F9F9
:104E900098B90120F5E7022C06D120210948FEF738
:104EA000C9F950B90120ECE7032C06D110210548BF
:104EB000FEF7C0F908B90120E3E70020E1E70000B0
:104EC000000C01400008014010B50020A349087003
:104ED00016E0A348A149097830F8110000280ADD3E
:104EE0009F489E49097830F81100401E9C499B4A12
:104EF000127821F8120099480078401C97490870F0
:104F0000964800780428E4DB96480078401C9549D0
:104F1000087008460078142871DB002008708F495B
:104F2000087015E190488D490978415C8F488B4A9B
:104F30001278815489480078FFF79AFF8A49874A96
:104F400012788854084685490978405C01280AD1BE
:104F5000874882490978405C40F0010084497F4AD3
:104F60001278885409E082487C490978405C20F036
:104F700001007F49794A127888547B48774909783B
:104F8000405C01280ED1794874490978405C48B9E1
:104F9000774872490978405C40F0020174486F4AD2
:104FA0001278815470486D490978405C78B96F482F
:104FB0006A490978405C012809D16D486749097838
:104FC000405C40F004016A48644A127881546948A0
:104FD00062490978405C98B9634860490978405C47
:104FE00001280BD14FF4FA605D495C4A127821F830
:104FF000120001205F49594A12788854A3E0ACE0BE
:105000005C4856490978405C01282DD156485349DF
:105010000978405C58B9C8205149504A127821F8A3
:105020001200022053494D4A127888548BE04C48B4
:105030004A49097830F81100002814D16420484901
:10504000464A127821F81200494844490978405CE0
:1050500040F020004649414A1278885404204549CE
:105060003E4A127888546EE042483C490978405CD8
:1050700002282BD13C4839490978405C01280FD1DE
:105080003B4836490978405C40F010003849334AC3
:105090001278885403203749304A1278885452E0F5
:1050A0002F482E49097830F81100F8B930482B49BB
:1050B0000978405C40F008002D49284A127888544D
:1050C00000202C49254A127888543CE0294823497D
:1050D0000978405C03280AD1234820490978405CBC
:1050E00020B9002023491D4A127888542BE021481A
:1050F0001A490978405C042825D11B4817490978CA
:10510000405C28B900201B49144A127888541AE0E0
:1051100013481249097830F81100A0B964201049E9
:105120000E4A127821F8120011480C490978405CA7
:1051300040F040000E49094A1278885404200D4975
:10514000064A1278885405480078401C03490870C4
:10515000024800780428FFF6E5AE10BD3D000020AF
:105160004A0000203C0000203E00002042000020B9
:1051700038000020460000202DE9FF4704460D4678
:1051800017461E46DDE90C890E2269463B2000F0D9
:1051900050F89DF801009DF8001040EA012000B28F
:1051A00020809DF803009DF8021040EA012000B223
:1051B00028809DF805009DF8041040EA012000B207
:1051C00038809DF809009DF8081040EA012000B2DF
:1051D00030809DF80B009DF80A1040EA012000B2D3
:1051E000A8F800009DF80D009DF80C1040EA012081
:1051F00000B2A9F80000BDE8FF8710B500F044FB3D
:1052000001216B2000F044F800216C2000F040F8F0
:105210000721192000F03CF800211A2000F038F88E
:1052200018211B2000F034F818211C2000F030F861
:1052300010BD2DE9F04107460E46154600F08FFBE4
:10524000D02000F073FB00F03DFB384600F06EFB11
:1052500000F038FB00F083FBD12000F067FB00F08A
:1052600031FB00240EE000F03CFB3055681EA042EC
:1052700003DD002000F04EFB02E0012000F04AFBBD
:10528000601CC4B2AC42EEDB00F077FBBDE8F081FD
:1052900070B505460C4600F062FBD02000F046FBDE
:1052A00000F010FB284600F041FB00F00BFB20460D
:1052B00000F03CFB00F006FB00F05FFB70BD00005F
:1052C00008B500BF0A48406940F00100084948613C
:1052D0000846406900F00100009000BF00BF0022B6
:1052E00001210E20FEF76CF90E20FEF759F908BDDA
:1052F0000010024000B585B000200190029003909C
:10530000049000BF5248806940F010005049886105
:105310000846806900F01000009000BF00BF00BF89
:105320000846806940F0200088610846806900F0E6
:105330002000009000BF00BF00BF0846806940F019
:10534000040088610846806900F00400009000BFF6
:1053500000BF00BF0846806940F008008861084629
:10536000806900F00800009000BF00BF01225103D7
:105370003848FDF767FF01224FF440613648FDF7DA
:1053800061FF00224FF228013348FDF75BFF002246
:105390004FF480713148FDF755FF0122D1032F48AA
:1053A000FDF750FF4FF400500190012002900020C3
:1053B00003900120049001A92648FDF7ABFD3020A1
:1053C0000190002002900120039001A92348FDF7DD
:1053D000A1FD13200190002002900120039001A95B
:1053E0001D48FDF797FD4FF4406001901120029099
:1053F000012003900320049001A91748FDF78AFDBE
:105400004FF4704001900120029000200390022090
:10541000049001A91048FDF77DFD4FF40140019073
:1054200001200290002003900320049001A90B4862
:10543000FDF770FD282001900120029000200390CC
:105440000320049001A90448FDF764FD05B000BDE8
:105450000010024000100140000C01400008014013
:1054600010B50B480B4908600B48486000210948FB
:105470008160C1604FF4804101610021416181611F
:10548000C1610162FDF7EAFE08B1FDF7B3FB10BD93
:10549000005400405C010020A086010000B587B0E8
:1054A000002003900490059006900190029015480A
:1054B000154908604720486000211348816040F288
:1054C000E731C16000210161416180218161FEF706
:1054D0007DFC08B1FDF78EFB4FF48050039003A9CB
:1054E0000948FEF74DFD08B1FDF784FB002001904F
:1054F000029001A90448FEF727FC08B1FDF77AFBEA
:1055000007B000BD002C0140B001002000B58DB0F7
:10551000002009900A900B900C90079008901C2195
:105520006846FAF7DFFE4FF080402449086000200B
:10553000486000212148816040F2E731C1600021CC
:10554000016180218161FEF741FC08B1FDF752FB4A
:105550004FF48050099009A91848FEF711FD08B1D1
:10556000FDF748FB1548FFF726F808B1FDF742FBA9
:1055700000200790089007A91048FEF7E5FB08B146
:10558000FDF738FB6020009000200190029004900D
:10559000002269460948FEF78CFF08B1FDF72AFB97
:1055A000042269460548FEF784FF08B1FDF722FB97
:1055B0000248FEF753FF0DB000BD0000F8010020C7
:1055C00000B58BB0242102A8FAF78CFE00200090D1
:1055D00001901948194908600120486000211748C6
:1055E00081604FF6FF71C16000210161816103207C
:1055F00002900020039001200490002005900F20CD
:1056000006900020079001200890002009900F20AC
:105610000A9002A90948FEF739FD08B1FDF7EAFA38
:1056200000200090019069460448FEF78DFB08B108
:10563000FDF7E0FA0BB000BD00040040400200207E
:1056400000B58BB0242102A8FAF74CFE0020009090
:105650000190194819490860012048600021174845
:1056600081604FF6FF71C1600021016181610320FB
:1056700002900020039001200490002005900F204C
:1056800006900220079001200890002009900F202A
:105690000A9002A90948FEF7F9FC08B1FDF7AAFA39
:1056A00000200090019069460448FEF74DFB08B1C8
:1056B000FDF7A0FA0BB000BD0008004088020020F2
:1056C00010B50B480B4908604FF4E13048600021E9
:1056D00008488160C16001610C2141610021816144
:1056E000C161FFF705FA08B1FDF784FA10BD0000AB
:1056F00000380140D002002010B50B480B4908606B
:105700004FF416504860002108488160C160016173
:105710000C21416100218161C161FFF7E9F908B104
:10572000FDF768FA10BD0000004400401803002097
:1057300000BFFEE710B50446002C0FDA012211036A
:105740000F48FDF77FFD00224FF400510C48FDF794
:1057500079FD60420B49096848630FE0002C0DDBBE
:1057600000224FF480510648FDF76CFD01225103E1
:105770000348FDF767FD03480068446310BD00005F
:10578000000C0140F801002010B50446002C0FDA8F
:1057900000224FF480410F48FDF754FD0122D10350
:1057A0000C48FDF74FFD60420B49096888630FE024
:1057B000002C0DDB012291030648FDF743FD00227A
:1057C0004FF400410348FDF73DFD03480068846342
:1057D00010BD0000000C0140F801002010B50021B0
:1057E0000348FEF71DFF04210148FEF719FF10BD15
:1057F000F801002070B5FDF701FA04460DE000F055
:10580000F8FC08210220FFF721FB30B11A4800F014
:1058100066FC1A4800F063FC11E0204602F066F9CD
:1058200005460022164B01F0FBFEE8D3204602F0AD
:105830005DF905460022134B02F02CF8DFD300BFC0
:1058400008210020FFF702FBA0B10B4800F047FC45
:105850000A4800F044FC07E000F0CBFC064800F0EA
:105860003EFC064800F03BFC08210120FFF7EEFA61
:105870000028F1D070BD0000DC00002018010020DD
:1058800000004EC000004E4010B5012291020448B5
:10589000FDF7D8FC0122D1020148FDF7D3FC10BD71
:1058A000000C014010B54FF400610548FDF7C2FC43
:1058B000012800D100E000200446204610BD000071
:1058C000000C014010B5012000F072F8012000F03A
:1058D0005FF8FFF7E7FF0446002000F059F8204684
:1058E00010BD70B50025012000F062F800240DE025
:1058F000012000F04DF8FFF7D5FF10B180202041C6
:105900000543002000F044F8601CC4B2082CEFDB13
:10591000284670BD10B50446204600F049F8012025
:1059200000F036F8002000F033F810BD70B50546E1
:10593000002411E080212141294009B1012100E02A
:105940000021084600F034F8012000F021F8002082
:1059500000F01EF8601CC4B2082CEBDB70BD10B563
:10596000012000F025F8012000F012F8002000F0DE
:105970001FF8002000F00CF810BD10B5002000F05A
:1059800017F8012000F004F8012000F011F810BD14
:1059900010B504460CB1012000E0002002464FF48F
:1059A00080610248FDF74EFC10BD0000000C014074
:1059B00010B504460CB1012000E0002002464FF46F
:1059C00000610248FDF73EFC10BD0000000C0140E4
:1059D00000BFFEE700200CE0002106E00022064B9D
:1059E00003EBC0135A544A1CD1B28029F6DB421C87
:1059F000D0B20828F0DB7047080400202DE9F043FE
:105A000004460D4616461F46284638E0224631E039
:105A1000002A2DDB7F2A2BDC002829DB3F2827DC0E
:105A20004FEAE07C00EB5C7C4FEAEC0CDFF858803E
:105A300008EBCC1C1CF802C003464FEAE07800EBF0
:105A400058784FEAE808A0EBC8094FF0010808FAB7
:105A500009F82CEA080C01464FEAE07800EB587888
:105A60004FEAE808DFF8209009EBC81808F802C0F0
:105A7000511C0AB2A1199142CADC411C08B2E919B1
:105A80008142C3DCBDE8F0830804002000B585B086
:105A90000020019002900390049000BF1548806997
:105AA00040F00800134988610846806900F008004A
:105AB000009000BF00BF88150190112002900120C6
:105AC00003900320049001A90B48FDF723FA4FF43B
:105AD0000070019001A90848FDF71CFA012211028B
