:020000040800F2
:10000000C8B60024E1020008498C00086184000899
:10001000B98A0008910D000809BC00080000000022
:100020000000000000000000000000001192000825
:100030001115000800000000718E000849920008A8
:10004000FB020008FB020008FB020008FB0200089C
:10005000FB020008FB020008FB020008FB0200088C
:10006000FB020008FB020008FB020008491200081E
:100070005912000869120008791200088912000854
:10008000FB020008FB020008FB020008C91500087B
:1000900049160008FB020008FB020008FB020008EA
:1000A000FB020008FB020008FB020008FB0200083C
:1000B000E1930008FB020008FB020008FB020008B5
:1000C000FB020008FB020008FB020008FB0200081C
:1000D00019910008FB020008219D0008FB0200089E
:1000E000FB020008FB02000800000000FB02000801
:1000F000FB020008FB020008FB020008FB020008EC
:10010000FB020008FB020008FB020008FB020008DB
:10011000FB02000849950008FB020008FB020008EA
:10012000FB020008FB020008FB020008FB020008BB
:10013000FB020008FB020008FB020008FB020008AB
:1001400000000000000000000000000000000000AF
:10015000FB020008FB020008FB020008FB0200088B
:10016000FB020008FB020008FB020008FB0200087B
:10017000FB020008518C0008FB0200080000000090
:10018000FB020008FB020008FB020008FB0200085B
:10019000FB020008FB020008FB020008FB0200084B
:1001A000FB020008FB020008FB0200080000000040
:1001B000FB020008FB020008FB020008FB0200082B
:1001C000FB020008FB020008000000000000000025
:1001D0000000000000000000FB020008000000001A
:1001E000000000000000000000000000000000000F
:1001F0000000000000000000FB020008FB020008F5
:10020000FB020008FB02000800000000FB020008DF
:10021000FB020008FB020008FB020008FB020008CA
:10022000FB02000800000000FB02000800000000C4
:10023000FB020008FB02000800000000FB020008AF
:10024000FB020008FB020008FB020008FB0200089A
:10025000FB020008FB020008FB020008FB0200088A
:10026000FB020008FB020008FB020008FB0200087A
:10027000FB020008FB020008FB020008000000006F
:10028000FB020008FB020008FB020008FB0200085A
:1002900000000000FB020008FB0200080000000054
:1002A00000000000FB020008FB020008FB0200083F
:1002B000FB020008FB020008FB020008C916000848
:1002C000FB020008FB020008FB020008DFF80CD06C
:1002D00000F07AF800480047A1BC0008C8B6002426
:1002E0000648804706480047FEE7FEE7FEE7FEE7D0
:1002F000FEE7FEE7FEE7FEE7FEE7FEE731930008D4
:10030000CD0200082DE9F05F0546002092469B468D
:1003100088460646814640241BE02846414647461B
:10032000224600F041F853465A46C01A914110D374
:1003300011461846224600F028F82D1A67EB0108EE
:100340004F4622460120002100F01FF817EB00095C
:100350004E41201EA4F10104DFDC484631462A4606
:100360004346BDE8F09FD2B201E000F8012B491EE0
:10037000FBD270470022F6E710B513460A46044642
:100380001946FFF7F0FF204610BD202A04DB203A73
:1003900000FA02F1002070479140C2F1200320FAD8
:1003A00003F3194390407047202A04DB203A21FAD6
:1003B00002F00021704721FA02F3D040C2F120027E
:1003C0009140084319467047064C074D06E0E06827
:1003D00040F0010394E8070098471034AC42F6D38C
:1003E000FFF778FFB8D10008D8D1000870B58C1895
:1003F00010F8015B15F0070301D110F8013B2A1139
:1004000006D110F8012B03E010F8016B01F8016B25
:100410005B1EF9D12B0705D40023521E0DD401F821
:10042000013BFAE710F8013BCB1A921C03E013F8EA
:10043000015B01F8015B521EF9D5A142D8D300201F
:1004400070BD0000000000002DE9F04F81B02DEDDF
:100450000A8B86B040F6246040F63804C2F20040B1
:1004600042F6FC3842F69C494FF0000A4FF0010B6F
:10047000C2F200449FED5B8A00F5F07500F514763A
:1004800000F52677C2F20048C2F2004900F12801C7
:10049000059100F17001049100F1E001039100F574
:1004A0009471029100F5CC71019100BF40F2DD50D2
:1004B000F0EE480A82454FF0000038BF012094ED6D
:1004C000090A00210BEA000B05980AF1010A08F05D
:1004D000C7FBF0EE400A94ED0A0A0121049808F0E7
:1004E000BFFBF0EE480AB0EE409A94ED190A0021E5
:1004F000039808F0B5FBF0EE400A94ED1A0A0121CA
:10050000029808F0ADFBF0EE480AB0EE40AA94ED78
:10051000290A0021019808F0A3FBF0EE400A94EDAF
:100520002A0A0121284608F09BFBF0EE480AB0EEAB
:1005300040BA94ED390A0021304608F091FBF0EE04
:10054000400A94ED3A0A0121384608F089FBB0EEE2
:1005500040CAB0EE480AF0EE480AB0EE481AF0EE93
:10056000481AB0EE492AA188012240460BF0C8FB88
:10057000B0EE480AF0EE480AB0EE481AF0EE481A1B
:10058000B0EE4A2AB4F84410012248460BF0B8FBFA
:10059000B0EE480AF0EE480AB0EE481AF0EE481AFB
:1005A000B0EE4B2AB4F88410012248460BF0A8FBA9
:1005B000B0EE480AF0EE480AB0EE481AF0EE481ADB
:1005C000B0EE4C2AB4F8C410012240460BF098FB60
:1005D000BBF1000F7FF46AAF06B0BDEC0A8B01B02F
:1005E000BDE8F08F0000000008F06AFA42F6FC3423
:1005F0000121C2F200440022012320464FF00009ED
:100600004FF0010800F088FF42F69C450221C2F23B
:10061000004500220123284600F07EFF032100222E
:100620000123284600F078FF042100220123204600
:1006300000F072FF4AF61064C2F20044C4E9009967
:10064000C4E902990CF00CF943F2CC5541F20417BD
:1006500040F66C26C2F20045C2F200479FED1C8AAC
:10066000C2F200469FED1B9A26E000BF08F028FA70
:10067000B7F90600B7F90020B7F9041000EE100A28
:1006800002EE102A01EE101A3068B8EEC00AB8EE79
:10069000C11AB8EEC22A80EE080A81EE091A80ED6E
:1006A000000A82EE090A80ED011A80ED020A00F0CC
:1006B0009FFB05200BF09CFB28780028D6D1FFF784
:1006C000C3FEC4E90099C4E9029985F80080CDE72A
:1006D00000001543000016432DE9F04381B02DEDD5
:1006E000048B82B090ED000A42F2C054B5EE400A8D
:1006F0000546F1EE10FA8846C2F200440DD195EDA0
:10070000011AB5EE401AF1EE10FA06D195ED021A73
:10071000B5EE401AF1EE10FA4FD095ED011A95EDB5
:10072000022A9FED848A9FED849AA2EE480AA2EEE7
:10073000491AB7EEC00AB7EEC11A0CF0FDFA95EDF2
:10074000001A95ED013A95ED022AA2EE481AA2EEA2
:10075000093A84ED000BB7EEC12AB7EEC31AB0EE2A
:10076000420B0CF0E9FA95ED001A95ED013A95ED82
:10077000022AA2EE081AA2EE093A84ED020BB7EEA5
:10078000C12AB7EEC31AB0EE420B0CF0D5FA95EDC4
:10079000001A95ED013A95ED022AA2EE081AA2EE92
:1007A000493A84ED040BB7EEC12AB7EEC31AB0EE96
:1007B000420B0CF0C1FA84ED060B4AF600669FED81
:1007C0005F8A94EC080BB7EEC00BC2F20046B7EE9E
:1007D000C11B3046B7EEC22B371DB7EEC33B06F147
:1007E000080486ED000AB0EE480A86ED011A06F10B
:1007F0000C0986ED022A86ED033A00F0A1F9B0EE6D
:10080000480A384600F09CF9B0EE480A204600F04D
:1008100097F9B0EE480A484600F092F940F63800E1
:100820009FED478AC2F20040B0EE480A406A01904C
:1008300001A800F085F99DED010A96ED001AB6EECB
:10084000C00A30EE411A9FED3F0AB0EEC12A38EEE1
:10085000423AB4EE402A9FED3C2AF1EE10FA33FE04
:10086000011AB0EEC11AB4EE421AF1EE10FA0EDD22
:10087000311F042091ED011A0A1D31EE001A0138D2
:1008800081ED011A1146F5D14FF0FF3001E04FF034
:10089000013040F620319FED2A8AC2F20041B0EECD
:1008A000480A0860304600F04BF9B0EE480A384676
:1008B00000F046F9B0EE480A204600F041F9B0EEEB
:1008C000480A484600F03CF995ED000AB5EE400AAA
:1008D000F1EE10FA1DD195ED010AB5EE400AF1EEE8
:1008E00010FA16D195ED020AB5EE400AF1EE10FAB3
:1008F0000FD14AF61060A8F10401C2F200400422B0
:10090000043800BF013A50F8043F41F8043FF9D1E0
:100910000AE0301FA8F10401042200BF013A50F898
:10092000043F41F8043FF9D102B0BDEC048B01B0A3
:10093000BDE8F0833D0A973EAE47A13EC3F5C840EF
:10094000560EC940560E4940560EC93F00000000E1
:1009500070B52DED068B90ED000A90ED011AB7EE03
:10096000C00A0546B7EEC11A0C4620EE000B01EE98
:10097000010BB1EEC01BB4EE411BF1EE10FA80F199
:10098000B480B7EEC10B4AF628609FED671AC2F239
:100990000040B4EE410A80ED000AF1EE10FA02DAEE
:1009A0000020C5E9000095ED000A9FED618A95EDF4
:1009B000021A95ED012AA1EE080A9FED5C9AA1EEBC
:1009C000092AB7EEC00AB7EEC22A20EE001B02EEDB
:1009D000021BB1EEC10BB4EE400BF1EE10FA80F148
:1009E000898095ED001A9FED53AA95ED022A95EDA9
:1009F000013AA2EE0A1A4AF62066A2EE093AC2F2BB
:100A000000469FED479BB7EEC11AB7EEC32A21EE11
:100A1000011B02EE021B20EE092BB1EEC10BBDEE55
:100A2000C22BB4EE400B12EE100AF1EE10FA308039
:100A300065D695ED001A95ED013A95ED022AA2EEE4
:100A40000A1A9FED3DAAA2EE0A3AB7EEC11AB7EE16
:100A5000C32A21EE011B02EE021B20EE092BB1EE90
:100A6000C10BBDEEC22BB4EE400B12EE100AF1EE3C
:100A700010FA708048D695ED001A95ED013A95ED83
:100A8000022AA2EE081AA2EE0A3AB7EEC11AB7EE8F
:100A9000C32A21EE011B02EE021B20EE092BB1EE50
:100AA000C10BBDEEC22BB4EE400B12EE100AF1EEFC
:100AB00010FAB0802DD620EE090B40F62031C2F29C
:100AC0000041BDEEC00B10EE100AF080002000BF08
:100AD0000A5636F810305A43524224F8102001309A
:100AE0000428F5D1BDEC068B70BD0CF009FAB0EE10
:100AF000401B46E7B0EE410B0CF002FA71E7B0EE96
:100B0000410B0CF0FDF994E7B0EE410B0CF0F8F955
:100B1000B1E7B0EE410B0CF0F3F9CCE700BF00BF3A
:100B200000000020191E9E40CDCCCC3DAE47A1BE9A
:100B30003D0A97BE3D0A973EAE47A13E0000000029
:100B4000B6EE002A90ED001A20EE423A20EE022A7C
:100B5000B4EE431AF1EE10FA05DBB4EE421AF1EEF0
:100B600010FA00DC7047B4EE431AF1EE10FA04DA22
:100B700031EE000A80ED000A7047B4EE421AF1EE41
:100B800010FAD8BF704731EE400A80ED000A704776
:100B90002DE9F04F43F29C400121C2F2004040F2A7
:100BA0000F436F2740F23F0BC1663221D0F800C0DF
:100BB000A0F85C109F2540F23F4EDCF8081040F290
:100BC0009F4641F04001CCF80810DCF8001040F2DC
:100BD000704A41F01001CCF80010D0F8802040F2AB
:100BE0006F41C4F20203C4F20207D2F80080C4F2DB
:100BF000020BC4F20205C4F20201C4F2020EC4F2F6
:100C00000206C4F2020A09E01068D0F8009029F048
:100C10000104046010680468E40752D098450BDCB6
:100C2000B84517DCD84526DC1020C4F20200804508
:100C3000EAD028203EE000BF884515DCF04521DCE5
:100C400040F21040C4F202008045DDD040F228405E
:100C500030E000BFA8451EDC7020C4F202008045D1
:100C6000D2D0882026E000BFB0451BDCD045CBD0D9
:100C700040F288401EE04020C4F202008045C3D00C
:100C8000582017E040F24040C4F202008045BBD03B
:100C900040F258400EE0A020C4F202008045B3D0DC
:100CA000B82007E040F2B840C4F202008045ABD063
:100CB00040F2A040C4F202008045404608BF1068E0
:100CC000A3E70CF12402826040F200029845C2F2D0
:100CD0000042C26002F1190202614FF01902426043
:100CE000026842F4802202600ADCB84515DCD8456F
:100CF00023DC1021C4F20201884542D028213BE0C8
:100D0000884513DCF0451FDC40F21041C4F20201BB
:100D1000884536D040F228412EE0A8451DDC7021E0
:100D2000C4F2020188452CD0882125E0B0451BDCA7
:100D3000D04526D040F288411EE04021C4F2020195
:100D400088451ED0582117E040F24041C4F202010C
:100D5000884516D040F258410EE0A021C4F20201AD
:100D600088450ED0B82107E040F2A041C4F202014C
:100D7000884506D040F2B841C4F20201884518BF48
:100D80004046016841F001010160BDE8F08F0000BC
:100D9000FEE7000000000000002070470000000097
:100DA000002070470000000010B542F2C86441F610
:100DB000C051C2F20044C2F200410022204609F0B4
:100DC0008FF941F2C0512046C2F2004109F078F992
:100DD000002010BD0000000080B508880AF004FE65
:100DE000002080BD000000000020704700000000CF
:100DF0002DE9F0412DED088B84B040F66C2042F2D5
:100E0000E854C2F20040C2F2004401AD00688168BB
:100E10000391016801914068029028462146FFF73E
:100E20005BFC42F2E0562846C2F200463146FFF72C
:100E30008FFDB6F90000B6F90420B6F90210B6F934
:100E4000063000EE100A40F64436C2F2004640F684
:100E50007027C2F2004740F62465F8EEC00A00EEA3
:100E6000101AB7F91210C2F200452068C6ED050A43
:100E7000B8EEC00A286086ED330A00EE102A6068DA
:100E8000C5F8B800A068C5F87001B8EEC00AE068FF
:100E900086ED610A00EE103AC5F8280206F17000EE
:100EA000B8EEC00A86ED8F0A00EE101A0121B8EEE6
:100EB000C00A07F0D5FEB7F93E00BDEEC01AD6ED68
:100EC000330A012100EE100A11EE100AB8EEC00A32
:100ED000F88106F5947007F0C3FEB7F96A00BDEE1D
:100EE000C01AD6ED610A012100EE100A11EE100AB7
:100EF000B8EEC00A788706F5F07007F0B1FEB7F9D2
:100F00009600BDEEC01AD6ED8F0A012100EE100A40
:100F100011EE100AB8EEC00AA7F8660006F52670B2
:100F200007F09EFEBDEEC00A40F63806C2F200464B
:100F3000D5ED000A002110EE100A96ED090AA7F877
:100F4000920005F1280007F08BFEF0EE400A96EDC6
:100F50000A0A05F17000012107F082FE43F2D05821
:100F6000D5ED2E0AC2F2004805F1E000002188ED1F
:100F7000000A96ED190A07F073FEF0EE400A96EDAE
:100F80001A0A05F59470012107F06AFE43F2D4575E
:100F9000D5ED5C0AC2F2004705F5CC70002187ED63
:100FA000000A96ED290A07F05BFEF0EE400A96ED86
:100FB0002A0A05F5F070012107F052FE43F2D854D9
:100FC000D5ED8A0AC2F2004405F51470002184EDC3
:100FD000000A96ED390A07F043FEF0EE400A96ED5E
:100FE0003A0A05F52670012107F03AFE43F2DC507B
:100FF0009FED2BBAC2F20040B0EE408A94ED00AAF9
:1010000042F6FC3480ED000AB0EE4B0AF0EE4B0ADB
:10101000B0EE4B1AF0EE4B1AB188C2F2004498EDD4
:10102000002A0122204697ED009A0AF069FE42F656
:101030009C45B0EE4B0AF0EE4B0AB0EE4B1AF0EEC8
:101040004B1AB0EE492AB6F84410C2F2004501220C
:1010500028460AF055FEB0EE4B0AF0EE4B0AB0EE11
:101060004B1AF0EE4B1AB0EE4A2AB6F88410012261
:1010700028460AF045FEB0EE4B0AF0EE4B0AB0EE01
:101080004B1AF0EE4B1AB0EE482AB6F8C410012203
:1010900020460AF035FE04B0BDEC088BBDE8F081B7
:1010A0000000000000000000B2F5002F40F0C180F9
:1010B0008A7902770A8812BA120C82824A8812BA96
:1010C000120C42828A880178022912BA4FEA12422F
:1010D00002822AD0012915D0002918BF7047017B50
:1010E000012905D0818AC18200218161012101731A
:1010F000B0F91410B0F91620914229DA8B1A03F5D1
:10110000005329E0017B012905D0818AC182002199
:10111000816101210173B0F91410B0F916209142D8
:101120001FDA8B1A03F500531FE0017B012905D05C
:10113000818AC1820021816101210173B0F91410FB
:10114000B0F91620914215DA8B1A03F5005315E019
:1011500019DD8B1AA3F5005300EE103AB8EEC00A61
:1011600013E02BDD8B1AA3F5005300EE103AB8EE16
:10117000C00A25E03BDD8B1AA3F5005300EE103AC0
:10118000B8EEC00A35E09FED2B0A8A1AB0EEC02AED
:1011900001EE102AC182B8EEC11AB0EEC13AB4EE27
:1011A000432AF1EE10FA04DD9FED250A21EE000A34
:1011B00037E09FED231A20EE010A32E09FED1D0A71
:1011C0008A1AB0EEC02A01EE102AC182B8EEC11A06
:1011D000B0EEC13AB4EE432AF1EE10FA04DD9FED11
:1011E000170A81EE000A1CE09FED141A17E09FED2C
:1011F000110A8A1AB0EEC02A01EE102AC182B8EE96
:10120000C11AB0EEC13AB4EE432AF1EE10FA04DD91
:101210009FED090A81EE000A03E09FED071A80EEB8
:10122000010A90ED061A9FED072AA0EE021A80ED42
:10123000061A70470000000000009048000018489F
:10124000000000390000B44380B542F6A410C2F299
:10125000004001F011F880BD80B542F61C20C2F2BA
:10126000004001F009F880BD80B542F69420C2F23A
:10127000004001F001F880BD80B542F60C30C2F2AA
:10128000004000F0F9FF80BD80B542F68430C2F224
:10129000004000F0F1FF80BD40F20F420168C4F24F
:1012A0000202914210DC6F22C4F20202914220DC61
:1012B0003F22C4F20202914236DC1022C4F2020242
:1012C000914254D028224EE040F26F42C4F2020212
:1012D00091421ADC40F23F42C4F2020291422ADCFF
:1012E00040F21042C4F20202914240D040F2284241
:1012F00039E09F22C4F20202914225DC7022C4F23E
:101300000202914233D088222DE040F29F42C4F283
:10131000020291421FDC40F27042C4F2020291428A
:1013200025D040F288421EE04022C4F202029142DF
:101330001DD0582217E040F24042C4F2020291420E
:1013400015D040F258420EE0A022C4F202029142AF
:101350000DD0B82207E040F2B842C4F20202914236
:1013600005D040F2A042C4F2020291421AD1D0F854
:1013700000C06FF00F024AF6AB2352FA8CF2CAF6A5
:10138000AA23A2FB033109A35F2AC1F302115B5C0C
:1013900040F2FF312CEA0101C36588BF0431816549
:1013A00008467047016821F0FF01F8E700061016B3
:1013B0000006101600000000B2F5002F18BF70479D
:1013C00080B50A789FED2F1AB3EE044ABBEE0E5A91
:1013D00002F00F0282810A781209C281B1F801205D
:1013E000120412BA0261CB7891F804C000EE102A00
:1013F0001B0143EA1C1EC0F814E091F804C0B8EECB
:10140000C00A4A7902EE10EA0CF00F0320EE010A3E
:101410009FED1D1A42EA0322B8EEC22A03EE102AFB
:10142000826180EE010A9FED1A1A22EE011AB8EECF
:10143000C33A23EE042A9FED174A81EE041A9FED6A
:10144000133A30EE030A82EE042ABAEE044A80ED23
:10145000090A31EE050A80ED0A0A32EE040A80ED2F
:101460000B0A8A7900EE102AB8EE400A80ED0E0AC7
:10147000C97900EE101AB8EE400A80ED0F0ABDE8F7
:1014800080407047C3F5484100FF7F47C3F5C8C09F
:101490000000704200F07F454EF6FC51CEF2000194
:1014A0000A6842F080720A6041F200010022CEF226
:1014B00000014A600B6843F001030B6044F24021D5
:1014C000C0F20F01484340F63031C2F200410860DB
:1014D00044F6D351C1F26201A0FB01134DF68361C2
:1014E000C4F21B31A0FB010140F63430C2F20040CF
:1014F0009B090360880C40F63831C2F20041086055
:1015000040F63C30C2F2004002607047000000002C
:10151000704700000000000010B582B011441C4666
:101520004FF0FF33CDF803300093FC2289B28DF8E1
:1015300007206A4608230AF06BFB20460AF058FC95
:10154000012002B010BD0000EFF3108072B600BFA2
:10155000FEE700000000000010B58AB00024022061
:1015600004900120CDE9050442F6FC3002A9C2F244
:1015700000400794CDE9024402F056F808B1FFF7A5
:10158000E3FF42F6FC300221C2F2004002220023B7
:10159000009402F08DF808B1FFF7D6FF42F6FC3058
:1015A0000121C2F20040002201F0CAFF08B1FFF79A
:1015B000CBFF42F6FC30C2F2004002F095FE08B1CB
:1015C000FFF7C2FF0AB010BD80B542F6FC30C2F290
:1015D000004002F05DF980BD10B58AB00120039093
:1015E000022002A9CDE9040042F69C400024C2F288
:1015F00000400294CDE9064402F016F808B1FFF766
:10160000A3FF42F69C400221C2F2004002220023C6
:10161000009402F04DF808B1FFF796FF42F69C40A7
:101620001021C2F20040002201F08AFF08B1FFF74A
:101630008BFF42F69C40C2F2004002F055FE08B11A
:10164000FFF782FF0AB010BD80B542F69C40C2F29F
:10165000004002F01DF980BD10B58AB000240220C0
:10166000CDE90300012002A9CDE9050442F63C5072
:101670000294C2F20040079401F0D6FF08B1FFF7D0
:1016800063FF42F63C500221C2F2004002220023D6
:10169000009402F00DF808B1FFF756FF42F63C50F7
:1016A0001021C2F20040002201F04AFF08B1FFF70A
:1016B0004BFF42F63C50C2F2004002F015FE08B16A
:1016C000FFF742FF0AB010BD80B542F63C50C2F2AF
:1016D000004002F0DDF880BDF0B5D1F804C0D1F8CB
:1016E00010E0BCF1000FD1F808C006D00C684EEA3B
:1016F0000C05254345F0804C04E00D684CEA0E04CF
:1017000044EA854C856ED0F88470D1E907466B4376
:101710008D6944EA0660D1F814E00543CC6807EB14
:10172000830045EA0E0647F823C046EA04034360F7
:10173000CB68B3F5803F38BFF0BD4DF28C1C08304C
:1017400001320023C0F6000CD71857F8017CC750AF
:10175000CF8904331CF80770BB42F5D3F0BD0000FD
:1017600000220A75C27D520704D4C27D120703D538
:10177000032200E001220A750A7D002A18BF704783
:1017800002780F2A45D1027E002A42D1427883781E
:1017900063F30A220A808278C378D20863F34A127C
:1017A0004A8090F803C0037942799B0043EA9C1376
:1017B00062F38A238B8042798379520863F3CA12D9
:1017C000CA808279C379120963F30A120A8190F8F8
:1017D00007C0037A427A5B0043EADC1362F34A23D0
:1017E0004B81427A837A920863F38A128A81827AE1
:1017F000C37ADB0043EA5212CA81027B437B52095F
:1018000063F30A220A82427B807BD20860F34A1289
:101810004A8208884A88A0F580600880A2F5806026
:101820008A884880C888A2F580628A80A0F5806096
:101830000A89C8804889A2F580620A81A0F5806083
:1018400048817047000000002DE9F041044602F095
:101850006BFE04B3054694F8350002281ED140F211
:101860000F472068C4F2020740F26F48B842C4F242
:10187000020817DC6F21C4F20201884223DC3F21F9
:10188000C4F20201884239DC1021C4F2020188420C
:1018900058D0282151E00120BDE8F081802060650A
:1018A0000120ABE240451ADC40F23F41C4F20201A4
:1018B00088422ADC40F21041C4F20201884241D041
:1018C00040F2284139E09F21C4F20201884225DC20
:1018D0007021C4F20201884234D088212DE040F208
:1018E0009F41C4F2020188421FDC40F27041C4F201
:1018F0000201884226D040F288411EE04021C4F215
:10190000020188421ED0582117E040F24041C4F243
:101910000201884216D040F258410EE0A021C4F2E4
:10192000020188420ED0B82107E040F2B841C4F26B
:101930000201884206D040F2A041C4F2020188426E
:1019400040F0EA812668316821F01E02314641F8F4
:10195000142B6FF080020B68404502EA03020A6014
:1019600019DC9F21C4F20201884231DC5721C4F204
:101970000201884256DC1021C4F20201884200F0C4
:1019800091802821C4F20201884200F08B8040211E
:10199000C4F2020184E045F22F41C5F602018842FB
:1019A0002BDC40F2B741C4F20201884248DC40F22D
:1019B0007041C4F20201884274D040F28841C4F2FE
:1019C000020188426ED040F2A041C4F2020167E0F9
:1019D00040F22741C4F20201884240DCA021C4F257
:1019E000020188425ED0B821C4F20201884259D077
:1019F00040F21041C4F2020152E045F26B41C5F6DB
:101A0000020188423CDC45F23041C5F602018842C1
:101A100048D045F24441C5F60201884242D045F221
:101A200058413BE05821C4F2020188423AD070216B
:101A3000C4F20201884235D08821C4F202012FE0AD
:101A400040F2B841C4F2020188422BD045F208416D
:101A5000C5F60201884225D045F21C411EE040F245
:101A60002841C4F2020188421CD040F24041C4F235
:101A70000201884216D040F25841C4F202010FE040
:101A800045F26C41C5F6020188420BD045F2944103
:101A9000C5F60201884205D045F28041C5F6020133
:101AA000884269D1216EB8420A6822F480720A60C5
:101AB00010DC6F21C4F2020188421CDC3F21C4F219
:101AC0000201884232DC1021C4F20201884252D065
:101AD00028214AE040451ADC40F23F41C4F20201AD
:101AE00088422ADC40F21041C4F20201884242D00E
:101AF00040F2284139E09F21C4F20201884225DCEE
:101B00007021C4F20201884235D088212DE040F2D4
:101B10009F41C4F2020188421FDC40F27041C4F2CE
:101B20000201884227D040F288411EE04021C4F2E1
:101B3000020188421FD0582117E040F24041C4F210
:101B40000201884217D040F258410EE0A021C4F2B1
:101B5000020188420FD0B82107E040F2B841C4F238
:101B60000201884207D040F2A041C4F2020188423B
:101B700008BF206800E02068016821F001010160D1
:101B80003068C0070BD002F0CFFC401B0628F7D30B
:101B900020206065032084F8350001202EE12068B4
:101BA000B84210DC6F21C4F2020188421CDC3F21E4
:101BB000C4F20201884232DC1021C4F202018842E0
:101BC00050D028214AE040451ADC40F23F41C4F29F
:101BD000020188422ADC40F21041C4F2020188422C
:101BE00040D040F2284139E09F21C4F202018842EE
:101BF00025DC7021C4F20201884233D088212DE017
:101C000040F29F41C4F2020188421FDC40F2704161
:101C1000C4F20201884225D040F288411EE04021F2
:101C2000C4F2020188421DD0582117E040F2404121
:101C3000C4F20201884215D040F258410EE0A021C2
:101C4000C4F2020188420DD0B82107E040F2B84149
:101C5000C4F20201884205D040F2A041C4F2020160
:101C600088425ED1D4E9161202F01F023F2303FA24
:101C700002F28A6040455EDC9F21C4F20201884284
:101C800014DC5721C4F20201884226DC1021C4F280
:101C90000201884200F0A2802821C4F20201884299
:101CA00000F09C804021C4F2020195E040F22741FF
:101CB000C4F2020188421EDCA021C4F20201884263
:101CC00000F08C80B821C4F20201884200F08680C6
:101CD00040F21041C4F202017EE05821C4F2020138
:101CE00088427BD07021C4F20201884276D08821DC
:101CF000C4F2020170E040F22841C4F202018842BD
:101D00006CD040F24041C4F20201884266D040F2F9
:101D10005841C4F202015FE021686FF00E020E46E6
:101D200019E6D4E9161202F01F02012303FA02F2A7
:101D30004A604045A0DD45F22F41C5F602018842C8
:101D400016DC40F2B741C4F20201884225DC40F2C1
:101D50007041C4F20201884240D040F28841C4F28E
:101D6000020188423AD040F2A041C4F2020133E0BD
:101D700045F26B41C5F6020188421DDC45F2304157
:101D8000C5F60201884229D045F24441C5F6020158
:101D9000884223D045F258411CE040F2B841C4F2D9
:101DA000020188421AD045F20841C5F60201884274
:101DB00014D045F21C410DE045F26C41C5F602011C
:101DC00088420BD045F29441C5F60201884205D005
:101DD00045F28041C5F6020188420BD1616EA26EC8
:101DE000E06E4A6030B1016821F480710160D4E98D
:101DF0001C014160012084F835000020002184F896
:101E00003410BDE8F081000080B5D8B190F83510ED
:101E1000022919D140F20F430168C4F2020399422A
:101E200016DC6F22C4F20202914226DC3F22C4F289
:101E3000020291423CDC1022C4F2020291425AD0CA
:101E4000282254E0012080BD80214165012080BD11
:101E500040F26F42C4F2020291421ADC40F23F4269
:101E6000C4F2020291422ADC40F21042C4F20202A1
:101E7000914240D040F2284239E09F22C4F202024F
:101E8000914225DC7022C4F20202914233D08822B2
:101E90002DE040F29F42C4F2020291421FDC40F268
:101EA0007042C4F20202914225D040F288421EE004
:101EB0004022C4F2020291421DD0582217E040F2A3
:101EC0004042C4F20202914215D040F258420EE064
:101ED000A022C4F2020291420DD0B82207E040F2E3
:101EE000B842C4F20202914205D040F2A042C4F2CC
:101EF0000202914270D199424FF0040280F83520DD
:101F000010DC6F22C4F20202914220DC3F22C4F2B4
:101F10000202914236DC1022C4F20202914254D0F5
:101F200028224EE040F26F42C4F2020291421ADCD3
:101F300040F23F42C4F2020291422ADC40F21042D7
:101F4000C4F20202914240D040F2284239E09F227E
:101F5000C4F20202914225DC7022C4F202029142D4
:101F600033D088222DE040F29F42C4F20202914217
:101F70001FDC40F27042C4F20202914225D040F2CE
:101F800088421EE04022C4F2020291421DD0582233
:101F900017E040F24042C4F20202914215D040F2F2
:101FA00058420EE0A022C4F2020291420DD0B822A3
:101FB00007E040F2B842C4F20202914205D040F27A
:101FC000A042C4F20202914221D10068016821F0CE
:101FD00001010160002080BDD0F800C09C45DCF804
:101FE000002022F00E02CCF8002016DC6F22C4F292
:101FF0000202944526DC3F22C4F2020294453CDCF6
:102000001022C4F2020294455DD0282254E00868F0
:1020100020F001000860002080BD40F26F42C4F251
:10202000020294451ADC40F23F42C4F20202944597
:102030002ADC40F21042C4F20202944543D040F23E
:10204000284239E09F22C4F20202944525DC702226
:10205000C4F20202944536D088222DE040F29F421D
:10206000C4F2020294451FDC40F27042C4F2020244
:10207000944528D040F288421EE04022C4F2020279
:10208000944520D0582217E040F24042C4F20202A8
:10209000944518D040F258420EE0A022C4F2020249
:1020A000944510D0B82207E040F2B842C4F20202D0
:1020B000944508D040F2A042C4F20202944508BF01
:1020C000D0F800C001E0D0F800C040F26F42DCF868
:1020D0000030C4F20202914223F00102CCF8002049
:1020E00019DC9F22C4F20202914231DC5722C4F271
:1020F0000202914256DC1022C4F20202914200F028
:1021000091802822C4F20202914200F08B8040228A
:10211000C4F2020284E045F22F42C5F60202914267
:102120002BDC40F2B742C4F20202914248DC40F29A
:102130007042C4F20202914274D040F28842C4F26A
:10214000020291426ED040F2A042C4F2020267E065
:1021500040F22742C4F20202914240DCA022C4F2C3
:10216000020291425ED0B822C4F20202914259D0DA
:1021700040F21042C4F2020252E045F26B42C5F650
:10218000020291423CDC45F23042C5F60202914225
:1021900048D045F24442C5F60202914242D045F28F
:1021A00058423BE05822C4F2020291423AD07022D7
:1021B000C4F20202914235D08822C4F202022FE01A
:1021C00040F2B842C4F2020291422BD045F20842DA
:1021D000C5F60202914225D045F21C421EE040F2B3
:1021E0002842C4F2020291421CD040F24042C4F2A2
:1021F0000202914216D040F25842C4F202020FE0AD
:1022000045F26C42C5F6020291420BD045F294426F
:10221000C5F60202914205D045F28042C5F602029F
:1022200091421AD1D0E9181CD0E916E30A6822F4C9
:1022300080720A6003F01F01012202FA01F1CEF858
:102240000410816ECCF80410C16E31B10A6822F41A
:1022500080720A60D0E91C124A60012180F83510B2
:10226000026D002180F834100AB190470021084621
:1022700080BD0000000000002DE9F04381B0002186
:10228000009140F694110446C2F2004140F26F49B9
:10229000A56DC4F20209086848F2B511C1F64E31C5
:1022A0002768A0FB01084F452E682A6815DC9F208F
:1022B000C4F2020087422BDC5720C4F2020087429E
:1022C0004FDC1020C4F20200874278D02820C4F2EC
:1022D0000200874273D040206CE045F22F40C5F6E3
:1022E0000200874227DC40F2B740C4F20200874276
:1022F00043DC40F27040C4F2020087425FD040F2FB
:102300008840C4F20200874259D040F2A04051E018
:1023100040F22740C4F2020087423DDCA020C4F214
:10232000020087424BD0B820C4F20200874246D058
:1023300040F210403EE045F26B40C5F60200874295
:1023400074DC45F23040C5F60200874200F081801F
:1023500045F24440C5F6020087427AD045F2584023
:1023600072E05820C4F20200874228D07020C4F2E4
:102370000200874223D088201CE040F2B840C4F21B
:10238000020087421BD045F20840C5F60200874292
:102390005FD045F21C4057E040F22840C4F20200F2
:1023A00087420CD040F24040C4F20200874206D07F
:1023B00040F25840C4F20200874240F00A85E06DC6
:1023C00000F01F01082000FA01F2324200F01381F0
:1023D00040F20F40C4F20200874213DC6F20C4F2C7
:1023E0000200874200F390803F20C4F2020087423F
:1023F00000F3CE801020C4F20200874200F0EC808F
:102400002820E4E04F4500F38B8040F23F40C4F2C7
:102410000200874200F3C38040F21040C4F2020081
:10242000874200F0D98040F22840D0E045F26C406D
:10243000C5F6020087420CD045F28040C5F6020086
:10244000874206D045F29440C5F60200874240F02C
:10245000C084E06D236800F01F01042000FA01F63B
:102460001B68164218BF13F004002BD1022000FA9B
:1024700001F6164218BF13F0020066D122FA01F0ED
:10248000000740F1A68413F0080000F0A28440F297
:102490000F40C4F20200874200F321836F20C4F290
:1024A0000200874200F398833F20C4F20200874273
:1024B00000F3DD831020C4F20200874200F0FB83AA
:1024C0002820F3E318046E6039D4980600F13184B3
:1024D00040F20F40C4F20200874200F36A836F208B
:1024E000C4F20200874200F392833F20C4F202004C
:1024F000874200F3F5831020C4F20200874200F007
:102500001284282000F00BBC9F20C4F202008742F6
:102510004EDC7020C4F2020087425DD0882056E075
:1025200040F29F40C4F20200874248DC40F2704013
:10253000C4F2020087424FD040F2884047E0D803FF
:1025400000F1F783A16C00F041BC18046E6000F14B
:10255000C182980600F1398440F20F40C4F20200B3
:10256000874200F370836F20C4F20200874200F3B9
:10257000E2833F20C4F20200874200F3F783102079
:10258000C4F20200874200F01484282000F00DBC41
:102590004020C4F2020087421ED0582017E040F2CB
:1025A0004040C4F20200874216D040F258400EE08C
:1025B000A020C4F2020087420ED0B82007E040F20B
:1025C000B840C4F20200874206D040F2A040C4F2F4
:1025D0000200874240F09782206804230068184276
:1025E00009D02068036823F004030360AA60606DCB
:1025F00040F001006065012000FA01F2324270D023
:1026000040F20F40C4F20200874210DC6F20C4F297
:10261000020087421CDC3F20C4F20200874232DC09
:102620001020C4F20200874251D028204AE04F45D2
:102630001ADC40F23F40C4F2020087422ADC40F23A
:102640001040C4F20200874241D040F2284039E0F5
:102650009F20C4F20200874225DC7020C4F20200F1
:10266000874234D088202DE040F29F40C4F202001F
:1026700087421FDC40F27040C4F20200874226D03D
:1026800040F288401EE04020C4F2020087421ED083
:10269000582017E040F24040C4F20200874216D0B2
:1026A00040F258400EE0A020C4F2020087420ED053
:1026B000B82007E040F2B840C4F20200874206D0DA
:1026C00040F2A040C4F20200874240F01F8220681E
:1026D000406900F0800020B1AA60606D40F0020007
:1026E0006065042000FA01F2324270D040F20F40DF
:1026F000C4F20200874210DC6F20C4F2020087425D
:102700001CDC3F20C4F20200874232DC1020C4F2FD
:102710000200874251D028204AE04F451ADC40F29F
:102720003F40C4F2020087422ADC40F21040C4F26B
:102730000200874241D040F2284039E09F20C4F295
:102740000200874225DC7020C4F20200874234D0A8
:1027500088202DE040F29F40C4F2020087421FDC37
:1027600040F27040C4F20200874226D040F2884016
:102770001EE04020C4F2020087421ED0582017E01D
:1027800040F24040C4F20200874216D040F2584066
:102790000EE0A020C4F2020087420ED0B82007E06D
:1027A00040F2B840C4F20200874206D040F2A04096
:1027B000C4F20200874240F0AF812068006800F058
:1027C000020020B1AA60606D40F004006065102036
:1027D00000FA01F131427ED040F20F40C4F2020013
:1027E000874210DC6F20C4F2020087421CDC3F20CD
:1027F000C4F20200874232DC1020C4F20200874299
:1028000051D028204AE04F451ADC40F23F40C4F244
:10281000020087422ADC40F21040C4F202008742E4
:1028200041D040F2284039E09F20C4F202008742A4
:1028300025DC7020C4F20200874234D088202DE0CD
:1028400040F29F40C4F2020087421FDC40F2704019
:10285000C4F20200874226D040F288401EE04020A9
:10286000C4F2020087421ED0582017E040F24040D8
:10287000C4F20200874216D040F258400EE0A02079
:10288000C4F2020087420ED0B82007E040F2B84000
:10289000C4F20200874206D040F2A040C4F2020017
:1028A000874240F03F81276808223868104212D0E2
:1028B000A960206801684903016806D4C90506D4E7
:1028C000016821F00801016001E008034FD4216C88
:1028D00009B120468847E06D202100F01F008140AB
:1028E000314200F0A88040F20F432268C4F2020394
:1028F0009A4210DC6F23C4F202039A421CDC3F238D
:10290000C4F202039A4236DC1023C4F202039A4254
:1029100055D028234EE04A451ADC40F23F43C4F22A
:1029200002039A422EDC40F21043C4F202039A42A0
:1029300045D040F228433DE09F23C4F202039A426F
:1029400029DC7023C4F202039A4238D0882331E094
:1029500040F29F43C4F202039A4223DC40F27043E8
:10296000C4F202039A422AD040F2884322E0A16CCA
:102970000029AED1AFE74023C4F202039A421ED031
:10298000582317E040F24043C4F202039A4216D0A3
:1029900040F258430EE0A023C4F202039A420ED044
:1029A000B82307E040F2B843C4F202039A4206D0CB
:1029B00040F2A043C4F202039A4240F0B58022687C
:1029C000102312681A4236D0A96094F83520216885
:1029D000042A0A6817D122F016020A604A6922F016
:1029E00080024A61226C0AB9A26C1AB10A6822F00C
:1029F00008020A603F2101FA00F0A860012084F873
:102A00003500216D65E1500308680CD4C0050ED473
:102A1000086820F010000860012084F835000020CC
:102A200084F8340003E0000301D4616C00E0E16B42
:102A300009B120468847606D002800F0CA81606DAA
:102A4000C00700F0B480042084F8350040F20F4144
:102A50002068C4F20201884210DC6F21C4F2020136
:102A600088421CDC3F21C4F2020188425EDC102156
:102A7000C4F2020188427ED0282176E048451ADC63
:102A800040F23F41C4F20201884256DC40F210415C
:102A9000C4F2020188426ED040F2284165E09F21D5
:102AA000C4F20201884251DC7021C4F20201884262
:102AB00061D0882159E040F29F41C4F2020188426E
:102AC0004BDC40F27041C4F20201884253D040F224
:102AD00088414AE0D80300F17881616C76E14F4586
:102AE00000F3868040F23F40C4F20200874200F3C8
:102AF000C58040F21040C4F20200874200F0DB8043
:102B000040F22840D2E00823384667E538680020C4
:102B100000287FF4E1ADE4E53868002000287FF468
:102B200051AE54E60422C0E602234AE74021C4F233
:102B3000020188421FD0582117E040F24041C4F200
:102B40000201884217D040F258410EE0A021C4F2A1
:102B5000020188420FD0B82107E040F2B841C4F228
:102B60000201884207D040F2A041C4F2020188422B
:102B700008BF206800E020684FEA9821026822F030
:102B800001020260009801300090884203D820685A
:102B90000068C007F6D120680068C0074FF0030046
:102BA00008BF012084F83500002084F83400E16C6F
:102BB0000CE14F4538DC40F23F40C4F2020087424E
:102BC00000F3958040F21040C4F20200874200F00A
:102BD000AA8040F22840A2E09F20C4F2020087426F
:102BE00055DC7020C4F20200874264D088205DE08A
:102BF00040F29F40C4F2020087424FDC40F2704036
:102C0000C4F20200874256D040F288404EE09F2036
:102C1000C4F20200874273DC7020C4F202008742D3
:102C200000F0818088207AE040F29F40C4F20200E8
:102C300087426CDC40F27040C4F20200874272D0DE
:102C400040F288406BE04F4500F3818040F23F4006
:102C5000C4F20200874200F3908040F21040C4F2B8
:102C60000200874200F0A58040F228409DE040200D
:102C7000C4F2020087421ED0582017E040F24040C4
:102C8000C4F20200874216D040F258400EE0A02065
:102C9000C4F2020087420ED0B82007E040F2B840EC
:102CA000C4F20200874206D040F2A040C4F2020003
:102CB000874240F0918027686FF01C02386810400E
:102CC0003860012000FA01F16960606584F8350020
:102CD000E16C00294FF0000084F8340077D178E0EF
:102CE0004020C4F2020087421DD0582017E040F275
:102CF0004040C4F20200874215D040F258400EE036
:102D0000A020C4F2020087420DD0B82007E040F2B4
:102D1000B840C4F20200874205D040F2A040C4F29D
:102D2000020087425BD127686FF0080138680840CD
:102D30003860216C4AE09F20C4F20200874225DC03
:102D40007020C4F20200874233D088202DE040F288
:102D50009F40C4F2020087421FDC40F27040C4F280
:102D60000200874225D040F288401EE04020C4F295
:102D7000020087421DD0582017E040F24040C4F2C4
:102D80000200874215D040F258400EE0A020C4F265
:102D9000020087420DD0B82007E040F2B840C4F2EC
:102DA0000200874205D040F2A040C4F202008742F0
:102DB00018D127686FF01401386808403860012086
:102DC00084F83500002084F83400E16B09B1204616
:102DD000884701B0BDE8F0836FF00E026EE76FF038
:102DE0000401A3E76FF00A01E6E70000000000001D
:102DF0002DE9F04381B0044601F096FB002C00F071
:102E0000738140F26F4805462068C4F202084045CD
:102E100015DC9F21C4F2020188422BDC5721C4F249
:102E20000201884251DC1021C4F2020188427AD0AA
:102E30002821C4F20201884275D040216EE045F29B
:102E40002F41C5F60201884227DC40F2B741C4F2A7
:102E50000201884245DC40F27041C4F2020188421E
:102E600061D040F28841C4F2020188425BD040F256
:102E7000A04153E040F22741C4F2020188423FDC06
:102E8000A021C4F2020188424DD0B821C4F202014F
:102E9000884248D040F2104140E045F26B41C5F60F
:102EA0000201884200F3908045F23041C5F60201EC
:102EB000884200F09C8045F24441C5F602018842F8
:102EC00000F0958045F258418CE05821C4F202018F
:102ED000884228D07021C4F20201884223D0882180
:102EE0001CE040F2B841C4F2020188421BD045F216
:102EF0000841C5F60201884279D045F21C4171E0D3
:102F000040F22841C4F2020188420CD040F2404114
:102F1000C4F20201884206D040F25841C4F20201D4
:102F2000884240F03F8140F20F420221C4F2020287
:102F300084F8351090424FF0000184F8341012DC10
:102F40006F21C4F20201884220DC3F21C4F2020159
:102F5000884200F391801021C4F20201884200F0FF
:102F6000B0802821A7E040451EDC40F23F41C4F27A
:102F70000201884200F3878040F21041C4F202014E
:102F8000884200F09E8040F2284194E09F21C4F2E4
:102F90000201884200F380807021C4F2020188425D
:102FA00000F08F80882186E040F29F41C4F2020148
:102FB000884278DC40F27041C4F20201884200F09D
:102FC000808040F2884176E045F26C41C5F602010E
:102FD00088420CD045F28041C5F60201884206D0F5
:102FE00045F29441C5F60201884240F0DB8004F1CD
:102FF000080E022084F8350000209EE80640A1F16A
:10300000800384F83400B3FA83F320685B09402915
:10301000D4E90576D4E9079C05684FEA83336FF35A
:10302000101508BF102345EAD2014AF6F8321943B9
:10303000CAF2FD7241EADE014CF6CD4341EAD70106
:10304000024441EAD601CCF6CC4341EAD901A2FBC5
:10305000032341EA1C1101606FF0030000EA9300B2
:10306000E0652046FEF718F9E16D012201F01F012D
:1030700002FA01F14160C7E04021C4F20201884236
:103080001FD0582117E040F24041C4F202018842AB
:1030900017D040F258410EE0A021C4F2020188424C
:1030A0000FD0B82107E040F2B841C4F202018842D3
:1030B00007D040F2A041C4F20201884208BF206854
:1030C00000E02068016821F00101016020680168CA
:1030D000C9070DD001F028FA401B0628F6D320209E
:1030E0006065032084F83500012001B0BDE8F0835D
:1030F00048F23F0204F108070168CFF61062114060
:1031000066698CCF1143D4F818C01943E369394379
:10311000276A0E43616A46EA0C06042943EA06035D
:1031200043EA070303D1D4E90B763B433343656895
:10313000A5F12906292E00F247800127DFE806F0D5
:103140001515151515154444444444444444444459
:103150004444444444441515151544444444151549
:1031600044444444444415151515002F18BF43F436
:10317000801304290360426922F0070241EA020138
:1031800037D1D4E90A5341EA050193B3BCF5005F96
:103190000AD0BCF1000F13D1022D1DD0012D09D092
:1031A000D5B11CE040209BE7032D18D8DFE805F0DF
:1031B0000A140A02A3F1C072B2FA82F252090FE0B5
:1031C000032D08D201220BE025F00302743AB2FA73
:1031D00082F25709C9E702D1C3F3006200E000227E
:1031E0003AB140206065012084F8350001B0BDE8A7
:1031F000F08341612046FEF74FF8E16D3F2201F078
:103200001F0102FA01F181602068404519DC9F210D
:10321000C4F20201884231DC5721C4F20201884223
:1032200056DC1021C4F20201884200F0928028216D
:10323000C4F20201884200F08C804021C4F20201F5
:1032400084E045F22F41C5F6020188422BDC40F2B2
:10325000B741C4F20201884248DC40F27041C4F236
:103260000201884275D040F28841C4F202018842CE
:103270006FD040F2A041C4F2020167E040F2274162
:10328000C4F20201884240DCA021C4F2020188425B
:103290005FD0B821C4F2020188425AD040F21041F6
:1032A000C4F2020152E045F26B41C5F602018842C8
:1032B0003CDC45F23041C5F60201884249D045F276
:1032C0004441C5F60201884243D045F258413BE0F3
:1032D0005821C4F2020188423BD07021C4F202019D
:1032E000884236D08821C4F202012FE040F2B84172
:1032F000C4F2020188422CD045F20841C5F6020111
:10330000884226D045F21C411EE040F22841C4F21A
:10331000020188421DD040F24041C4F202018842BD
:1033200017D040F25841C4F202010FE045F26C415F
:10333000C5F6020188420CD045F29441C5F602015F
:10334000884206D045F28041C5F60201884240F02D
:10335000CF8045F2574C45F6FC01C5F6020CC5F688
:10336000020160450EDC45F22F43C5F60203984288
:1033700017DC45F20843C5F60203984226D045F211
:103380001C431FE045F27F43C5F60203984211DC5F
:1033900045F25843C5F60203984217D045F26C43F4
:1033A00010E045F23043C5F6020398420ED045F2D4
:1033B000444307E045F29443C5F60203984205D022
:1033C00045F28043C5F60203984250D123784CF66B
:1033D000CD47CCF6CC47A1F1FC05083BA1F17C061A
:1033E000A3FB07373B0905EB83022266A26803F0C3
:1033F0001F030127802A666607FA03F2A26601D13D
:10340000002262606268A66ED4E91837D5B2013A2C
:10341000072A1D607E6016D82679731E072B61D897
:10342000604501F1440213DC45F22F47C5F602075F
:10343000B8423BDC45F20847C5F60207B8424AD01D
:1034400045F21C4743E000206067C4E91B004FE0E1
:1034500045F27F47C5F60207B84230DC45F25847CF
:10346000C5F60207B84236D045F26C472FE0237804
:103470004AF6AB27CAF6AA270825103BA3FB073755
:1034800040F20F43C4F202033E09984203F1AA023C
:10349000334688BF05EB171340F600059042C4F28F
:1034A000020528BF334605F180069CE745F2304708
:1034B000C5F60207B8420ED045F2444707E045F290
:1034C0008047C5F60207B84205D045F29447C5F6D5
:1034D0000207B84214D101EB8600E06601202267A2
:1034E0009840606704F16C02002307CA03604A60D9
:1034F00000206065012184F8351001B0BDE8F0833B
:1035000040F60000C4F2020000F1FC0100F5A072D8
:10351000E1E7000000000000B0B5044601F004F847
:1035200040F624310546C2F20041621C097818BFFA
:103530000C4400BF00F0F8FF401BA042FAD3B0BD1E
:1035400090F89830013B012B0BD80068836D0B423B
:103550000CD0836D0B408B420CD1C36D43F0020342
:1035600009E000F19C010120022221E0C36D43F03B
:10357000010300E00323C3658B0504D5D0F8E030D8
:103580001343C0F8E0304B0504D5D0F8E4301A43BB
:10359000C0F8E4204FF6FF72436DC3F6CF720A40C5
:1035A0001A4342658A0F4AF614010020C4F2000152
:1035B0000B681A430A607047B0B5044690F898004B
:1035C00002281AD12068D0F8C03013F07C5F19D0DF
:1035D000D0F8C4309B021AD4D0F8C400C0F304451C
:1035E00020462B46FEF778F820680121A940C0F854
:1035F000D0100020C4F89410B0BDD4F89C0040F066
:10360000080008E0D4F89C0040F0200003E0D4F863
:103610009C0040F40070C4F89C000120B0BD000084
:10362000704700000000000080B590F89820013A33
:10363000012A0AD80A68002ACA680ED00B69072A2C
:1036400043EA427E16D18B6919E0D0F89C1041F014
:103650000201C0F89C10012080BD072A18D10A6918
:10366000D1F81CC012048B6942EA0C221A4342F0C2
:10367000605217E0D1F808C04B6943EA8C73006FC1
:10368000496800EBC10240F831E00020536080BD82
:103690008B68D1F810C09B0743EAC2624B6942EACB
:1036A0000C421A434968C06E40F82120002080BDBA
:1036B00090F898C0BCF1010F0DD19200006842EA69
:1036C0000111DDF800C041EA430141EA0C01C0F8F4
:1036D000801000207047D0F89C1041F00401C0F821
:1036E0009C1001207047000070470000000000009F
:1036F000704700000000000070B590F89850022D4F
:103700001CD140291FD10568D5F8A04014F4FE0F44
:1037100000F08F80D5F8A440640600F09680D5F8BC
:10372000A440E40148BFD5F8A040D5F8A45000F16A
:103730007404C5F3052E456CF44629E0D0F89C10BE
:1037400041F0080185E0412918D10568D5F8B0405D
:1037500014F4FE0F6DD0D5F8B440640675D0D5F8DA
:10376000B440E40148BFD5F8B040D5F8B45000F1FA
:103770007804C5F3052EC56CF44609E0056D8D424D
:1037800057D900F17C04D0F854E04FF0000C0D46FE
:1037900005FB0EF6246854F8265015F08045556058
:1037A00054F826E02EF0604508BFCEF38A4504EBBE
:1037B000860E156054F8265005F00055956054F8B3
:1037C000264004F000441461BEF80440D461DEF8E1
:1037D000044004F47024D460DEF80450B4F5803F53
:1037E00005F480155561DEF8045005F40015956167
:1037F0009EF8075005F07F051562DEF804504FEA89
:10380000D57454620ED30EF108054DF28C1E0024BF
:10381000C0F6000E2E5D1E550134D6891EF80660D6
:10382000B442F7D3402909D10068C0F8A8C00020ED
:1038300070BDD0F89C1041F020010AE041290CD164
:103840000068C0F8B8C0002070BDD0F89C1041F4EA
:103850008071C0F89C10012070BD1F2907D8006836
:10386000012202FA01F1C0F89810002070BD006832
:1038700001F01F01012202FA01F1C0F89C100020A2
:1038800070BD000000000000704700000000000054
:103890002DE9F04F89B004464AF61000C4F200004A
:1038A00001684AF61400C4F200000268206802EAC7
:1038B0000108056DD0F85490036D0293436D019398
:1038C000036D0493436D0393036D0893436D079356
:1038D000036D0693436D0593D0F854A0D0F850B013
:1038E0005FEACA530ED51BF480710BD04FF4807180
:1038F00001654AF610010020C4F20001086020466C
:10390000FFF7C2FF05EA09064AF610095FEA4A50C6
:10391000C4F200094FEA887711D51BF480600ED0FD
:103920002068D0F8DC10D0F8E42011404FF4806219
:1039300002650020C9F80000204600F009FDDDE91D
:10394000011000EA010506F4704657B12068002115
:10395000016508F00300C9F8000020463946FFF76A
:103960005FFEDDE9031000EA010705F00F0546B12F
:103970002068314606650020C9F80000204600F0A6
:10398000EFFC07F0F00645B12068294605650020E8
:10399000C9F80000204600F0DFFB46B12068314640
:1039A00006650020C9F80000204600F041FC5FEAEF
:1039B0000A500CD51BF4006009D020684FF4006158
:1039C00001650020C9F80000204600F0CDFC5FEA48
:1039D0008A5011D51BF400700ED02068D0F8D81092
:1039E000D0F8E02011404FF4007202650020C9F8C1
:1039F0000000204600F0B0FC5FEA0A300CD51BF452
:103A0000002009D020684FF4002101650020C9F88A
:103A10000000204600F09CFB5FEACA300CD51BF486
:103A2000803009D020684FF4803101650020C9F84A
:103A30000000204600F088FC5FEA4A30DDE905100E
:103A400000EA01050CD51BF4802009D020684FF452
:103A5000802101650020C9F80000204600F070FCBC
:103A60005FEA8A30DDE9071000EA010005F06071C5
:103A70000FD51BF400320CD022684FF400331365CD
:103A80000022C9F80020D4F89C2042F08002C4F83B
:103A90009C2000F0715539B1206801650020C9F8FB
:103AA00000002046FFF724FE4DB120680565002088
:103AB000C9F80000D4F89C002843C4F89C00206892
:103AC000A9F50161884208D0D4F89C0010B12046C5
:103AD000FFF70AFE09B0BDE8F08F606881688907CA
:103AE000F2D0016A426A036A476A114003EA070298
:103AF00002F03005D0F82080D0F82490D0F820B023
:103B0000D0F824A0026A089211F00F01426A0792CD
:103B1000466A026A069203D00162204600F004FC65
:103B200008EA09072DB1606829460562204600F0C1
:103B300003FC70060BEA0A0607F4C0750ED506985A
:103B400010F040000AD060684023C16BC26B090CC2
:103B500002F03F020362204600F0EAFBDDE90710B5
:103B600000EA010706F4FC462DB1606829460562AB
:103B7000204600F0D5FB07F4F02036B161680E62F4
:103B8000D4F89C103143C4F89C1000289CD0616884
:103B90000862D4F89C100843C4F89C0094E7000025
:103BA0002DE9F04F85B0002840D04AF200080446C5
:103BB000C4F200080068404502D108F580706060DA
:103BC00094F8980028B9002084F89900204600F065
:103BD000CBF92068816921F01001816100F0A4FC1B
:103BE000054600BF20688169090705D500F09CFCE7
:103BF000401B0B28F6D310E0816941F0010181617F
:103C000000F092FC054600BF20688169C90711D108
:103C100000F08AFC401B0B28F6D30120D4F89C103E
:103C20000843C4F89C00032084F89800012005B0E4
:103C3000BDE8F08F816941F002018161217C8269D8
:103C400022F04002012918BF40328261617C826902
:103C500022F48042012908BF02F580428261A17CE2
:103C6000826922F48052012918BF02F580528261D4
:103C7000816921F44073D4E902120B4383618369A3
:103C800023F0A4038361036923F0100303619AB155
:103C9000012A0DD0022A09D08369032A43F0800348
:103CA0008361036943F01002026105D1202200E024
:103CB000042283691A438261D4E90572E369561EBE
:103CC0006FF0FF02256A02EB0323B1F5407F43EA60
:103CD0004663A5F1010646EA030640F20003CFF66B
:103CE000FF7303EB074746EA0701C16110D1D4E92E
:103CF0000B65D4E90917013F02EB06226FF00F06AE
:103D00003A4306EB05173A4303EB01411143C16007
:103D1000236E2BB1616ED0F8C0201143C0F8C010E3
:103D2000E16DCDE90313D9424DF2F801C0F600016F
:103D300009D0D0F8C820A36E22F0070251F8233032
:103D40001A43C0F8C820D4F840A0BAF1000F09D037
:103D5000D0F8BC20636C22F0070251F823301A43DC
:103D6000C0F8BC20A76C57B1D0F8BC20E36C22F09F
:103D7000700251F8233042EA0312C0F8BC20D4F894
:103D800050C0BCF1000F0AD0D0F8BC20636D22F403
:103D9000E06251F8231042EA0121C0F8BC1040450E
:103DA00004D161688A6822F003028A600021C4F8A5
:103DB0009410C4F89C10012184F898104FF6FC72FE
:103DC000D0F88410D4F83C9021EA0203656CD4E961
:103DD0000D120292019543EA8103C0F88430D0F8B5
:103DE000843023F47F0343EA0243C0F8843053183D
:103DF000D0F888606FF38F0646EA8306C0F88860C3
:103E0000D0F8886003EB490326F4FE0646EA09462B
:103E1000C0F88860D0F8A0606FF38F0646EA83068A
:103E2000C0F8A060D0F8A06005FB0A3326F4FE06B7
:103E300046EA0A46C0F8A060D0F8B0606FF38F067B
:103E400046EA8306C0F8B060D0F8B06026F4FE06FB
:103E500046EA0746C0F8B060E66CD0F8AC506FF3A5
:103E60008F0506FB07337E4345EA8305C0F8AC5057
:103E7000D4F8548008FB0C35D0F8F0306FF38F0382
:103E800008FB0CFC43EA8503C0F8F030D0F8F0E002
:103E9000A36D2EF47C1242EA0342C0F8F02005EB39
:103EA0004302D0F8C0506FF38F0545EA8202C0F894
:103EB000C020D0F8C020DDF80CB022F47C1242EA19
:103EC0000B42C0F8C020019AD0F8C05025F07C55B4
:103ED00002FB0AFE4AF20002C4F20002DDF810A062
:103EE00002EB8101029A01F5406145EA0A6501EBA6
:103EF0008207C0F8C05007EBC902A56E02EB8E0026
:103F0000626700EB86060BFB05F2276706EB8C0762
:103F1000C4E91E060AFB05F007EBC30303EB8202AC
:103F2000C4F884304DF2FC33E16602EB8000C4F249
:103F300000039842C4F88070C4F88820C4F8900048
:103F400001D920206AE6814209D2002041F8040B01
:103F5000D4F890209142F9D305B0BDE8F08F00204D
:103F600005B0BDE8F08F0000B0B5B6B0044602A8B9
:103F7000B8210025CDE93455CDE932553195FCF70E
:103F8000F9F94DF200412068C4F20001884250D096
:103F90004AF20041C4F20001884200F08D804AF2EA
:103FA0000001C4F20001884240F0CF80002003905D
:103FB0004FF4004002904FF080501D9002A801F095
:103FC0001BFC08B1FDF7C0FA41F21C1144F2E040BD
:103FD000C2F20041C5F602000A68002A02F101029D
:103FE0000A6008D1C16841F48071C160C16801F400
:103FF000807101910199016841F008010160006838
:1040000031A900F0080001900198032031900220AE
:1040100032900020CDE933000920359040F6004071
:10402000C5F6020000F0A4F9132006210022132493
:1040300086E04FF4004002904FF080501D9002A89F
:10404000039501F0D9FB08B1FDF77EFA41F21C118E
:1040500044F2E040C2F20041C5F602000A68002ABC
:1040600002F101020A6008D1C16841F48071C160A7
:10407000C16801F4807101910199016841F0080162
:104080000160006831A900F00800019001984FF428
:1040900040503190022032900020CDE933000520BD
:1040A000359040F60040C5F6020000F061F99F200F
:1040B000052100229F2443E0002003904FF400409C
:1040C00002904FF080501D9002A801F095FB08B1BE
:1040D000FDF73AFA41F21C1144F2E040C2F200410D
:1040E000C5F602000A68002A02F101020A6008D13E
:1040F000C16841F48071C160C16801F480710191AF
:104100000199016841F002010160006840F6004138
:1041100000F002000190C5F6020101986020319084
:10412000022032900020CDE9330009203590A1F51E
:10413000006031A900F01CF914200521002214248C
:1041400000F0B6FA204600F0A3FA36B0B0BD000089
:10415000704700000000000070B5C9073FD04DF265
:10416000004104460068C4F20001884226D04AF2A9
:104170000001C4F20001884231D142F208664021B8
:10418000C2F200463046FCF7F5F841F22015402116
:10419000C2F2004520462A463346FFF7ADFA2868AA
:1041A000B0F5007F1CDC112829D0142817D140F667
:1041B0003800EA68C2F20040C03025E042F288656B
:1041C0004021C2F200452846FCF7D4F841F27012B3
:1041D0004021C2F2004220462B46FFF78DFA70BD07
:1041E00040F20121884216D0B0F5017F18BF70BDA2
:1041F00040F67020EA68C2F20040843010E040F6D9
:104200003800EA68C2F2004042F20861C2F200419E
:10421000FDF7D2F870BD40F67020EA68C2F20040A7
:1042200042F20861C2F20041FCF73EFF70BD00009F
:1042300070B5C90607D54AF2004105460068C4F2C8
:104240000001884200D070BD42F248664021C2F2AF
:1042500000463046FCF78EF841F248144121C2F284
:104260000044284622463346FFF746FA206840F2CB
:10427000012188420ADC12281AD01328E3D140F623
:104280003800E268C2F20040803017E040F20221BC
:1042900088421AD040F20321884218BF70BD40F610
:1042A000702042F24861C2F20040E268583014E0E7
:1042B00040F63800E268C2F20040403042F2486105
:1042C000C2F20041FDF778F870BD40F6702042F26E
:1042D0004861C2F20040E2682C30C2F20041FCF7B3
:1042E000E3FE70BD0000000090F8981001290CD189
:1042F000022180F8981001688A6922F001028A611F
:104300000021C0F89C1008467047D0F89C1041F07E
:104310000401C0F89C10012070470000000000005C
:10432000704700000000000070470000000000001F
:10433000704700000000000070470000000000000F
:1043400070470000000000007047000000000000FF
:1043500070470000000000007047000000000000EF
:1043600070470000000000007047000000000000DF
:104370002DE9F04F82B042F200420A27C5F6020250
:104380000B68904208BF0927002B009700F0C080FF
:1043900000F1264240F2040A02F1FF72C5F6000A5B
:1043A0004FEAB227009A082F4FF0000438BF3A4670
:1043B00000260127009209E00B68043633FA07F261
:1043C00007F1010704F1020400F0A280A7F101083F
:1043D000012202FA08FB13EA0B09EDD0D1F804E040
:1043E0000EF00303A3F1010CBCF1010F12D803225C
:1043F000D0F808C0A240CD682CEA0202A5402A43AA
:104400008260CEF30015426822EA0B0205FA08F535
:104410002A434260032B1FD00325C268A540022B0C
:1044200022EA05028D6805FA04F542EA0502C26037
:1044300012D16FF0030206F01C0502EA58020F23A6
:10444000024403FA05FED2F820C00B692CEA0E0CD8
:10445000AB4043EA0C03136203230268A3404D6898
:104460009A4305F00303A34015F4403F42EA0302D8
:104470000260A1D044F2F44340F2084EC5F60203B4
:10448000C5F6000E0F251A6842F002021A601A687B
:1044900002F00202019228F00302019B06F00C03D5
:1044A00052F80EC09D402CEA050C009D05FA03F35E
:1044B00043EA0C0342F80E304FF0B04EDEF800C075
:1044C0004B684CEA0905DA0258BF2CEA09059A0242
:1044D000CEF80050DAF800C04CEA090558BF2CEAC3
:1044E00009059A03CAF80050DAF880C04CEA0905B9
:1044F00058BF2CEA0905DB03CAF88050DAF87C20A3
:1045000042EA090558BF22EA0905CAF87C5053E778
:1045100002B0BDE8F08F0000002A08BF09048161E5
:1045200070470000000000004AF6E850C2F2004068
:10453000006870470000000040F624304AF6E85159
:10454000C2F20040C2F2004100780A6810440860DC
:10455000704700000000000080B5032000F0D8F88C
:1045600001F0EAFF44F218414DF26413C5F602016E
:10457000C0F600030A68096801F00F01C2F30322C4
:10458000595C9A5C01F01F0102F01F02D04040F616
:104590009812C2F2004220FA01F1116040F6941123
:1045A000C2F2004108600F2000F00AF800281CBF8A
:1045B000012080BD00F054F8002080BD0000000004
:1045C000B0B58AB00F2840D804461C2000222146EE
:1045D000002500F06DF81C2000F05AF840F6283055
:1045E000C2F20040046044F2E840C5F602000168EF
:1045F00041F001010160006801A900F00100029092
:10460000029802A801F0E4FE079C002C18BF0124C8
:1046100001F032FF4DF68361A040C4F21B314FF030
:10462000FF32A0FB010143F27030C2F200404FF0B4
:104630008043036002EB9141C0E9011540F2E7318C
:10464000C0E9031502F010FE10B101200AB0B0BDA0
:1046500043F27030C2F2004002F03AFE0AB0B0BD40
:1046600080B582B044F2F4400022C5F60200016831
:1046700041F00201016000680F2100F0020001908A
:1046800001986FF0010000F013F802B080BD000047
:10469000002848BF704700F01F01012202FA01F113
:1046A0004EF200124009CEF2000242F8201070478C
:1046B00070B54EF60C5C4FF0FF36CEF2000C00F1F8
:1046C0006045DCF80030C3F3022E8EF00703042BA4
:1046D00028BF0423BEF1030406FA03F321EA030111
:1046E00000F00F0338BF0024043BB0F1FF3F6344E8
:1046F00006FA04F003F10C0301FA04F1C8BF05F552
:10470000644322EA000008430001187070BD0000F5
:104710004EF60C514FF6FF03CEF200010A681A4024
:1047200060F30A2242F0806040F0FD70086070473C
:1047300001680122C0F80025002280F8F42488696D
:1047400040F000608861486D40F08052002042F0E7
:1047500003024A6570470000704700000000000037
:10476000026800205162704770B5D0F800E0DEF8B2
:104770002400D9B1DEF82830B1F1010C00EB13436D
:104780000CD00EF5807100205FFA8CF451F8045FB4
:104790000130C6B2A64203EB1543F7D30EEB8C00F3
:1047A00043EA0241C0F80411002070BD40EA024013
:1047B000CEF82800002070BD80B5D0F8080505F0BF
:1047C00063FF80BD0000000080B501EBC10200EB7B
:1047D0008202D0F80805926C05F0C2FE80BD000090
:1047E00080B501EBC10200EB8202D0F80805D2F8D7
:1047F000882205F00DFF80BD80B5D0F8080505F0D2
:1048000047FF80BD0000000010B5044601F00F0016
:104810000A0600EBC00104EB810205D402F51F710A
:10482000002382F87D3204E002F13C01012382F88A
:104830003D3094F8BC240870012A01D1022010BD3B
:10484000012084F8BC04206806F012FD002084F8E2
:10485000BC0410BD00000000B0B5044601F00F001C
:104860006268904201D90120B0BD090609D400EB6D
:10487000C001002304EB810202F51F7182F87D3232
:1048800008E000EBC001012304EB810202F13C01CE
:1048900082F83D3094F8BC2400258D70012A087000
:1048A00001D10220B0BD012084F8BC04206806F0CC
:1048B00073FE284684F8BC54B0BD00000000000020
:1048C00001F00F0101EBC10100EB8100D0F8900273
:1048D0007047000000000000B0B5054601F00F0071
:1048E0000C0600EBC00105EB810C05D40CF51F7123
:1048F00000248CF87D4204E00CF13C0101248CF88A
:104900003D404C7808708A60002C0B7118BF4883BA
:10491000022B01D10020487195F8BC04012801D177
:104920000220B0BD012085F8BC04286806F0C0FB59
:10493000002085F8BC04B0BD80B501F00F0E0EEB71
:10494000CE0100EB810C0021CCE9A331C368CCF887
:1049500088228CF87D12012B8CF87CE20CF51F71FB
:1049600008BFCCF89822DAB2006806F05DFE00209D
:1049700080BD000000000000B0B5044601F00F0546
:104980004068854201D90120B0BD080609D401EB79
:10499000C100002204EB800000F51F7180F87D2229
:1049A00008E005EBC500012204EB800000F13C01AA
:1049B00080F83D2094F8BC2401208870012A0D70F5
:1049C00001D10220B0BD84F8BC04206806F00CFEC2
:1049D0002DB9217B206804F2C44206F0ADFD002011
:1049E00084F8BC04B0BD000080B501F00F0E0EEBE2
:1049F000CE0100EB810C614601F83CEF4FF0000E58
:104A0000C1F814E04FF0010E81F801E0D0F80CE09D
:104A1000CA60BEF1010F0B6108BFCCF858205FFAE5
:104A20008EF2006806F000FE002080BD000000004D
:104A30002DE9F04F89B005688246284606F078FFD8
:104A400010B109B0BDE8F08FDAF8000006F0A0FF61
:104A50000028F6D0D5F80808C0F30D20CAF8FC04E9
:104A6000DAF8000006F094FF800705D5DAF80000B8
:104A7000416901F00201416105F500600490DAF836
:104A8000000006F085FFC00606953DD5DAF8000067
:104A9000816921F0100181612C6A04F00F05C4F3D3
:104AA0004340062818D0022827D147F6F07014EAB0
:104AB000000622D005EBC50034090AEB80070698F2
:104AC0002246D7F8881206F067FFD7F8880200EB75
:104AD0001610C7F8880207E00AF2C44108220698B7
:104AE00006F05AFFC4F30A1405EBC5000AEB800078
:104AF000D0F890122144C0F89012DAF800008169D1
:104B000041F010018161069DDAF8000006F040FFD7
:104B10000003CDF820A040F10081DAF8000006F093
:104B200013FF002800F0F98006464FF430644FF080
:104B300000084FF0000B0AF2C440079009E000BFE4
:104B40000BF1010B760804F1200408F1240800F0B1
:104B5000E480F007F4D05FFA8BF9DAF800004946F8
:104B600006F00EFF8246C0076DD028190121816032
:104B7000089F38682118036C8A68FF68012F2BD1C1
:104B800017073CD497065BD412F0280F069D5AD124
:104B900043F20B07C4F65477BB4202D312F400422F
:104BA0004BD1089FB8F1000F07EB0802D2F89C32F6
:104BB00009696FF3DF41A3EB0101C2F8901240F0E5
:104BC000AA80D2F88C32002B00F0A080D2F88802A4
:104BD0000844C2F888029DE043F20B07C4F65477FC
:104BE000FF37BB4219D1100427D49006069D01D58A
:104BF0002020886008984946FFF7F2FD23E043F241
:104C00000B00069DC4F6547083421CD312F400407E
:104C100019D04FF40040886015E0B8F1000F07D1BB
:104C20000899D1F88C1219B90021079A06F084FC72
:104C300008984946FFF7D4FD04E04FF4004000E037
:104C400020208860069D5FEA0A7025D52819082172
:104C5000816043F20B010898C4F654714F1E00683E
:104C6000056C2044BD42816805D911F400411CBF88
:104C70004FF400418160089800F00AFCBD42069D97
:104C80000AD90898C068012806D108980121079A16
:104C9000006806F051FC00BF5FEACA6014D45FEA06
:104CA0008A7017D45FEA8A6002D5281920218160B2
:104CB0005FEA8A40DDF820A07FF542AF28194FF463
:104CC000005181603CE700BF2819102181605FEA34
:104CD0008A70E7D56869000604D50499486840F4ED
:104CE000806048600898404490F87F12012906D1FE
:104CF000002180F87F120898494600F0A9FA281987
:104D0000022181605FEA8A60CFD4D1E70121079A4E
:104D100006F012FC089F38468BE7DAF8000006F030
:104D200037FE400340F1E080DAF8000006F004FEB0
:104D3000002800F0D98006460698002700F510608C
:104D400003900AF2C440029005E000BF760807F124
:104D5000010700F0C980F007F8D0F9B2DAF80000D6
:104D6000079106F0F9FD0446C007039D0AD120070C
:104D700032D4E00636D460063AD4A0073ED42006EA
:104D8000E4D554E0049B07F00F004FF0010C05EB55
:104D900047120CFA00F0596B21EA00005863C2F880
:104DA00008C0DAF80C00012810D107EBC7000AEBA5
:104DB0008000D0E91112114481643FB9C06C28B958
:104DC000DAF800000121029A06F0B6FB5046079976
:104DD000FFF7FAFC2007CCD505EB471008218160CE
:104DE000E006C8D505EB4710102181606006C4D5E8
:104DF00005EB471040218160A007C0D506983946D1
:104E000006F05EFD07EBC7000AEB800010F83F1FBD
:104E1000012905D1002101705046079900F010FAD0
:104E200005EB47100221816020067FF58FAF07EB6D
:104E3000C7000AEB800BD94659F84C0FC84658F802
:104E4000041F8842FFF482AFDAF80020411A5BF8B1
:104E5000440F814288BF014602EB4710059203319F
:104E6000D0F8182992B2B2EB910F27D300F5106A4F
:104E70000BF10405D8F80000D9F8001081421DD9C3
:104E80000C1A0899DBF8000084420A7B88BF0446AC
:104E900029680092A3B20598079A06F095FE286843
:104EA00020442860D8F800002044C8F80000E01C26
:104EB000DAF8181089B2B1EB900FDBD2D9F8000004
:104EC000D8F800108842DDF820A03FF63FAF059AE1
:104ED00007F00F00012101FA00F0D2F8341821EA9E
:104EE0000000C2F8340831E7DAF8000006F050FD9F
:104EF000B0F1FF3F049C069D18DC606820F00100C3
:104F000060609AF8F404012807D100208AF8F404BC
:104F100000215046FFF720FC02E0504600F094FAD2
:104F2000DAF80000416901F000414161DAF800005F
:104F300006F02EFD00050BD5A068C00702D0504634
:104F400000F0D2FADAF80000416901F40061416131
:104F5000DAF8000006F01CFD000118D5DAF80000B0
:104F6000416901F0006141619AF8F41419B15046A9
:104F700000F0BAFA0BE001218AF8F414406D012127
:104F8000C0F38300CAF8F8045046FFF7E5FBDAF8EF
:104F9000000006F0FDFCC00454D56068102120F02C
:104FA00001006060DAF8000006F08AFCDAF804001C
:104FB000D8B105F510614FF67F3200BF8A60013825
:104FC0000B6823F400130B60C1F80822D1F80032FB
:104FD00023F40013C1F80032D1F8003243F000632B
:104FE000C1F8003201F12001E8D1E06940F0011080
:104FF000E061DAF8300040B1D4F8840040F00B00F2
:10500000C4F8840004F1440006E0606942F22B0118
:105010000843606104F1100001680AF2C44241F0E3
:105020000B010160206820F4FE6020609AF80C10EB
:10503000DAF8000006F080FADAF80000416901F4BD
:1050400080514161DAF8000006F0A2FC80041CD512
:10505000DAF8000006F070F8DAF8000006F058FC04
:10506000CAF81000DAF8004001F0DEF99AF81020D2
:105070000146204606F01CFD504600F0CDF9DAF856
:105080000000416901F400514161DAF8000006F0C6
:105090007FFC000708D5504600F0DEF9DAF8000082
:1050A000416901F008014161DAF8000006F070FC86
:1050B000000628D50699886920F080008861DAF812
:1050C000040002281FD30AF2A324012507E000BF31
:1050D0000135DAF80400854204F1240413D2207863
:1050E0000128F5D105F00F002A0600EBC0000AEBFD
:1050F000800000F13C0158BF00F51F71DAF8000094
:1051000006F092FBE4E7DAF8000006F041FCC0028A
:1051100031D5DAF80400022827D306980AF164058D
:1051200000F512640126012709E000BF0137DAF813
:105130000400874204F1200405F1240515D22068FB
:1051400029780129F2D1B0F1FF3FEFDC07F00F0021
:1051500005F8016C00EBC0000AEB800000F13C0197
:10516000DAF8000006F060FBE0E7DAF800004169D9
:1051700001F480114161DAF8000006F009FC8002B8
:1051800035D5DAF80400069D02282AD3013805F542
:1051900032610AF52972012306E000BF013801F1EE
:1051A000200102F124021CD00F681678012EF5D1DF
:1051B000B7F1FF3FF2DCDAF8FC6407F4803706F061
:1051C0000106B742EAD102F8013CAF6947F0800717
:1051D000AF616F693F06E1D40499486840F40070FC
:1051E0004860DAF80000416901F400114161DAF821
:1051F000000006F0CDFB400008D55046FFF7DCFA72
:10520000DAF80000416901F080414161DAF80000FC
:1052100006F0BEFB40077FF514ACDAF800004468E6
:10522000600702D55046FFF7E7FADAF80000416858
:105230002143416009B0BDE8F08F0000000000008C
:1052400080B5D0F8080505F087FA80BD00000000A1
:1052500080B5D0F8080505F093FA80BD0000000085
:105260002DE9F04F8BB0002800F0858004460568DA
:1052700090F8BD0428B9002084F8BC04204600F052
:1052800093F8032084F8BD04E86BC00501D4002026
:10529000E060206806F048F920680A9004F1040EE6
:1052A00004F11C0AD4E90C509EE80E589AE8C00795
:1052B000CDE9085003A88DE8005880E8C0070A9897
:1052C00005F04AFF002853D120680021002506F090
:1052D000A7FB616871B301200023002203EBC30325
:1052E00004EB8307D3B287F83C200132A7F856308D
:1052F000D3B287F83D00994287F840507D64BD6481
:10530000FD64EBD800200023002200BF03EBC303A1
:1053100004EB830787F87C220132D3B287F87D0241
:10532000994287F88002C7F88402C7F88802C7F854
:105330008C02EBD804F1140E04F1240A2268A06850
:105340000A90D4E903379EE840589AE80007D4E968
:105350000C50CDE9085002A8CDE9007680E800584D
:1053600005A880E8000710460A9A05F0E5FF30B16D
:10537000022084F8BD0401200BB0BDE8F08F0020AE
:1053800084F83800012084F8BD04606A012802D145
:105390002046FFF7CDF9206805F0BEFF00200BB0D6
:1053A000BDE8F08F0000000010B5B0B0044602A8C0
:1053B000B821FAF7DFFF00212068C4F20401884217
:1053C00001D030B010BD002003904FF48020029037
:1053D0004FF44010239002A800F00EFA08B1FCF739
:1053E000B3F800F0C1F844F2D8400022C5F602003C
:1053F000016841F0007101600068052100F0007053
:10540000019001984D20FFF753F94D20FFF740F927
:1054100030B010BD0000000010B50446006918B19E
:10542000022803D1012104E0002102E0FCF78CF8FE
:105430000121D4F8080505F02FFAD4F8080505F085
:10544000DBF910BD0000000080B5D0F8080505F0BC
:1054500007FA80BD0000000080B5D0F8080505F00F
:105460000BFA80BD0000000010B5044690F8BC04A3
:10547000012801D1022010BD012084F8BC0484F869
:105480003810206806F000FB002084F8BC0410BD32
:1054900080B5D0F8082500F2C441104605F014FA92
:1054A00080BD00000000000010B5044690F8BC0468
:1054B000012801D1022010BD2068012184F8BC140C
:1054C000C16BC90506D4A16A012903D1816B41F4DE
:1054D0008031816306F0ECF9206805F00DFF0020B3
:1054E00084F8BC0410BD000010B50446D0F80805CF
:1054F00005F03EFA2068D0F8001E41F00101C0F826
:10550000001E206A002808BF10BD4EF61050CEF2D3
:105510000000016841F00601016010BD00000000BC
:10552000B0B544F60C05C5F6020529684907296897
:1055300005D401F00701081A18BF0120B0BD21F001
:10554000070108432860FEF7EFFF044655F8080CF2
:10555000800407D4FEF7E8FF001BB0F57A7FF5D989
:105560000120B0BD0020B0BD44F60C00C5F602001D
:10557000016841F080710160704700000000000088
:1055800080B500F051FF44F220414DF26412C5F69F
:105590000201C0F600020968C1F30211515C01F07A
:1055A0001F01C84080BD000080B544F2384EC5F6EA
:1055B000020E5EF8103C5EF8101CC1F3053C5EF86C
:1055C0000C1CBCF1000FDEF8042014D0C1F3001154
:1055D000C2F3CC02514300EE101A03F0030102297A
:1055E000B8EE400A0CD071B95EF8381C89060DD4AB
:1055F0009FED341A18E000218160C0E9001180BDE0
:105600009FED2F1A10E09FED2D1A0DE05EF8381C6B
:1056100049F20002C0F2D032C1F3C10122FA01F115
:1056200001EE101AB8EE411ADEF800109FED263A8E
:105630006FF35F2102EE101ADEF80010C1F346216D
:10564000B8EE422A00EE032A00EE10CAB7EE003A86
:10565000B8EE400A81EE000A32EE031A02EE101A8A
:10566000B8EE422A20EE010A32EE031A80EE011A49
:10567000BCEEC11A80ED001ADEF80010C1F306413D
:1056800001EE101AB8EE411A31EE031A80EE011A3B
:10569000BCEEC11A80ED011ADEF80010C1F30661FC
:1056A00001EE101AB8EE411A31EE031A80EE010A2B
:1056B000BCEEC00A10EE101A816080BD0024744A4E
:1056C000001BB74B0024744C0000003900000000A0
:1056D00080B544F2404EC5F6020E5EF8183C5EF806
:1056E000181CC1F3055C5EF8141CBCF1000FDEF859
:1056F000042014D0C1F30021C2F3CC02514300EEC8
:10570000101A03F003010229B8EE400A0CD071B957
:105710005EF8401C89060DD49FED341A18E0002174
:105720008160C0E9001180BD9FED2F1A10E09FED50
:105730002D1A0DE05EF8401C49F20002C0F2D03292
:10574000C1F3C10122FA01F101EE101AB8EE411ABB
:10575000DEF800109FED263A6FF35F2102EE101A7B
:10576000DEF80010C1F34621B8EE422A00EE032A0B
:1057700000EE10CAB7EE003AB8EE400A81EE000A19
:1057800032EE031A02EE101AB8EE422A20EE010A97
:1057900032EE031A80EE011ABCEEC11A80ED001A37
:1057A000DEF80010C1F3064101EE101AB8EE411AFE
:1057B00031EE031A80EE011ABCEEC11A80ED011A17
:1057C000DEF80010C1F3066101EE101AB8EE411ABE
:1057D00031EE031A80EE010ABCEEC00A10EE101A78
:1057E000816080BD0024744A001BB74B0024744CB8
:1057F00000000039000000002DE9F04381B00446AC
:10580000C07844F22C490007C5F6020901D40025EE
:105810002EE0606E4FEA305003280DD80025DFE8F7
:1058200000F0020E1714D9F80000002540F40030F3
:10583000C9F8000055B913E001253DB910E004F1A5
:105840000800022103F048FB05464DB1A84611E0CF
:1058500004F12800022103F0CFFB0546002DF5D10D
:10586000D9F82400616E20F440100843C9F82400E0
:105870004FF000086078C00730D0A06D042807D82A
:10588000DFE800F00A131C030300FDB1A84625E081
:105890000125002DFAD119E0D9F8000040F40030BC
:1058A000C9F80000002DF1D110E004F1080000213A
:1058B00003F012FB0546002DE8D107E004F12800B3
:1058C000002103F099FB0546002DDFD1D9F8240013
:1058D000A16D20F007000843C9F824006078400754
:1058E00034D5D4F8A4004FEA7050052807D8DFE873
:1058F00000F00A131C030303FDB1A84626E00125AE
:10590000002DFAD119E0D9F8000040F40030C9F8B0
:105910000000002DF1D110E004F10800002103F097
:10592000DBFA0546002DE8D107E004F1280000214C
:1059300003F062FB0546002DDFD1D9F82C00D4F826
:10594000A41020F460000843C9F82C006078000718
:1059500034D5D4F8A8004FEA3060052807D8DFE82E
:1059600000F00A131C030303FDB1A84626E001253D
:10597000002DFAD119E0D9F8000040F40030C9F840
:105980000000002DF1D110E004F10800002103F027
:10599000A3FA0546002DE8D107E004F12800002114
:1059A00003F02AFB0546002DDFD1D9F82C00D4F8EE
:1059B000A81020F0E0600843C9F82C00E0788007C8
:1059C00028D5E06C4FEA3010032806D8DFE800F055
:1059D00002091202B5B1A8461CE00125002DFAD13A
:1059E00010E0D9F8000040F40030C9F80000002DA4
:1059F000F1D107E004F10800022103F06DFA054639
:105A0000002DE8D1D9F82000E16C20F030000843E7
:105A1000C9F820006078C00632D5E06D4FEA30301A
:105A2000042807D8DFE800F00A131C030300FDB1C7
:105A3000A84625E00125002DFAD119E0D9F800008B
:105A400040F40030C9F80000002DF1D110E004F15D
:105A50000800002103F040FA0546002DE8D107E0D8
:105A600004F12800002103F0C7FA0546002DDFD11C
:105A7000D9F82400E16D20F4E0400843C9F824007F
:105A80006078800626D5206E4FEA3040052807D87A
:105A9000DFE800F0030A100303039DB1A84619E0F4
:105AA0000125002DFAD10DE004F10800012103F0D9
:105AB00013FA04E004F12800012103F09DFA0546E1
:105AC000002DEBD1D9F82400216E20F4E02008430A
:105AD000C9F824006078400628D5D4F8AC004FEA15
